{"contracts/BookingManager.sol":{"BookingManager":{"abi":[{"inputs":[{"internalType":"address","name":"_propertyMarketplaceAddress","type":"address"},{"internalType":"address","name":"_trustedForwarder","type":"address"}],"stateMutability":"nonpayable","type":"constructor"},{"inputs":[{"internalType":"address","name":"owner","type":"address"}],"name":"OwnableInvalidOwner","type":"error"},{"inputs":[{"internalType":"address","name":"account","type":"address"}],"name":"OwnableUnauthorizedAccount","type":"error"},{"anonymous":false,"inputs":[{"indexed":false,"internalType":"uint256","name":"bookingId","type":"uint256"}],"name":"BookingCancelled","type":"event"},{"anonymous":false,"inputs":[{"indexed":false,"internalType":"uint256","name":"bookingId","type":"uint256"}],"name":"BookingCompleted","type":"event"},{"anonymous":false,"inputs":[{"indexed":false,"internalType":"uint256","name":"bookingId","type":"uint256"},{"indexed":false,"internalType":"string","name":"propertyId","type":"string"},{"indexed":false,"internalType":"address","name":"guest","type":"address"},{"indexed":false,"internalType":"uint256","name":"checkInDate","type":"uint256"},{"indexed":false,"internalType":"uint256","name":"amount","type":"uint256"}],"name":"BookingCreated","type":"event"},{"anonymous":false,"inputs":[{"indexed":true,"internalType":"uint256","name":"bookingId","type":"uint256"},{"indexed":false,"internalType":"string","name":"propertyId","type":"string"},{"indexed":true,"internalType":"address","name":"guest","type":"address"},{"indexed":false,"internalType":"uint256","name":"checkInDate","type":"uint256"},{"indexed":false,"internalType":"uint256","name":"checkOutDate","type":"uint256"},{"indexed":false,"internalType":"uint256","name":"totalAmount","type":"uint256"},{"indexed":false,"internalType":"string","name":"paymentReference","type":"string"},{"indexed":false,"internalType":"string","name":"bookingURI","type":"string"}],"name":"BookingCreatedPaid","type":"event"},{"anonymous":false,"inputs":[{"indexed":false,"internalType":"uint256","name":"bookingId","type":"uint256"},{"indexed":false,"internalType":"uint256","name":"amount","type":"uint256"}],"name":"BookingRefunded","type":"event"},{"anonymous":false,"inputs":[{"indexed":false,"internalType":"uint256","name":"bookingId","type":"uint256"}],"name":"CheckInMissed","type":"event"},{"anonymous":false,"inputs":[{"indexed":false,"internalType":"uint256","name":"bookingId","type":"uint256"},{"indexed":false,"internalType":"uint256","name":"deadline","type":"uint256"}],"name":"CheckInWindowOpened","type":"event"},{"anonymous":false,"inputs":[{"indexed":false,"internalType":"uint256","name":"bookingId","type":"uint256"},{"indexed":false,"internalType":"address","name":"guest","type":"address"}],"name":"CheckedIn","type":"event"},{"anonymous":false,"inputs":[{"indexed":false,"internalType":"uint256","name":"bookingId","type":"uint256"}],"name":"DisputeEscalated","type":"event"},{"anonymous":false,"inputs":[{"indexed":false,"internalType":"uint256","name":"bookingId","type":"uint256"},{"indexed":false,"internalType":"string","name":"reason","type":"string"}],"name":"DisputeRaised","type":"event"},{"anonymous":false,"inputs":[{"indexed":false,"internalType":"uint256","name":"bookingId","type":"uint256"},{"indexed":false,"internalType":"bool","name":"byHost","type":"bool"},{"indexed":false,"internalType":"bool","name":"byGuest","type":"bool"}],"name":"DisputeResolved","type":"event"},{"anonymous":false,"inputs":[{"indexed":true,"internalType":"address","name":"previousOwner","type":"address"},{"indexed":true,"internalType":"address","name":"newOwner","type":"address"}],"name":"OwnershipTransferred","type":"event"},{"inputs":[],"name":"CHECK_IN_WINDOW","outputs":[{"internalType":"uint256","name":"","type":"uint256"}],"stateMutability":"view","type":"function"},{"inputs":[],"name":"DISPUTE_RESOLUTION_WINDOW","outputs":[{"internalType":"uint256","name":"","type":"uint256"}],"stateMutability":"view","type":"function"},{"inputs":[{"internalType":"uint256","name":"_bookingId","type":"uint256"},{"internalType":"bool","name":"_refundToGuest","type":"bool"}],"name":"adminResolveDispute","outputs":[],"stateMutability":"nonpayable","type":"function"},{"inputs":[{"internalType":"uint256","name":"","type":"uint256"}],"name":"bookings","outputs":[{"internalType":"uint256","name":"bookingId","type":"uint256"},{"internalType":"string","name":"propertyId","type":"string"},{"internalType":"address","name":"guest","type":"address"},{"internalType":"uint256","name":"checkInDate","type":"uint256"},{"internalType":"uint256","name":"checkOutDate","type":"uint256"},{"internalType":"uint256","name":"totalAmount","type":"uint256"},{"internalType":"uint256","name":"platformFee","type":"uint256"},{"internalType":"uint256","name":"hostAmount","type":"uint256"},{"internalType":"enum BookingManager.BookingStatus","name":"status","type":"uint8"},{"internalType":"uint256","name":"checkInWindowStart","type":"uint256"},{"internalType":"uint256","name":"checkInDeadline","type":"uint256"},{"internalType":"uint256","name":"disputeDeadline","type":"uint256"},{"internalType":"bool","name":"isCheckInComplete","type":"bool"},{"internalType":"bool","name":"isResolvedByHost","type":"bool"},{"internalType":"bool","name":"isResolvedByGuest","type":"bool"},{"internalType":"string","name":"disputeReason","type":"string"},{"internalType":"string","name":"bookingURI","type":"string"},{"internalType":"string","name":"paymentReference","type":"string"},{"internalType":"bool","name":"paidOffChain","type":"bool"}],"stateMutability":"view","type":"function"},{"inputs":[{"internalType":"uint256","name":"_bookingId","type":"uint256"}],"name":"cancelBooking","outputs":[],"stateMutability":"nonpayable","type":"function"},{"inputs":[{"internalType":"uint256","name":"_bookingId","type":"uint256"}],"name":"checkIn","outputs":[],"stateMutability":"nonpayable","type":"function"},{"inputs":[{"internalType":"string","name":"_propertyId","type":"string"},{"internalType":"uint256","name":"_checkInDate","type":"uint256"},{"internalType":"uint256","name":"_checkOutDate","type":"uint256"}],"name":"createBooking","outputs":[{"internalType":"uint256","name":"","type":"uint256"}],"stateMutability":"payable","type":"function"},{"inputs":[{"internalType":"string","name":"_propertyId","type":"string"},{"internalType":"uint256","name":"_checkInDate","type":"uint256"},{"internalType":"uint256","name":"_checkOutDate","type":"uint256"},{"internalType":"uint256","name":"_totalAmount","type":"uint256"},{"internalType":"string","name":"_paymentReference","type":"string"},{"internalType":"string","name":"_bookingURI","type":"string"}],"name":"createBookingPaid","outputs":[{"internalType":"uint256","name":"","type":"uint256"}],"stateMutability":"nonpayable","type":"function"},{"inputs":[{"internalType":"uint256","name":"_bookingId","type":"uint256"}],"name":"escalateDispute","outputs":[],"stateMutability":"nonpayable","type":"function"},{"inputs":[{"internalType":"address","name":"_guest","type":"address"}],"name":"getGuestBookings","outputs":[{"internalType":"uint256[]","name":"","type":"uint256[]"}],"stateMutability":"view","type":"function"},{"inputs":[{"internalType":"string","name":"_propertyId","type":"string"}],"name":"getPropertyBookings","outputs":[{"internalType":"uint256[]","name":"","type":"uint256[]"}],"stateMutability":"view","type":"function"},{"inputs":[{"internalType":"address","name":"","type":"address"},{"internalType":"uint256","name":"","type":"uint256"}],"name":"guestBookings","outputs":[{"internalType":"uint256","name":"","type":"uint256"}],"stateMutability":"view","type":"function"},{"inputs":[{"internalType":"uint256","name":"_bookingId","type":"uint256"}],"name":"guestResolveDispute","outputs":[],"stateMutability":"nonpayable","type":"function"},{"inputs":[{"internalType":"string","name":"_propertyId","type":"string"},{"internalType":"uint256","name":"_checkInDate","type":"uint256"},{"internalType":"uint256","name":"_checkOutDate","type":"uint256"}],"name":"hasBookingConflict","outputs":[{"internalType":"bool","name":"hasConflict","type":"bool"}],"stateMutability":"view","type":"function"},{"inputs":[{"internalType":"uint256","name":"_bookingId","type":"uint256"}],"name":"hostResolveDispute","outputs":[],"stateMutability":"nonpayable","type":"function"},{"inputs":[{"internalType":"address","name":"forwarder","type":"address"}],"name":"isTrustedForwarder","outputs":[{"internalType":"bool","name":"","type":"bool"}],"stateMutability":"view","type":"function"},{"inputs":[],"name":"owner","outputs":[{"internalType":"address","name":"","type":"address"}],"stateMutability":"view","type":"function"},{"inputs":[{"internalType":"uint256","name":"_bookingId","type":"uint256"}],"name":"processMissedCheckIn","outputs":[],"stateMutability":"nonpayable","type":"function"},{"inputs":[{"internalType":"string","name":"","type":"string"},{"internalType":"uint256","name":"","type":"uint256"}],"name":"propertyBookings","outputs":[{"internalType":"uint256","name":"","type":"uint256"}],"stateMutability":"view","type":"function"},{"inputs":[],"name":"propertyMarketplace","outputs":[{"internalType":"contract PropertyMarketplace","name":"","type":"address"}],"stateMutability":"view","type":"function"},{"inputs":[],"name":"renounceOwnership","outputs":[],"stateMutability":"nonpayable","type":"function"},{"inputs":[{"internalType":"address","name":"newOwner","type":"address"}],"name":"transferOwnership","outputs":[],"stateMutability":"nonpayable","type":"function"},{"inputs":[{"internalType":"uint256","name":"_bookingId","type":"uint256"}],"name":"triggerCheckInWindow","outputs":[],"stateMutability":"nonpayable","type":"function"},{"inputs":[],"name":"trustedForwarder","outputs":[{"internalType":"address","name":"","type":"address"}],"stateMutability":"view","type":"function"}],"evm":{"bytecode":{"linkReferences":{},"object":"60a03461010f57601f612f2838819003918201601f19168301916001600160401b0383118484101761011457808492604094855283398101031261010f57610052602061004b8361012a565b920161012a565b906001600160a01b0361006361013e565b169182156100f957600080546001600160a01b031981168517825560405194916001600160a01b03909116907f8be0079c531659141344cd1fd0a4f28419497f9722a3daafe3b4186f6b6457e09080a3608052600180546001600160a01b0319166001600160a01b0392909216919091179055612d98908161019082396080518181816113340152818161160f0152612d0c0152f35b631e4fbdf760e01b600052600060045260246000fd5b600080fd5b634e487b7160e01b600052604160045260246000fd5b51906001600160a01b038216820361010f57565b6080516001600160a01b0316331480610184575b1561018057601319360136811161016a573560601c90565b634e487b7160e01b600052601160045260246000fd5b3390565b50601436101561015256fe60e0604052600436101561001257600080fd5b60003560e01c8062f44ccd146122a15780630dca825e146121395780631dab301e14611f7a5780631f7a8939146117a957806320a68d2514611666578063288c160914611643578063572b6c05146115ef5780635c980829146115ea57806363809aef14611573578063715018a61461151a57806372beb510146113635780637da0a8771461131e5780638d1cc984146112b35780638da5cb5b1461128a578063a41cfa6914611231578063bae391d914611154578063c3ed62ce1461112b578063ccef7f3314610f5f578063d09dc22b14610e49578063dd6629461461054d578063e95a644f14610403578063f11618551461025b578063f2c41b5a146101b15763f2fde38b1461012357600080fd5b346101ac5760203660031901126101ac5761013c6124b9565b610144612bae565b6001600160a01b0316801561019657600080546001600160a01b03198116831782556001600160a01b0316907f8be0079c531659141344cd1fd0a4f28419497f9722a3daafe3b4186f6b6457e09080a3005b631e4fbdf760e01b600052600060045260246000fd5b600080fd5b346101ac5760203660031901126101ac576004356001600160401b0381116101ac5760206101e66101f992369060040161243d565b81604051938285809451938492016123da565b8101600481520301902060405190816020825491828152019160005260206000209060005b818110610245576102418561023581870382612315565b604051918291826124cf565b0390f35b825484526020909301926001928301920161021e565b346101ac5760203660031901126101ac5760043580600052600360205260406000209060018060a01b036001541660006040518092634df4795360e11b825281806102ac6001890160048301612b1b565b03915afa9081156103f7576000916103ce575b506001600160a01b036102d0612d09565b166001600160a01b03909116036103905760ff60088301541690600882101561037a5760ff600c7f847a573abaa8875d3fe466d414094860f38be0ea3e161a0ef08c0acd955f7ea79461032760046060961461297a565b610337600b820154421115612ad6565b01805461ff0019166101001780825560101c821661036c575b5460101c166040519182526001602083015215156040820152a1005b61037583612bf6565b610350565b634e487b7160e01b600052602160045260246000fd5b60405162461bcd60e51b81526020600482015260166024820152752737ba103a343290383937b832b93a3c9037bbb732b960511b6044820152606490fd5b6103eb91503d806000833e6103e38183612315565b810190612656565b505050915050836102bf565b6040513d6000823e3d90fd5b346101ac5760203660031901126101ac5760043560008181526003602052604090206002810154610449906001600160a01b0390811690610442612d09565b1614612537565b600881019160ff835416600881101561037a5760010361050f57600a82015442116104ca57600c6040927f70790c0ab38e2aca9b5520985fe66db2a3700c3680b61c3853b5554f67a2c31c94600260ff1982541617905501600160ff198254161790556104b4612d09565b82519182526001600160a01b03166020820152a1005b60405162461bcd60e51b815260206004820152601760248201527f436865636b2d696e2077696e646f7720657870697265640000000000000000006044820152606490fd5b60405162461bcd60e51b81526020600482015260166024820152752737ba103932b0b23c903337b91031b432b1b596b4b760511b6044820152606490fd5b61055636612484565b9160018060a01b036001541691604051634df4795360e11b8152602060048201526000818061058860248201876123fd565b0381875afa9081156103f75761060d9160008091600090610e1b575b6105c39293506105b3906126ca565b6001600160a01b0316151561270c565b6105ce428411612758565b6105d98387116127a4565b6105ed6105e78785876129b7565b156127ef565b620151806105fb8488612850565b049061060882151561285d565b6128c2565b92833410610ddf57602060049160405192838092633375e33f60e21b82525afa80156103f75761ffff61064e916103e893600091610db0575b5016856128c2565b049261065a8482612850565b916106666002546128d5565b9485600255610673612d09565b9360405197610681896122f9565b8789528660208a015260018060a01b03861660408a01528360608a015260808901528360a08901528160c089015260e08801526000610100880152600061012088015260006101408801526000610160880152600061018088015260006101a088015260006101c08801526020966040516106fc8982612315565b600081526101e08201526040516107138982612315565b6000815261020082015260405161072a8982612315565b60008152610220820152600061024082015286600052600388526040600020908051825560208101518051906001600160401b038211610c3c5781906107808261077760018801546122bf565b600188016128fb565b8b90601f8311600114610d3f57600092610d34575b50508160011b916000199060031b1c19161760018301555b60408101516002830180546001600160a01b0319166001600160a01b0392909216919091179055606081015160038301556080810151600483015560a0810151600583015560c0810151600683015560e08101516007830155610100810151600881101561037a576108229060088401612573565b6101208101516009830155610140810151600a830155610160810151600b83015561089f600c83016108676101808401511515829060ff801983541691151516179055565b6101a0830151815461ff00191690151560081b61ff00161781556101c0830151815462ff0000191690151560101b62ff000016179055565b600d82016101e08201518051906001600160401b038211610c3c5781906108d0826108ca86546122bf565b866128fb565b8c908d601f8411600114610cce5750600092610cc3575b50508160011b916000199060031b1c19161790555b600e82016102008201518051906001600160401b038211610c3c578190610927826108ca86546122bf565b8c908d601f8411600114610c5d5750600092610c52575b50508160011b916000199060031b1c19161790555b600f82016102208201518051906001600160401b038211610c3c576109828261097c85546122bf565b856128fb565b8b908c601f8411600114610bc857509282610240936109d4979693601096600092610bbd575b50508160011b916000199060031b1c19161790555b0151151591019060ff801983541691151516179055565b6109fd866040518981816109ee8b838151938492016123da565b81016004815203019020612940565b60018060a01b03841660005260058752610a1b866040600020612940565b60015460405163011a412160e61b8152908890829060049082906001600160a01b03165afa9081156103f757600091610b78575b506000918291829182916001600160a01b03165af1610a6c61258b565b5015610b3d57813411610ae0575b917fb21a131db9e3377301833ce70be73b950ef23b9d94873b831ac7bbee23314c389391610abb9360405194859488865260a08a87015260a08601906123fd565b6001600160a01b039093166040850152606084015260808301520390a1604051908152f35b6000808080610aef8634612850565b875af1610afa61258b565b50610a7a5760405162461bcd60e51b81526004810187905260166024820152751499599d5b99081d1c985b9cd9995c8819985a5b195960521b6044820152606490fd5b60405162461bcd60e51b8152600481018790526013602482015272119959481d1c985b9cd9995c8819985a5b1959606a1b6044820152606490fd5b8881813d8311610bb6575b610b8d8183612315565b81010312610bb25751906001600160a01b0382168203610baf57506000610a4f565b80fd5b5080fd5b503d610b83565b015190508f806109a8565b9190601f1984168560005283600020936000905b828210610c24575050936109d497969360109693600193836102409810610c0b575b505050811b0190556109bd565b015160001960f88460031b161c191690558f8080610bfe565b80600186978294978701518155019601940190610bdc565b634e487b7160e01b600052604160045260246000fd5b015190508c8061093e565b60008681528181209450601f198616915b828210610cab575050908460019594939210610c92575b505050811b019055610953565b015160001960f88460031b161c191690558c8080610c85565b80600186978294978701518155019601940190610c6e565b015190508c806108e7565b60008681528181209450601f198616915b828210610d1c575050908460019594939210610d03575b505050811b0190556108fc565b015160001960f88460031b161c191690558c8080610cf6565b80600186978294978701518155019601940190610cdf565b015190508b80610795565b9250600185016000528b600020906000935b8d601f1985168610610d9757506001945083601f19811610610d7e575b505050811b0160018301556107ad565b015160001960f88460031b161c191690558b8080610d6e565b8282015184559485019460019093019290910190610d51565b610dd2915060203d602011610dd8575b610dca8183612315565b8101906128a8565b88610646565b503d610dc0565b60405162461bcd60e51b8152602060048201526014602482015273125b9cdd59999a58da595b9d081c185e5b595b9d60621b6044820152606490fd5b5050506105c3610e386105b3923d806000833e6103e38183612315565b5090955085945090925090506105a4565b346101ac5760403660031901126101ac5760043560243580151581036101ac57610e71612bae565b81600052600360205260ff60086040600020015416600881101561037a57600703610f215715610f16576040817fedc1198b595a44e20b4738f6c85854e2c9f704982f488658f4c765030f1526569260005260036020528160002060088101600660ff19825416179055610f086000808080600760018060a01b036002880154169601958654905af1610f0261258b565b506125bb565b5482519182526020820152a1005b610f1f90612bf6565b005b60405162461bcd60e51b81526020600482015260166024820152752737ba1032b9b1b0b630ba32b2103a379030b236b4b760511b6044820152606490fd5b346101ac5760203660031901126101ac576004358060005260036020526040600020818154036110ed57600881019160ff835416600881101561037a576110b3576003820154421061106e5760098201805461101f57429055620151804201804211611009577fd6c4872cc5d86d0c496ad388bbe994a94376b28276d219fb70019f84d4b3b76193600a60409401918255600160ff198254161790555482519182526020820152a1005b634e487b7160e01b600052601160045260246000fd5b60405162461bcd60e51b815260206004820152602160248201527f436865636b2d696e2077696e646f7720616c72656164792074726967676572656044820152601960fa1b6064820152608490fd5b60405162461bcd60e51b815260206004820152601960248201527f436865636b2d696e2064617465206e6f742072656163686564000000000000006044820152606490fd5b60405162461bcd60e51b8152602060048201526012602482015271426f6f6b696e67206e6f742061637469766560701b6044820152606490fd5b60405162461bcd60e51b8152602060048201526016602482015275109bdbdada5b99c8191bd95cc81b9bdd08195e1a5cdd60521b6044820152606490fd5b346101ac5760003660031901126101ac576001546040516001600160a01b039091168152602090f35b346101ac5760203660031901126101ac5760043560008181526003602052604090206002810154909190611196906001600160a01b0390811690610442612d09565b60ff60088301541690600882101561037a5760ff600c7f847a573abaa8875d3fe466d414094860f38be0ea3e161a0ef08c0acd955f7ea7946111dc60046060961461297a565b6111ec600b820154421115612ad6565b01805462ff00001916620100001780825560081c8216611223575b5460081c166040519182521515602082015260016040820152a1005b61122c83612bf6565b611207565b346101ac5760403660031901126101ac5761124a6124b9565b6001600160a01b03166000908152600560205260409020805460243591908210156101ac5760209161127b91612509565b90549060031b1c604051908152f35b346101ac5760003660031901126101ac576000546040516001600160a01b039091168152602090f35b346101ac5760403660031901126101ac576004356001600160401b0381116101ac576112e390369060040161243d565b6112ff60206024359281604051938285809451938492016123da565b8101600481520301902080548210156101ac5760209161127b91612509565b346101ac5760003660031901126101ac576040517f00000000000000000000000000000000000000000000000000000000000000006001600160a01b03168152602090f35b346101ac5760203660031901126101ac5760043580600052600360205260406000206008810160ff815416600881101561037a576001036114dc57600a82015442111561149757600460ff198254161790556201518042019182421161100957600d827fe07ad455e24561261e9047aab2f668ae1fc2cc6fda35021764673613b888836d94600b6080950155016113fa81546122bf565b601f8111611475575b50601e6e26b4b9b9b2b21031b432b1b596b4b760891b0190557f771ad1a63db62f3c96f995005dc4038b2d11173769793751c154afec8e3eed6d6020604051838152a160405190815260406020820152600f60408201526e26b4b9b9b2b21031b432b1b596b4b760891b6060820152a1005b6114919082600052601f6020600020910160051c8101906128e4565b84611403565b60405162461bcd60e51b815260206004820152601b60248201527f436865636b2d696e2077696e646f77206e6f74206578706972656400000000006044820152606490fd5b60405162461bcd60e51b81526020600482015260166024820152754e6f7420696e20636865636b2d696e2077696e646f7760501b6044820152606490fd5b346101ac5760003660031901126101ac57611533612bae565b600080546001600160a01b0319811682556001600160a01b03167f8be0079c531659141344cd1fd0a4f28419497f9722a3daafe3b4186f6b6457e08280a3005b346101ac5760203660031901126101ac576001600160a01b036115946124b9565b166000526005602052604060002060405190816020825491828152019160005260206000209060005b8181106115d4576102418561023581870382612315565b82548452602090930192600192830192016115bd565b6122a1565b346101ac5760203660031901126101ac57602061160a6124b9565b6040517f00000000000000000000000000000000000000000000000000000000000000006001600160a01b039081169216919091148152f35b346101ac57602061165c61165636612484565b916129b7565b6040519015158152f35b346101ac5760203660031901126101ac576004358060005260036020526040600020600881019060ff825416600881101561037a5760046116a7911461297a565b600b81015442111561175657600c015460ff8160081c169081611748575b5061170357805460ff191660071790556040519081527f2dab28113e16ee2fb971a1376ce8421e58fc1c3d20d7acff8927a494fde0cdc090602090a1005b60405162461bcd60e51b815260206004820152601860248201527f4469737075746520616c7265616479207265736f6c76656400000000000000006044820152606490fd5b60ff915060101c16836116c5565b60405162461bcd60e51b815260206004820152602560248201527f44697370757465207265736f6c7574696f6e2077696e646f77206e6f742065786044820152641c1a5c995960da1b6064820152608490fd5b346101ac5760c03660031901126101ac576004356001600160401b0381116101ac576117d990369060040161243d565b6084356001600160401b0381116101ac576117f890369060040161243d565b9060a4356001600160401b0381116101ac5761181890369060040161243d565b600154604051634df4795360e11b8152602060048201526001600160a01b03909116906000818061184c60248201886123fd565b0381855afa9182156103f757611876602092600494600091600091611f52575b506105b3906126ca565b6118834260243511612758565b611892602435604435116127a4565b6118a46105e7604435602435886129b7565b6118c1620151806118b9602435604435612850565b04151561285d565b604051633375e33f60e21b815292839182905afa80156103f75761ffff6118f8916103e893600091611f33575b50166064356128c2565b0461190581606435612850565b926119116002546128d5565b938460025561191e612d09565b906040519361192c856122f9565b86855283602086015260018060a01b03831660408601526024356060860152604435608086015260643560a086015260c085015260e08401526000610100840152600061012084015260006101408401526000610160840152600061018084015260006101a084015260006101c08401526020956040516119ad8882612315565b600081526101e085015284610200850152806102208501526001610240850152856000526003875260406000208451815560208501518051906001600160401b038211610c3c578190611a1082611a0760018701546122bf565b600187016128fb565b8a90601f8311600114611ec257600092611eb7575b50508160011b916000199060031b1c19161760018201555b60408501516002820180546001600160a01b0319166001600160a01b0392909216919091179055606085015160038201556080850151600482015560a0850151600582015560c0850151600682015560e08501516007820155610100850151600881101561037a57611ab29060088301612573565b6101208501516009820155610140850151600a820155610160850151600b820155611b2f600c8201611af76101808801511515829060ff801983541691151516179055565b6101a0870151815461ff00191690151560081b61ff00161781556101c0870151815462ff0000191690151560101b62ff000016179055565b600d81016101e08601518051906001600160401b038211610c3c578190611b5a826108ca86546122bf565b8b90601f8311600114611e5057600092611e45575b50508160011b916000199060031b1c19161790555b600e81016102008601518051906001600160401b038211610c3c578190611baf826108ca86546122bf565b8b90601f8311600114611dde57600092611dd3575b50508160011b916000199060031b1c19161790555b6102208501519485516001600160401b038111610c3c578896611c0c82611c03600f8701546122bf565b600f87016128fb565b8a90601f8311600114611d2a57611d14946010610240611cd6999686611cfb977f4c0edc0c8794ba89c4649924f32b10a82065ad4e9fd335d0cb04cacc759d70d09d9b97611c8a97600092611d1f575b50508160011b916000199060031b1c191617600f8501550151151591019060ff801983541691151516179055565b611ca4886040518d81816109ee8b838151938492016123da565b60018060a01b03831660005260058b52611cc2886040600020612940565b60405195869560c0875260c08701906123fd565b906024358c8701526044356040870152606435606087015285820360808701526123fd565b83810360a08501526001600160a01b03909116966123fd565b0390a3604051908152f35b015190503880611c5c565b90600f85016000528b6000209160005b8d601f1986168210611dba575050946010610240611cd699966001877f4c0edc0c8794ba89c4649924f32b10a82065ad4e9fd335d0cb04cacc759d70d09d9b97611c8a97611d149c611cfb9b601f19811610611da1575b505050811b01600f8501556109bd565b015160001960f88460031b161c19169055388080611d91565b8383015185558d9b506001909401939283019201611d3a565b015190508b80611bc4565b60008581528d81209350601f198516908e5b828210611e2d575050908460019594939210611e14575b505050811b019055611bd9565b015160001960f88460031b161c191690558b8080611e07565b80600186978294978701518155019601940190611df0565b015190508b80611b6f565b60008581528d81209350601f198516908e5b828210611e9f575050908460019594939210611e86575b505050811b019055611b84565b015160001960f88460031b161c191690558b8080611e79565b80600186978294978701518155019601940190611e62565b015190508a80611a25565b9250600184016000528a600020906000935b8c601f1985168610611f1a57506001945083601f19811610611f01575b505050811b016001820155611a3d565b015160001960f88460031b161c191690558a8080611ef1565b8282015184559485019460019093019290910190611ed4565b611f4c915060203d602011610dd857610dca8183612315565b876118ee565b6105b39250611f6c91503d806000833e6103e38183612315565b50949350509050919061186c565b346101ac5760203660031901126101ac576004356000526003602052604060002080549060018101611fab90612336565b60c052600160a01b600190036002820154169060038101546004820154906005830154600684015494600785015493600886015460ff1692600987015495600a88015498600b89015492600c8a0154608052600d8a0161200a90612336565b94612017600e8c01612336565b98612024600f8d01612336565b9b6010015460ff169d60405160a05260a0515260a051602001610260905260a0516102600160c05190612056916123fd565b9760a0516040015260a0516060015260a0516080015260a05160a0015260a05160c0015260a05160e00152600884101561037a5761212497612111966120fe9561010060a051015261012060a051015261014060a051015261016060a051015260ff60805116151561018060a051015260ff60805160081c1615156101a060a051015260ff60805160101c1615156101c060a051015260a05182036101e060a05101526123fd565b9060a051820361020060a05101526123fd565b9060a051820361022060a05101526123fd565b90151561024060a051015260a051900360a051f35b346101ac5760203660031901126101ac57600435600081815260036020526040902060028101805490929061217c906001600160a01b0390811690610442612d09565b600882019160ff835416600881101561037a5761226457600381015442101561222a576121f3600080808060077fedc1198b595a44e20b4738f6c85854e2c9f704982f488658f4c765030f15265699604099600560ff1982541617905560018060a01b039054169601958654905af1610f0261258b565b7ff774c001cb52a3566b767ed6e37c92706acb2b80a3ff6049e2849cd62725d08560208451848152a15482519182526020820152a1005b60405162461bcd60e51b81526020600482015260126024820152715061737420636865636b2d696e206461746560701b6044820152606490fd5b60405162461bcd60e51b815260206004820152601560248201527443616e6e6f742063616e63656c20626f6f6b696e6760581b6044820152606490fd5b346101ac5760003660031901126101ac576020604051620151808152f35b90600182811c921680156122ef575b60208310146122d957565b634e487b7160e01b600052602260045260246000fd5b91607f16916122ce565b61026081019081106001600160401b03821117610c3c57604052565b90601f801991011681019081106001600160401b03821117610c3c57604052565b906040519182600082549261234a846122bf565b80845293600181169081156123b85750600114612371575b5061236f92500383612315565b565b90506000929192526020600020906000915b81831061239c57505090602061236f9282010138612362565b6020919350806001915483858901015201910190918492612383565b90506020925061236f94915060ff191682840152151560051b82010138612362565b60005b8381106123ed5750506000910152565b81810151838201526020016123dd565b90602091612416815180928185528580860191016123da565b601f01601f1916010190565b6001600160401b038111610c3c57601f01601f191660200190565b81601f820112156101ac5780359061245482612422565b926124626040519485612315565b828452602083830101116101ac57816000926020809301838601378301015290565b60606003198201126101ac57600435906001600160401b0382116101ac576124ae9160040161243d565b906024359060443590565b600435906001600160a01b03821682036101ac57565b602060408183019282815284518094520192019060005b8181106124f35750505090565b82518452602093840193909201916001016124e6565b80548210156125215760005260206000200190600090565b634e487b7160e01b600052603260045260246000fd5b1561253e57565b60405162461bcd60e51b815260206004820152600d60248201526c139bdd081d1a194819dd595cdd609a1b6044820152606490fd5b90600881101561037a5760ff80198354169116179055565b3d156125b6573d9061259c82612422565b916125aa6040519384612315565b82523d6000602084013e565b606090565b156125c257565b60405162461bcd60e51b815260206004820152601360248201527211dd595cdd081c99599d5b990819985a5b1959606a1b6044820152606490fd5b81601f820112156101ac57805161261381612422565b926126216040519485612315565b818452602082840101116101ac5761263f91602080850191016123da565b90565b51906001600160a01b03821682036101ac57565b9160c0838303126101ac5782516001600160401b0381116101ac578261267d9185016125fd565b9261268a60208201612642565b9261269760408301612642565b92606083015192608081015180151581036101ac579260a08201516001600160401b0381116101ac5761263f92016125fd565b156126d157565b60405162461bcd60e51b815260206004820152601360248201527250726f7065727479206e6f742061637469766560681b6044820152606490fd5b1561271357565b60405162461bcd60e51b815260206004820152601760248201527f50726f706572747920646f6573206e6f742065786973740000000000000000006044820152606490fd5b1561275f57565b60405162461bcd60e51b815260206004820152601e60248201527f436865636b2d696e206d75737420626520696e207468652066757475726500006044820152606490fd5b156127ab57565b606460405162461bcd60e51b815260206004820152602060248201527f436865636b2d6f7574206d75737420626520616674657220636865636b2d696e6044820152fd5b156127f657565b60405162461bcd60e51b815260206004820152602c60248201527f426f6f6b696e6720646174657320636f6e666c6963742077697468206578697360448201526b74696e6720626f6f6b696e6760a01b6064820152608490fd5b9190820391821161100957565b1561286457565b606460405162461bcd60e51b815260206004820152602060248201527f426f6f6b696e67206d757374206265206174206c656173742031206e696768746044820152fd5b908160209103126101ac575161ffff811681036101ac5790565b8181029291811591840414171561100957565b60001981146110095760010190565b8181106128ef575050565b600081556001016128e4565b9190601f811161290a57505050565b61236f926000526020600020906020601f840160051c83019310612936575b601f0160051c01906128e4565b9091508190612929565b805468010000000000000000811015610c3c5761296291600182018155612509565b819291549060031b91821b91600019901b1916179055565b1561298157565b60405162461bcd60e51b815260206004820152600e60248201526d4e6f7420696e206469737075746560901b6044820152606490fd5b60206129d39193929381604051938285809451938492016123da565b81016004815203019020906040518083602082955493848152019060005260206000209260005b818110612abd575050612a0f92500383612315565b60005b8251811015612ab457600060208260051b8501015181526003602052604081209060ff6008830154166008811015612aa05760058114918215612a93575b5050612a8a57600481015485109081612a7c575b50612a73576001905b01612a12565b50505050600190565b600391500154821138612a64565b50600190612a6d565b6006925050143880612a50565b634e487b7160e01b82526021600452602482fd5b50505050600090565b84548352600194850194879450602090930192016129fa565b15612add57565b60405162461bcd60e51b8152602060048201526016602482015275111a5cdc1d5d19481dda5b991bddc8195e1c1a5c995960521b6044820152606490fd5b9060208252600091815491612b2f836122bf565b92836020840152600181169081600014612b8d5750600114612b52575b50505090565b600090815260208120929350915b838310612b765750604092500101388080612b4c565b805460408484010152602090920191600101612b60565b9150506040935060ff929192191683830152151560051b0101388080612b4c565b6000546001600160a01b0390811690612bc5612d09565b1603612bcd57565b612bd5612d09565b63118cdaa760e01b60009081526001600160a01b0391909116600452602490fd5b806000526003602052604060002060018060a01b03600154169060006040518093634df4795360e11b82528180612c336001870160048301612b1b565b03915afa9081156103f7576000928392839283928392612ce4575b5060088101805460ff1916600317905560070154906001600160a01b03165af1612c7661258b565b5015612ca95760207fe70f5cb5ecde9644c195a97cf45a506de023d1d170cd972f04441fafd993f15091604051908152a1565b60405162461bcd60e51b8152602060048201526013602482015272121bdcdd081c185e5b595b9d0819985a5b1959606a1b6044820152606490fd5b6007919250612cfc903d8086833e6103e38183612315565b5050509150509190612c4e565b337f00000000000000000000000000000000000000000000000000000000000000006001600160a01b03161480612d57575b15612d53576013193601368111611009573560601c90565b3390565b506014361015612d3b56fea26469706673582212201b14e058e0eee5606c3700b76e2565e97a64458b2a8f67112071f7392a2da43c64736f6c634300081c0033","opcodes":"PUSH1 0xA0 CALLVALUE PUSH2 0x10F JUMPI PUSH1 0x1F PUSH2 0x2F28 CODESIZE DUP2 SWAP1 SUB SWAP2 DUP3 ADD PUSH1 0x1F NOT AND DUP4 ADD SWAP2 PUSH1 0x1 PUSH1 0x1 PUSH1 0x40 SHL SUB DUP4 GT DUP5 DUP5 LT OR PUSH2 0x114 JUMPI DUP1 DUP5 SWAP3 PUSH1 0x40 SWAP5 DUP6 MSTORE DUP4 CODECOPY DUP2 ADD SUB SLT PUSH2 0x10F JUMPI PUSH2 0x52 PUSH1 0x20 PUSH2 0x4B DUP4 PUSH2 0x12A JUMP JUMPDEST SWAP3 ADD PUSH2 0x12A JUMP JUMPDEST SWAP1 PUSH1 0x1 PUSH1 0x1 PUSH1 0xA0 SHL SUB PUSH2 0x63 PUSH2 0x13E JUMP JUMPDEST AND SWAP2 DUP3 ISZERO PUSH2 0xF9 JUMPI PUSH1 0x0 DUP1 SLOAD PUSH1 0x1 PUSH1 0x1 PUSH1 0xA0 SHL SUB NOT DUP2 AND DUP6 OR DUP3 SSTORE PUSH1 0x40 MLOAD SWAP5 SWAP2 PUSH1 0x1 PUSH1 0x1 PUSH1 0xA0 SHL SUB SWAP1 SWAP2 AND SWAP1 PUSH32 0x8BE0079C531659141344CD1FD0A4F28419497F9722A3DAAFE3B4186F6B6457E0 SWAP1 DUP1 LOG3 PUSH1 0x80 MSTORE PUSH1 0x1 DUP1 SLOAD PUSH1 0x1 PUSH1 0x1 PUSH1 0xA0 SHL SUB NOT AND PUSH1 0x1 PUSH1 0x1 PUSH1 0xA0 SHL SUB SWAP3 SWAP1 SWAP3 AND SWAP2 SWAP1 SWAP2 OR SWAP1 SSTORE PUSH2 0x2D98 SWAP1 DUP2 PUSH2 0x190 DUP3 CODECOPY PUSH1 0x80 MLOAD DUP2 DUP2 DUP2 PUSH2 0x1334 ADD MSTORE DUP2 DUP2 PUSH2 0x160F ADD MSTORE PUSH2 0x2D0C ADD MSTORE RETURN JUMPDEST PUSH4 0x1E4FBDF7 PUSH1 0xE0 SHL PUSH1 0x0 MSTORE PUSH1 0x0 PUSH1 0x4 MSTORE PUSH1 0x24 PUSH1 0x0 REVERT JUMPDEST PUSH1 0x0 DUP1 REVERT JUMPDEST PUSH4 0x4E487B71 PUSH1 0xE0 SHL PUSH1 0x0 MSTORE PUSH1 0x41 PUSH1 0x4 MSTORE PUSH1 0x24 PUSH1 0x0 REVERT JUMPDEST MLOAD SWAP1 PUSH1 0x1 PUSH1 0x1 PUSH1 0xA0 SHL SUB DUP3 AND DUP3 SUB PUSH2 0x10F JUMPI JUMP JUMPDEST PUSH1 0x80 MLOAD PUSH1 0x1 PUSH1 0x1 PUSH1 0xA0 SHL SUB AND CALLER EQ DUP1 PUSH2 0x184 JUMPI JUMPDEST ISZERO PUSH2 0x180 JUMPI PUSH1 0x13 NOT CALLDATASIZE ADD CALLDATASIZE DUP2 GT PUSH2 0x16A JUMPI CALLDATALOAD PUSH1 0x60 SHR SWAP1 JUMP JUMPDEST PUSH4 0x4E487B71 PUSH1 0xE0 SHL PUSH1 0x0 MSTORE PUSH1 0x11 PUSH1 0x4 MSTORE PUSH1 0x24 PUSH1 0x0 REVERT JUMPDEST CALLER SWAP1 JUMP JUMPDEST POP PUSH1 0x14 CALLDATASIZE LT ISZERO PUSH2 0x152 JUMP INVALID PUSH1 0xE0 PUSH1 0x40 MSTORE PUSH1 0x4 CALLDATASIZE LT ISZERO PUSH2 0x12 JUMPI PUSH1 0x0 DUP1 REVERT JUMPDEST PUSH1 0x0 CALLDATALOAD PUSH1 0xE0 SHR DUP1 PUSH3 0xF44CCD EQ PUSH2 0x22A1 JUMPI DUP1 PUSH4 0xDCA825E EQ PUSH2 0x2139 JUMPI DUP1 PUSH4 0x1DAB301E EQ PUSH2 0x1F7A JUMPI DUP1 PUSH4 0x1F7A8939 EQ PUSH2 0x17A9 JUMPI DUP1 PUSH4 0x20A68D25 EQ PUSH2 0x1666 JUMPI DUP1 PUSH4 0x288C1609 EQ PUSH2 0x1643 JUMPI DUP1 PUSH4 0x572B6C05 EQ PUSH2 0x15EF JUMPI DUP1 PUSH4 0x5C980829 EQ PUSH2 0x15EA JUMPI DUP1 PUSH4 0x63809AEF EQ PUSH2 0x1573 JUMPI DUP1 PUSH4 0x715018A6 EQ PUSH2 0x151A JUMPI DUP1 PUSH4 0x72BEB510 EQ PUSH2 0x1363 JUMPI DUP1 PUSH4 0x7DA0A877 EQ PUSH2 0x131E JUMPI DUP1 PUSH4 0x8D1CC984 EQ PUSH2 0x12B3 JUMPI DUP1 PUSH4 0x8DA5CB5B EQ PUSH2 0x128A JUMPI DUP1 PUSH4 0xA41CFA69 EQ PUSH2 0x1231 JUMPI DUP1 PUSH4 0xBAE391D9 EQ PUSH2 0x1154 JUMPI DUP1 PUSH4 0xC3ED62CE EQ PUSH2 0x112B JUMPI DUP1 PUSH4 0xCCEF7F33 EQ PUSH2 0xF5F JUMPI DUP1 PUSH4 0xD09DC22B EQ PUSH2 0xE49 JUMPI DUP1 PUSH4 0xDD662946 EQ PUSH2 0x54D JUMPI DUP1 PUSH4 0xE95A644F EQ PUSH2 0x403 JUMPI DUP1 PUSH4 0xF1161855 EQ PUSH2 0x25B JUMPI DUP1 PUSH4 0xF2C41B5A EQ PUSH2 0x1B1 JUMPI PUSH4 0xF2FDE38B EQ PUSH2 0x123 JUMPI PUSH1 0x0 DUP1 REVERT JUMPDEST CALLVALUE PUSH2 0x1AC JUMPI PUSH1 0x20 CALLDATASIZE PUSH1 0x3 NOT ADD SLT PUSH2 0x1AC JUMPI PUSH2 0x13C PUSH2 0x24B9 JUMP JUMPDEST PUSH2 0x144 PUSH2 0x2BAE JUMP JUMPDEST PUSH1 0x1 PUSH1 0x1 PUSH1 0xA0 SHL SUB AND DUP1 ISZERO PUSH2 0x196 JUMPI PUSH1 0x0 DUP1 SLOAD PUSH1 0x1 PUSH1 0x1 PUSH1 0xA0 SHL SUB NOT DUP2 AND DUP4 OR DUP3 SSTORE PUSH1 0x1 PUSH1 0x1 PUSH1 0xA0 SHL SUB AND SWAP1 PUSH32 0x8BE0079C531659141344CD1FD0A4F28419497F9722A3DAAFE3B4186F6B6457E0 SWAP1 DUP1 LOG3 STOP JUMPDEST PUSH4 0x1E4FBDF7 PUSH1 0xE0 SHL PUSH1 0x0 MSTORE PUSH1 0x0 PUSH1 0x4 MSTORE PUSH1 0x24 PUSH1 0x0 REVERT JUMPDEST PUSH1 0x0 DUP1 REVERT JUMPDEST CALLVALUE PUSH2 0x1AC JUMPI PUSH1 0x20 CALLDATASIZE PUSH1 0x3 NOT ADD SLT PUSH2 0x1AC JUMPI PUSH1 0x4 CALLDATALOAD PUSH1 0x1 PUSH1 0x1 PUSH1 0x40 SHL SUB DUP2 GT PUSH2 0x1AC JUMPI PUSH1 0x20 PUSH2 0x1E6 PUSH2 0x1F9 SWAP3 CALLDATASIZE SWAP1 PUSH1 0x4 ADD PUSH2 0x243D JUMP JUMPDEST DUP2 PUSH1 0x40 MLOAD SWAP4 DUP3 DUP6 DUP1 SWAP5 MLOAD SWAP4 DUP5 SWAP3 ADD PUSH2 0x23DA JUMP JUMPDEST DUP2 ADD PUSH1 0x4 DUP2 MSTORE SUB ADD SWAP1 KECCAK256 PUSH1 0x40 MLOAD SWAP1 DUP2 PUSH1 0x20 DUP3 SLOAD SWAP2 DUP3 DUP2 MSTORE ADD SWAP2 PUSH1 0x0 MSTORE PUSH1 0x20 PUSH1 0x0 KECCAK256 SWAP1 PUSH1 0x0 JUMPDEST DUP2 DUP2 LT PUSH2 0x245 JUMPI PUSH2 0x241 DUP6 PUSH2 0x235 DUP2 DUP8 SUB DUP3 PUSH2 0x2315 JUMP JUMPDEST PUSH1 0x40 MLOAD SWAP2 DUP3 SWAP2 DUP3 PUSH2 0x24CF JUMP JUMPDEST SUB SWAP1 RETURN JUMPDEST DUP3 SLOAD DUP5 MSTORE PUSH1 0x20 SWAP1 SWAP4 ADD SWAP3 PUSH1 0x1 SWAP3 DUP4 ADD SWAP3 ADD PUSH2 0x21E JUMP JUMPDEST CALLVALUE PUSH2 0x1AC JUMPI PUSH1 0x20 CALLDATASIZE PUSH1 0x3 NOT ADD SLT PUSH2 0x1AC JUMPI PUSH1 0x4 CALLDATALOAD DUP1 PUSH1 0x0 MSTORE PUSH1 0x3 PUSH1 0x20 MSTORE PUSH1 0x40 PUSH1 0x0 KECCAK256 SWAP1 PUSH1 0x1 DUP1 PUSH1 0xA0 SHL SUB PUSH1 0x1 SLOAD AND PUSH1 0x0 PUSH1 0x40 MLOAD DUP1 SWAP3 PUSH4 0x4DF47953 PUSH1 0xE1 SHL DUP3 MSTORE DUP2 DUP1 PUSH2 0x2AC PUSH1 0x1 DUP10 ADD PUSH1 0x4 DUP4 ADD PUSH2 0x2B1B JUMP JUMPDEST SUB SWAP2 GAS STATICCALL SWAP1 DUP2 ISZERO PUSH2 0x3F7 JUMPI PUSH1 0x0 SWAP2 PUSH2 0x3CE JUMPI JUMPDEST POP PUSH1 0x1 PUSH1 0x1 PUSH1 0xA0 SHL SUB PUSH2 0x2D0 PUSH2 0x2D09 JUMP JUMPDEST AND PUSH1 0x1 PUSH1 0x1 PUSH1 0xA0 SHL SUB SWAP1 SWAP2 AND SUB PUSH2 0x390 JUMPI PUSH1 0xFF PUSH1 0x8 DUP4 ADD SLOAD AND SWAP1 PUSH1 0x8 DUP3 LT ISZERO PUSH2 0x37A JUMPI PUSH1 0xFF PUSH1 0xC PUSH32 0x847A573ABAA8875D3FE466D414094860F38BE0EA3E161A0EF08C0ACD955F7EA7 SWAP5 PUSH2 0x327 PUSH1 0x4 PUSH1 0x60 SWAP7 EQ PUSH2 0x297A JUMP JUMPDEST PUSH2 0x337 PUSH1 0xB DUP3 ADD SLOAD TIMESTAMP GT ISZERO PUSH2 0x2AD6 JUMP JUMPDEST ADD DUP1 SLOAD PUSH2 0xFF00 NOT AND PUSH2 0x100 OR DUP1 DUP3 SSTORE PUSH1 0x10 SHR DUP3 AND PUSH2 0x36C JUMPI JUMPDEST SLOAD PUSH1 0x10 SHR AND PUSH1 0x40 MLOAD SWAP2 DUP3 MSTORE PUSH1 0x1 PUSH1 0x20 DUP4 ADD MSTORE ISZERO ISZERO PUSH1 0x40 DUP3 ADD MSTORE LOG1 STOP JUMPDEST PUSH2 0x375 DUP4 PUSH2 0x2BF6 JUMP JUMPDEST PUSH2 0x350 JUMP JUMPDEST PUSH4 0x4E487B71 PUSH1 0xE0 SHL PUSH1 0x0 MSTORE PUSH1 0x21 PUSH1 0x4 MSTORE PUSH1 0x24 PUSH1 0x0 REVERT JUMPDEST PUSH1 0x40 MLOAD PUSH3 0x461BCD PUSH1 0xE5 SHL DUP2 MSTORE PUSH1 0x20 PUSH1 0x4 DUP3 ADD MSTORE PUSH1 0x16 PUSH1 0x24 DUP3 ADD MSTORE PUSH22 0x2737BA103A343290383937B832B93A3C9037BBB732B9 PUSH1 0x51 SHL PUSH1 0x44 DUP3 ADD MSTORE PUSH1 0x64 SWAP1 REVERT JUMPDEST PUSH2 0x3EB SWAP2 POP RETURNDATASIZE DUP1 PUSH1 0x0 DUP4 RETURNDATACOPY PUSH2 0x3E3 DUP2 DUP4 PUSH2 0x2315 JUMP JUMPDEST DUP2 ADD SWAP1 PUSH2 0x2656 JUMP JUMPDEST POP POP POP SWAP2 POP POP DUP4 PUSH2 0x2BF JUMP JUMPDEST PUSH1 0x40 MLOAD RETURNDATASIZE PUSH1 0x0 DUP3 RETURNDATACOPY RETURNDATASIZE SWAP1 REVERT JUMPDEST CALLVALUE PUSH2 0x1AC JUMPI PUSH1 0x20 CALLDATASIZE PUSH1 0x3 NOT ADD SLT PUSH2 0x1AC JUMPI PUSH1 0x4 CALLDATALOAD PUSH1 0x0 DUP2 DUP2 MSTORE PUSH1 0x3 PUSH1 0x20 MSTORE PUSH1 0x40 SWAP1 KECCAK256 PUSH1 0x2 DUP2 ADD SLOAD PUSH2 0x449 SWAP1 PUSH1 0x1 PUSH1 0x1 PUSH1 0xA0 SHL SUB SWAP1 DUP2 AND SWAP1 PUSH2 0x442 PUSH2 0x2D09 JUMP JUMPDEST AND EQ PUSH2 0x2537 JUMP JUMPDEST PUSH1 0x8 DUP2 ADD SWAP2 PUSH1 0xFF DUP4 SLOAD AND PUSH1 0x8 DUP2 LT ISZERO PUSH2 0x37A JUMPI PUSH1 0x1 SUB PUSH2 0x50F JUMPI PUSH1 0xA DUP3 ADD SLOAD TIMESTAMP GT PUSH2 0x4CA JUMPI PUSH1 0xC PUSH1 0x40 SWAP3 PUSH32 0x70790C0AB38E2ACA9B5520985FE66DB2A3700C3680B61C3853B5554F67A2C31C SWAP5 PUSH1 0x2 PUSH1 0xFF NOT DUP3 SLOAD AND OR SWAP1 SSTORE ADD PUSH1 0x1 PUSH1 0xFF NOT DUP3 SLOAD AND OR SWAP1 SSTORE PUSH2 0x4B4 PUSH2 0x2D09 JUMP JUMPDEST DUP3 MLOAD SWAP2 DUP3 MSTORE PUSH1 0x1 PUSH1 0x1 PUSH1 0xA0 SHL SUB AND PUSH1 0x20 DUP3 ADD MSTORE LOG1 STOP JUMPDEST PUSH1 0x40 MLOAD PUSH3 0x461BCD PUSH1 0xE5 SHL DUP2 MSTORE PUSH1 0x20 PUSH1 0x4 DUP3 ADD MSTORE PUSH1 0x17 PUSH1 0x24 DUP3 ADD MSTORE PUSH32 0x436865636B2D696E2077696E646F772065787069726564000000000000000000 PUSH1 0x44 DUP3 ADD MSTORE PUSH1 0x64 SWAP1 REVERT JUMPDEST PUSH1 0x40 MLOAD PUSH3 0x461BCD PUSH1 0xE5 SHL DUP2 MSTORE PUSH1 0x20 PUSH1 0x4 DUP3 ADD MSTORE PUSH1 0x16 PUSH1 0x24 DUP3 ADD MSTORE PUSH22 0x2737BA103932B0B23C903337B91031B432B1B596B4B7 PUSH1 0x51 SHL PUSH1 0x44 DUP3 ADD MSTORE PUSH1 0x64 SWAP1 REVERT JUMPDEST PUSH2 0x556 CALLDATASIZE PUSH2 0x2484 JUMP JUMPDEST SWAP2 PUSH1 0x1 DUP1 PUSH1 0xA0 SHL SUB PUSH1 0x1 SLOAD AND SWAP2 PUSH1 0x40 MLOAD PUSH4 0x4DF47953 PUSH1 0xE1 SHL DUP2 MSTORE PUSH1 0x20 PUSH1 0x4 DUP3 ADD MSTORE PUSH1 0x0 DUP2 DUP1 PUSH2 0x588 PUSH1 0x24 DUP3 ADD DUP8 PUSH2 0x23FD JUMP JUMPDEST SUB DUP2 DUP8 GAS STATICCALL SWAP1 DUP2 ISZERO PUSH2 0x3F7 JUMPI PUSH2 0x60D SWAP2 PUSH1 0x0 DUP1 SWAP2 PUSH1 0x0 SWAP1 PUSH2 0xE1B JUMPI JUMPDEST PUSH2 0x5C3 SWAP3 SWAP4 POP PUSH2 0x5B3 SWAP1 PUSH2 0x26CA JUMP JUMPDEST PUSH1 0x1 PUSH1 0x1 PUSH1 0xA0 SHL SUB AND ISZERO ISZERO PUSH2 0x270C JUMP JUMPDEST PUSH2 0x5CE TIMESTAMP DUP5 GT PUSH2 0x2758 JUMP JUMPDEST PUSH2 0x5D9 DUP4 DUP8 GT PUSH2 0x27A4 JUMP JUMPDEST PUSH2 0x5ED PUSH2 0x5E7 DUP8 DUP6 DUP8 PUSH2 0x29B7 JUMP JUMPDEST ISZERO PUSH2 0x27EF JUMP JUMPDEST PUSH3 0x15180 PUSH2 0x5FB DUP5 DUP9 PUSH2 0x2850 JUMP JUMPDEST DIV SWAP1 PUSH2 0x608 DUP3 ISZERO ISZERO PUSH2 0x285D JUMP JUMPDEST PUSH2 0x28C2 JUMP JUMPDEST SWAP3 DUP4 CALLVALUE LT PUSH2 0xDDF JUMPI PUSH1 0x20 PUSH1 0x4 SWAP2 PUSH1 0x40 MLOAD SWAP3 DUP4 DUP1 SWAP3 PUSH4 0x3375E33F PUSH1 0xE2 SHL DUP3 MSTORE GAS STATICCALL DUP1 ISZERO PUSH2 0x3F7 JUMPI PUSH2 0xFFFF PUSH2 0x64E SWAP2 PUSH2 0x3E8 SWAP4 PUSH1 0x0 SWAP2 PUSH2 0xDB0 JUMPI JUMPDEST POP AND DUP6 PUSH2 0x28C2 JUMP JUMPDEST DIV SWAP3 PUSH2 0x65A DUP5 DUP3 PUSH2 0x2850 JUMP JUMPDEST SWAP2 PUSH2 0x666 PUSH1 0x2 SLOAD PUSH2 0x28D5 JUMP JUMPDEST SWAP5 DUP6 PUSH1 0x2 SSTORE PUSH2 0x673 PUSH2 0x2D09 JUMP JUMPDEST SWAP4 PUSH1 0x40 MLOAD SWAP8 PUSH2 0x681 DUP10 PUSH2 0x22F9 JUMP JUMPDEST DUP8 DUP10 MSTORE DUP7 PUSH1 0x20 DUP11 ADD MSTORE PUSH1 0x1 DUP1 PUSH1 0xA0 SHL SUB DUP7 AND PUSH1 0x40 DUP11 ADD MSTORE DUP4 PUSH1 0x60 DUP11 ADD MSTORE PUSH1 0x80 DUP10 ADD MSTORE DUP4 PUSH1 0xA0 DUP10 ADD MSTORE DUP2 PUSH1 0xC0 DUP10 ADD MSTORE PUSH1 0xE0 DUP9 ADD MSTORE PUSH1 0x0 PUSH2 0x100 DUP9 ADD MSTORE PUSH1 0x0 PUSH2 0x120 DUP9 ADD MSTORE PUSH1 0x0 PUSH2 0x140 DUP9 ADD MSTORE PUSH1 0x0 PUSH2 0x160 DUP9 ADD MSTORE PUSH1 0x0 PUSH2 0x180 DUP9 ADD MSTORE PUSH1 0x0 PUSH2 0x1A0 DUP9 ADD MSTORE PUSH1 0x0 PUSH2 0x1C0 DUP9 ADD MSTORE PUSH1 0x20 SWAP7 PUSH1 0x40 MLOAD PUSH2 0x6FC DUP10 DUP3 PUSH2 0x2315 JUMP JUMPDEST PUSH1 0x0 DUP2 MSTORE PUSH2 0x1E0 DUP3 ADD MSTORE PUSH1 0x40 MLOAD PUSH2 0x713 DUP10 DUP3 PUSH2 0x2315 JUMP JUMPDEST PUSH1 0x0 DUP2 MSTORE PUSH2 0x200 DUP3 ADD MSTORE PUSH1 0x40 MLOAD PUSH2 0x72A DUP10 DUP3 PUSH2 0x2315 JUMP JUMPDEST PUSH1 0x0 DUP2 MSTORE PUSH2 0x220 DUP3 ADD MSTORE PUSH1 0x0 PUSH2 0x240 DUP3 ADD MSTORE DUP7 PUSH1 0x0 MSTORE PUSH1 0x3 DUP9 MSTORE PUSH1 0x40 PUSH1 0x0 KECCAK256 SWAP1 DUP1 MLOAD DUP3 SSTORE PUSH1 0x20 DUP2 ADD MLOAD DUP1 MLOAD SWAP1 PUSH1 0x1 PUSH1 0x1 PUSH1 0x40 SHL SUB DUP3 GT PUSH2 0xC3C JUMPI DUP2 SWAP1 PUSH2 0x780 DUP3 PUSH2 0x777 PUSH1 0x1 DUP9 ADD SLOAD PUSH2 0x22BF JUMP JUMPDEST PUSH1 0x1 DUP9 ADD PUSH2 0x28FB JUMP JUMPDEST DUP12 SWAP1 PUSH1 0x1F DUP4 GT PUSH1 0x1 EQ PUSH2 0xD3F JUMPI PUSH1 0x0 SWAP3 PUSH2 0xD34 JUMPI JUMPDEST POP POP DUP2 PUSH1 0x1 SHL SWAP2 PUSH1 0x0 NOT SWAP1 PUSH1 0x3 SHL SHR NOT AND OR PUSH1 0x1 DUP4 ADD SSTORE JUMPDEST PUSH1 0x40 DUP2 ADD MLOAD PUSH1 0x2 DUP4 ADD DUP1 SLOAD PUSH1 0x1 PUSH1 0x1 PUSH1 0xA0 SHL SUB NOT AND PUSH1 0x1 PUSH1 0x1 PUSH1 0xA0 SHL SUB SWAP3 SWAP1 SWAP3 AND SWAP2 SWAP1 SWAP2 OR SWAP1 SSTORE PUSH1 0x60 DUP2 ADD MLOAD PUSH1 0x3 DUP4 ADD SSTORE PUSH1 0x80 DUP2 ADD MLOAD PUSH1 0x4 DUP4 ADD SSTORE PUSH1 0xA0 DUP2 ADD MLOAD PUSH1 0x5 DUP4 ADD SSTORE PUSH1 0xC0 DUP2 ADD MLOAD PUSH1 0x6 DUP4 ADD SSTORE PUSH1 0xE0 DUP2 ADD MLOAD PUSH1 0x7 DUP4 ADD SSTORE PUSH2 0x100 DUP2 ADD MLOAD PUSH1 0x8 DUP2 LT ISZERO PUSH2 0x37A JUMPI PUSH2 0x822 SWAP1 PUSH1 0x8 DUP5 ADD PUSH2 0x2573 JUMP JUMPDEST PUSH2 0x120 DUP2 ADD MLOAD PUSH1 0x9 DUP4 ADD SSTORE PUSH2 0x140 DUP2 ADD MLOAD PUSH1 0xA DUP4 ADD SSTORE PUSH2 0x160 DUP2 ADD MLOAD PUSH1 0xB DUP4 ADD SSTORE PUSH2 0x89F PUSH1 0xC DUP4 ADD PUSH2 0x867 PUSH2 0x180 DUP5 ADD MLOAD ISZERO ISZERO DUP3 SWAP1 PUSH1 0xFF DUP1 NOT DUP4 SLOAD AND SWAP2 ISZERO ISZERO AND OR SWAP1 SSTORE JUMP JUMPDEST PUSH2 0x1A0 DUP4 ADD MLOAD DUP2 SLOAD PUSH2 0xFF00 NOT AND SWAP1 ISZERO ISZERO PUSH1 0x8 SHL PUSH2 0xFF00 AND OR DUP2 SSTORE PUSH2 0x1C0 DUP4 ADD MLOAD DUP2 SLOAD PUSH3 0xFF0000 NOT AND SWAP1 ISZERO ISZERO PUSH1 0x10 SHL PUSH3 0xFF0000 AND OR SWAP1 SSTORE JUMP JUMPDEST PUSH1 0xD DUP3 ADD PUSH2 0x1E0 DUP3 ADD MLOAD DUP1 MLOAD SWAP1 PUSH1 0x1 PUSH1 0x1 PUSH1 0x40 SHL SUB DUP3 GT PUSH2 0xC3C JUMPI DUP2 SWAP1 PUSH2 0x8D0 DUP3 PUSH2 0x8CA DUP7 SLOAD PUSH2 0x22BF JUMP JUMPDEST DUP7 PUSH2 0x28FB JUMP JUMPDEST DUP13 SWAP1 DUP14 PUSH1 0x1F DUP5 GT PUSH1 0x1 EQ PUSH2 0xCCE JUMPI POP PUSH1 0x0 SWAP3 PUSH2 0xCC3 JUMPI JUMPDEST POP POP DUP2 PUSH1 0x1 SHL SWAP2 PUSH1 0x0 NOT SWAP1 PUSH1 0x3 SHL SHR NOT AND OR SWAP1 SSTORE JUMPDEST PUSH1 0xE DUP3 ADD PUSH2 0x200 DUP3 ADD MLOAD DUP1 MLOAD SWAP1 PUSH1 0x1 PUSH1 0x1 PUSH1 0x40 SHL SUB DUP3 GT PUSH2 0xC3C JUMPI DUP2 SWAP1 PUSH2 0x927 DUP3 PUSH2 0x8CA DUP7 SLOAD PUSH2 0x22BF JUMP JUMPDEST DUP13 SWAP1 DUP14 PUSH1 0x1F DUP5 GT PUSH1 0x1 EQ PUSH2 0xC5D JUMPI POP PUSH1 0x0 SWAP3 PUSH2 0xC52 JUMPI JUMPDEST POP POP DUP2 PUSH1 0x1 SHL SWAP2 PUSH1 0x0 NOT SWAP1 PUSH1 0x3 SHL SHR NOT AND OR SWAP1 SSTORE JUMPDEST PUSH1 0xF DUP3 ADD PUSH2 0x220 DUP3 ADD MLOAD DUP1 MLOAD SWAP1 PUSH1 0x1 PUSH1 0x1 PUSH1 0x40 SHL SUB DUP3 GT PUSH2 0xC3C JUMPI PUSH2 0x982 DUP3 PUSH2 0x97C DUP6 SLOAD PUSH2 0x22BF JUMP JUMPDEST DUP6 PUSH2 0x28FB JUMP JUMPDEST DUP12 SWAP1 DUP13 PUSH1 0x1F DUP5 GT PUSH1 0x1 EQ PUSH2 0xBC8 JUMPI POP SWAP3 DUP3 PUSH2 0x240 SWAP4 PUSH2 0x9D4 SWAP8 SWAP7 SWAP4 PUSH1 0x10 SWAP7 PUSH1 0x0 SWAP3 PUSH2 0xBBD JUMPI JUMPDEST POP POP DUP2 PUSH1 0x1 SHL SWAP2 PUSH1 0x0 NOT SWAP1 PUSH1 0x3 SHL SHR NOT AND OR SWAP1 SSTORE JUMPDEST ADD MLOAD ISZERO ISZERO SWAP2 ADD SWAP1 PUSH1 0xFF DUP1 NOT DUP4 SLOAD AND SWAP2 ISZERO ISZERO AND OR SWAP1 SSTORE JUMP JUMPDEST PUSH2 0x9FD DUP7 PUSH1 0x40 MLOAD DUP10 DUP2 DUP2 PUSH2 0x9EE DUP12 DUP4 DUP2 MLOAD SWAP4 DUP5 SWAP3 ADD PUSH2 0x23DA JUMP JUMPDEST DUP2 ADD PUSH1 0x4 DUP2 MSTORE SUB ADD SWAP1 KECCAK256 PUSH2 0x2940 JUMP JUMPDEST PUSH1 0x1 DUP1 PUSH1 0xA0 SHL SUB DUP5 AND PUSH1 0x0 MSTORE PUSH1 0x5 DUP8 MSTORE PUSH2 0xA1B DUP7 PUSH1 0x40 PUSH1 0x0 KECCAK256 PUSH2 0x2940 JUMP JUMPDEST PUSH1 0x1 SLOAD PUSH1 0x40 MLOAD PUSH4 0x11A4121 PUSH1 0xE6 SHL DUP2 MSTORE SWAP1 DUP9 SWAP1 DUP3 SWAP1 PUSH1 0x4 SWAP1 DUP3 SWAP1 PUSH1 0x1 PUSH1 0x1 PUSH1 0xA0 SHL SUB AND GAS STATICCALL SWAP1 DUP2 ISZERO PUSH2 0x3F7 JUMPI PUSH1 0x0 SWAP2 PUSH2 0xB78 JUMPI JUMPDEST POP PUSH1 0x0 SWAP2 DUP3 SWAP2 DUP3 SWAP2 DUP3 SWAP2 PUSH1 0x1 PUSH1 0x1 PUSH1 0xA0 SHL SUB AND GAS CALL PUSH2 0xA6C PUSH2 0x258B JUMP JUMPDEST POP ISZERO PUSH2 0xB3D JUMPI DUP2 CALLVALUE GT PUSH2 0xAE0 JUMPI JUMPDEST SWAP2 PUSH32 0xB21A131DB9E3377301833CE70BE73B950EF23B9D94873B831AC7BBEE23314C38 SWAP4 SWAP2 PUSH2 0xABB SWAP4 PUSH1 0x40 MLOAD SWAP5 DUP6 SWAP5 DUP9 DUP7 MSTORE PUSH1 0xA0 DUP11 DUP8 ADD MSTORE PUSH1 0xA0 DUP7 ADD SWAP1 PUSH2 0x23FD JUMP JUMPDEST PUSH1 0x1 PUSH1 0x1 PUSH1 0xA0 SHL SUB SWAP1 SWAP4 AND PUSH1 0x40 DUP6 ADD MSTORE PUSH1 0x60 DUP5 ADD MSTORE PUSH1 0x80 DUP4 ADD MSTORE SUB SWAP1 LOG1 PUSH1 0x40 MLOAD SWAP1 DUP2 MSTORE RETURN JUMPDEST PUSH1 0x0 DUP1 DUP1 DUP1 PUSH2 0xAEF DUP7 CALLVALUE PUSH2 0x2850 JUMP JUMPDEST DUP8 GAS CALL PUSH2 0xAFA PUSH2 0x258B JUMP JUMPDEST POP PUSH2 0xA7A JUMPI PUSH1 0x40 MLOAD PUSH3 0x461BCD PUSH1 0xE5 SHL DUP2 MSTORE PUSH1 0x4 DUP2 ADD DUP8 SWAP1 MSTORE PUSH1 0x16 PUSH1 0x24 DUP3 ADD MSTORE PUSH22 0x1499599D5B99081D1C985B9CD9995C8819985A5B1959 PUSH1 0x52 SHL PUSH1 0x44 DUP3 ADD MSTORE PUSH1 0x64 SWAP1 REVERT JUMPDEST PUSH1 0x40 MLOAD PUSH3 0x461BCD PUSH1 0xE5 SHL DUP2 MSTORE PUSH1 0x4 DUP2 ADD DUP8 SWAP1 MSTORE PUSH1 0x13 PUSH1 0x24 DUP3 ADD MSTORE PUSH19 0x119959481D1C985B9CD9995C8819985A5B1959 PUSH1 0x6A SHL PUSH1 0x44 DUP3 ADD MSTORE PUSH1 0x64 SWAP1 REVERT JUMPDEST DUP9 DUP2 DUP2 RETURNDATASIZE DUP4 GT PUSH2 0xBB6 JUMPI JUMPDEST PUSH2 0xB8D DUP2 DUP4 PUSH2 0x2315 JUMP JUMPDEST DUP2 ADD SUB SLT PUSH2 0xBB2 JUMPI MLOAD SWAP1 PUSH1 0x1 PUSH1 0x1 PUSH1 0xA0 SHL SUB DUP3 AND DUP3 SUB PUSH2 0xBAF JUMPI POP PUSH1 0x0 PUSH2 0xA4F JUMP JUMPDEST DUP1 REVERT JUMPDEST POP DUP1 REVERT JUMPDEST POP RETURNDATASIZE PUSH2 0xB83 JUMP JUMPDEST ADD MLOAD SWAP1 POP DUP16 DUP1 PUSH2 0x9A8 JUMP JUMPDEST SWAP2 SWAP1 PUSH1 0x1F NOT DUP5 AND DUP6 PUSH1 0x0 MSTORE DUP4 PUSH1 0x0 KECCAK256 SWAP4 PUSH1 0x0 SWAP1 JUMPDEST DUP3 DUP3 LT PUSH2 0xC24 JUMPI POP POP SWAP4 PUSH2 0x9D4 SWAP8 SWAP7 SWAP4 PUSH1 0x10 SWAP7 SWAP4 PUSH1 0x1 SWAP4 DUP4 PUSH2 0x240 SWAP9 LT PUSH2 0xC0B JUMPI JUMPDEST POP POP POP DUP2 SHL ADD SWAP1 SSTORE PUSH2 0x9BD JUMP JUMPDEST ADD MLOAD PUSH1 0x0 NOT PUSH1 0xF8 DUP5 PUSH1 0x3 SHL AND SHR NOT AND SWAP1 SSTORE DUP16 DUP1 DUP1 PUSH2 0xBFE JUMP JUMPDEST DUP1 PUSH1 0x1 DUP7 SWAP8 DUP3 SWAP5 SWAP8 DUP8 ADD MLOAD DUP2 SSTORE ADD SWAP7 ADD SWAP5 ADD SWAP1 PUSH2 0xBDC JUMP JUMPDEST PUSH4 0x4E487B71 PUSH1 0xE0 SHL PUSH1 0x0 MSTORE PUSH1 0x41 PUSH1 0x4 MSTORE PUSH1 0x24 PUSH1 0x0 REVERT JUMPDEST ADD MLOAD SWAP1 POP DUP13 DUP1 PUSH2 0x93E JUMP JUMPDEST PUSH1 0x0 DUP7 DUP2 MSTORE DUP2 DUP2 KECCAK256 SWAP5 POP PUSH1 0x1F NOT DUP7 AND SWAP2 JUMPDEST DUP3 DUP3 LT PUSH2 0xCAB JUMPI POP POP SWAP1 DUP5 PUSH1 0x1 SWAP6 SWAP5 SWAP4 SWAP3 LT PUSH2 0xC92 JUMPI JUMPDEST POP POP POP DUP2 SHL ADD SWAP1 SSTORE PUSH2 0x953 JUMP JUMPDEST ADD MLOAD PUSH1 0x0 NOT PUSH1 0xF8 DUP5 PUSH1 0x3 SHL AND SHR NOT AND SWAP1 SSTORE DUP13 DUP1 DUP1 PUSH2 0xC85 JUMP JUMPDEST DUP1 PUSH1 0x1 DUP7 SWAP8 DUP3 SWAP5 SWAP8 DUP8 ADD MLOAD DUP2 SSTORE ADD SWAP7 ADD SWAP5 ADD SWAP1 PUSH2 0xC6E JUMP JUMPDEST ADD MLOAD SWAP1 POP DUP13 DUP1 PUSH2 0x8E7 JUMP JUMPDEST PUSH1 0x0 DUP7 DUP2 MSTORE DUP2 DUP2 KECCAK256 SWAP5 POP PUSH1 0x1F NOT DUP7 AND SWAP2 JUMPDEST DUP3 DUP3 LT PUSH2 0xD1C JUMPI POP POP SWAP1 DUP5 PUSH1 0x1 SWAP6 SWAP5 SWAP4 SWAP3 LT PUSH2 0xD03 JUMPI JUMPDEST POP POP POP DUP2 SHL ADD SWAP1 SSTORE PUSH2 0x8FC JUMP JUMPDEST ADD MLOAD PUSH1 0x0 NOT PUSH1 0xF8 DUP5 PUSH1 0x3 SHL AND SHR NOT AND SWAP1 SSTORE DUP13 DUP1 DUP1 PUSH2 0xCF6 JUMP JUMPDEST DUP1 PUSH1 0x1 DUP7 SWAP8 DUP3 SWAP5 SWAP8 DUP8 ADD MLOAD DUP2 SSTORE ADD SWAP7 ADD SWAP5 ADD SWAP1 PUSH2 0xCDF JUMP JUMPDEST ADD MLOAD SWAP1 POP DUP12 DUP1 PUSH2 0x795 JUMP JUMPDEST SWAP3 POP PUSH1 0x1 DUP6 ADD PUSH1 0x0 MSTORE DUP12 PUSH1 0x0 KECCAK256 SWAP1 PUSH1 0x0 SWAP4 JUMPDEST DUP14 PUSH1 0x1F NOT DUP6 AND DUP7 LT PUSH2 0xD97 JUMPI POP PUSH1 0x1 SWAP5 POP DUP4 PUSH1 0x1F NOT DUP2 AND LT PUSH2 0xD7E JUMPI JUMPDEST POP POP POP DUP2 SHL ADD PUSH1 0x1 DUP4 ADD SSTORE PUSH2 0x7AD JUMP JUMPDEST ADD MLOAD PUSH1 0x0 NOT PUSH1 0xF8 DUP5 PUSH1 0x3 SHL AND SHR NOT AND SWAP1 SSTORE DUP12 DUP1 DUP1 PUSH2 0xD6E JUMP JUMPDEST DUP3 DUP3 ADD MLOAD DUP5 SSTORE SWAP5 DUP6 ADD SWAP5 PUSH1 0x1 SWAP1 SWAP4 ADD SWAP3 SWAP1 SWAP2 ADD SWAP1 PUSH2 0xD51 JUMP JUMPDEST PUSH2 0xDD2 SWAP2 POP PUSH1 0x20 RETURNDATASIZE PUSH1 0x20 GT PUSH2 0xDD8 JUMPI JUMPDEST PUSH2 0xDCA DUP2 DUP4 PUSH2 0x2315 JUMP JUMPDEST DUP2 ADD SWAP1 PUSH2 0x28A8 JUMP JUMPDEST DUP9 PUSH2 0x646 JUMP JUMPDEST POP RETURNDATASIZE PUSH2 0xDC0 JUMP JUMPDEST PUSH1 0x40 MLOAD PUSH3 0x461BCD PUSH1 0xE5 SHL DUP2 MSTORE PUSH1 0x20 PUSH1 0x4 DUP3 ADD MSTORE PUSH1 0x14 PUSH1 0x24 DUP3 ADD MSTORE PUSH20 0x125B9CDD59999A58DA595B9D081C185E5B595B9D PUSH1 0x62 SHL PUSH1 0x44 DUP3 ADD MSTORE PUSH1 0x64 SWAP1 REVERT JUMPDEST POP POP POP PUSH2 0x5C3 PUSH2 0xE38 PUSH2 0x5B3 SWAP3 RETURNDATASIZE DUP1 PUSH1 0x0 DUP4 RETURNDATACOPY PUSH2 0x3E3 DUP2 DUP4 PUSH2 0x2315 JUMP JUMPDEST POP SWAP1 SWAP6 POP DUP6 SWAP5 POP SWAP1 SWAP3 POP SWAP1 POP PUSH2 0x5A4 JUMP JUMPDEST CALLVALUE PUSH2 0x1AC JUMPI PUSH1 0x40 CALLDATASIZE PUSH1 0x3 NOT ADD SLT PUSH2 0x1AC JUMPI PUSH1 0x4 CALLDATALOAD PUSH1 0x24 CALLDATALOAD DUP1 ISZERO ISZERO DUP2 SUB PUSH2 0x1AC JUMPI PUSH2 0xE71 PUSH2 0x2BAE JUMP JUMPDEST DUP2 PUSH1 0x0 MSTORE PUSH1 0x3 PUSH1 0x20 MSTORE PUSH1 0xFF PUSH1 0x8 PUSH1 0x40 PUSH1 0x0 KECCAK256 ADD SLOAD AND PUSH1 0x8 DUP2 LT ISZERO PUSH2 0x37A JUMPI PUSH1 0x7 SUB PUSH2 0xF21 JUMPI ISZERO PUSH2 0xF16 JUMPI PUSH1 0x40 DUP2 PUSH32 0xEDC1198B595A44E20B4738F6C85854E2C9F704982F488658F4C765030F152656 SWAP3 PUSH1 0x0 MSTORE PUSH1 0x3 PUSH1 0x20 MSTORE DUP2 PUSH1 0x0 KECCAK256 PUSH1 0x8 DUP2 ADD PUSH1 0x6 PUSH1 0xFF NOT DUP3 SLOAD AND OR SWAP1 SSTORE PUSH2 0xF08 PUSH1 0x0 DUP1 DUP1 DUP1 PUSH1 0x7 PUSH1 0x1 DUP1 PUSH1 0xA0 SHL SUB PUSH1 0x2 DUP9 ADD SLOAD AND SWAP7 ADD SWAP6 DUP7 SLOAD SWAP1 GAS CALL PUSH2 0xF02 PUSH2 0x258B JUMP JUMPDEST POP PUSH2 0x25BB JUMP JUMPDEST SLOAD DUP3 MLOAD SWAP2 DUP3 MSTORE PUSH1 0x20 DUP3 ADD MSTORE LOG1 STOP JUMPDEST PUSH2 0xF1F SWAP1 PUSH2 0x2BF6 JUMP JUMPDEST STOP JUMPDEST PUSH1 0x40 MLOAD PUSH3 0x461BCD PUSH1 0xE5 SHL DUP2 MSTORE PUSH1 0x20 PUSH1 0x4 DUP3 ADD MSTORE PUSH1 0x16 PUSH1 0x24 DUP3 ADD MSTORE PUSH22 0x2737BA1032B9B1B0B630BA32B2103A379030B236B4B7 PUSH1 0x51 SHL PUSH1 0x44 DUP3 ADD MSTORE PUSH1 0x64 SWAP1 REVERT JUMPDEST CALLVALUE PUSH2 0x1AC JUMPI PUSH1 0x20 CALLDATASIZE PUSH1 0x3 NOT ADD SLT PUSH2 0x1AC JUMPI PUSH1 0x4 CALLDATALOAD DUP1 PUSH1 0x0 MSTORE PUSH1 0x3 PUSH1 0x20 MSTORE PUSH1 0x40 PUSH1 0x0 KECCAK256 DUP2 DUP2 SLOAD SUB PUSH2 0x10ED JUMPI PUSH1 0x8 DUP2 ADD SWAP2 PUSH1 0xFF DUP4 SLOAD AND PUSH1 0x8 DUP2 LT ISZERO PUSH2 0x37A JUMPI PUSH2 0x10B3 JUMPI PUSH1 0x3 DUP3 ADD SLOAD TIMESTAMP LT PUSH2 0x106E JUMPI PUSH1 0x9 DUP3 ADD DUP1 SLOAD PUSH2 0x101F JUMPI TIMESTAMP SWAP1 SSTORE PUSH3 0x15180 TIMESTAMP ADD DUP1 TIMESTAMP GT PUSH2 0x1009 JUMPI PUSH32 0xD6C4872CC5D86D0C496AD388BBE994A94376B28276D219FB70019F84D4B3B761 SWAP4 PUSH1 0xA PUSH1 0x40 SWAP5 ADD SWAP2 DUP3 SSTORE PUSH1 0x1 PUSH1 0xFF NOT DUP3 SLOAD AND OR SWAP1 SSTORE SLOAD DUP3 MLOAD SWAP2 DUP3 MSTORE PUSH1 0x20 DUP3 ADD MSTORE LOG1 STOP JUMPDEST PUSH4 0x4E487B71 PUSH1 0xE0 SHL PUSH1 0x0 MSTORE PUSH1 0x11 PUSH1 0x4 MSTORE PUSH1 0x24 PUSH1 0x0 REVERT JUMPDEST PUSH1 0x40 MLOAD PUSH3 0x461BCD PUSH1 0xE5 SHL DUP2 MSTORE PUSH1 0x20 PUSH1 0x4 DUP3 ADD MSTORE PUSH1 0x21 PUSH1 0x24 DUP3 ADD MSTORE PUSH32 0x436865636B2D696E2077696E646F7720616C7265616479207472696767657265 PUSH1 0x44 DUP3 ADD MSTORE PUSH1 0x19 PUSH1 0xFA SHL PUSH1 0x64 DUP3 ADD MSTORE PUSH1 0x84 SWAP1 REVERT JUMPDEST PUSH1 0x40 MLOAD PUSH3 0x461BCD PUSH1 0xE5 SHL DUP2 MSTORE PUSH1 0x20 PUSH1 0x4 DUP3 ADD MSTORE PUSH1 0x19 PUSH1 0x24 DUP3 ADD MSTORE PUSH32 0x436865636B2D696E2064617465206E6F74207265616368656400000000000000 PUSH1 0x44 DUP3 ADD MSTORE PUSH1 0x64 SWAP1 REVERT JUMPDEST PUSH1 0x40 MLOAD PUSH3 0x461BCD PUSH1 0xE5 SHL DUP2 MSTORE PUSH1 0x20 PUSH1 0x4 DUP3 ADD MSTORE PUSH1 0x12 PUSH1 0x24 DUP3 ADD MSTORE PUSH18 0x426F6F6B696E67206E6F7420616374697665 PUSH1 0x70 SHL PUSH1 0x44 DUP3 ADD MSTORE PUSH1 0x64 SWAP1 REVERT JUMPDEST PUSH1 0x40 MLOAD PUSH3 0x461BCD PUSH1 0xE5 SHL DUP2 MSTORE PUSH1 0x20 PUSH1 0x4 DUP3 ADD MSTORE PUSH1 0x16 PUSH1 0x24 DUP3 ADD MSTORE PUSH22 0x109BDBDADA5B99C8191BD95CC81B9BDD08195E1A5CDD PUSH1 0x52 SHL PUSH1 0x44 DUP3 ADD MSTORE PUSH1 0x64 SWAP1 REVERT JUMPDEST CALLVALUE PUSH2 0x1AC JUMPI PUSH1 0x0 CALLDATASIZE PUSH1 0x3 NOT ADD SLT PUSH2 0x1AC JUMPI PUSH1 0x1 SLOAD PUSH1 0x40 MLOAD PUSH1 0x1 PUSH1 0x1 PUSH1 0xA0 SHL SUB SWAP1 SWAP2 AND DUP2 MSTORE PUSH1 0x20 SWAP1 RETURN JUMPDEST CALLVALUE PUSH2 0x1AC JUMPI PUSH1 0x20 CALLDATASIZE PUSH1 0x3 NOT ADD SLT PUSH2 0x1AC JUMPI PUSH1 0x4 CALLDATALOAD PUSH1 0x0 DUP2 DUP2 MSTORE PUSH1 0x3 PUSH1 0x20 MSTORE PUSH1 0x40 SWAP1 KECCAK256 PUSH1 0x2 DUP2 ADD SLOAD SWAP1 SWAP2 SWAP1 PUSH2 0x1196 SWAP1 PUSH1 0x1 PUSH1 0x1 PUSH1 0xA0 SHL SUB SWAP1 DUP2 AND SWAP1 PUSH2 0x442 PUSH2 0x2D09 JUMP JUMPDEST PUSH1 0xFF PUSH1 0x8 DUP4 ADD SLOAD AND SWAP1 PUSH1 0x8 DUP3 LT ISZERO PUSH2 0x37A JUMPI PUSH1 0xFF PUSH1 0xC PUSH32 0x847A573ABAA8875D3FE466D414094860F38BE0EA3E161A0EF08C0ACD955F7EA7 SWAP5 PUSH2 0x11DC PUSH1 0x4 PUSH1 0x60 SWAP7 EQ PUSH2 0x297A JUMP JUMPDEST PUSH2 0x11EC PUSH1 0xB DUP3 ADD SLOAD TIMESTAMP GT ISZERO PUSH2 0x2AD6 JUMP JUMPDEST ADD DUP1 SLOAD PUSH3 0xFF0000 NOT AND PUSH3 0x10000 OR DUP1 DUP3 SSTORE PUSH1 0x8 SHR DUP3 AND PUSH2 0x1223 JUMPI JUMPDEST SLOAD PUSH1 0x8 SHR AND PUSH1 0x40 MLOAD SWAP2 DUP3 MSTORE ISZERO ISZERO PUSH1 0x20 DUP3 ADD MSTORE PUSH1 0x1 PUSH1 0x40 DUP3 ADD MSTORE LOG1 STOP JUMPDEST PUSH2 0x122C DUP4 PUSH2 0x2BF6 JUMP JUMPDEST PUSH2 0x1207 JUMP JUMPDEST CALLVALUE PUSH2 0x1AC JUMPI PUSH1 0x40 CALLDATASIZE PUSH1 0x3 NOT ADD SLT PUSH2 0x1AC JUMPI PUSH2 0x124A PUSH2 0x24B9 JUMP JUMPDEST PUSH1 0x1 PUSH1 0x1 PUSH1 0xA0 SHL SUB AND PUSH1 0x0 SWAP1 DUP2 MSTORE PUSH1 0x5 PUSH1 0x20 MSTORE PUSH1 0x40 SWAP1 KECCAK256 DUP1 SLOAD PUSH1 0x24 CALLDATALOAD SWAP2 SWAP1 DUP3 LT ISZERO PUSH2 0x1AC JUMPI PUSH1 0x20 SWAP2 PUSH2 0x127B SWAP2 PUSH2 0x2509 JUMP JUMPDEST SWAP1 SLOAD SWAP1 PUSH1 0x3 SHL SHR PUSH1 0x40 MLOAD SWAP1 DUP2 MSTORE RETURN JUMPDEST CALLVALUE PUSH2 0x1AC JUMPI PUSH1 0x0 CALLDATASIZE PUSH1 0x3 NOT ADD SLT PUSH2 0x1AC JUMPI PUSH1 0x0 SLOAD PUSH1 0x40 MLOAD PUSH1 0x1 PUSH1 0x1 PUSH1 0xA0 SHL SUB SWAP1 SWAP2 AND DUP2 MSTORE PUSH1 0x20 SWAP1 RETURN JUMPDEST CALLVALUE PUSH2 0x1AC JUMPI PUSH1 0x40 CALLDATASIZE PUSH1 0x3 NOT ADD SLT PUSH2 0x1AC JUMPI PUSH1 0x4 CALLDATALOAD PUSH1 0x1 PUSH1 0x1 PUSH1 0x40 SHL SUB DUP2 GT PUSH2 0x1AC JUMPI PUSH2 0x12E3 SWAP1 CALLDATASIZE SWAP1 PUSH1 0x4 ADD PUSH2 0x243D JUMP JUMPDEST PUSH2 0x12FF PUSH1 0x20 PUSH1 0x24 CALLDATALOAD SWAP3 DUP2 PUSH1 0x40 MLOAD SWAP4 DUP3 DUP6 DUP1 SWAP5 MLOAD SWAP4 DUP5 SWAP3 ADD PUSH2 0x23DA JUMP JUMPDEST DUP2 ADD PUSH1 0x4 DUP2 MSTORE SUB ADD SWAP1 KECCAK256 DUP1 SLOAD DUP3 LT ISZERO PUSH2 0x1AC JUMPI PUSH1 0x20 SWAP2 PUSH2 0x127B SWAP2 PUSH2 0x2509 JUMP JUMPDEST CALLVALUE PUSH2 0x1AC JUMPI PUSH1 0x0 CALLDATASIZE PUSH1 0x3 NOT ADD SLT PUSH2 0x1AC JUMPI PUSH1 0x40 MLOAD PUSH32 0x0 PUSH1 0x1 PUSH1 0x1 PUSH1 0xA0 SHL SUB AND DUP2 MSTORE PUSH1 0x20 SWAP1 RETURN JUMPDEST CALLVALUE PUSH2 0x1AC JUMPI PUSH1 0x20 CALLDATASIZE PUSH1 0x3 NOT ADD SLT PUSH2 0x1AC JUMPI PUSH1 0x4 CALLDATALOAD DUP1 PUSH1 0x0 MSTORE PUSH1 0x3 PUSH1 0x20 MSTORE PUSH1 0x40 PUSH1 0x0 KECCAK256 PUSH1 0x8 DUP2 ADD PUSH1 0xFF DUP2 SLOAD AND PUSH1 0x8 DUP2 LT ISZERO PUSH2 0x37A JUMPI PUSH1 0x1 SUB PUSH2 0x14DC JUMPI PUSH1 0xA DUP3 ADD SLOAD TIMESTAMP GT ISZERO PUSH2 0x1497 JUMPI PUSH1 0x4 PUSH1 0xFF NOT DUP3 SLOAD AND OR SWAP1 SSTORE PUSH3 0x15180 TIMESTAMP ADD SWAP2 DUP3 TIMESTAMP GT PUSH2 0x1009 JUMPI PUSH1 0xD DUP3 PUSH32 0xE07AD455E24561261E9047AAB2F668AE1FC2CC6FDA35021764673613B888836D SWAP5 PUSH1 0xB PUSH1 0x80 SWAP6 ADD SSTORE ADD PUSH2 0x13FA DUP2 SLOAD PUSH2 0x22BF JUMP JUMPDEST PUSH1 0x1F DUP2 GT PUSH2 0x1475 JUMPI JUMPDEST POP PUSH1 0x1E PUSH15 0x26B4B9B9B2B21031B432B1B596B4B7 PUSH1 0x89 SHL ADD SWAP1 SSTORE PUSH32 0x771AD1A63DB62F3C96F995005DC4038B2D11173769793751C154AFEC8E3EED6D PUSH1 0x20 PUSH1 0x40 MLOAD DUP4 DUP2 MSTORE LOG1 PUSH1 0x40 MLOAD SWAP1 DUP2 MSTORE PUSH1 0x40 PUSH1 0x20 DUP3 ADD MSTORE PUSH1 0xF PUSH1 0x40 DUP3 ADD MSTORE PUSH15 0x26B4B9B9B2B21031B432B1B596B4B7 PUSH1 0x89 SHL PUSH1 0x60 DUP3 ADD MSTORE LOG1 STOP JUMPDEST PUSH2 0x1491 SWAP1 DUP3 PUSH1 0x0 MSTORE PUSH1 0x1F PUSH1 0x20 PUSH1 0x0 KECCAK256 SWAP2 ADD PUSH1 0x5 SHR DUP2 ADD SWAP1 PUSH2 0x28E4 JUMP JUMPDEST DUP5 PUSH2 0x1403 JUMP JUMPDEST PUSH1 0x40 MLOAD PUSH3 0x461BCD PUSH1 0xE5 SHL DUP2 MSTORE PUSH1 0x20 PUSH1 0x4 DUP3 ADD MSTORE PUSH1 0x1B PUSH1 0x24 DUP3 ADD MSTORE PUSH32 0x436865636B2D696E2077696E646F77206E6F7420657870697265640000000000 PUSH1 0x44 DUP3 ADD MSTORE PUSH1 0x64 SWAP1 REVERT JUMPDEST PUSH1 0x40 MLOAD PUSH3 0x461BCD PUSH1 0xE5 SHL DUP2 MSTORE PUSH1 0x20 PUSH1 0x4 DUP3 ADD MSTORE PUSH1 0x16 PUSH1 0x24 DUP3 ADD MSTORE PUSH22 0x4E6F7420696E20636865636B2D696E2077696E646F77 PUSH1 0x50 SHL PUSH1 0x44 DUP3 ADD MSTORE PUSH1 0x64 SWAP1 REVERT JUMPDEST CALLVALUE PUSH2 0x1AC JUMPI PUSH1 0x0 CALLDATASIZE PUSH1 0x3 NOT ADD SLT PUSH2 0x1AC JUMPI PUSH2 0x1533 PUSH2 0x2BAE JUMP JUMPDEST PUSH1 0x0 DUP1 SLOAD PUSH1 0x1 PUSH1 0x1 PUSH1 0xA0 SHL SUB NOT DUP2 AND DUP3 SSTORE PUSH1 0x1 PUSH1 0x1 PUSH1 0xA0 SHL SUB AND PUSH32 0x8BE0079C531659141344CD1FD0A4F28419497F9722A3DAAFE3B4186F6B6457E0 DUP3 DUP1 LOG3 STOP JUMPDEST CALLVALUE PUSH2 0x1AC JUMPI PUSH1 0x20 CALLDATASIZE PUSH1 0x3 NOT ADD SLT PUSH2 0x1AC JUMPI PUSH1 0x1 PUSH1 0x1 PUSH1 0xA0 SHL SUB PUSH2 0x1594 PUSH2 0x24B9 JUMP JUMPDEST AND PUSH1 0x0 MSTORE PUSH1 0x5 PUSH1 0x20 MSTORE PUSH1 0x40 PUSH1 0x0 KECCAK256 PUSH1 0x40 MLOAD SWAP1 DUP2 PUSH1 0x20 DUP3 SLOAD SWAP2 DUP3 DUP2 MSTORE ADD SWAP2 PUSH1 0x0 MSTORE PUSH1 0x20 PUSH1 0x0 KECCAK256 SWAP1 PUSH1 0x0 JUMPDEST DUP2 DUP2 LT PUSH2 0x15D4 JUMPI PUSH2 0x241 DUP6 PUSH2 0x235 DUP2 DUP8 SUB DUP3 PUSH2 0x2315 JUMP JUMPDEST DUP3 SLOAD DUP5 MSTORE PUSH1 0x20 SWAP1 SWAP4 ADD SWAP3 PUSH1 0x1 SWAP3 DUP4 ADD SWAP3 ADD PUSH2 0x15BD JUMP JUMPDEST PUSH2 0x22A1 JUMP JUMPDEST CALLVALUE PUSH2 0x1AC JUMPI PUSH1 0x20 CALLDATASIZE PUSH1 0x3 NOT ADD SLT PUSH2 0x1AC JUMPI PUSH1 0x20 PUSH2 0x160A PUSH2 0x24B9 JUMP JUMPDEST PUSH1 0x40 MLOAD PUSH32 0x0 PUSH1 0x1 PUSH1 0x1 PUSH1 0xA0 SHL SUB SWAP1 DUP2 AND SWAP3 AND SWAP2 SWAP1 SWAP2 EQ DUP2 MSTORE RETURN JUMPDEST CALLVALUE PUSH2 0x1AC JUMPI PUSH1 0x20 PUSH2 0x165C PUSH2 0x1656 CALLDATASIZE PUSH2 0x2484 JUMP JUMPDEST SWAP2 PUSH2 0x29B7 JUMP JUMPDEST PUSH1 0x40 MLOAD SWAP1 ISZERO ISZERO DUP2 MSTORE RETURN JUMPDEST CALLVALUE PUSH2 0x1AC JUMPI PUSH1 0x20 CALLDATASIZE PUSH1 0x3 NOT ADD SLT PUSH2 0x1AC JUMPI PUSH1 0x4 CALLDATALOAD DUP1 PUSH1 0x0 MSTORE PUSH1 0x3 PUSH1 0x20 MSTORE PUSH1 0x40 PUSH1 0x0 KECCAK256 PUSH1 0x8 DUP2 ADD SWAP1 PUSH1 0xFF DUP3 SLOAD AND PUSH1 0x8 DUP2 LT ISZERO PUSH2 0x37A JUMPI PUSH1 0x4 PUSH2 0x16A7 SWAP2 EQ PUSH2 0x297A JUMP JUMPDEST PUSH1 0xB DUP2 ADD SLOAD TIMESTAMP GT ISZERO PUSH2 0x1756 JUMPI PUSH1 0xC ADD SLOAD PUSH1 0xFF DUP2 PUSH1 0x8 SHR AND SWAP1 DUP2 PUSH2 0x1748 JUMPI JUMPDEST POP PUSH2 0x1703 JUMPI DUP1 SLOAD PUSH1 0xFF NOT AND PUSH1 0x7 OR SWAP1 SSTORE PUSH1 0x40 MLOAD SWAP1 DUP2 MSTORE PUSH32 0x2DAB28113E16EE2FB971A1376CE8421E58FC1C3D20D7ACFF8927A494FDE0CDC0 SWAP1 PUSH1 0x20 SWAP1 LOG1 STOP JUMPDEST PUSH1 0x40 MLOAD PUSH3 0x461BCD PUSH1 0xE5 SHL DUP2 MSTORE PUSH1 0x20 PUSH1 0x4 DUP3 ADD MSTORE PUSH1 0x18 PUSH1 0x24 DUP3 ADD MSTORE PUSH32 0x4469737075746520616C7265616479207265736F6C7665640000000000000000 PUSH1 0x44 DUP3 ADD MSTORE PUSH1 0x64 SWAP1 REVERT JUMPDEST PUSH1 0xFF SWAP2 POP PUSH1 0x10 SHR AND DUP4 PUSH2 0x16C5 JUMP JUMPDEST PUSH1 0x40 MLOAD PUSH3 0x461BCD PUSH1 0xE5 SHL DUP2 MSTORE PUSH1 0x20 PUSH1 0x4 DUP3 ADD MSTORE PUSH1 0x25 PUSH1 0x24 DUP3 ADD MSTORE PUSH32 0x44697370757465207265736F6C7574696F6E2077696E646F77206E6F74206578 PUSH1 0x44 DUP3 ADD MSTORE PUSH5 0x1C1A5C9959 PUSH1 0xDA SHL PUSH1 0x64 DUP3 ADD MSTORE PUSH1 0x84 SWAP1 REVERT JUMPDEST CALLVALUE PUSH2 0x1AC JUMPI PUSH1 0xC0 CALLDATASIZE PUSH1 0x3 NOT ADD SLT PUSH2 0x1AC JUMPI PUSH1 0x4 CALLDATALOAD PUSH1 0x1 PUSH1 0x1 PUSH1 0x40 SHL SUB DUP2 GT PUSH2 0x1AC JUMPI PUSH2 0x17D9 SWAP1 CALLDATASIZE SWAP1 PUSH1 0x4 ADD PUSH2 0x243D JUMP JUMPDEST PUSH1 0x84 CALLDATALOAD PUSH1 0x1 PUSH1 0x1 PUSH1 0x40 SHL SUB DUP2 GT PUSH2 0x1AC JUMPI PUSH2 0x17F8 SWAP1 CALLDATASIZE SWAP1 PUSH1 0x4 ADD PUSH2 0x243D JUMP JUMPDEST SWAP1 PUSH1 0xA4 CALLDATALOAD PUSH1 0x1 PUSH1 0x1 PUSH1 0x40 SHL SUB DUP2 GT PUSH2 0x1AC JUMPI PUSH2 0x1818 SWAP1 CALLDATASIZE SWAP1 PUSH1 0x4 ADD PUSH2 0x243D JUMP JUMPDEST PUSH1 0x1 SLOAD PUSH1 0x40 MLOAD PUSH4 0x4DF47953 PUSH1 0xE1 SHL DUP2 MSTORE PUSH1 0x20 PUSH1 0x4 DUP3 ADD MSTORE PUSH1 0x1 PUSH1 0x1 PUSH1 0xA0 SHL SUB SWAP1 SWAP2 AND SWAP1 PUSH1 0x0 DUP2 DUP1 PUSH2 0x184C PUSH1 0x24 DUP3 ADD DUP9 PUSH2 0x23FD JUMP JUMPDEST SUB DUP2 DUP6 GAS STATICCALL SWAP2 DUP3 ISZERO PUSH2 0x3F7 JUMPI PUSH2 0x1876 PUSH1 0x20 SWAP3 PUSH1 0x4 SWAP5 PUSH1 0x0 SWAP2 PUSH1 0x0 SWAP2 PUSH2 0x1F52 JUMPI JUMPDEST POP PUSH2 0x5B3 SWAP1 PUSH2 0x26CA JUMP JUMPDEST PUSH2 0x1883 TIMESTAMP PUSH1 0x24 CALLDATALOAD GT PUSH2 0x2758 JUMP JUMPDEST PUSH2 0x1892 PUSH1 0x24 CALLDATALOAD PUSH1 0x44 CALLDATALOAD GT PUSH2 0x27A4 JUMP JUMPDEST PUSH2 0x18A4 PUSH2 0x5E7 PUSH1 0x44 CALLDATALOAD PUSH1 0x24 CALLDATALOAD DUP9 PUSH2 0x29B7 JUMP JUMPDEST PUSH2 0x18C1 PUSH3 0x15180 PUSH2 0x18B9 PUSH1 0x24 CALLDATALOAD PUSH1 0x44 CALLDATALOAD PUSH2 0x2850 JUMP JUMPDEST DIV ISZERO ISZERO PUSH2 0x285D JUMP JUMPDEST PUSH1 0x40 MLOAD PUSH4 0x3375E33F PUSH1 0xE2 SHL DUP2 MSTORE SWAP3 DUP4 SWAP2 DUP3 SWAP1 GAS STATICCALL DUP1 ISZERO PUSH2 0x3F7 JUMPI PUSH2 0xFFFF PUSH2 0x18F8 SWAP2 PUSH2 0x3E8 SWAP4 PUSH1 0x0 SWAP2 PUSH2 0x1F33 JUMPI JUMPDEST POP AND PUSH1 0x64 CALLDATALOAD PUSH2 0x28C2 JUMP JUMPDEST DIV PUSH2 0x1905 DUP2 PUSH1 0x64 CALLDATALOAD PUSH2 0x2850 JUMP JUMPDEST SWAP3 PUSH2 0x1911 PUSH1 0x2 SLOAD PUSH2 0x28D5 JUMP JUMPDEST SWAP4 DUP5 PUSH1 0x2 SSTORE PUSH2 0x191E PUSH2 0x2D09 JUMP JUMPDEST SWAP1 PUSH1 0x40 MLOAD SWAP4 PUSH2 0x192C DUP6 PUSH2 0x22F9 JUMP JUMPDEST DUP7 DUP6 MSTORE DUP4 PUSH1 0x20 DUP7 ADD MSTORE PUSH1 0x1 DUP1 PUSH1 0xA0 SHL SUB DUP4 AND PUSH1 0x40 DUP7 ADD MSTORE PUSH1 0x24 CALLDATALOAD PUSH1 0x60 DUP7 ADD MSTORE PUSH1 0x44 CALLDATALOAD PUSH1 0x80 DUP7 ADD MSTORE PUSH1 0x64 CALLDATALOAD PUSH1 0xA0 DUP7 ADD MSTORE PUSH1 0xC0 DUP6 ADD MSTORE PUSH1 0xE0 DUP5 ADD MSTORE PUSH1 0x0 PUSH2 0x100 DUP5 ADD MSTORE PUSH1 0x0 PUSH2 0x120 DUP5 ADD MSTORE PUSH1 0x0 PUSH2 0x140 DUP5 ADD MSTORE PUSH1 0x0 PUSH2 0x160 DUP5 ADD MSTORE PUSH1 0x0 PUSH2 0x180 DUP5 ADD MSTORE PUSH1 0x0 PUSH2 0x1A0 DUP5 ADD MSTORE PUSH1 0x0 PUSH2 0x1C0 DUP5 ADD MSTORE PUSH1 0x20 SWAP6 PUSH1 0x40 MLOAD PUSH2 0x19AD DUP9 DUP3 PUSH2 0x2315 JUMP JUMPDEST PUSH1 0x0 DUP2 MSTORE PUSH2 0x1E0 DUP6 ADD MSTORE DUP5 PUSH2 0x200 DUP6 ADD MSTORE DUP1 PUSH2 0x220 DUP6 ADD MSTORE PUSH1 0x1 PUSH2 0x240 DUP6 ADD MSTORE DUP6 PUSH1 0x0 MSTORE PUSH1 0x3 DUP8 MSTORE PUSH1 0x40 PUSH1 0x0 KECCAK256 DUP5 MLOAD DUP2 SSTORE PUSH1 0x20 DUP6 ADD MLOAD DUP1 MLOAD SWAP1 PUSH1 0x1 PUSH1 0x1 PUSH1 0x40 SHL SUB DUP3 GT PUSH2 0xC3C JUMPI DUP2 SWAP1 PUSH2 0x1A10 DUP3 PUSH2 0x1A07 PUSH1 0x1 DUP8 ADD SLOAD PUSH2 0x22BF JUMP JUMPDEST PUSH1 0x1 DUP8 ADD PUSH2 0x28FB JUMP JUMPDEST DUP11 SWAP1 PUSH1 0x1F DUP4 GT PUSH1 0x1 EQ PUSH2 0x1EC2 JUMPI PUSH1 0x0 SWAP3 PUSH2 0x1EB7 JUMPI JUMPDEST POP POP DUP2 PUSH1 0x1 SHL SWAP2 PUSH1 0x0 NOT SWAP1 PUSH1 0x3 SHL SHR NOT AND OR PUSH1 0x1 DUP3 ADD SSTORE JUMPDEST PUSH1 0x40 DUP6 ADD MLOAD PUSH1 0x2 DUP3 ADD DUP1 SLOAD PUSH1 0x1 PUSH1 0x1 PUSH1 0xA0 SHL SUB NOT AND PUSH1 0x1 PUSH1 0x1 PUSH1 0xA0 SHL SUB SWAP3 SWAP1 SWAP3 AND SWAP2 SWAP1 SWAP2 OR SWAP1 SSTORE PUSH1 0x60 DUP6 ADD MLOAD PUSH1 0x3 DUP3 ADD SSTORE PUSH1 0x80 DUP6 ADD MLOAD PUSH1 0x4 DUP3 ADD SSTORE PUSH1 0xA0 DUP6 ADD MLOAD PUSH1 0x5 DUP3 ADD SSTORE PUSH1 0xC0 DUP6 ADD MLOAD PUSH1 0x6 DUP3 ADD SSTORE PUSH1 0xE0 DUP6 ADD MLOAD PUSH1 0x7 DUP3 ADD SSTORE PUSH2 0x100 DUP6 ADD MLOAD PUSH1 0x8 DUP2 LT ISZERO PUSH2 0x37A JUMPI PUSH2 0x1AB2 SWAP1 PUSH1 0x8 DUP4 ADD PUSH2 0x2573 JUMP JUMPDEST PUSH2 0x120 DUP6 ADD MLOAD PUSH1 0x9 DUP3 ADD SSTORE PUSH2 0x140 DUP6 ADD MLOAD PUSH1 0xA DUP3 ADD SSTORE PUSH2 0x160 DUP6 ADD MLOAD PUSH1 0xB DUP3 ADD SSTORE PUSH2 0x1B2F PUSH1 0xC DUP3 ADD PUSH2 0x1AF7 PUSH2 0x180 DUP9 ADD MLOAD ISZERO ISZERO DUP3 SWAP1 PUSH1 0xFF DUP1 NOT DUP4 SLOAD AND SWAP2 ISZERO ISZERO AND OR SWAP1 SSTORE JUMP JUMPDEST PUSH2 0x1A0 DUP8 ADD MLOAD DUP2 SLOAD PUSH2 0xFF00 NOT AND SWAP1 ISZERO ISZERO PUSH1 0x8 SHL PUSH2 0xFF00 AND OR DUP2 SSTORE PUSH2 0x1C0 DUP8 ADD MLOAD DUP2 SLOAD PUSH3 0xFF0000 NOT AND SWAP1 ISZERO ISZERO PUSH1 0x10 SHL PUSH3 0xFF0000 AND OR SWAP1 SSTORE JUMP JUMPDEST PUSH1 0xD DUP2 ADD PUSH2 0x1E0 DUP7 ADD MLOAD DUP1 MLOAD SWAP1 PUSH1 0x1 PUSH1 0x1 PUSH1 0x40 SHL SUB DUP3 GT PUSH2 0xC3C JUMPI DUP2 SWAP1 PUSH2 0x1B5A DUP3 PUSH2 0x8CA DUP7 SLOAD PUSH2 0x22BF JUMP JUMPDEST DUP12 SWAP1 PUSH1 0x1F DUP4 GT PUSH1 0x1 EQ PUSH2 0x1E50 JUMPI PUSH1 0x0 SWAP3 PUSH2 0x1E45 JUMPI JUMPDEST POP POP DUP2 PUSH1 0x1 SHL SWAP2 PUSH1 0x0 NOT SWAP1 PUSH1 0x3 SHL SHR NOT AND OR SWAP1 SSTORE JUMPDEST PUSH1 0xE DUP2 ADD PUSH2 0x200 DUP7 ADD MLOAD DUP1 MLOAD SWAP1 PUSH1 0x1 PUSH1 0x1 PUSH1 0x40 SHL SUB DUP3 GT PUSH2 0xC3C JUMPI DUP2 SWAP1 PUSH2 0x1BAF DUP3 PUSH2 0x8CA DUP7 SLOAD PUSH2 0x22BF JUMP JUMPDEST DUP12 SWAP1 PUSH1 0x1F DUP4 GT PUSH1 0x1 EQ PUSH2 0x1DDE JUMPI PUSH1 0x0 SWAP3 PUSH2 0x1DD3 JUMPI JUMPDEST POP POP DUP2 PUSH1 0x1 SHL SWAP2 PUSH1 0x0 NOT SWAP1 PUSH1 0x3 SHL SHR NOT AND OR SWAP1 SSTORE JUMPDEST PUSH2 0x220 DUP6 ADD MLOAD SWAP5 DUP6 MLOAD PUSH1 0x1 PUSH1 0x1 PUSH1 0x40 SHL SUB DUP2 GT PUSH2 0xC3C JUMPI DUP9 SWAP7 PUSH2 0x1C0C DUP3 PUSH2 0x1C03 PUSH1 0xF DUP8 ADD SLOAD PUSH2 0x22BF JUMP JUMPDEST PUSH1 0xF DUP8 ADD PUSH2 0x28FB JUMP JUMPDEST DUP11 SWAP1 PUSH1 0x1F DUP4 GT PUSH1 0x1 EQ PUSH2 0x1D2A JUMPI PUSH2 0x1D14 SWAP5 PUSH1 0x10 PUSH2 0x240 PUSH2 0x1CD6 SWAP10 SWAP7 DUP7 PUSH2 0x1CFB SWAP8 PUSH32 0x4C0EDC0C8794BA89C4649924F32B10A82065AD4E9FD335D0CB04CACC759D70D0 SWAP14 SWAP12 SWAP8 PUSH2 0x1C8A SWAP8 PUSH1 0x0 SWAP3 PUSH2 0x1D1F JUMPI JUMPDEST POP POP DUP2 PUSH1 0x1 SHL SWAP2 PUSH1 0x0 NOT SWAP1 PUSH1 0x3 SHL SHR NOT AND OR PUSH1 0xF DUP6 ADD SSTORE ADD MLOAD ISZERO ISZERO SWAP2 ADD SWAP1 PUSH1 0xFF DUP1 NOT DUP4 SLOAD AND SWAP2 ISZERO ISZERO AND OR SWAP1 SSTORE JUMP JUMPDEST PUSH2 0x1CA4 DUP9 PUSH1 0x40 MLOAD DUP14 DUP2 DUP2 PUSH2 0x9EE DUP12 DUP4 DUP2 MLOAD SWAP4 DUP5 SWAP3 ADD PUSH2 0x23DA JUMP JUMPDEST PUSH1 0x1 DUP1 PUSH1 0xA0 SHL SUB DUP4 AND PUSH1 0x0 MSTORE PUSH1 0x5 DUP12 MSTORE PUSH2 0x1CC2 DUP9 PUSH1 0x40 PUSH1 0x0 KECCAK256 PUSH2 0x2940 JUMP JUMPDEST PUSH1 0x40 MLOAD SWAP6 DUP7 SWAP6 PUSH1 0xC0 DUP8 MSTORE PUSH1 0xC0 DUP8 ADD SWAP1 PUSH2 0x23FD JUMP JUMPDEST SWAP1 PUSH1 0x24 CALLDATALOAD DUP13 DUP8 ADD MSTORE PUSH1 0x44 CALLDATALOAD PUSH1 0x40 DUP8 ADD MSTORE PUSH1 0x64 CALLDATALOAD PUSH1 0x60 DUP8 ADD MSTORE DUP6 DUP3 SUB PUSH1 0x80 DUP8 ADD MSTORE PUSH2 0x23FD JUMP JUMPDEST DUP4 DUP2 SUB PUSH1 0xA0 DUP6 ADD MSTORE PUSH1 0x1 PUSH1 0x1 PUSH1 0xA0 SHL SUB SWAP1 SWAP2 AND SWAP7 PUSH2 0x23FD JUMP JUMPDEST SUB SWAP1 LOG3 PUSH1 0x40 MLOAD SWAP1 DUP2 MSTORE RETURN JUMPDEST ADD MLOAD SWAP1 POP CODESIZE DUP1 PUSH2 0x1C5C JUMP JUMPDEST SWAP1 PUSH1 0xF DUP6 ADD PUSH1 0x0 MSTORE DUP12 PUSH1 0x0 KECCAK256 SWAP2 PUSH1 0x0 JUMPDEST DUP14 PUSH1 0x1F NOT DUP7 AND DUP3 LT PUSH2 0x1DBA JUMPI POP POP SWAP5 PUSH1 0x10 PUSH2 0x240 PUSH2 0x1CD6 SWAP10 SWAP7 PUSH1 0x1 DUP8 PUSH32 0x4C0EDC0C8794BA89C4649924F32B10A82065AD4E9FD335D0CB04CACC759D70D0 SWAP14 SWAP12 SWAP8 PUSH2 0x1C8A SWAP8 PUSH2 0x1D14 SWAP13 PUSH2 0x1CFB SWAP12 PUSH1 0x1F NOT DUP2 AND LT PUSH2 0x1DA1 JUMPI JUMPDEST POP POP POP DUP2 SHL ADD PUSH1 0xF DUP6 ADD SSTORE PUSH2 0x9BD JUMP JUMPDEST ADD MLOAD PUSH1 0x0 NOT PUSH1 0xF8 DUP5 PUSH1 0x3 SHL AND SHR NOT AND SWAP1 SSTORE CODESIZE DUP1 DUP1 PUSH2 0x1D91 JUMP JUMPDEST DUP4 DUP4 ADD MLOAD DUP6 SSTORE DUP14 SWAP12 POP PUSH1 0x1 SWAP1 SWAP5 ADD SWAP4 SWAP3 DUP4 ADD SWAP3 ADD PUSH2 0x1D3A JUMP JUMPDEST ADD MLOAD SWAP1 POP DUP12 DUP1 PUSH2 0x1BC4 JUMP JUMPDEST PUSH1 0x0 DUP6 DUP2 MSTORE DUP14 DUP2 KECCAK256 SWAP4 POP PUSH1 0x1F NOT DUP6 AND SWAP1 DUP15 JUMPDEST DUP3 DUP3 LT PUSH2 0x1E2D JUMPI POP POP SWAP1 DUP5 PUSH1 0x1 SWAP6 SWAP5 SWAP4 SWAP3 LT PUSH2 0x1E14 JUMPI JUMPDEST POP POP POP DUP2 SHL ADD SWAP1 SSTORE PUSH2 0x1BD9 JUMP JUMPDEST ADD MLOAD PUSH1 0x0 NOT PUSH1 0xF8 DUP5 PUSH1 0x3 SHL AND SHR NOT AND SWAP1 SSTORE DUP12 DUP1 DUP1 PUSH2 0x1E07 JUMP JUMPDEST DUP1 PUSH1 0x1 DUP7 SWAP8 DUP3 SWAP5 SWAP8 DUP8 ADD MLOAD DUP2 SSTORE ADD SWAP7 ADD SWAP5 ADD SWAP1 PUSH2 0x1DF0 JUMP JUMPDEST ADD MLOAD SWAP1 POP DUP12 DUP1 PUSH2 0x1B6F JUMP JUMPDEST PUSH1 0x0 DUP6 DUP2 MSTORE DUP14 DUP2 KECCAK256 SWAP4 POP PUSH1 0x1F NOT DUP6 AND SWAP1 DUP15 JUMPDEST DUP3 DUP3 LT PUSH2 0x1E9F JUMPI POP POP SWAP1 DUP5 PUSH1 0x1 SWAP6 SWAP5 SWAP4 SWAP3 LT PUSH2 0x1E86 JUMPI JUMPDEST POP POP POP DUP2 SHL ADD SWAP1 SSTORE PUSH2 0x1B84 JUMP JUMPDEST ADD MLOAD PUSH1 0x0 NOT PUSH1 0xF8 DUP5 PUSH1 0x3 SHL AND SHR NOT AND SWAP1 SSTORE DUP12 DUP1 DUP1 PUSH2 0x1E79 JUMP JUMPDEST DUP1 PUSH1 0x1 DUP7 SWAP8 DUP3 SWAP5 SWAP8 DUP8 ADD MLOAD DUP2 SSTORE ADD SWAP7 ADD SWAP5 ADD SWAP1 PUSH2 0x1E62 JUMP JUMPDEST ADD MLOAD SWAP1 POP DUP11 DUP1 PUSH2 0x1A25 JUMP JUMPDEST SWAP3 POP PUSH1 0x1 DUP5 ADD PUSH1 0x0 MSTORE DUP11 PUSH1 0x0 KECCAK256 SWAP1 PUSH1 0x0 SWAP4 JUMPDEST DUP13 PUSH1 0x1F NOT DUP6 AND DUP7 LT PUSH2 0x1F1A JUMPI POP PUSH1 0x1 SWAP5 POP DUP4 PUSH1 0x1F NOT DUP2 AND LT PUSH2 0x1F01 JUMPI JUMPDEST POP POP POP DUP2 SHL ADD PUSH1 0x1 DUP3 ADD SSTORE PUSH2 0x1A3D JUMP JUMPDEST ADD MLOAD PUSH1 0x0 NOT PUSH1 0xF8 DUP5 PUSH1 0x3 SHL AND SHR NOT AND SWAP1 SSTORE DUP11 DUP1 DUP1 PUSH2 0x1EF1 JUMP JUMPDEST DUP3 DUP3 ADD MLOAD DUP5 SSTORE SWAP5 DUP6 ADD SWAP5 PUSH1 0x1 SWAP1 SWAP4 ADD SWAP3 SWAP1 SWAP2 ADD SWAP1 PUSH2 0x1ED4 JUMP JUMPDEST PUSH2 0x1F4C SWAP2 POP PUSH1 0x20 RETURNDATASIZE PUSH1 0x20 GT PUSH2 0xDD8 JUMPI PUSH2 0xDCA DUP2 DUP4 PUSH2 0x2315 JUMP JUMPDEST DUP8 PUSH2 0x18EE JUMP JUMPDEST PUSH2 0x5B3 SWAP3 POP PUSH2 0x1F6C SWAP2 POP RETURNDATASIZE DUP1 PUSH1 0x0 DUP4 RETURNDATACOPY PUSH2 0x3E3 DUP2 DUP4 PUSH2 0x2315 JUMP JUMPDEST POP SWAP5 SWAP4 POP POP SWAP1 POP SWAP2 SWAP1 PUSH2 0x186C JUMP JUMPDEST CALLVALUE PUSH2 0x1AC JUMPI PUSH1 0x20 CALLDATASIZE PUSH1 0x3 NOT ADD SLT PUSH2 0x1AC JUMPI PUSH1 0x4 CALLDATALOAD PUSH1 0x0 MSTORE PUSH1 0x3 PUSH1 0x20 MSTORE PUSH1 0x40 PUSH1 0x0 KECCAK256 DUP1 SLOAD SWAP1 PUSH1 0x1 DUP2 ADD PUSH2 0x1FAB SWAP1 PUSH2 0x2336 JUMP JUMPDEST PUSH1 0xC0 MSTORE PUSH1 0x1 PUSH1 0xA0 SHL PUSH1 0x1 SWAP1 SUB PUSH1 0x2 DUP3 ADD SLOAD AND SWAP1 PUSH1 0x3 DUP2 ADD SLOAD PUSH1 0x4 DUP3 ADD SLOAD SWAP1 PUSH1 0x5 DUP4 ADD SLOAD PUSH1 0x6 DUP5 ADD SLOAD SWAP5 PUSH1 0x7 DUP6 ADD SLOAD SWAP4 PUSH1 0x8 DUP7 ADD SLOAD PUSH1 0xFF AND SWAP3 PUSH1 0x9 DUP8 ADD SLOAD SWAP6 PUSH1 0xA DUP9 ADD SLOAD SWAP9 PUSH1 0xB DUP10 ADD SLOAD SWAP3 PUSH1 0xC DUP11 ADD SLOAD PUSH1 0x80 MSTORE PUSH1 0xD DUP11 ADD PUSH2 0x200A SWAP1 PUSH2 0x2336 JUMP JUMPDEST SWAP5 PUSH2 0x2017 PUSH1 0xE DUP13 ADD PUSH2 0x2336 JUMP JUMPDEST SWAP9 PUSH2 0x2024 PUSH1 0xF DUP14 ADD PUSH2 0x2336 JUMP JUMPDEST SWAP12 PUSH1 0x10 ADD SLOAD PUSH1 0xFF AND SWAP14 PUSH1 0x40 MLOAD PUSH1 0xA0 MSTORE PUSH1 0xA0 MLOAD MSTORE PUSH1 0xA0 MLOAD PUSH1 0x20 ADD PUSH2 0x260 SWAP1 MSTORE PUSH1 0xA0 MLOAD PUSH2 0x260 ADD PUSH1 0xC0 MLOAD SWAP1 PUSH2 0x2056 SWAP2 PUSH2 0x23FD JUMP JUMPDEST SWAP8 PUSH1 0xA0 MLOAD PUSH1 0x40 ADD MSTORE PUSH1 0xA0 MLOAD PUSH1 0x60 ADD MSTORE PUSH1 0xA0 MLOAD PUSH1 0x80 ADD MSTORE PUSH1 0xA0 MLOAD PUSH1 0xA0 ADD MSTORE PUSH1 0xA0 MLOAD PUSH1 0xC0 ADD MSTORE PUSH1 0xA0 MLOAD PUSH1 0xE0 ADD MSTORE PUSH1 0x8 DUP5 LT ISZERO PUSH2 0x37A JUMPI PUSH2 0x2124 SWAP8 PUSH2 0x2111 SWAP7 PUSH2 0x20FE SWAP6 PUSH2 0x100 PUSH1 0xA0 MLOAD ADD MSTORE PUSH2 0x120 PUSH1 0xA0 MLOAD ADD MSTORE PUSH2 0x140 PUSH1 0xA0 MLOAD ADD MSTORE PUSH2 0x160 PUSH1 0xA0 MLOAD ADD MSTORE PUSH1 0xFF PUSH1 0x80 MLOAD AND ISZERO ISZERO PUSH2 0x180 PUSH1 0xA0 MLOAD ADD MSTORE PUSH1 0xFF PUSH1 0x80 MLOAD PUSH1 0x8 SHR AND ISZERO ISZERO PUSH2 0x1A0 PUSH1 0xA0 MLOAD ADD MSTORE PUSH1 0xFF PUSH1 0x80 MLOAD PUSH1 0x10 SHR AND ISZERO ISZERO PUSH2 0x1C0 PUSH1 0xA0 MLOAD ADD MSTORE PUSH1 0xA0 MLOAD DUP3 SUB PUSH2 0x1E0 PUSH1 0xA0 MLOAD ADD MSTORE PUSH2 0x23FD JUMP JUMPDEST SWAP1 PUSH1 0xA0 MLOAD DUP3 SUB PUSH2 0x200 PUSH1 0xA0 MLOAD ADD MSTORE PUSH2 0x23FD JUMP JUMPDEST SWAP1 PUSH1 0xA0 MLOAD DUP3 SUB PUSH2 0x220 PUSH1 0xA0 MLOAD ADD MSTORE PUSH2 0x23FD JUMP JUMPDEST SWAP1 ISZERO ISZERO PUSH2 0x240 PUSH1 0xA0 MLOAD ADD MSTORE PUSH1 0xA0 MLOAD SWAP1 SUB PUSH1 0xA0 MLOAD RETURN JUMPDEST CALLVALUE PUSH2 0x1AC JUMPI PUSH1 0x20 CALLDATASIZE PUSH1 0x3 NOT ADD SLT PUSH2 0x1AC JUMPI PUSH1 0x4 CALLDATALOAD PUSH1 0x0 DUP2 DUP2 MSTORE PUSH1 0x3 PUSH1 0x20 MSTORE PUSH1 0x40 SWAP1 KECCAK256 PUSH1 0x2 DUP2 ADD DUP1 SLOAD SWAP1 SWAP3 SWAP1 PUSH2 0x217C SWAP1 PUSH1 0x1 PUSH1 0x1 PUSH1 0xA0 SHL SUB SWAP1 DUP2 AND SWAP1 PUSH2 0x442 PUSH2 0x2D09 JUMP JUMPDEST PUSH1 0x8 DUP3 ADD SWAP2 PUSH1 0xFF DUP4 SLOAD AND PUSH1 0x8 DUP2 LT ISZERO PUSH2 0x37A JUMPI PUSH2 0x2264 JUMPI PUSH1 0x3 DUP2 ADD SLOAD TIMESTAMP LT ISZERO PUSH2 0x222A JUMPI PUSH2 0x21F3 PUSH1 0x0 DUP1 DUP1 DUP1 PUSH1 0x7 PUSH32 0xEDC1198B595A44E20B4738F6C85854E2C9F704982F488658F4C765030F152656 SWAP10 PUSH1 0x40 SWAP10 PUSH1 0x5 PUSH1 0xFF NOT DUP3 SLOAD AND OR SWAP1 SSTORE PUSH1 0x1 DUP1 PUSH1 0xA0 SHL SUB SWAP1 SLOAD AND SWAP7 ADD SWAP6 DUP7 SLOAD SWAP1 GAS CALL PUSH2 0xF02 PUSH2 0x258B JUMP JUMPDEST PUSH32 0xF774C001CB52A3566B767ED6E37C92706ACB2B80A3FF6049E2849CD62725D085 PUSH1 0x20 DUP5 MLOAD DUP5 DUP2 MSTORE LOG1 SLOAD DUP3 MLOAD SWAP2 DUP3 MSTORE PUSH1 0x20 DUP3 ADD MSTORE LOG1 STOP JUMPDEST PUSH1 0x40 MLOAD PUSH3 0x461BCD PUSH1 0xE5 SHL DUP2 MSTORE PUSH1 0x20 PUSH1 0x4 DUP3 ADD MSTORE PUSH1 0x12 PUSH1 0x24 DUP3 ADD MSTORE PUSH18 0x5061737420636865636B2D696E2064617465 PUSH1 0x70 SHL PUSH1 0x44 DUP3 ADD MSTORE PUSH1 0x64 SWAP1 REVERT JUMPDEST PUSH1 0x40 MLOAD PUSH3 0x461BCD PUSH1 0xE5 SHL DUP2 MSTORE PUSH1 0x20 PUSH1 0x4 DUP3 ADD MSTORE PUSH1 0x15 PUSH1 0x24 DUP3 ADD MSTORE PUSH21 0x43616E6E6F742063616E63656C20626F6F6B696E67 PUSH1 0x58 SHL PUSH1 0x44 DUP3 ADD MSTORE PUSH1 0x64 SWAP1 REVERT JUMPDEST CALLVALUE PUSH2 0x1AC JUMPI PUSH1 0x0 CALLDATASIZE PUSH1 0x3 NOT ADD SLT PUSH2 0x1AC JUMPI PUSH1 0x20 PUSH1 0x40 MLOAD PUSH3 0x15180 DUP2 MSTORE RETURN JUMPDEST SWAP1 PUSH1 0x1 DUP3 DUP2 SHR SWAP3 AND DUP1 ISZERO PUSH2 0x22EF JUMPI JUMPDEST PUSH1 0x20 DUP4 LT EQ PUSH2 0x22D9 JUMPI JUMP JUMPDEST PUSH4 0x4E487B71 PUSH1 0xE0 SHL PUSH1 0x0 MSTORE PUSH1 0x22 PUSH1 0x4 MSTORE PUSH1 0x24 PUSH1 0x0 REVERT JUMPDEST SWAP2 PUSH1 0x7F AND SWAP2 PUSH2 0x22CE JUMP JUMPDEST PUSH2 0x260 DUP2 ADD SWAP1 DUP2 LT PUSH1 0x1 PUSH1 0x1 PUSH1 0x40 SHL SUB DUP3 GT OR PUSH2 0xC3C JUMPI PUSH1 0x40 MSTORE JUMP JUMPDEST SWAP1 PUSH1 0x1F DUP1 NOT SWAP2 ADD AND DUP2 ADD SWAP1 DUP2 LT PUSH1 0x1 PUSH1 0x1 PUSH1 0x40 SHL SUB DUP3 GT OR PUSH2 0xC3C JUMPI PUSH1 0x40 MSTORE JUMP JUMPDEST SWAP1 PUSH1 0x40 MLOAD SWAP2 DUP3 PUSH1 0x0 DUP3 SLOAD SWAP3 PUSH2 0x234A DUP5 PUSH2 0x22BF JUMP JUMPDEST DUP1 DUP5 MSTORE SWAP4 PUSH1 0x1 DUP2 AND SWAP1 DUP2 ISZERO PUSH2 0x23B8 JUMPI POP PUSH1 0x1 EQ PUSH2 0x2371 JUMPI JUMPDEST POP PUSH2 0x236F SWAP3 POP SUB DUP4 PUSH2 0x2315 JUMP JUMPDEST JUMP JUMPDEST SWAP1 POP PUSH1 0x0 SWAP3 SWAP2 SWAP3 MSTORE PUSH1 0x20 PUSH1 0x0 KECCAK256 SWAP1 PUSH1 0x0 SWAP2 JUMPDEST DUP2 DUP4 LT PUSH2 0x239C JUMPI POP POP SWAP1 PUSH1 0x20 PUSH2 0x236F SWAP3 DUP3 ADD ADD CODESIZE PUSH2 0x2362 JUMP JUMPDEST PUSH1 0x20 SWAP2 SWAP4 POP DUP1 PUSH1 0x1 SWAP2 SLOAD DUP4 DUP6 DUP10 ADD ADD MSTORE ADD SWAP2 ADD SWAP1 SWAP2 DUP5 SWAP3 PUSH2 0x2383 JUMP JUMPDEST SWAP1 POP PUSH1 0x20 SWAP3 POP PUSH2 0x236F SWAP5 SWAP2 POP PUSH1 0xFF NOT AND DUP3 DUP5 ADD MSTORE ISZERO ISZERO PUSH1 0x5 SHL DUP3 ADD ADD CODESIZE PUSH2 0x2362 JUMP JUMPDEST PUSH1 0x0 JUMPDEST DUP4 DUP2 LT PUSH2 0x23ED JUMPI POP POP PUSH1 0x0 SWAP2 ADD MSTORE JUMP JUMPDEST DUP2 DUP2 ADD MLOAD DUP4 DUP3 ADD MSTORE PUSH1 0x20 ADD PUSH2 0x23DD JUMP JUMPDEST SWAP1 PUSH1 0x20 SWAP2 PUSH2 0x2416 DUP2 MLOAD DUP1 SWAP3 DUP2 DUP6 MSTORE DUP6 DUP1 DUP7 ADD SWAP2 ADD PUSH2 0x23DA JUMP JUMPDEST PUSH1 0x1F ADD PUSH1 0x1F NOT AND ADD ADD SWAP1 JUMP JUMPDEST PUSH1 0x1 PUSH1 0x1 PUSH1 0x40 SHL SUB DUP2 GT PUSH2 0xC3C JUMPI PUSH1 0x1F ADD PUSH1 0x1F NOT AND PUSH1 0x20 ADD SWAP1 JUMP JUMPDEST DUP2 PUSH1 0x1F DUP3 ADD SLT ISZERO PUSH2 0x1AC JUMPI DUP1 CALLDATALOAD SWAP1 PUSH2 0x2454 DUP3 PUSH2 0x2422 JUMP JUMPDEST SWAP3 PUSH2 0x2462 PUSH1 0x40 MLOAD SWAP5 DUP6 PUSH2 0x2315 JUMP JUMPDEST DUP3 DUP5 MSTORE PUSH1 0x20 DUP4 DUP4 ADD ADD GT PUSH2 0x1AC JUMPI DUP2 PUSH1 0x0 SWAP3 PUSH1 0x20 DUP1 SWAP4 ADD DUP4 DUP7 ADD CALLDATACOPY DUP4 ADD ADD MSTORE SWAP1 JUMP JUMPDEST PUSH1 0x60 PUSH1 0x3 NOT DUP3 ADD SLT PUSH2 0x1AC JUMPI PUSH1 0x4 CALLDATALOAD SWAP1 PUSH1 0x1 PUSH1 0x1 PUSH1 0x40 SHL SUB DUP3 GT PUSH2 0x1AC JUMPI PUSH2 0x24AE SWAP2 PUSH1 0x4 ADD PUSH2 0x243D JUMP JUMPDEST SWAP1 PUSH1 0x24 CALLDATALOAD SWAP1 PUSH1 0x44 CALLDATALOAD SWAP1 JUMP JUMPDEST PUSH1 0x4 CALLDATALOAD SWAP1 PUSH1 0x1 PUSH1 0x1 PUSH1 0xA0 SHL SUB DUP3 AND DUP3 SUB PUSH2 0x1AC JUMPI JUMP JUMPDEST PUSH1 0x20 PUSH1 0x40 DUP2 DUP4 ADD SWAP3 DUP3 DUP2 MSTORE DUP5 MLOAD DUP1 SWAP5 MSTORE ADD SWAP3 ADD SWAP1 PUSH1 0x0 JUMPDEST DUP2 DUP2 LT PUSH2 0x24F3 JUMPI POP POP POP SWAP1 JUMP JUMPDEST DUP3 MLOAD DUP5 MSTORE PUSH1 0x20 SWAP4 DUP5 ADD SWAP4 SWAP1 SWAP3 ADD SWAP2 PUSH1 0x1 ADD PUSH2 0x24E6 JUMP JUMPDEST DUP1 SLOAD DUP3 LT ISZERO PUSH2 0x2521 JUMPI PUSH1 0x0 MSTORE PUSH1 0x20 PUSH1 0x0 KECCAK256 ADD SWAP1 PUSH1 0x0 SWAP1 JUMP JUMPDEST PUSH4 0x4E487B71 PUSH1 0xE0 SHL PUSH1 0x0 MSTORE PUSH1 0x32 PUSH1 0x4 MSTORE PUSH1 0x24 PUSH1 0x0 REVERT JUMPDEST ISZERO PUSH2 0x253E JUMPI JUMP JUMPDEST PUSH1 0x40 MLOAD PUSH3 0x461BCD PUSH1 0xE5 SHL DUP2 MSTORE PUSH1 0x20 PUSH1 0x4 DUP3 ADD MSTORE PUSH1 0xD PUSH1 0x24 DUP3 ADD MSTORE PUSH13 0x139BDD081D1A194819DD595CDD PUSH1 0x9A SHL PUSH1 0x44 DUP3 ADD MSTORE PUSH1 0x64 SWAP1 REVERT JUMPDEST SWAP1 PUSH1 0x8 DUP2 LT ISZERO PUSH2 0x37A JUMPI PUSH1 0xFF DUP1 NOT DUP4 SLOAD AND SWAP2 AND OR SWAP1 SSTORE JUMP JUMPDEST RETURNDATASIZE ISZERO PUSH2 0x25B6 JUMPI RETURNDATASIZE SWAP1 PUSH2 0x259C DUP3 PUSH2 0x2422 JUMP JUMPDEST SWAP2 PUSH2 0x25AA PUSH1 0x40 MLOAD SWAP4 DUP5 PUSH2 0x2315 JUMP JUMPDEST DUP3 MSTORE RETURNDATASIZE PUSH1 0x0 PUSH1 0x20 DUP5 ADD RETURNDATACOPY JUMP JUMPDEST PUSH1 0x60 SWAP1 JUMP JUMPDEST ISZERO PUSH2 0x25C2 JUMPI JUMP JUMPDEST PUSH1 0x40 MLOAD PUSH3 0x461BCD PUSH1 0xE5 SHL DUP2 MSTORE PUSH1 0x20 PUSH1 0x4 DUP3 ADD MSTORE PUSH1 0x13 PUSH1 0x24 DUP3 ADD MSTORE PUSH19 0x11DD595CDD081C99599D5B990819985A5B1959 PUSH1 0x6A SHL PUSH1 0x44 DUP3 ADD MSTORE PUSH1 0x64 SWAP1 REVERT JUMPDEST DUP2 PUSH1 0x1F DUP3 ADD SLT ISZERO PUSH2 0x1AC JUMPI DUP1 MLOAD PUSH2 0x2613 DUP2 PUSH2 0x2422 JUMP JUMPDEST SWAP3 PUSH2 0x2621 PUSH1 0x40 MLOAD SWAP5 DUP6 PUSH2 0x2315 JUMP JUMPDEST DUP2 DUP5 MSTORE PUSH1 0x20 DUP3 DUP5 ADD ADD GT PUSH2 0x1AC JUMPI PUSH2 0x263F SWAP2 PUSH1 0x20 DUP1 DUP6 ADD SWAP2 ADD PUSH2 0x23DA JUMP JUMPDEST SWAP1 JUMP JUMPDEST MLOAD SWAP1 PUSH1 0x1 PUSH1 0x1 PUSH1 0xA0 SHL SUB DUP3 AND DUP3 SUB PUSH2 0x1AC JUMPI JUMP JUMPDEST SWAP2 PUSH1 0xC0 DUP4 DUP4 SUB SLT PUSH2 0x1AC JUMPI DUP3 MLOAD PUSH1 0x1 PUSH1 0x1 PUSH1 0x40 SHL SUB DUP2 GT PUSH2 0x1AC JUMPI DUP3 PUSH2 0x267D SWAP2 DUP6 ADD PUSH2 0x25FD JUMP JUMPDEST SWAP3 PUSH2 0x268A PUSH1 0x20 DUP3 ADD PUSH2 0x2642 JUMP JUMPDEST SWAP3 PUSH2 0x2697 PUSH1 0x40 DUP4 ADD PUSH2 0x2642 JUMP JUMPDEST SWAP3 PUSH1 0x60 DUP4 ADD MLOAD SWAP3 PUSH1 0x80 DUP2 ADD MLOAD DUP1 ISZERO ISZERO DUP2 SUB PUSH2 0x1AC JUMPI SWAP3 PUSH1 0xA0 DUP3 ADD MLOAD PUSH1 0x1 PUSH1 0x1 PUSH1 0x40 SHL SUB DUP2 GT PUSH2 0x1AC JUMPI PUSH2 0x263F SWAP3 ADD PUSH2 0x25FD JUMP JUMPDEST ISZERO PUSH2 0x26D1 JUMPI JUMP JUMPDEST PUSH1 0x40 MLOAD PUSH3 0x461BCD PUSH1 0xE5 SHL DUP2 MSTORE PUSH1 0x20 PUSH1 0x4 DUP3 ADD MSTORE PUSH1 0x13 PUSH1 0x24 DUP3 ADD MSTORE PUSH19 0x50726F7065727479206E6F7420616374697665 PUSH1 0x68 SHL PUSH1 0x44 DUP3 ADD MSTORE PUSH1 0x64 SWAP1 REVERT JUMPDEST ISZERO PUSH2 0x2713 JUMPI JUMP JUMPDEST PUSH1 0x40 MLOAD PUSH3 0x461BCD PUSH1 0xE5 SHL DUP2 MSTORE PUSH1 0x20 PUSH1 0x4 DUP3 ADD MSTORE PUSH1 0x17 PUSH1 0x24 DUP3 ADD MSTORE PUSH32 0x50726F706572747920646F6573206E6F74206578697374000000000000000000 PUSH1 0x44 DUP3 ADD MSTORE PUSH1 0x64 SWAP1 REVERT JUMPDEST ISZERO PUSH2 0x275F JUMPI JUMP JUMPDEST PUSH1 0x40 MLOAD PUSH3 0x461BCD PUSH1 0xE5 SHL DUP2 MSTORE PUSH1 0x20 PUSH1 0x4 DUP3 ADD MSTORE PUSH1 0x1E PUSH1 0x24 DUP3 ADD MSTORE PUSH32 0x436865636B2D696E206D75737420626520696E20746865206675747572650000 PUSH1 0x44 DUP3 ADD MSTORE PUSH1 0x64 SWAP1 REVERT JUMPDEST ISZERO PUSH2 0x27AB JUMPI JUMP JUMPDEST PUSH1 0x64 PUSH1 0x40 MLOAD PUSH3 0x461BCD PUSH1 0xE5 SHL DUP2 MSTORE PUSH1 0x20 PUSH1 0x4 DUP3 ADD MSTORE PUSH1 0x20 PUSH1 0x24 DUP3 ADD MSTORE PUSH32 0x436865636B2D6F7574206D75737420626520616674657220636865636B2D696E PUSH1 0x44 DUP3 ADD MSTORE REVERT JUMPDEST ISZERO PUSH2 0x27F6 JUMPI JUMP JUMPDEST PUSH1 0x40 MLOAD PUSH3 0x461BCD PUSH1 0xE5 SHL DUP2 MSTORE PUSH1 0x20 PUSH1 0x4 DUP3 ADD MSTORE PUSH1 0x2C PUSH1 0x24 DUP3 ADD MSTORE PUSH32 0x426F6F6B696E6720646174657320636F6E666C69637420776974682065786973 PUSH1 0x44 DUP3 ADD MSTORE PUSH12 0x74696E6720626F6F6B696E67 PUSH1 0xA0 SHL PUSH1 0x64 DUP3 ADD MSTORE PUSH1 0x84 SWAP1 REVERT JUMPDEST SWAP2 SWAP1 DUP3 SUB SWAP2 DUP3 GT PUSH2 0x1009 JUMPI JUMP JUMPDEST ISZERO PUSH2 0x2864 JUMPI JUMP JUMPDEST PUSH1 0x64 PUSH1 0x40 MLOAD PUSH3 0x461BCD PUSH1 0xE5 SHL DUP2 MSTORE PUSH1 0x20 PUSH1 0x4 DUP3 ADD MSTORE PUSH1 0x20 PUSH1 0x24 DUP3 ADD MSTORE PUSH32 0x426F6F6B696E67206D757374206265206174206C656173742031206E69676874 PUSH1 0x44 DUP3 ADD MSTORE REVERT JUMPDEST SWAP1 DUP2 PUSH1 0x20 SWAP2 SUB SLT PUSH2 0x1AC JUMPI MLOAD PUSH2 0xFFFF DUP2 AND DUP2 SUB PUSH2 0x1AC JUMPI SWAP1 JUMP JUMPDEST DUP2 DUP2 MUL SWAP3 SWAP2 DUP2 ISZERO SWAP2 DUP5 DIV EQ OR ISZERO PUSH2 0x1009 JUMPI JUMP JUMPDEST PUSH1 0x0 NOT DUP2 EQ PUSH2 0x1009 JUMPI PUSH1 0x1 ADD SWAP1 JUMP JUMPDEST DUP2 DUP2 LT PUSH2 0x28EF JUMPI POP POP JUMP JUMPDEST PUSH1 0x0 DUP2 SSTORE PUSH1 0x1 ADD PUSH2 0x28E4 JUMP JUMPDEST SWAP2 SWAP1 PUSH1 0x1F DUP2 GT PUSH2 0x290A JUMPI POP POP POP JUMP JUMPDEST PUSH2 0x236F SWAP3 PUSH1 0x0 MSTORE PUSH1 0x20 PUSH1 0x0 KECCAK256 SWAP1 PUSH1 0x20 PUSH1 0x1F DUP5 ADD PUSH1 0x5 SHR DUP4 ADD SWAP4 LT PUSH2 0x2936 JUMPI JUMPDEST PUSH1 0x1F ADD PUSH1 0x5 SHR ADD SWAP1 PUSH2 0x28E4 JUMP JUMPDEST SWAP1 SWAP2 POP DUP2 SWAP1 PUSH2 0x2929 JUMP JUMPDEST DUP1 SLOAD PUSH9 0x10000000000000000 DUP2 LT ISZERO PUSH2 0xC3C JUMPI PUSH2 0x2962 SWAP2 PUSH1 0x1 DUP3 ADD DUP2 SSTORE PUSH2 0x2509 JUMP JUMPDEST DUP2 SWAP3 SWAP2 SLOAD SWAP1 PUSH1 0x3 SHL SWAP2 DUP3 SHL SWAP2 PUSH1 0x0 NOT SWAP1 SHL NOT AND OR SWAP1 SSTORE JUMP JUMPDEST ISZERO PUSH2 0x2981 JUMPI JUMP JUMPDEST PUSH1 0x40 MLOAD PUSH3 0x461BCD PUSH1 0xE5 SHL DUP2 MSTORE PUSH1 0x20 PUSH1 0x4 DUP3 ADD MSTORE PUSH1 0xE PUSH1 0x24 DUP3 ADD MSTORE PUSH14 0x4E6F7420696E2064697370757465 PUSH1 0x90 SHL PUSH1 0x44 DUP3 ADD MSTORE PUSH1 0x64 SWAP1 REVERT JUMPDEST PUSH1 0x20 PUSH2 0x29D3 SWAP2 SWAP4 SWAP3 SWAP4 DUP2 PUSH1 0x40 MLOAD SWAP4 DUP3 DUP6 DUP1 SWAP5 MLOAD SWAP4 DUP5 SWAP3 ADD PUSH2 0x23DA JUMP JUMPDEST DUP2 ADD PUSH1 0x4 DUP2 MSTORE SUB ADD SWAP1 KECCAK256 SWAP1 PUSH1 0x40 MLOAD DUP1 DUP4 PUSH1 0x20 DUP3 SWAP6 SLOAD SWAP4 DUP5 DUP2 MSTORE ADD SWAP1 PUSH1 0x0 MSTORE PUSH1 0x20 PUSH1 0x0 KECCAK256 SWAP3 PUSH1 0x0 JUMPDEST DUP2 DUP2 LT PUSH2 0x2ABD JUMPI POP POP PUSH2 0x2A0F SWAP3 POP SUB DUP4 PUSH2 0x2315 JUMP JUMPDEST PUSH1 0x0 JUMPDEST DUP3 MLOAD DUP2 LT ISZERO PUSH2 0x2AB4 JUMPI PUSH1 0x0 PUSH1 0x20 DUP3 PUSH1 0x5 SHL DUP6 ADD ADD MLOAD DUP2 MSTORE PUSH1 0x3 PUSH1 0x20 MSTORE PUSH1 0x40 DUP2 KECCAK256 SWAP1 PUSH1 0xFF PUSH1 0x8 DUP4 ADD SLOAD AND PUSH1 0x8 DUP2 LT ISZERO PUSH2 0x2AA0 JUMPI PUSH1 0x5 DUP2 EQ SWAP2 DUP3 ISZERO PUSH2 0x2A93 JUMPI JUMPDEST POP POP PUSH2 0x2A8A JUMPI PUSH1 0x4 DUP2 ADD SLOAD DUP6 LT SWAP1 DUP2 PUSH2 0x2A7C JUMPI JUMPDEST POP PUSH2 0x2A73 JUMPI PUSH1 0x1 SWAP1 JUMPDEST ADD PUSH2 0x2A12 JUMP JUMPDEST POP POP POP POP PUSH1 0x1 SWAP1 JUMP JUMPDEST PUSH1 0x3 SWAP2 POP ADD SLOAD DUP3 GT CODESIZE PUSH2 0x2A64 JUMP JUMPDEST POP PUSH1 0x1 SWAP1 PUSH2 0x2A6D JUMP JUMPDEST PUSH1 0x6 SWAP3 POP POP EQ CODESIZE DUP1 PUSH2 0x2A50 JUMP JUMPDEST PUSH4 0x4E487B71 PUSH1 0xE0 SHL DUP3 MSTORE PUSH1 0x21 PUSH1 0x4 MSTORE PUSH1 0x24 DUP3 REVERT JUMPDEST POP POP POP POP PUSH1 0x0 SWAP1 JUMP JUMPDEST DUP5 SLOAD DUP4 MSTORE PUSH1 0x1 SWAP5 DUP6 ADD SWAP5 DUP8 SWAP5 POP PUSH1 0x20 SWAP1 SWAP4 ADD SWAP3 ADD PUSH2 0x29FA JUMP JUMPDEST ISZERO PUSH2 0x2ADD JUMPI JUMP JUMPDEST PUSH1 0x40 MLOAD PUSH3 0x461BCD PUSH1 0xE5 SHL DUP2 MSTORE PUSH1 0x20 PUSH1 0x4 DUP3 ADD MSTORE PUSH1 0x16 PUSH1 0x24 DUP3 ADD MSTORE PUSH22 0x111A5CDC1D5D19481DDA5B991BDDC8195E1C1A5C9959 PUSH1 0x52 SHL PUSH1 0x44 DUP3 ADD MSTORE PUSH1 0x64 SWAP1 REVERT JUMPDEST SWAP1 PUSH1 0x20 DUP3 MSTORE PUSH1 0x0 SWAP2 DUP2 SLOAD SWAP2 PUSH2 0x2B2F DUP4 PUSH2 0x22BF JUMP JUMPDEST SWAP3 DUP4 PUSH1 0x20 DUP5 ADD MSTORE PUSH1 0x1 DUP2 AND SWAP1 DUP2 PUSH1 0x0 EQ PUSH2 0x2B8D JUMPI POP PUSH1 0x1 EQ PUSH2 0x2B52 JUMPI JUMPDEST POP POP POP SWAP1 JUMP JUMPDEST PUSH1 0x0 SWAP1 DUP2 MSTORE PUSH1 0x20 DUP2 KECCAK256 SWAP3 SWAP4 POP SWAP2 JUMPDEST DUP4 DUP4 LT PUSH2 0x2B76 JUMPI POP PUSH1 0x40 SWAP3 POP ADD ADD CODESIZE DUP1 DUP1 PUSH2 0x2B4C JUMP JUMPDEST DUP1 SLOAD PUSH1 0x40 DUP5 DUP5 ADD ADD MSTORE PUSH1 0x20 SWAP1 SWAP3 ADD SWAP2 PUSH1 0x1 ADD PUSH2 0x2B60 JUMP JUMPDEST SWAP2 POP POP PUSH1 0x40 SWAP4 POP PUSH1 0xFF SWAP3 SWAP2 SWAP3 NOT AND DUP4 DUP4 ADD MSTORE ISZERO ISZERO PUSH1 0x5 SHL ADD ADD CODESIZE DUP1 DUP1 PUSH2 0x2B4C JUMP JUMPDEST PUSH1 0x0 SLOAD PUSH1 0x1 PUSH1 0x1 PUSH1 0xA0 SHL SUB SWAP1 DUP2 AND SWAP1 PUSH2 0x2BC5 PUSH2 0x2D09 JUMP JUMPDEST AND SUB PUSH2 0x2BCD JUMPI JUMP JUMPDEST PUSH2 0x2BD5 PUSH2 0x2D09 JUMP JUMPDEST PUSH4 0x118CDAA7 PUSH1 0xE0 SHL PUSH1 0x0 SWAP1 DUP2 MSTORE PUSH1 0x1 PUSH1 0x1 PUSH1 0xA0 SHL SUB SWAP2 SWAP1 SWAP2 AND PUSH1 0x4 MSTORE PUSH1 0x24 SWAP1 REVERT JUMPDEST DUP1 PUSH1 0x0 MSTORE PUSH1 0x3 PUSH1 0x20 MSTORE PUSH1 0x40 PUSH1 0x0 KECCAK256 PUSH1 0x1 DUP1 PUSH1 0xA0 SHL SUB PUSH1 0x1 SLOAD AND SWAP1 PUSH1 0x0 PUSH1 0x40 MLOAD DUP1 SWAP4 PUSH4 0x4DF47953 PUSH1 0xE1 SHL DUP3 MSTORE DUP2 DUP1 PUSH2 0x2C33 PUSH1 0x1 DUP8 ADD PUSH1 0x4 DUP4 ADD PUSH2 0x2B1B JUMP JUMPDEST SUB SWAP2 GAS STATICCALL SWAP1 DUP2 ISZERO PUSH2 0x3F7 JUMPI PUSH1 0x0 SWAP3 DUP4 SWAP3 DUP4 SWAP3 DUP4 SWAP3 DUP4 SWAP3 PUSH2 0x2CE4 JUMPI JUMPDEST POP PUSH1 0x8 DUP2 ADD DUP1 SLOAD PUSH1 0xFF NOT AND PUSH1 0x3 OR SWAP1 SSTORE PUSH1 0x7 ADD SLOAD SWAP1 PUSH1 0x1 PUSH1 0x1 PUSH1 0xA0 SHL SUB AND GAS CALL PUSH2 0x2C76 PUSH2 0x258B JUMP JUMPDEST POP ISZERO PUSH2 0x2CA9 JUMPI PUSH1 0x20 PUSH32 0xE70F5CB5ECDE9644C195A97CF45A506DE023D1D170CD972F04441FAFD993F150 SWAP2 PUSH1 0x40 MLOAD SWAP1 DUP2 MSTORE LOG1 JUMP JUMPDEST PUSH1 0x40 MLOAD PUSH3 0x461BCD PUSH1 0xE5 SHL DUP2 MSTORE PUSH1 0x20 PUSH1 0x4 DUP3 ADD MSTORE PUSH1 0x13 PUSH1 0x24 DUP3 ADD MSTORE PUSH19 0x121BDCDD081C185E5B595B9D0819985A5B1959 PUSH1 0x6A SHL PUSH1 0x44 DUP3 ADD MSTORE PUSH1 0x64 SWAP1 REVERT JUMPDEST PUSH1 0x7 SWAP2 SWAP3 POP PUSH2 0x2CFC SWAP1 RETURNDATASIZE DUP1 DUP7 DUP4 RETURNDATACOPY PUSH2 0x3E3 DUP2 DUP4 PUSH2 0x2315 JUMP JUMPDEST POP POP POP SWAP2 POP POP SWAP2 SWAP1 PUSH2 0x2C4E JUMP JUMPDEST CALLER PUSH32 0x0 PUSH1 0x1 PUSH1 0x1 PUSH1 0xA0 SHL SUB AND EQ DUP1 PUSH2 0x2D57 JUMPI JUMPDEST ISZERO PUSH2 0x2D53 JUMPI PUSH1 0x13 NOT CALLDATASIZE ADD CALLDATASIZE DUP2 GT PUSH2 0x1009 JUMPI CALLDATALOAD PUSH1 0x60 SHR SWAP1 JUMP JUMPDEST CALLER SWAP1 JUMP JUMPDEST POP PUSH1 0x14 CALLDATASIZE LT ISZERO PUSH2 0x2D3B JUMP INVALID LOG2 PUSH5 0x6970667358 0x22 SLT KECCAK256 SHL EQ 0xE0 PC 0xE0 0xEE 0xE5 PUSH1 0x6C CALLDATACOPY STOP 0xB7 PUSH15 0x2565E97A64458B2A8F67112071F739 0x2A 0x2D LOG4 EXTCODECOPY PUSH5 0x736F6C6343 STOP ADDMOD SHR STOP CALLER "},"methodIdentifiers":{"CHECK_IN_WINDOW()":"00f44ccd","DISPUTE_RESOLUTION_WINDOW()":"5c980829","adminResolveDispute(uint256,bool)":"d09dc22b","bookings(uint256)":"1dab301e","cancelBooking(uint256)":"0dca825e","checkIn(uint256)":"e95a644f","createBooking(string,uint256,uint256)":"dd662946","createBookingPaid(string,uint256,uint256,uint256,string,string)":"1f7a8939","escalateDispute(uint256)":"20a68d25","getGuestBookings(address)":"63809aef","getPropertyBookings(string)":"f2c41b5a","guestBookings(address,uint256)":"a41cfa69","guestResolveDispute(uint256)":"bae391d9","hasBookingConflict(string,uint256,uint256)":"288c1609","hostResolveDispute(uint256)":"f1161855","isTrustedForwarder(address)":"572b6c05","owner()":"8da5cb5b","processMissedCheckIn(uint256)":"72beb510","propertyBookings(string,uint256)":"8d1cc984","propertyMarketplace()":"c3ed62ce","renounceOwnership()":"715018a6","transferOwnership(address)":"f2fde38b","triggerCheckInWindow(uint256)":"ccef7f33","trustedForwarder()":"7da0a877"}}}}}