{"contracts/BookingManager.sol":{"BookingManager":{"abi":[{"inputs":[{"internalType":"address","name":"_propertyMarketplaceAddress","type":"address"},{"internalType":"address","name":"_trustedForwarder","type":"address"},{"internalType":"address","name":"_eurcToken","type":"address"},{"internalType":"address","name":"_treasury","type":"address"}],"stateMutability":"nonpayable","type":"constructor"},{"inputs":[{"internalType":"address","name":"owner","type":"address"}],"name":"OwnableInvalidOwner","type":"error"},{"inputs":[{"internalType":"address","name":"account","type":"address"}],"name":"OwnableUnauthorizedAccount","type":"error"},{"inputs":[{"internalType":"address","name":"token","type":"address"}],"name":"SafeERC20FailedOperation","type":"error"},{"anonymous":false,"inputs":[{"indexed":false,"internalType":"uint256","name":"bookingId","type":"uint256"}],"name":"BookingCancelled","type":"event"},{"anonymous":false,"inputs":[{"indexed":false,"internalType":"uint256","name":"bookingId","type":"uint256"}],"name":"BookingCompleted","type":"event"},{"anonymous":false,"inputs":[{"indexed":false,"internalType":"uint256","name":"bookingId","type":"uint256"},{"indexed":false,"internalType":"string","name":"propertyId","type":"string"},{"indexed":false,"internalType":"address","name":"guest","type":"address"},{"indexed":false,"internalType":"uint256","name":"checkInDate","type":"uint256"},{"indexed":false,"internalType":"uint256","name":"amount","type":"uint256"}],"name":"BookingCreated","type":"event"},{"anonymous":false,"inputs":[{"indexed":true,"internalType":"uint256","name":"bookingId","type":"uint256"},{"indexed":false,"internalType":"string","name":"propertyId","type":"string"},{"indexed":true,"internalType":"address","name":"guest","type":"address"},{"indexed":false,"internalType":"uint256","name":"checkInDate","type":"uint256"},{"indexed":false,"internalType":"uint256","name":"checkOutDate","type":"uint256"},{"indexed":false,"internalType":"uint256","name":"totalAmount","type":"uint256"},{"indexed":false,"internalType":"string","name":"paymentReference","type":"string"},{"indexed":false,"internalType":"string","name":"bookingURI","type":"string"}],"name":"BookingCreatedPaid","type":"event"},{"anonymous":false,"inputs":[{"indexed":false,"internalType":"uint256","name":"bookingId","type":"uint256"},{"indexed":false,"internalType":"uint256","name":"amount","type":"uint256"}],"name":"BookingRefunded","type":"event"},{"anonymous":false,"inputs":[{"indexed":false,"internalType":"uint256","name":"bookingId","type":"uint256"}],"name":"CheckInMissed","type":"event"},{"anonymous":false,"inputs":[{"indexed":false,"internalType":"uint256","name":"bookingId","type":"uint256"},{"indexed":false,"internalType":"uint256","name":"deadline","type":"uint256"}],"name":"CheckInWindowOpened","type":"event"},{"anonymous":false,"inputs":[{"indexed":false,"internalType":"uint256","name":"bookingId","type":"uint256"},{"indexed":false,"internalType":"address","name":"guest","type":"address"}],"name":"CheckedIn","type":"event"},{"anonymous":false,"inputs":[{"indexed":false,"internalType":"uint256","name":"bookingId","type":"uint256"}],"name":"DisputeEscalated","type":"event"},{"anonymous":false,"inputs":[{"indexed":false,"internalType":"uint256","name":"bookingId","type":"uint256"},{"indexed":false,"internalType":"string","name":"reason","type":"string"}],"name":"DisputeRaised","type":"event"},{"anonymous":false,"inputs":[{"indexed":false,"internalType":"uint256","name":"bookingId","type":"uint256"},{"indexed":false,"internalType":"bool","name":"byHost","type":"bool"},{"indexed":false,"internalType":"bool","name":"byGuest","type":"bool"}],"name":"DisputeResolved","type":"event"},{"anonymous":false,"inputs":[{"indexed":true,"internalType":"address","name":"previousOwner","type":"address"},{"indexed":true,"internalType":"address","name":"newOwner","type":"address"}],"name":"OwnershipTransferred","type":"event"},{"inputs":[],"name":"CHECK_IN_WINDOW","outputs":[{"internalType":"uint256","name":"","type":"uint256"}],"stateMutability":"view","type":"function"},{"inputs":[],"name":"DISPUTE_RESOLUTION_WINDOW","outputs":[{"internalType":"uint256","name":"","type":"uint256"}],"stateMutability":"view","type":"function"},{"inputs":[{"internalType":"uint256","name":"_bookingId","type":"uint256"},{"internalType":"uint256","name":"_guestPercentage","type":"uint256"}],"name":"adminResolveDispute","outputs":[],"stateMutability":"nonpayable","type":"function"},{"inputs":[{"internalType":"uint256","name":"","type":"uint256"}],"name":"bookings","outputs":[{"internalType":"uint256","name":"bookingId","type":"uint256"},{"internalType":"string","name":"propertyId","type":"string"},{"internalType":"address","name":"guest","type":"address"},{"internalType":"address","name":"host","type":"address"},{"internalType":"uint256","name":"checkInDate","type":"uint256"},{"internalType":"uint256","name":"checkOutDate","type":"uint256"},{"internalType":"uint256","name":"totalAmount","type":"uint256"},{"internalType":"uint256","name":"platformFee","type":"uint256"},{"internalType":"uint256","name":"hostAmount","type":"uint256"},{"internalType":"enum BookingManager.BookingStatus","name":"status","type":"uint8"},{"internalType":"uint256","name":"checkInWindowStart","type":"uint256"},{"internalType":"uint256","name":"checkInDeadline","type":"uint256"},{"internalType":"uint256","name":"disputeDeadline","type":"uint256"},{"internalType":"bool","name":"isCheckInComplete","type":"bool"},{"internalType":"bool","name":"isResolvedByHost","type":"bool"},{"internalType":"bool","name":"isResolvedByGuest","type":"bool"},{"internalType":"string","name":"disputeReason","type":"string"},{"internalType":"string","name":"bookingURI","type":"string"},{"internalType":"string","name":"paymentReference","type":"string"},{"internalType":"bool","name":"paidOffChain","type":"bool"}],"stateMutability":"view","type":"function"},{"inputs":[{"internalType":"uint256","name":"_bookingId","type":"uint256"}],"name":"cancelBooking","outputs":[],"stateMutability":"nonpayable","type":"function"},{"inputs":[{"internalType":"uint256","name":"_bookingId","type":"uint256"}],"name":"checkIn","outputs":[],"stateMutability":"nonpayable","type":"function"},{"inputs":[{"internalType":"string","name":"_propertyId","type":"string"},{"internalType":"uint256","name":"_checkInDate","type":"uint256"},{"internalType":"uint256","name":"_checkOutDate","type":"uint256"},{"internalType":"uint256","name":"_totalAmount","type":"uint256"},{"internalType":"string","name":"_bookingURI","type":"string"}],"name":"createBooking","outputs":[{"internalType":"uint256","name":"","type":"uint256"}],"stateMutability":"nonpayable","type":"function"},{"inputs":[{"internalType":"string","name":"_propertyId","type":"string"},{"internalType":"uint256","name":"_checkInDate","type":"uint256"},{"internalType":"uint256","name":"_checkOutDate","type":"uint256"},{"internalType":"uint256","name":"_totalAmount","type":"uint256"},{"internalType":"string","name":"_paymentReference","type":"string"},{"internalType":"string","name":"_bookingURI","type":"string"}],"name":"createBookingPaid","outputs":[{"internalType":"uint256","name":"","type":"uint256"}],"stateMutability":"nonpayable","type":"function"},{"inputs":[{"internalType":"uint256","name":"_bookingId","type":"uint256"}],"name":"escalateDispute","outputs":[],"stateMutability":"nonpayable","type":"function"},{"inputs":[],"name":"eurcToken","outputs":[{"internalType":"contract IERC20","name":"","type":"address"}],"stateMutability":"view","type":"function"},{"inputs":[{"internalType":"address","name":"_guest","type":"address"}],"name":"getGuestBookings","outputs":[{"internalType":"uint256[]","name":"","type":"uint256[]"}],"stateMutability":"view","type":"function"},{"inputs":[{"internalType":"string","name":"_propertyId","type":"string"}],"name":"getPropertyBookings","outputs":[{"internalType":"uint256[]","name":"","type":"uint256[]"}],"stateMutability":"view","type":"function"},{"inputs":[{"internalType":"address","name":"","type":"address"},{"internalType":"uint256","name":"","type":"uint256"}],"name":"guestBookings","outputs":[{"internalType":"uint256","name":"","type":"uint256"}],"stateMutability":"view","type":"function"},{"inputs":[{"internalType":"uint256","name":"_bookingId","type":"uint256"}],"name":"guestResolveDispute","outputs":[],"stateMutability":"nonpayable","type":"function"},{"inputs":[{"internalType":"string","name":"_propertyId","type":"string"},{"internalType":"uint256","name":"_checkInDate","type":"uint256"},{"internalType":"uint256","name":"_checkOutDate","type":"uint256"}],"name":"hasBookingConflict","outputs":[{"internalType":"bool","name":"hasConflict","type":"bool"}],"stateMutability":"view","type":"function"},{"inputs":[{"internalType":"uint256","name":"_bookingId","type":"uint256"}],"name":"hostResolveDispute","outputs":[],"stateMutability":"nonpayable","type":"function"},{"inputs":[{"internalType":"address","name":"forwarder","type":"address"}],"name":"isTrustedForwarder","outputs":[{"internalType":"bool","name":"","type":"bool"}],"stateMutability":"view","type":"function"},{"inputs":[],"name":"owner","outputs":[{"internalType":"address","name":"","type":"address"}],"stateMutability":"view","type":"function"},{"inputs":[{"internalType":"uint256","name":"_bookingId","type":"uint256"}],"name":"processMissedCheckIn","outputs":[],"stateMutability":"nonpayable","type":"function"},{"inputs":[{"internalType":"string","name":"","type":"string"},{"internalType":"uint256","name":"","type":"uint256"}],"name":"propertyBookings","outputs":[{"internalType":"uint256","name":"","type":"uint256"}],"stateMutability":"view","type":"function"},{"inputs":[],"name":"propertyMarketplace","outputs":[{"internalType":"contract PropertyMarketplace","name":"","type":"address"}],"stateMutability":"view","type":"function"},{"inputs":[],"name":"renounceOwnership","outputs":[],"stateMutability":"nonpayable","type":"function"},{"inputs":[{"internalType":"address","name":"_treasury","type":"address"}],"name":"setTreasury","outputs":[],"stateMutability":"nonpayable","type":"function"},{"inputs":[{"internalType":"address","name":"newOwner","type":"address"}],"name":"transferOwnership","outputs":[],"stateMutability":"nonpayable","type":"function"},{"inputs":[],"name":"treasury","outputs":[{"internalType":"address","name":"","type":"address"}],"stateMutability":"view","type":"function"},{"inputs":[{"internalType":"uint256","name":"_bookingId","type":"uint256"}],"name":"triggerCheckInWindow","outputs":[],"stateMutability":"nonpayable","type":"function"},{"inputs":[],"name":"trustedForwarder","outputs":[{"internalType":"address","name":"","type":"address"}],"stateMutability":"view","type":"function"}],"evm":{"bytecode":{"linkReferences":{},"object":"60a03461014757601f61306638819003918201601f19168301916001600160401b0383118484101761014c578084926080946040528339810103126101475761004781610162565b61005360208301610162565b9161006c606061006560408401610162565b9201610162565b916001600160a01b0361007d610176565b1693841561013157600080546001600160a01b031981168717825560405196916001600160a01b03909116907f8be0079c531659141344cd1fd0a4f28419497f9722a3daafe3b4186f6b6457e09080a3608052600180546001600160a01b03199081166001600160a01b039384161790915560028054821693831693909317909255600380549092169216919091179055612e9e90816101c88239608051818181611243015281816115470152612db70152f35b631e4fbdf760e01b600052600060045260246000fd5b600080fd5b634e487b7160e01b600052604160045260246000fd5b51906001600160a01b038216820361014757565b6080516001600160a01b03163314806101bc575b156101b85760131936013681116101a2573560601c90565b634e487b7160e01b600052601160045260246000fd5b3390565b50601436101561018a56fe610100604052600436101561001357600080fd5b60003560e01c8062f44ccd146120f95780630dca825e146120dd5780631dab301e14611f015780631f7a89391461170a57806320a68d25146115c7578063288c16091461157b578063572b6c05146115275780635c9808291461152257806361d027b3146114f957806363809aef14611482578063715018a61461142957806372beb510146112725780637da0a8771461122d5780638d1cc984146111c25780638da5cb5b146111995780638e60144a1461117057806393c02f22146108de578063a41cfa6914610885578063bae391d9146107a8578063c3ed62ce1461077f578063ccef7f33146105b3578063e95a644f14610469578063f0f44260146103d7578063f1161855146102a6578063f2c41b5a146101fc578063f2fde38b146101735763f3b0f3b91461014557600080fd5b3461016e57600036600319011261016e576002546040516001600160a01b039091168152602090f35b600080fd5b3461016e57602036600319011261016e5761018c6122dc565b610194612ccf565b6001600160a01b031680156101e657600080546001600160a01b03198116831782556001600160a01b0316907f8be0079c531659141344cd1fd0a4f28419497f9722a3daafe3b4186f6b6457e09080a3005b631e4fbdf760e01b600052600060045260246000fd5b3461016e57602036600319011261016e576004356001600160401b03811161016e576020610231610244923690600401612295565b8160405193828580945193849201612232565b8101600681520301902060405190816020825491828152019160005260206000209060005b8181106102905761028c856102808187038261216d565b604051918291826122f2565b0390f35b8254845260209093019260019283019201610269565b3461016e57602036600319011261016e57600435600081815260056020526040902060038101549091906001600160a01b03908116906102e4612db4565b16036103995760ff6009830154169060088210156103835760ff600d7f847a573abaa8875d3fe466d414094860f38be0ea3e161a0ef08c0acd955f7ea7946103306004606096146128e0565b610340600c820154421115612c4f565b01805461ff0019166101001780825560101c8216610375575b5460101c166040519182526001602083015215156040820152a1005b61037e83612d17565b610359565b634e487b7160e01b600052602160045260246000fd5b60405162461bcd60e51b81526020600482015260166024820152752737ba103a343290383937b832b93a3c9037bbb732b960511b6044820152606490fd5b3461016e57602036600319011261016e576103f06122dc565b6103f8612ccf565b6001600160a01b03168015610424576bffffffffffffffffffffffff60a01b6003541617600355600080f35b60405162461bcd60e51b815260206004820152601860248201527f496e76616c6964207472656173757279206164647265737300000000000000006044820152606490fd5b3461016e57602036600319011261016e57600435600081815260056020526040902060028101546104af906001600160a01b03908116906104a8612db4565b161461235a565b600981019160ff83541660088110156103835760010361057557600b820154421161053057600d6040927f70790c0ab38e2aca9b5520985fe66db2a3700c3680b61c3853b5554f67a2c31c94600260ff1982541617905501600160ff1982541617905561051a612db4565b82519182526001600160a01b03166020820152a1005b60405162461bcd60e51b815260206004820152601760248201527f436865636b2d696e2077696e646f7720657870697265640000000000000000006044820152606490fd5b60405162461bcd60e51b81526020600482015260166024820152752737ba103932b0b23c903337b91031b432b1b596b4b760511b6044820152606490fd5b3461016e57602036600319011261016e5760043580600052600560205260406000208181540361074157600981019160ff83541660088110156103835761070757600482015442106106c257600a820180546106735742905562015180420180421161065d577fd6c4872cc5d86d0c496ad388bbe994a94376b28276d219fb70019f84d4b3b76193600b60409401918255600160ff198254161790555482519182526020820152a1005b634e487b7160e01b600052601160045260246000fd5b60405162461bcd60e51b815260206004820152602160248201527f436865636b2d696e2077696e646f7720616c72656164792074726967676572656044820152601960fa1b6064820152608490fd5b60405162461bcd60e51b815260206004820152601960248201527f436865636b2d696e2064617465206e6f742072656163686564000000000000006044820152606490fd5b60405162461bcd60e51b8152602060048201526012602482015271426f6f6b696e67206e6f742061637469766560701b6044820152606490fd5b60405162461bcd60e51b8152602060048201526016602482015275109bdbdada5b99c8191bd95cc81b9bdd08195e1a5cdd60521b6044820152606490fd5b3461016e57600036600319011261016e576001546040516001600160a01b039091168152602090f35b3461016e57602036600319011261016e57600435600081815260056020526040902060028101549091906107ea906001600160a01b03908116906104a8612db4565b60ff6009830154169060088210156103835760ff600d7f847a573abaa8875d3fe466d414094860f38be0ea3e161a0ef08c0acd955f7ea7946108306004606096146128e0565b610840600c820154421115612c4f565b01805462ff00001916620100001780825560081c8216610877575b5460081c166040519182521515602082015260016040820152a1005b61088083612d17565b61085b565b3461016e57604036600319011261016e5761089e6122dc565b6001600160a01b031660009081526007602052604090208054602435919082101561016e576020916108cf9161232c565b90549060031b1c604051908152f35b3461016e5760a036600319011261016e576004356001600160401b03811161016e5761090e903690600401612295565b6044356084356001600160401b03811161016e57610930903690600401612295565b600154604051634df4795360e11b8152602060048201529193919060009082906001600160a01b031681806109686024820188612255565b03915afa80156110ef57600091600091611140575b5061098790612630565b6001600160a01b031661099b811515612672565b6001600160a01b036109ab612db4565b16908181146110fb576109c142602435116126be565b6109ce602435851161270a565b6109e46109de856024358661291d565b15612755565b6109ff620151806109f7602435876127b6565b0415156127c3565b6002546040516323b872dd60e01b60208201526024810184905230604482015260648035818301528152610a46916001600160a01b0316610a4160848361216d565b612e0d565b600154604051633375e33f60e21b815290602090829060049082906001600160a01b03165afa80156110ef5761ffff610a8f916103e8936000916110c0575b5016606435612828565b04610a9c816064356127b6565b90610aa860045461283b565b958660045560405193610aba85612151565b8785528660208601528560408601526060850152602435608085015260a084015260643560c084015260e0830152610100820152600061012082015260006101408201526000610160820152600061018082015260006101a082015260006101c082015260006101e0820152602094604051610b36878261216d565b60008152610200830152610220820152604051610b53868261216d565b60008152610240820152600061026082015283600052600585526040600020908051825560208101518051906001600160401b038211610f4e578190610ba982610ba06001880154612117565b60018801612861565b8890601f831160011461104f57600092611044575b50508160011b916000199060031b1c19161760018301555b60408101516002830180546001600160a01b039283166001600160a01b03199182161790915560608301516003850180549190931691161790556080810151600483015560a0810151600583015560c0810151600683015560e081015160078301556101008101516008808401919091556101208201519081101561038357610c629060098401612396565b610140810151600a830155610160810151600b830155610180810151600c830155610cdf600d8301610ca76101a08401511515829060ff801983541691151516179055565b6101c0830151815461ff00191690151560081b61ff00161781556101e0830151815462ff0000191690151560101b62ff000016179055565b600e82016102008201518051906001600160401b038211610f4e578190610d1082610d0a8654612117565b86612861565b8990601f8311600114610fdf57600092610fd4575b50508160011b916000199060031b1c19161790555b600f82016102208201518051906001600160401b038211610f4e578190610d6582610d0a8654612117565b8990601f8311600114610f6f57600092610f64575b50508160011b916000199060031b1c19161790555b601082016102408201518051906001600160401b038211610f4e57610dbe82610db88554612117565b85612861565b8890601f8311600114610eb657610e8a9694610e3494847fb21a131db9e3377301833ce70be73b950ef23b9d94873b831ac7bbee23314c389a989560119561026095600092610eab575b50508160011b916000199060031b1c19161790555b0151151591019060ff801983541691151516179055565b610e5b8560405188818651610e4c8183858b01612232565b810160068152030190206128a6565b8060005260078652610e718560406000206128a6565b60405192839286845260a08885015260a0840190612255565b906040830152602435606083015260643560808301520390a1604051908152f35b015190508e80610e08565b90601f19831691846000528a6000209260005b8c828210610f385750509460018560119561026095610e8a9c9a957fb21a131db9e3377301833ce70be73b950ef23b9d94873b831ac7bbee23314c389e9c99610e349b10610f1f575b505050811b019055610e1d565b015160001960f88460031b161c191690558e8080610f12565b6001859682939686015181550195019301610ec9565b634e487b7160e01b600052604160045260246000fd5b015190508980610d7a565b60008581528b81209350601f198516905b8c828210610fbe575050908460019594939210610fa5575b505050811b019055610d8f565b015160001960f88460031b161c19169055898080610f98565b6001859682939686015181550195019301610f80565b015190508980610d25565b60008581528b81209350601f198516905b8c82821061102e575050908460019594939210611015575b505050811b019055610d3a565b015160001960f88460031b161c19169055898080611008565b6001859682939686015181550195019301610ff0565b015190508880610bbe565b92506001850160005288600020906000935b8a601f19851686106110a757506001945083601f1981161061108e575b505050811b016001830155610bd6565b015160001960f88460031b161c1916905588808061107e565b8282015184559485019460019093019290910190611061565b6110e2915060203d6020116110e8575b6110da818361216d565b81019061280e565b89610a85565b503d6110d0565b6040513d6000823e3d90fd5b60405162461bcd60e51b815260206004820152601860248201527f43616e6e6f7420626f6f6b206f776e2070726f706572747900000000000000006044820152606490fd5b610987925061116291503d806000833e61115a818361216d565b8101906125bc565b50949350509050919061097d565b3461016e57604036600319011261016e57611189612ccf565b611197602435600435612a3c565b005b3461016e57600036600319011261016e576000546040516001600160a01b039091168152602090f35b3461016e57604036600319011261016e576004356001600160401b03811161016e576111f2903690600401612295565b61120e6020602435928160405193828580945193849201612232565b81016006815203019020805482101561016e576020916108cf9161232c565b3461016e57600036600319011261016e576040517f00000000000000000000000000000000000000000000000000000000000000006001600160a01b03168152602090f35b3461016e57602036600319011261016e5760043580600052600560205260406000206009810160ff8154166008811015610383576001036113eb57600b8201544211156113a657600460ff198254161790556201518042019182421161065d57600e827fe07ad455e24561261e9047aab2f668ae1fc2cc6fda35021764673613b888836d94600c6080950155016113098154612117565b601f8111611384575b50601e6e26b4b9b9b2b21031b432b1b596b4b760891b0190557f771ad1a63db62f3c96f995005dc4038b2d11173769793751c154afec8e3eed6d6020604051838152a160405190815260406020820152600f60408201526e26b4b9b9b2b21031b432b1b596b4b760891b6060820152a1005b6113a09082600052601f6020600020910160051c81019061284a565b84611312565b60405162461bcd60e51b815260206004820152601b60248201527f436865636b2d696e2077696e646f77206e6f74206578706972656400000000006044820152606490fd5b60405162461bcd60e51b81526020600482015260166024820152754e6f7420696e20636865636b2d696e2077696e646f7760501b6044820152606490fd5b3461016e57600036600319011261016e57611442612ccf565b600080546001600160a01b0319811682556001600160a01b03167f8be0079c531659141344cd1fd0a4f28419497f9722a3daafe3b4186f6b6457e08280a3005b3461016e57602036600319011261016e576001600160a01b036114a36122dc565b166000526007602052604060002060405190816020825491828152019160005260206000209060005b8181106114e35761028c856102808187038261216d565b82548452602090930192600192830192016114cc565b3461016e57600036600319011261016e576003546040516001600160a01b039091168152602090f35b6120f9565b3461016e57602036600319011261016e5760206115426122dc565b6040517f00000000000000000000000000000000000000000000000000000000000000006001600160a01b039081169216919091148152f35b3461016e57606036600319011261016e576004356001600160401b03811161016e576115bd6115b06020923690600401612295565b604435906024359061291d565b6040519015158152f35b3461016e57602036600319011261016e576004358060005260056020526040600020600981019060ff825416600881101561038357600461160891146128e0565b600c8101544211156116b757600d015460ff8160081c1690816116a9575b5061166457805460ff191660071790556040519081527f2dab28113e16ee2fb971a1376ce8421e58fc1c3d20d7acff8927a494fde0cdc090602090a1005b60405162461bcd60e51b815260206004820152601860248201527f4469737075746520616c7265616479207265736f6c76656400000000000000006044820152606490fd5b60ff915060101c1683611626565b60405162461bcd60e51b815260206004820152602560248201527f44697370757465207265736f6c7574696f6e2077696e646f77206e6f742065786044820152641c1a5c995960da1b6064820152608490fd5b3461016e5760c036600319011261016e576004356001600160401b03811161016e5761173a903690600401612295565b6084356001600160401b03811161016e57611759903690600401612295565b9060a4356001600160401b03811161016e57611779903690600401612295565b600154604051634df4795360e11b8152602060048201526001600160a01b0390911690600081806117ad6024820188612255565b0381855afa80156110ef57600491602091600091600091611ed9575b506117d390612630565b6001600160a01b0316926117e8841515612672565b6117f542602435116126be565b6118046024356044351161270a565b6118166109de6044356024358961291d565b61182b620151806109f76024356044356127b6565b604051633375e33f60e21b815292839182905afa80156110ef5761ffff611861916103e893600091611eba575016606435612828565b049261186f846064356127b6565b9361187b60045461283b565b9485600455611888612db4565b916040519461189686612151565b87865284602087015260018060a01b03841660408701526060860152602435608086015260443560a086015260643560c086015260e0850152610100840152600061012084015260006101408401526000610160840152600061018084015260006101a084015260006101c084015260006101e084015260209560405161191d888261216d565b6000815261020085015284610220850152806102408501526001610260850152856000526005875260406000208451815560208501518051906001600160401b038211610f4e578190611980826119776001870154612117565b60018701612861565b8a90601f8311600114611e4957600092611e3e575b50508160011b916000199060031b1c19161760018201555b60408501516002820180546001600160a01b039283166001600160a01b03199182161790915560608701516003840180549190931691161790556080850151600482015560a0850151600582015560c0850151600682015560e085015160078201556101008501516008808301919091556101208601519081101561038357611a399060098301612396565b610140850151600a820155610160850151600b820155610180850151600c820155611ab6600d8201611a7e6101a08801511515829060ff801983541691151516179055565b6101c0870151815461ff00191690151560081b61ff00161781556101e0870151815462ff0000191690151560101b62ff000016179055565b600e81016102008601518051906001600160401b038211610f4e578190611ae182610d0a8654612117565b8b90601f8311600114611dd757600092611dcc575b50508160011b916000199060031b1c19161790555b600f81016102208601518051906001600160401b038211610f4e578190611b3682610d0a8654612117565b8b90601f8311600114611d6557600092611d5a575b50508160011b916000199060031b1c19161790555b6102408501519485516001600160401b038111610f4e578896611b9382611b8a6010870154612117565b60108701612861565b8a90601f8311600114611cb157611c9b946011610260611c5d999686611c82977f4c0edc0c8794ba89c4649924f32b10a82065ad4e9fd335d0cb04cacc759d70d09d9b97611c1197600092611ca6575b50508160011b916000199060031b1c19161760108501550151151591019060ff801983541691151516179055565b611c2b886040518d8181610e4c8b83815193849201612232565b60018060a01b03831660005260078b52611c498860406000206128a6565b60405195869560c0875260c0870190612255565b906024358c870152604435604087015260643560608701528582036080870152612255565b83810360a08501526001600160a01b0390911696612255565b0390a3604051908152f35b015190503880611be3565b90601085016000528b6000209160005b8d601f1986168210611d41575050946011610260611c5d99966001877f4c0edc0c8794ba89c4649924f32b10a82065ad4e9fd335d0cb04cacc759d70d09d9b97611c1197611c9b9c611c829b601f19811610611d28575b505050811b016010850155610e1d565b015160001960f88460031b161c19169055388080611d18565b8383015185558d9b506001909401939283019201611cc1565b015190508b80611b4b565b60008581528d81209350601f198516908e5b828210611db4575050908460019594939210611d9b575b505050811b019055611b60565b015160001960f88460031b161c191690558b8080611d8e565b80600186978294978701518155019601940190611d77565b015190508b80611af6565b60008581528d81209350601f198516908e5b828210611e26575050908460019594939210611e0d575b505050811b019055611b0b565b015160001960f88460031b161c191690558b8080611e00565b80600186978294978701518155019601940190611de9565b015190508a80611995565b9250600184016000528a600020906000935b8c601f1985168610611ea157506001945083601f19811610611e88575b505050811b0160018201556119ad565b015160001960f88460031b161c191690558a8080611e78565b8282015184559485019460019093019290910190611e5b565b611ed3915060203d6020116110e8576110da818361216d565b88610a85565b6117d39250611ef391503d806000833e61115a818361216d565b5094935050905091906117c9565b3461016e57602036600319011261016e576004356000526005602052604060002080549060018101611f329061218e565b60e052600160a01b600190036002820154169181600160a01b600190036003820154166004820154946005830154936006840154926007850154600886015490600987015460ff1695600a88015498600b8901549b600c8a015495600d8b015460c052600e8b01611fa29061218e565b97611faf600f8d0161218e565b9b601001611fbc9061218e565b9d6011015460ff1660805260405160a05260a0515260a051602001610280905260a0516102800160e05190611ff091612255565b9860a0516040015260a0516060015260a0516080015260a05160a0015260a05160c0015260a05160e0015260a05161010001526008841015610383576120c6976120b3966120a09561012060a051015261014060a051015261016060a051015261018060a051015260ff60c0511615156101a060a051015260ff60c05160081c1615156101c060a051015260ff60c05160101c1615156101e060a051015260a051820361020060a0510152612255565b9060a051820361022060a0510152612255565b9060a051820361024060a0510152612255565b608051151561026060a051015260a051900360a051f35b3461016e57602036600319011261016e576111976004356123ae565b3461016e57600036600319011261016e576020604051620151808152f35b90600182811c92168015612147575b602083101461213157565b634e487b7160e01b600052602260045260246000fd5b91607f1691612126565b61028081019081106001600160401b03821117610f4e57604052565b90601f801991011681019081106001600160401b03821117610f4e57604052565b90604051918260008254926121a284612117565b808452936001811690811561221057506001146121c9575b506121c79250038361216d565b565b90506000929192526020600020906000915b8183106121f45750509060206121c792820101386121ba565b60209193508060019154838589010152019101909184926121db565b9050602092506121c794915060ff191682840152151560051b820101386121ba565b60005b8381106122455750506000910152565b8181015183820152602001612235565b9060209161226e81518092818552858086019101612232565b601f01601f1916010190565b6001600160401b038111610f4e57601f01601f191660200190565b81601f8201121561016e578035906122ac8261227a565b926122ba604051948561216d565b8284526020838301011161016e57816000926020809301838601378301015290565b600435906001600160a01b038216820361016e57565b602060408183019282815284518094520192019060005b8181106123165750505090565b8251845260209384019390920191600101612309565b80548210156123445760005260206000200190600090565b634e487b7160e01b600052603260045260246000fd5b1561236157565b60405162461bcd60e51b815260206004820152600d60248201526c139bdd081d1a194819dd595cdd609a1b6044820152606490fd5b9060088110156103835760ff80198354169116179055565b60008181526005602052604090206002810180549091906123dd906001600160a01b03908116906104a8612db4565b6009810160ff8154166008811015610383576125265760048201544210156124ec57805460ff19166005179055601181015460ff166124bd5760025491546008820180547fedc1198b595a44e20b4738f6c85854e2c9f704982f488658f4c765030f152656956040959094929361248693926124679290916001600160a01b039081169116612c94565b600254600354600790920154916001600160a01b039081169116612c94565b7ff774c001cb52a3566b767ed6e37c92706acb2b80a3ff6049e2849cd62725d08560208451848152a15482519182526020820152a1565b505060207ff774c001cb52a3566b767ed6e37c92706acb2b80a3ff6049e2849cd62725d08591604051908152a1565b60405162461bcd60e51b81526020600482015260126024820152715061737420636865636b2d696e206461746560701b6044820152606490fd5b60405162461bcd60e51b815260206004820152601560248201527443616e6e6f742063616e63656c20626f6f6b696e6760581b6044820152606490fd5b81601f8201121561016e5780516125798161227a565b92612587604051948561216d565b8184526020828401011161016e576125a59160208085019101612232565b90565b51906001600160a01b038216820361016e57565b9160c08383031261016e5782516001600160401b03811161016e57826125e3918501612563565b926125f0602082016125a8565b926125fd604083016125a8565b926060830151926080810151801515810361016e579260a08201516001600160401b03811161016e576125a59201612563565b1561263757565b60405162461bcd60e51b815260206004820152601360248201527250726f7065727479206e6f742061637469766560681b6044820152606490fd5b1561267957565b60405162461bcd60e51b815260206004820152601760248201527f50726f706572747920646f6573206e6f742065786973740000000000000000006044820152606490fd5b156126c557565b60405162461bcd60e51b815260206004820152601e60248201527f436865636b2d696e206d75737420626520696e207468652066757475726500006044820152606490fd5b1561271157565b606460405162461bcd60e51b815260206004820152602060248201527f436865636b2d6f7574206d75737420626520616674657220636865636b2d696e6044820152fd5b1561275c57565b60405162461bcd60e51b815260206004820152602c60248201527f426f6f6b696e6720646174657320636f6e666c6963742077697468206578697360448201526b74696e6720626f6f6b696e6760a01b6064820152608490fd5b9190820391821161065d57565b156127ca57565b606460405162461bcd60e51b815260206004820152602060248201527f426f6f6b696e67206d757374206265206174206c656173742031206e696768746044820152fd5b9081602091031261016e575161ffff8116810361016e5790565b8181029291811591840414171561065d57565b600019811461065d5760010190565b818110612855575050565b6000815560010161284a565b9190601f811161287057505050565b6121c7926000526020600020906020601f840160051c8301931061289c575b601f0160051c019061284a565b909150819061288f565b805468010000000000000000811015610f4e576128c89160018201815561232c565b819291549060031b91821b91600019901b1916179055565b156128e757565b60405162461bcd60e51b815260206004820152600e60248201526d4e6f7420696e206469737075746560901b6044820152606490fd5b6020612939919392938160405193828580945193849201612232565b81016006815203019020906040518083602082955493848152019060005260206000209260005b818110612a235750506129759250038361216d565b60005b8251811015612a1a57600060208260051b8501015181526005602052604081209060ff6009830154166008811015612a0657600581149182156129f9575b50506129f0576005810154851090816129e2575b506129d9576001905b01612978565b50505050600190565b6004915001548211386129ca565b506001906129d3565b60069250501438806129b6565b634e487b7160e01b82526021600452602482fd5b50505050600090565b8454835260019485019487945060209093019201612960565b9081600052600560205260406000206009810160ff815416600881101561038357600703612c115760648311612bd75760ff601183015416612b9157612adb906064600884015494612ace612a9d83612a95848a612828565b0480986127b6565b958715159687612b6c575b80612b47575b50600254600354600790920154916001600160a01b039081169116612c94565b03612b3f57600690612396565b7fe70f5cb5ecde9644c195a97cf45a506de023d1d170cd972f04441fafd993f1506020604051858152a1612b0d575050565b7fedc1198b595a44e20b4738f6c85854e2c9f704982f488658f4c765030f1526569160409182519182526020820152a1565b600390612396565b6002546003830154612b6692916001600160a01b039182169116612c94565b38612aae565b6002805490830154612b8c918b916001600160a01b039081169116612c94565b612aa8565b7fe70f5cb5ecde9644c195a97cf45a506de023d1d170cd972f04441fafd993f150939150612bce90606460209414600014612b3f57600690612396565b604051908152a1565b60405162461bcd60e51b8152602060048201526012602482015271496e76616c69642070657263656e7461676560701b6044820152606490fd5b60405162461bcd60e51b81526020600482015260166024820152752737ba1032b9b1b0b630ba32b2103a379030b236b4b760511b6044820152606490fd5b15612c5657565b60405162461bcd60e51b8152602060048201526016602482015275111a5cdc1d5d19481dda5b991bddc8195e1c1a5c995960521b6044820152606490fd5b60405163a9059cbb60e01b60208201526001600160a01b0390921660248301526044808301939093529181526121c791610a4160648361216d565b6000546001600160a01b0390811690612ce6612db4565b1603612cee57565b612cf6612db4565b63118cdaa760e01b60009081526001600160a01b0391909116600452602490fd5b60207fe70f5cb5ecde9644c195a97cf45a506de023d1d170cd972f04441fafd993f150918060005260058252604060002060098101600360ff1982541617905560ff601182015416612daa576002546003546007830154612bce9392612d89926001600160a01b039081169116612c94565b6002546003820154600890920154916001600160a01b039081169116612c94565b50604051908152a1565b337f00000000000000000000000000000000000000000000000000000000000000006001600160a01b03161480612e02575b15612dfe57601319360136811161065d573560601c90565b3390565b506014361015612de6565b906000602091828151910182855af1156110ef576000513d612e5f57506001600160a01b0381163b155b612e3e5750565b635274afe760e01b60009081526001600160a01b0391909116600452602490fd5b60011415612e3756fea2646970667358221220a6ec96396d3ceb6d7c91aa87d221b50ed8dbd82e9bbdd9eebddb33a41fb9a4c964736f6c634300081c0033","opcodes":"PUSH1 0xA0 CALLVALUE PUSH2 0x147 JUMPI PUSH1 0x1F PUSH2 0x3066 CODESIZE DUP2 SWAP1 SUB SWAP2 DUP3 ADD PUSH1 0x1F NOT AND DUP4 ADD SWAP2 PUSH1 0x1 PUSH1 0x1 PUSH1 0x40 SHL SUB DUP4 GT DUP5 DUP5 LT OR PUSH2 0x14C JUMPI DUP1 DUP5 SWAP3 PUSH1 0x80 SWAP5 PUSH1 0x40 MSTORE DUP4 CODECOPY DUP2 ADD SUB SLT PUSH2 0x147 JUMPI PUSH2 0x47 DUP2 PUSH2 0x162 JUMP JUMPDEST PUSH2 0x53 PUSH1 0x20 DUP4 ADD PUSH2 0x162 JUMP JUMPDEST SWAP2 PUSH2 0x6C PUSH1 0x60 PUSH2 0x65 PUSH1 0x40 DUP5 ADD PUSH2 0x162 JUMP JUMPDEST SWAP3 ADD PUSH2 0x162 JUMP JUMPDEST SWAP2 PUSH1 0x1 PUSH1 0x1 PUSH1 0xA0 SHL SUB PUSH2 0x7D PUSH2 0x176 JUMP JUMPDEST AND SWAP4 DUP5 ISZERO PUSH2 0x131 JUMPI PUSH1 0x0 DUP1 SLOAD PUSH1 0x1 PUSH1 0x1 PUSH1 0xA0 SHL SUB NOT DUP2 AND DUP8 OR DUP3 SSTORE PUSH1 0x40 MLOAD SWAP7 SWAP2 PUSH1 0x1 PUSH1 0x1 PUSH1 0xA0 SHL SUB SWAP1 SWAP2 AND SWAP1 PUSH32 0x8BE0079C531659141344CD1FD0A4F28419497F9722A3DAAFE3B4186F6B6457E0 SWAP1 DUP1 LOG3 PUSH1 0x80 MSTORE PUSH1 0x1 DUP1 SLOAD PUSH1 0x1 PUSH1 0x1 PUSH1 0xA0 SHL SUB NOT SWAP1 DUP2 AND PUSH1 0x1 PUSH1 0x1 PUSH1 0xA0 SHL SUB SWAP4 DUP5 AND OR SWAP1 SWAP2 SSTORE PUSH1 0x2 DUP1 SLOAD DUP3 AND SWAP4 DUP4 AND SWAP4 SWAP1 SWAP4 OR SWAP1 SWAP3 SSTORE PUSH1 0x3 DUP1 SLOAD SWAP1 SWAP3 AND SWAP3 AND SWAP2 SWAP1 SWAP2 OR SWAP1 SSTORE PUSH2 0x2E9E SWAP1 DUP2 PUSH2 0x1C8 DUP3 CODECOPY PUSH1 0x80 MLOAD DUP2 DUP2 DUP2 PUSH2 0x1243 ADD MSTORE DUP2 DUP2 PUSH2 0x1547 ADD MSTORE PUSH2 0x2DB7 ADD MSTORE RETURN JUMPDEST PUSH4 0x1E4FBDF7 PUSH1 0xE0 SHL PUSH1 0x0 MSTORE PUSH1 0x0 PUSH1 0x4 MSTORE PUSH1 0x24 PUSH1 0x0 REVERT JUMPDEST PUSH1 0x0 DUP1 REVERT JUMPDEST PUSH4 0x4E487B71 PUSH1 0xE0 SHL PUSH1 0x0 MSTORE PUSH1 0x41 PUSH1 0x4 MSTORE PUSH1 0x24 PUSH1 0x0 REVERT JUMPDEST MLOAD SWAP1 PUSH1 0x1 PUSH1 0x1 PUSH1 0xA0 SHL SUB DUP3 AND DUP3 SUB PUSH2 0x147 JUMPI JUMP JUMPDEST PUSH1 0x80 MLOAD PUSH1 0x1 PUSH1 0x1 PUSH1 0xA0 SHL SUB AND CALLER EQ DUP1 PUSH2 0x1BC JUMPI JUMPDEST ISZERO PUSH2 0x1B8 JUMPI PUSH1 0x13 NOT CALLDATASIZE ADD CALLDATASIZE DUP2 GT PUSH2 0x1A2 JUMPI CALLDATALOAD PUSH1 0x60 SHR SWAP1 JUMP JUMPDEST PUSH4 0x4E487B71 PUSH1 0xE0 SHL PUSH1 0x0 MSTORE PUSH1 0x11 PUSH1 0x4 MSTORE PUSH1 0x24 PUSH1 0x0 REVERT JUMPDEST CALLER SWAP1 JUMP JUMPDEST POP PUSH1 0x14 CALLDATASIZE LT ISZERO PUSH2 0x18A JUMP INVALID PUSH2 0x100 PUSH1 0x40 MSTORE PUSH1 0x4 CALLDATASIZE LT ISZERO PUSH2 0x13 JUMPI PUSH1 0x0 DUP1 REVERT JUMPDEST PUSH1 0x0 CALLDATALOAD PUSH1 0xE0 SHR DUP1 PUSH3 0xF44CCD EQ PUSH2 0x20F9 JUMPI DUP1 PUSH4 0xDCA825E EQ PUSH2 0x20DD JUMPI DUP1 PUSH4 0x1DAB301E EQ PUSH2 0x1F01 JUMPI DUP1 PUSH4 0x1F7A8939 EQ PUSH2 0x170A JUMPI DUP1 PUSH4 0x20A68D25 EQ PUSH2 0x15C7 JUMPI DUP1 PUSH4 0x288C1609 EQ PUSH2 0x157B JUMPI DUP1 PUSH4 0x572B6C05 EQ PUSH2 0x1527 JUMPI DUP1 PUSH4 0x5C980829 EQ PUSH2 0x1522 JUMPI DUP1 PUSH4 0x61D027B3 EQ PUSH2 0x14F9 JUMPI DUP1 PUSH4 0x63809AEF EQ PUSH2 0x1482 JUMPI DUP1 PUSH4 0x715018A6 EQ PUSH2 0x1429 JUMPI DUP1 PUSH4 0x72BEB510 EQ PUSH2 0x1272 JUMPI DUP1 PUSH4 0x7DA0A877 EQ PUSH2 0x122D JUMPI DUP1 PUSH4 0x8D1CC984 EQ PUSH2 0x11C2 JUMPI DUP1 PUSH4 0x8DA5CB5B EQ PUSH2 0x1199 JUMPI DUP1 PUSH4 0x8E60144A EQ PUSH2 0x1170 JUMPI DUP1 PUSH4 0x93C02F22 EQ PUSH2 0x8DE JUMPI DUP1 PUSH4 0xA41CFA69 EQ PUSH2 0x885 JUMPI DUP1 PUSH4 0xBAE391D9 EQ PUSH2 0x7A8 JUMPI DUP1 PUSH4 0xC3ED62CE EQ PUSH2 0x77F JUMPI DUP1 PUSH4 0xCCEF7F33 EQ PUSH2 0x5B3 JUMPI DUP1 PUSH4 0xE95A644F EQ PUSH2 0x469 JUMPI DUP1 PUSH4 0xF0F44260 EQ PUSH2 0x3D7 JUMPI DUP1 PUSH4 0xF1161855 EQ PUSH2 0x2A6 JUMPI DUP1 PUSH4 0xF2C41B5A EQ PUSH2 0x1FC JUMPI DUP1 PUSH4 0xF2FDE38B EQ PUSH2 0x173 JUMPI PUSH4 0xF3B0F3B9 EQ PUSH2 0x145 JUMPI PUSH1 0x0 DUP1 REVERT JUMPDEST CALLVALUE PUSH2 0x16E JUMPI PUSH1 0x0 CALLDATASIZE PUSH1 0x3 NOT ADD SLT PUSH2 0x16E JUMPI PUSH1 0x2 SLOAD PUSH1 0x40 MLOAD PUSH1 0x1 PUSH1 0x1 PUSH1 0xA0 SHL SUB SWAP1 SWAP2 AND DUP2 MSTORE PUSH1 0x20 SWAP1 RETURN JUMPDEST PUSH1 0x0 DUP1 REVERT JUMPDEST CALLVALUE PUSH2 0x16E JUMPI PUSH1 0x20 CALLDATASIZE PUSH1 0x3 NOT ADD SLT PUSH2 0x16E JUMPI PUSH2 0x18C PUSH2 0x22DC JUMP JUMPDEST PUSH2 0x194 PUSH2 0x2CCF JUMP JUMPDEST PUSH1 0x1 PUSH1 0x1 PUSH1 0xA0 SHL SUB AND DUP1 ISZERO PUSH2 0x1E6 JUMPI PUSH1 0x0 DUP1 SLOAD PUSH1 0x1 PUSH1 0x1 PUSH1 0xA0 SHL SUB NOT DUP2 AND DUP4 OR DUP3 SSTORE PUSH1 0x1 PUSH1 0x1 PUSH1 0xA0 SHL SUB AND SWAP1 PUSH32 0x8BE0079C531659141344CD1FD0A4F28419497F9722A3DAAFE3B4186F6B6457E0 SWAP1 DUP1 LOG3 STOP JUMPDEST PUSH4 0x1E4FBDF7 PUSH1 0xE0 SHL PUSH1 0x0 MSTORE PUSH1 0x0 PUSH1 0x4 MSTORE PUSH1 0x24 PUSH1 0x0 REVERT JUMPDEST CALLVALUE PUSH2 0x16E JUMPI PUSH1 0x20 CALLDATASIZE PUSH1 0x3 NOT ADD SLT PUSH2 0x16E JUMPI PUSH1 0x4 CALLDATALOAD PUSH1 0x1 PUSH1 0x1 PUSH1 0x40 SHL SUB DUP2 GT PUSH2 0x16E JUMPI PUSH1 0x20 PUSH2 0x231 PUSH2 0x244 SWAP3 CALLDATASIZE SWAP1 PUSH1 0x4 ADD PUSH2 0x2295 JUMP JUMPDEST DUP2 PUSH1 0x40 MLOAD SWAP4 DUP3 DUP6 DUP1 SWAP5 MLOAD SWAP4 DUP5 SWAP3 ADD PUSH2 0x2232 JUMP JUMPDEST DUP2 ADD PUSH1 0x6 DUP2 MSTORE SUB ADD SWAP1 KECCAK256 PUSH1 0x40 MLOAD SWAP1 DUP2 PUSH1 0x20 DUP3 SLOAD SWAP2 DUP3 DUP2 MSTORE ADD SWAP2 PUSH1 0x0 MSTORE PUSH1 0x20 PUSH1 0x0 KECCAK256 SWAP1 PUSH1 0x0 JUMPDEST DUP2 DUP2 LT PUSH2 0x290 JUMPI PUSH2 0x28C DUP6 PUSH2 0x280 DUP2 DUP8 SUB DUP3 PUSH2 0x216D JUMP JUMPDEST PUSH1 0x40 MLOAD SWAP2 DUP3 SWAP2 DUP3 PUSH2 0x22F2 JUMP JUMPDEST SUB SWAP1 RETURN JUMPDEST DUP3 SLOAD DUP5 MSTORE PUSH1 0x20 SWAP1 SWAP4 ADD SWAP3 PUSH1 0x1 SWAP3 DUP4 ADD SWAP3 ADD PUSH2 0x269 JUMP JUMPDEST CALLVALUE PUSH2 0x16E JUMPI PUSH1 0x20 CALLDATASIZE PUSH1 0x3 NOT ADD SLT PUSH2 0x16E JUMPI PUSH1 0x4 CALLDATALOAD PUSH1 0x0 DUP2 DUP2 MSTORE PUSH1 0x5 PUSH1 0x20 MSTORE PUSH1 0x40 SWAP1 KECCAK256 PUSH1 0x3 DUP2 ADD SLOAD SWAP1 SWAP2 SWAP1 PUSH1 0x1 PUSH1 0x1 PUSH1 0xA0 SHL SUB SWAP1 DUP2 AND SWAP1 PUSH2 0x2E4 PUSH2 0x2DB4 JUMP JUMPDEST AND SUB PUSH2 0x399 JUMPI PUSH1 0xFF PUSH1 0x9 DUP4 ADD SLOAD AND SWAP1 PUSH1 0x8 DUP3 LT ISZERO PUSH2 0x383 JUMPI PUSH1 0xFF PUSH1 0xD PUSH32 0x847A573ABAA8875D3FE466D414094860F38BE0EA3E161A0EF08C0ACD955F7EA7 SWAP5 PUSH2 0x330 PUSH1 0x4 PUSH1 0x60 SWAP7 EQ PUSH2 0x28E0 JUMP JUMPDEST PUSH2 0x340 PUSH1 0xC DUP3 ADD SLOAD TIMESTAMP GT ISZERO PUSH2 0x2C4F JUMP JUMPDEST ADD DUP1 SLOAD PUSH2 0xFF00 NOT AND PUSH2 0x100 OR DUP1 DUP3 SSTORE PUSH1 0x10 SHR DUP3 AND PUSH2 0x375 JUMPI JUMPDEST SLOAD PUSH1 0x10 SHR AND PUSH1 0x40 MLOAD SWAP2 DUP3 MSTORE PUSH1 0x1 PUSH1 0x20 DUP4 ADD MSTORE ISZERO ISZERO PUSH1 0x40 DUP3 ADD MSTORE LOG1 STOP JUMPDEST PUSH2 0x37E DUP4 PUSH2 0x2D17 JUMP JUMPDEST PUSH2 0x359 JUMP JUMPDEST PUSH4 0x4E487B71 PUSH1 0xE0 SHL PUSH1 0x0 MSTORE PUSH1 0x21 PUSH1 0x4 MSTORE PUSH1 0x24 PUSH1 0x0 REVERT JUMPDEST PUSH1 0x40 MLOAD PUSH3 0x461BCD PUSH1 0xE5 SHL DUP2 MSTORE PUSH1 0x20 PUSH1 0x4 DUP3 ADD MSTORE PUSH1 0x16 PUSH1 0x24 DUP3 ADD MSTORE PUSH22 0x2737BA103A343290383937B832B93A3C9037BBB732B9 PUSH1 0x51 SHL PUSH1 0x44 DUP3 ADD MSTORE PUSH1 0x64 SWAP1 REVERT JUMPDEST CALLVALUE PUSH2 0x16E JUMPI PUSH1 0x20 CALLDATASIZE PUSH1 0x3 NOT ADD SLT PUSH2 0x16E JUMPI PUSH2 0x3F0 PUSH2 0x22DC JUMP JUMPDEST PUSH2 0x3F8 PUSH2 0x2CCF JUMP JUMPDEST PUSH1 0x1 PUSH1 0x1 PUSH1 0xA0 SHL SUB AND DUP1 ISZERO PUSH2 0x424 JUMPI PUSH12 0xFFFFFFFFFFFFFFFFFFFFFFFF PUSH1 0xA0 SHL PUSH1 0x3 SLOAD AND OR PUSH1 0x3 SSTORE PUSH1 0x0 DUP1 RETURN JUMPDEST PUSH1 0x40 MLOAD PUSH3 0x461BCD PUSH1 0xE5 SHL DUP2 MSTORE PUSH1 0x20 PUSH1 0x4 DUP3 ADD MSTORE PUSH1 0x18 PUSH1 0x24 DUP3 ADD MSTORE PUSH32 0x496E76616C696420747265617375727920616464726573730000000000000000 PUSH1 0x44 DUP3 ADD MSTORE PUSH1 0x64 SWAP1 REVERT JUMPDEST CALLVALUE PUSH2 0x16E JUMPI PUSH1 0x20 CALLDATASIZE PUSH1 0x3 NOT ADD SLT PUSH2 0x16E JUMPI PUSH1 0x4 CALLDATALOAD PUSH1 0x0 DUP2 DUP2 MSTORE PUSH1 0x5 PUSH1 0x20 MSTORE PUSH1 0x40 SWAP1 KECCAK256 PUSH1 0x2 DUP2 ADD SLOAD PUSH2 0x4AF SWAP1 PUSH1 0x1 PUSH1 0x1 PUSH1 0xA0 SHL SUB SWAP1 DUP2 AND SWAP1 PUSH2 0x4A8 PUSH2 0x2DB4 JUMP JUMPDEST AND EQ PUSH2 0x235A JUMP JUMPDEST PUSH1 0x9 DUP2 ADD SWAP2 PUSH1 0xFF DUP4 SLOAD AND PUSH1 0x8 DUP2 LT ISZERO PUSH2 0x383 JUMPI PUSH1 0x1 SUB PUSH2 0x575 JUMPI PUSH1 0xB DUP3 ADD SLOAD TIMESTAMP GT PUSH2 0x530 JUMPI PUSH1 0xD PUSH1 0x40 SWAP3 PUSH32 0x70790C0AB38E2ACA9B5520985FE66DB2A3700C3680B61C3853B5554F67A2C31C SWAP5 PUSH1 0x2 PUSH1 0xFF NOT DUP3 SLOAD AND OR SWAP1 SSTORE ADD PUSH1 0x1 PUSH1 0xFF NOT DUP3 SLOAD AND OR SWAP1 SSTORE PUSH2 0x51A PUSH2 0x2DB4 JUMP JUMPDEST DUP3 MLOAD SWAP2 DUP3 MSTORE PUSH1 0x1 PUSH1 0x1 PUSH1 0xA0 SHL SUB AND PUSH1 0x20 DUP3 ADD MSTORE LOG1 STOP JUMPDEST PUSH1 0x40 MLOAD PUSH3 0x461BCD PUSH1 0xE5 SHL DUP2 MSTORE PUSH1 0x20 PUSH1 0x4 DUP3 ADD MSTORE PUSH1 0x17 PUSH1 0x24 DUP3 ADD MSTORE PUSH32 0x436865636B2D696E2077696E646F772065787069726564000000000000000000 PUSH1 0x44 DUP3 ADD MSTORE PUSH1 0x64 SWAP1 REVERT JUMPDEST PUSH1 0x40 MLOAD PUSH3 0x461BCD PUSH1 0xE5 SHL DUP2 MSTORE PUSH1 0x20 PUSH1 0x4 DUP3 ADD MSTORE PUSH1 0x16 PUSH1 0x24 DUP3 ADD MSTORE PUSH22 0x2737BA103932B0B23C903337B91031B432B1B596B4B7 PUSH1 0x51 SHL PUSH1 0x44 DUP3 ADD MSTORE PUSH1 0x64 SWAP1 REVERT JUMPDEST CALLVALUE PUSH2 0x16E JUMPI PUSH1 0x20 CALLDATASIZE PUSH1 0x3 NOT ADD SLT PUSH2 0x16E JUMPI PUSH1 0x4 CALLDATALOAD DUP1 PUSH1 0x0 MSTORE PUSH1 0x5 PUSH1 0x20 MSTORE PUSH1 0x40 PUSH1 0x0 KECCAK256 DUP2 DUP2 SLOAD SUB PUSH2 0x741 JUMPI PUSH1 0x9 DUP2 ADD SWAP2 PUSH1 0xFF DUP4 SLOAD AND PUSH1 0x8 DUP2 LT ISZERO PUSH2 0x383 JUMPI PUSH2 0x707 JUMPI PUSH1 0x4 DUP3 ADD SLOAD TIMESTAMP LT PUSH2 0x6C2 JUMPI PUSH1 0xA DUP3 ADD DUP1 SLOAD PUSH2 0x673 JUMPI TIMESTAMP SWAP1 SSTORE PUSH3 0x15180 TIMESTAMP ADD DUP1 TIMESTAMP GT PUSH2 0x65D JUMPI PUSH32 0xD6C4872CC5D86D0C496AD388BBE994A94376B28276D219FB70019F84D4B3B761 SWAP4 PUSH1 0xB PUSH1 0x40 SWAP5 ADD SWAP2 DUP3 SSTORE PUSH1 0x1 PUSH1 0xFF NOT DUP3 SLOAD AND OR SWAP1 SSTORE SLOAD DUP3 MLOAD SWAP2 DUP3 MSTORE PUSH1 0x20 DUP3 ADD MSTORE LOG1 STOP JUMPDEST PUSH4 0x4E487B71 PUSH1 0xE0 SHL PUSH1 0x0 MSTORE PUSH1 0x11 PUSH1 0x4 MSTORE PUSH1 0x24 PUSH1 0x0 REVERT JUMPDEST PUSH1 0x40 MLOAD PUSH3 0x461BCD PUSH1 0xE5 SHL DUP2 MSTORE PUSH1 0x20 PUSH1 0x4 DUP3 ADD MSTORE PUSH1 0x21 PUSH1 0x24 DUP3 ADD MSTORE PUSH32 0x436865636B2D696E2077696E646F7720616C7265616479207472696767657265 PUSH1 0x44 DUP3 ADD MSTORE PUSH1 0x19 PUSH1 0xFA SHL PUSH1 0x64 DUP3 ADD MSTORE PUSH1 0x84 SWAP1 REVERT JUMPDEST PUSH1 0x40 MLOAD PUSH3 0x461BCD PUSH1 0xE5 SHL DUP2 MSTORE PUSH1 0x20 PUSH1 0x4 DUP3 ADD MSTORE PUSH1 0x19 PUSH1 0x24 DUP3 ADD MSTORE PUSH32 0x436865636B2D696E2064617465206E6F74207265616368656400000000000000 PUSH1 0x44 DUP3 ADD MSTORE PUSH1 0x64 SWAP1 REVERT JUMPDEST PUSH1 0x40 MLOAD PUSH3 0x461BCD PUSH1 0xE5 SHL DUP2 MSTORE PUSH1 0x20 PUSH1 0x4 DUP3 ADD MSTORE PUSH1 0x12 PUSH1 0x24 DUP3 ADD MSTORE PUSH18 0x426F6F6B696E67206E6F7420616374697665 PUSH1 0x70 SHL PUSH1 0x44 DUP3 ADD MSTORE PUSH1 0x64 SWAP1 REVERT JUMPDEST PUSH1 0x40 MLOAD PUSH3 0x461BCD PUSH1 0xE5 SHL DUP2 MSTORE PUSH1 0x20 PUSH1 0x4 DUP3 ADD MSTORE PUSH1 0x16 PUSH1 0x24 DUP3 ADD MSTORE PUSH22 0x109BDBDADA5B99C8191BD95CC81B9BDD08195E1A5CDD PUSH1 0x52 SHL PUSH1 0x44 DUP3 ADD MSTORE PUSH1 0x64 SWAP1 REVERT JUMPDEST CALLVALUE PUSH2 0x16E JUMPI PUSH1 0x0 CALLDATASIZE PUSH1 0x3 NOT ADD SLT PUSH2 0x16E JUMPI PUSH1 0x1 SLOAD PUSH1 0x40 MLOAD PUSH1 0x1 PUSH1 0x1 PUSH1 0xA0 SHL SUB SWAP1 SWAP2 AND DUP2 MSTORE PUSH1 0x20 SWAP1 RETURN JUMPDEST CALLVALUE PUSH2 0x16E JUMPI PUSH1 0x20 CALLDATASIZE PUSH1 0x3 NOT ADD SLT PUSH2 0x16E JUMPI PUSH1 0x4 CALLDATALOAD PUSH1 0x0 DUP2 DUP2 MSTORE PUSH1 0x5 PUSH1 0x20 MSTORE PUSH1 0x40 SWAP1 KECCAK256 PUSH1 0x2 DUP2 ADD SLOAD SWAP1 SWAP2 SWAP1 PUSH2 0x7EA SWAP1 PUSH1 0x1 PUSH1 0x1 PUSH1 0xA0 SHL SUB SWAP1 DUP2 AND SWAP1 PUSH2 0x4A8 PUSH2 0x2DB4 JUMP JUMPDEST PUSH1 0xFF PUSH1 0x9 DUP4 ADD SLOAD AND SWAP1 PUSH1 0x8 DUP3 LT ISZERO PUSH2 0x383 JUMPI PUSH1 0xFF PUSH1 0xD PUSH32 0x847A573ABAA8875D3FE466D414094860F38BE0EA3E161A0EF08C0ACD955F7EA7 SWAP5 PUSH2 0x830 PUSH1 0x4 PUSH1 0x60 SWAP7 EQ PUSH2 0x28E0 JUMP JUMPDEST PUSH2 0x840 PUSH1 0xC DUP3 ADD SLOAD TIMESTAMP GT ISZERO PUSH2 0x2C4F JUMP JUMPDEST ADD DUP1 SLOAD PUSH3 0xFF0000 NOT AND PUSH3 0x10000 OR DUP1 DUP3 SSTORE PUSH1 0x8 SHR DUP3 AND PUSH2 0x877 JUMPI JUMPDEST SLOAD PUSH1 0x8 SHR AND PUSH1 0x40 MLOAD SWAP2 DUP3 MSTORE ISZERO ISZERO PUSH1 0x20 DUP3 ADD MSTORE PUSH1 0x1 PUSH1 0x40 DUP3 ADD MSTORE LOG1 STOP JUMPDEST PUSH2 0x880 DUP4 PUSH2 0x2D17 JUMP JUMPDEST PUSH2 0x85B JUMP JUMPDEST CALLVALUE PUSH2 0x16E JUMPI PUSH1 0x40 CALLDATASIZE PUSH1 0x3 NOT ADD SLT PUSH2 0x16E JUMPI PUSH2 0x89E PUSH2 0x22DC JUMP JUMPDEST PUSH1 0x1 PUSH1 0x1 PUSH1 0xA0 SHL SUB AND PUSH1 0x0 SWAP1 DUP2 MSTORE PUSH1 0x7 PUSH1 0x20 MSTORE PUSH1 0x40 SWAP1 KECCAK256 DUP1 SLOAD PUSH1 0x24 CALLDATALOAD SWAP2 SWAP1 DUP3 LT ISZERO PUSH2 0x16E JUMPI PUSH1 0x20 SWAP2 PUSH2 0x8CF SWAP2 PUSH2 0x232C JUMP JUMPDEST SWAP1 SLOAD SWAP1 PUSH1 0x3 SHL SHR PUSH1 0x40 MLOAD SWAP1 DUP2 MSTORE RETURN JUMPDEST CALLVALUE PUSH2 0x16E JUMPI PUSH1 0xA0 CALLDATASIZE PUSH1 0x3 NOT ADD SLT PUSH2 0x16E JUMPI PUSH1 0x4 CALLDATALOAD PUSH1 0x1 PUSH1 0x1 PUSH1 0x40 SHL SUB DUP2 GT PUSH2 0x16E JUMPI PUSH2 0x90E SWAP1 CALLDATASIZE SWAP1 PUSH1 0x4 ADD PUSH2 0x2295 JUMP JUMPDEST PUSH1 0x44 CALLDATALOAD PUSH1 0x84 CALLDATALOAD PUSH1 0x1 PUSH1 0x1 PUSH1 0x40 SHL SUB DUP2 GT PUSH2 0x16E JUMPI PUSH2 0x930 SWAP1 CALLDATASIZE SWAP1 PUSH1 0x4 ADD PUSH2 0x2295 JUMP JUMPDEST PUSH1 0x1 SLOAD PUSH1 0x40 MLOAD PUSH4 0x4DF47953 PUSH1 0xE1 SHL DUP2 MSTORE PUSH1 0x20 PUSH1 0x4 DUP3 ADD MSTORE SWAP2 SWAP4 SWAP2 SWAP1 PUSH1 0x0 SWAP1 DUP3 SWAP1 PUSH1 0x1 PUSH1 0x1 PUSH1 0xA0 SHL SUB AND DUP2 DUP1 PUSH2 0x968 PUSH1 0x24 DUP3 ADD DUP9 PUSH2 0x2255 JUMP JUMPDEST SUB SWAP2 GAS STATICCALL DUP1 ISZERO PUSH2 0x10EF JUMPI PUSH1 0x0 SWAP2 PUSH1 0x0 SWAP2 PUSH2 0x1140 JUMPI JUMPDEST POP PUSH2 0x987 SWAP1 PUSH2 0x2630 JUMP JUMPDEST PUSH1 0x1 PUSH1 0x1 PUSH1 0xA0 SHL SUB AND PUSH2 0x99B DUP2 ISZERO ISZERO PUSH2 0x2672 JUMP JUMPDEST PUSH1 0x1 PUSH1 0x1 PUSH1 0xA0 SHL SUB PUSH2 0x9AB PUSH2 0x2DB4 JUMP JUMPDEST AND SWAP1 DUP2 DUP2 EQ PUSH2 0x10FB JUMPI PUSH2 0x9C1 TIMESTAMP PUSH1 0x24 CALLDATALOAD GT PUSH2 0x26BE JUMP JUMPDEST PUSH2 0x9CE PUSH1 0x24 CALLDATALOAD DUP6 GT PUSH2 0x270A JUMP JUMPDEST PUSH2 0x9E4 PUSH2 0x9DE DUP6 PUSH1 0x24 CALLDATALOAD DUP7 PUSH2 0x291D JUMP JUMPDEST ISZERO PUSH2 0x2755 JUMP JUMPDEST PUSH2 0x9FF PUSH3 0x15180 PUSH2 0x9F7 PUSH1 0x24 CALLDATALOAD DUP8 PUSH2 0x27B6 JUMP JUMPDEST DIV ISZERO ISZERO PUSH2 0x27C3 JUMP JUMPDEST PUSH1 0x2 SLOAD PUSH1 0x40 MLOAD PUSH4 0x23B872DD PUSH1 0xE0 SHL PUSH1 0x20 DUP3 ADD MSTORE PUSH1 0x24 DUP2 ADD DUP5 SWAP1 MSTORE ADDRESS PUSH1 0x44 DUP3 ADD MSTORE PUSH1 0x64 DUP1 CALLDATALOAD DUP2 DUP4 ADD MSTORE DUP2 MSTORE PUSH2 0xA46 SWAP2 PUSH1 0x1 PUSH1 0x1 PUSH1 0xA0 SHL SUB AND PUSH2 0xA41 PUSH1 0x84 DUP4 PUSH2 0x216D JUMP JUMPDEST PUSH2 0x2E0D JUMP JUMPDEST PUSH1 0x1 SLOAD PUSH1 0x40 MLOAD PUSH4 0x3375E33F PUSH1 0xE2 SHL DUP2 MSTORE SWAP1 PUSH1 0x20 SWAP1 DUP3 SWAP1 PUSH1 0x4 SWAP1 DUP3 SWAP1 PUSH1 0x1 PUSH1 0x1 PUSH1 0xA0 SHL SUB AND GAS STATICCALL DUP1 ISZERO PUSH2 0x10EF JUMPI PUSH2 0xFFFF PUSH2 0xA8F SWAP2 PUSH2 0x3E8 SWAP4 PUSH1 0x0 SWAP2 PUSH2 0x10C0 JUMPI JUMPDEST POP AND PUSH1 0x64 CALLDATALOAD PUSH2 0x2828 JUMP JUMPDEST DIV PUSH2 0xA9C DUP2 PUSH1 0x64 CALLDATALOAD PUSH2 0x27B6 JUMP JUMPDEST SWAP1 PUSH2 0xAA8 PUSH1 0x4 SLOAD PUSH2 0x283B JUMP JUMPDEST SWAP6 DUP7 PUSH1 0x4 SSTORE PUSH1 0x40 MLOAD SWAP4 PUSH2 0xABA DUP6 PUSH2 0x2151 JUMP JUMPDEST DUP8 DUP6 MSTORE DUP7 PUSH1 0x20 DUP7 ADD MSTORE DUP6 PUSH1 0x40 DUP7 ADD MSTORE PUSH1 0x60 DUP6 ADD MSTORE PUSH1 0x24 CALLDATALOAD PUSH1 0x80 DUP6 ADD MSTORE PUSH1 0xA0 DUP5 ADD MSTORE PUSH1 0x64 CALLDATALOAD PUSH1 0xC0 DUP5 ADD MSTORE PUSH1 0xE0 DUP4 ADD MSTORE PUSH2 0x100 DUP3 ADD MSTORE PUSH1 0x0 PUSH2 0x120 DUP3 ADD MSTORE PUSH1 0x0 PUSH2 0x140 DUP3 ADD MSTORE PUSH1 0x0 PUSH2 0x160 DUP3 ADD MSTORE PUSH1 0x0 PUSH2 0x180 DUP3 ADD MSTORE PUSH1 0x0 PUSH2 0x1A0 DUP3 ADD MSTORE PUSH1 0x0 PUSH2 0x1C0 DUP3 ADD MSTORE PUSH1 0x0 PUSH2 0x1E0 DUP3 ADD MSTORE PUSH1 0x20 SWAP5 PUSH1 0x40 MLOAD PUSH2 0xB36 DUP8 DUP3 PUSH2 0x216D JUMP JUMPDEST PUSH1 0x0 DUP2 MSTORE PUSH2 0x200 DUP4 ADD MSTORE PUSH2 0x220 DUP3 ADD MSTORE PUSH1 0x40 MLOAD PUSH2 0xB53 DUP7 DUP3 PUSH2 0x216D JUMP JUMPDEST PUSH1 0x0 DUP2 MSTORE PUSH2 0x240 DUP3 ADD MSTORE PUSH1 0x0 PUSH2 0x260 DUP3 ADD MSTORE DUP4 PUSH1 0x0 MSTORE PUSH1 0x5 DUP6 MSTORE PUSH1 0x40 PUSH1 0x0 KECCAK256 SWAP1 DUP1 MLOAD DUP3 SSTORE PUSH1 0x20 DUP2 ADD MLOAD DUP1 MLOAD SWAP1 PUSH1 0x1 PUSH1 0x1 PUSH1 0x40 SHL SUB DUP3 GT PUSH2 0xF4E JUMPI DUP2 SWAP1 PUSH2 0xBA9 DUP3 PUSH2 0xBA0 PUSH1 0x1 DUP9 ADD SLOAD PUSH2 0x2117 JUMP JUMPDEST PUSH1 0x1 DUP9 ADD PUSH2 0x2861 JUMP JUMPDEST DUP9 SWAP1 PUSH1 0x1F DUP4 GT PUSH1 0x1 EQ PUSH2 0x104F JUMPI PUSH1 0x0 SWAP3 PUSH2 0x1044 JUMPI JUMPDEST POP POP DUP2 PUSH1 0x1 SHL SWAP2 PUSH1 0x0 NOT SWAP1 PUSH1 0x3 SHL SHR NOT AND OR PUSH1 0x1 DUP4 ADD SSTORE JUMPDEST PUSH1 0x40 DUP2 ADD MLOAD PUSH1 0x2 DUP4 ADD DUP1 SLOAD PUSH1 0x1 PUSH1 0x1 PUSH1 0xA0 SHL SUB SWAP3 DUP4 AND PUSH1 0x1 PUSH1 0x1 PUSH1 0xA0 SHL SUB NOT SWAP2 DUP3 AND OR SWAP1 SWAP2 SSTORE PUSH1 0x60 DUP4 ADD MLOAD PUSH1 0x3 DUP6 ADD DUP1 SLOAD SWAP2 SWAP1 SWAP4 AND SWAP2 AND OR SWAP1 SSTORE PUSH1 0x80 DUP2 ADD MLOAD PUSH1 0x4 DUP4 ADD SSTORE PUSH1 0xA0 DUP2 ADD MLOAD PUSH1 0x5 DUP4 ADD SSTORE PUSH1 0xC0 DUP2 ADD MLOAD PUSH1 0x6 DUP4 ADD SSTORE PUSH1 0xE0 DUP2 ADD MLOAD PUSH1 0x7 DUP4 ADD SSTORE PUSH2 0x100 DUP2 ADD MLOAD PUSH1 0x8 DUP1 DUP5 ADD SWAP2 SWAP1 SWAP2 SSTORE PUSH2 0x120 DUP3 ADD MLOAD SWAP1 DUP2 LT ISZERO PUSH2 0x383 JUMPI PUSH2 0xC62 SWAP1 PUSH1 0x9 DUP5 ADD PUSH2 0x2396 JUMP JUMPDEST PUSH2 0x140 DUP2 ADD MLOAD PUSH1 0xA DUP4 ADD SSTORE PUSH2 0x160 DUP2 ADD MLOAD PUSH1 0xB DUP4 ADD SSTORE PUSH2 0x180 DUP2 ADD MLOAD PUSH1 0xC DUP4 ADD SSTORE PUSH2 0xCDF PUSH1 0xD DUP4 ADD PUSH2 0xCA7 PUSH2 0x1A0 DUP5 ADD MLOAD ISZERO ISZERO DUP3 SWAP1 PUSH1 0xFF DUP1 NOT DUP4 SLOAD AND SWAP2 ISZERO ISZERO AND OR SWAP1 SSTORE JUMP JUMPDEST PUSH2 0x1C0 DUP4 ADD MLOAD DUP2 SLOAD PUSH2 0xFF00 NOT AND SWAP1 ISZERO ISZERO PUSH1 0x8 SHL PUSH2 0xFF00 AND OR DUP2 SSTORE PUSH2 0x1E0 DUP4 ADD MLOAD DUP2 SLOAD PUSH3 0xFF0000 NOT AND SWAP1 ISZERO ISZERO PUSH1 0x10 SHL PUSH3 0xFF0000 AND OR SWAP1 SSTORE JUMP JUMPDEST PUSH1 0xE DUP3 ADD PUSH2 0x200 DUP3 ADD MLOAD DUP1 MLOAD SWAP1 PUSH1 0x1 PUSH1 0x1 PUSH1 0x40 SHL SUB DUP3 GT PUSH2 0xF4E JUMPI DUP2 SWAP1 PUSH2 0xD10 DUP3 PUSH2 0xD0A DUP7 SLOAD PUSH2 0x2117 JUMP JUMPDEST DUP7 PUSH2 0x2861 JUMP JUMPDEST DUP10 SWAP1 PUSH1 0x1F DUP4 GT PUSH1 0x1 EQ PUSH2 0xFDF JUMPI PUSH1 0x0 SWAP3 PUSH2 0xFD4 JUMPI JUMPDEST POP POP DUP2 PUSH1 0x1 SHL SWAP2 PUSH1 0x0 NOT SWAP1 PUSH1 0x3 SHL SHR NOT AND OR SWAP1 SSTORE JUMPDEST PUSH1 0xF DUP3 ADD PUSH2 0x220 DUP3 ADD MLOAD DUP1 MLOAD SWAP1 PUSH1 0x1 PUSH1 0x1 PUSH1 0x40 SHL SUB DUP3 GT PUSH2 0xF4E JUMPI DUP2 SWAP1 PUSH2 0xD65 DUP3 PUSH2 0xD0A DUP7 SLOAD PUSH2 0x2117 JUMP JUMPDEST DUP10 SWAP1 PUSH1 0x1F DUP4 GT PUSH1 0x1 EQ PUSH2 0xF6F JUMPI PUSH1 0x0 SWAP3 PUSH2 0xF64 JUMPI JUMPDEST POP POP DUP2 PUSH1 0x1 SHL SWAP2 PUSH1 0x0 NOT SWAP1 PUSH1 0x3 SHL SHR NOT AND OR SWAP1 SSTORE JUMPDEST PUSH1 0x10 DUP3 ADD PUSH2 0x240 DUP3 ADD MLOAD DUP1 MLOAD SWAP1 PUSH1 0x1 PUSH1 0x1 PUSH1 0x40 SHL SUB DUP3 GT PUSH2 0xF4E JUMPI PUSH2 0xDBE DUP3 PUSH2 0xDB8 DUP6 SLOAD PUSH2 0x2117 JUMP JUMPDEST DUP6 PUSH2 0x2861 JUMP JUMPDEST DUP9 SWAP1 PUSH1 0x1F DUP4 GT PUSH1 0x1 EQ PUSH2 0xEB6 JUMPI PUSH2 0xE8A SWAP7 SWAP5 PUSH2 0xE34 SWAP5 DUP5 PUSH32 0xB21A131DB9E3377301833CE70BE73B950EF23B9D94873B831AC7BBEE23314C38 SWAP11 SWAP9 SWAP6 PUSH1 0x11 SWAP6 PUSH2 0x260 SWAP6 PUSH1 0x0 SWAP3 PUSH2 0xEAB JUMPI JUMPDEST POP POP DUP2 PUSH1 0x1 SHL SWAP2 PUSH1 0x0 NOT SWAP1 PUSH1 0x3 SHL SHR NOT AND OR SWAP1 SSTORE JUMPDEST ADD MLOAD ISZERO ISZERO SWAP2 ADD SWAP1 PUSH1 0xFF DUP1 NOT DUP4 SLOAD AND SWAP2 ISZERO ISZERO AND OR SWAP1 SSTORE JUMP JUMPDEST PUSH2 0xE5B DUP6 PUSH1 0x40 MLOAD DUP9 DUP2 DUP7 MLOAD PUSH2 0xE4C DUP2 DUP4 DUP6 DUP12 ADD PUSH2 0x2232 JUMP JUMPDEST DUP2 ADD PUSH1 0x6 DUP2 MSTORE SUB ADD SWAP1 KECCAK256 PUSH2 0x28A6 JUMP JUMPDEST DUP1 PUSH1 0x0 MSTORE PUSH1 0x7 DUP7 MSTORE PUSH2 0xE71 DUP6 PUSH1 0x40 PUSH1 0x0 KECCAK256 PUSH2 0x28A6 JUMP JUMPDEST PUSH1 0x40 MLOAD SWAP3 DUP4 SWAP3 DUP7 DUP5 MSTORE PUSH1 0xA0 DUP9 DUP6 ADD MSTORE PUSH1 0xA0 DUP5 ADD SWAP1 PUSH2 0x2255 JUMP JUMPDEST SWAP1 PUSH1 0x40 DUP4 ADD MSTORE PUSH1 0x24 CALLDATALOAD PUSH1 0x60 DUP4 ADD MSTORE PUSH1 0x64 CALLDATALOAD PUSH1 0x80 DUP4 ADD MSTORE SUB SWAP1 LOG1 PUSH1 0x40 MLOAD SWAP1 DUP2 MSTORE RETURN JUMPDEST ADD MLOAD SWAP1 POP DUP15 DUP1 PUSH2 0xE08 JUMP JUMPDEST SWAP1 PUSH1 0x1F NOT DUP4 AND SWAP2 DUP5 PUSH1 0x0 MSTORE DUP11 PUSH1 0x0 KECCAK256 SWAP3 PUSH1 0x0 JUMPDEST DUP13 DUP3 DUP3 LT PUSH2 0xF38 JUMPI POP POP SWAP5 PUSH1 0x1 DUP6 PUSH1 0x11 SWAP6 PUSH2 0x260 SWAP6 PUSH2 0xE8A SWAP13 SWAP11 SWAP6 PUSH32 0xB21A131DB9E3377301833CE70BE73B950EF23B9D94873B831AC7BBEE23314C38 SWAP15 SWAP13 SWAP10 PUSH2 0xE34 SWAP12 LT PUSH2 0xF1F JUMPI JUMPDEST POP POP POP DUP2 SHL ADD SWAP1 SSTORE PUSH2 0xE1D JUMP JUMPDEST ADD MLOAD PUSH1 0x0 NOT PUSH1 0xF8 DUP5 PUSH1 0x3 SHL AND SHR NOT AND SWAP1 SSTORE DUP15 DUP1 DUP1 PUSH2 0xF12 JUMP JUMPDEST PUSH1 0x1 DUP6 SWAP7 DUP3 SWAP4 SWAP7 DUP7 ADD MLOAD DUP2 SSTORE ADD SWAP6 ADD SWAP4 ADD PUSH2 0xEC9 JUMP JUMPDEST PUSH4 0x4E487B71 PUSH1 0xE0 SHL PUSH1 0x0 MSTORE PUSH1 0x41 PUSH1 0x4 MSTORE PUSH1 0x24 PUSH1 0x0 REVERT JUMPDEST ADD MLOAD SWAP1 POP DUP10 DUP1 PUSH2 0xD7A JUMP JUMPDEST PUSH1 0x0 DUP6 DUP2 MSTORE DUP12 DUP2 KECCAK256 SWAP4 POP PUSH1 0x1F NOT DUP6 AND SWAP1 JUMPDEST DUP13 DUP3 DUP3 LT PUSH2 0xFBE JUMPI POP POP SWAP1 DUP5 PUSH1 0x1 SWAP6 SWAP5 SWAP4 SWAP3 LT PUSH2 0xFA5 JUMPI JUMPDEST POP POP POP DUP2 SHL ADD SWAP1 SSTORE PUSH2 0xD8F JUMP JUMPDEST ADD MLOAD PUSH1 0x0 NOT PUSH1 0xF8 DUP5 PUSH1 0x3 SHL AND SHR NOT AND SWAP1 SSTORE DUP10 DUP1 DUP1 PUSH2 0xF98 JUMP JUMPDEST PUSH1 0x1 DUP6 SWAP7 DUP3 SWAP4 SWAP7 DUP7 ADD MLOAD DUP2 SSTORE ADD SWAP6 ADD SWAP4 ADD PUSH2 0xF80 JUMP JUMPDEST ADD MLOAD SWAP1 POP DUP10 DUP1 PUSH2 0xD25 JUMP JUMPDEST PUSH1 0x0 DUP6 DUP2 MSTORE DUP12 DUP2 KECCAK256 SWAP4 POP PUSH1 0x1F NOT DUP6 AND SWAP1 JUMPDEST DUP13 DUP3 DUP3 LT PUSH2 0x102E JUMPI POP POP SWAP1 DUP5 PUSH1 0x1 SWAP6 SWAP5 SWAP4 SWAP3 LT PUSH2 0x1015 JUMPI JUMPDEST POP POP POP DUP2 SHL ADD SWAP1 SSTORE PUSH2 0xD3A JUMP JUMPDEST ADD MLOAD PUSH1 0x0 NOT PUSH1 0xF8 DUP5 PUSH1 0x3 SHL AND SHR NOT AND SWAP1 SSTORE DUP10 DUP1 DUP1 PUSH2 0x1008 JUMP JUMPDEST PUSH1 0x1 DUP6 SWAP7 DUP3 SWAP4 SWAP7 DUP7 ADD MLOAD DUP2 SSTORE ADD SWAP6 ADD SWAP4 ADD PUSH2 0xFF0 JUMP JUMPDEST ADD MLOAD SWAP1 POP DUP9 DUP1 PUSH2 0xBBE JUMP JUMPDEST SWAP3 POP PUSH1 0x1 DUP6 ADD PUSH1 0x0 MSTORE DUP9 PUSH1 0x0 KECCAK256 SWAP1 PUSH1 0x0 SWAP4 JUMPDEST DUP11 PUSH1 0x1F NOT DUP6 AND DUP7 LT PUSH2 0x10A7 JUMPI POP PUSH1 0x1 SWAP5 POP DUP4 PUSH1 0x1F NOT DUP2 AND LT PUSH2 0x108E JUMPI JUMPDEST POP POP POP DUP2 SHL ADD PUSH1 0x1 DUP4 ADD SSTORE PUSH2 0xBD6 JUMP JUMPDEST ADD MLOAD PUSH1 0x0 NOT PUSH1 0xF8 DUP5 PUSH1 0x3 SHL AND SHR NOT AND SWAP1 SSTORE DUP9 DUP1 DUP1 PUSH2 0x107E JUMP JUMPDEST DUP3 DUP3 ADD MLOAD DUP5 SSTORE SWAP5 DUP6 ADD SWAP5 PUSH1 0x1 SWAP1 SWAP4 ADD SWAP3 SWAP1 SWAP2 ADD SWAP1 PUSH2 0x1061 JUMP JUMPDEST PUSH2 0x10E2 SWAP2 POP PUSH1 0x20 RETURNDATASIZE PUSH1 0x20 GT PUSH2 0x10E8 JUMPI JUMPDEST PUSH2 0x10DA DUP2 DUP4 PUSH2 0x216D JUMP JUMPDEST DUP2 ADD SWAP1 PUSH2 0x280E JUMP JUMPDEST DUP10 PUSH2 0xA85 JUMP JUMPDEST POP RETURNDATASIZE PUSH2 0x10D0 JUMP JUMPDEST PUSH1 0x40 MLOAD RETURNDATASIZE PUSH1 0x0 DUP3 RETURNDATACOPY RETURNDATASIZE SWAP1 REVERT JUMPDEST PUSH1 0x40 MLOAD PUSH3 0x461BCD PUSH1 0xE5 SHL DUP2 MSTORE PUSH1 0x20 PUSH1 0x4 DUP3 ADD MSTORE PUSH1 0x18 PUSH1 0x24 DUP3 ADD MSTORE PUSH32 0x43616E6E6F7420626F6F6B206F776E2070726F70657274790000000000000000 PUSH1 0x44 DUP3 ADD MSTORE PUSH1 0x64 SWAP1 REVERT JUMPDEST PUSH2 0x987 SWAP3 POP PUSH2 0x1162 SWAP2 POP RETURNDATASIZE DUP1 PUSH1 0x0 DUP4 RETURNDATACOPY PUSH2 0x115A DUP2 DUP4 PUSH2 0x216D JUMP JUMPDEST DUP2 ADD SWAP1 PUSH2 0x25BC JUMP JUMPDEST POP SWAP5 SWAP4 POP POP SWAP1 POP SWAP2 SWAP1 PUSH2 0x97D JUMP JUMPDEST CALLVALUE PUSH2 0x16E JUMPI PUSH1 0x40 CALLDATASIZE PUSH1 0x3 NOT ADD SLT PUSH2 0x16E JUMPI PUSH2 0x1189 PUSH2 0x2CCF JUMP JUMPDEST PUSH2 0x1197 PUSH1 0x24 CALLDATALOAD PUSH1 0x4 CALLDATALOAD PUSH2 0x2A3C JUMP JUMPDEST STOP JUMPDEST CALLVALUE PUSH2 0x16E JUMPI PUSH1 0x0 CALLDATASIZE PUSH1 0x3 NOT ADD SLT PUSH2 0x16E JUMPI PUSH1 0x0 SLOAD PUSH1 0x40 MLOAD PUSH1 0x1 PUSH1 0x1 PUSH1 0xA0 SHL SUB SWAP1 SWAP2 AND DUP2 MSTORE PUSH1 0x20 SWAP1 RETURN JUMPDEST CALLVALUE PUSH2 0x16E JUMPI PUSH1 0x40 CALLDATASIZE PUSH1 0x3 NOT ADD SLT PUSH2 0x16E JUMPI PUSH1 0x4 CALLDATALOAD PUSH1 0x1 PUSH1 0x1 PUSH1 0x40 SHL SUB DUP2 GT PUSH2 0x16E JUMPI PUSH2 0x11F2 SWAP1 CALLDATASIZE SWAP1 PUSH1 0x4 ADD PUSH2 0x2295 JUMP JUMPDEST PUSH2 0x120E PUSH1 0x20 PUSH1 0x24 CALLDATALOAD SWAP3 DUP2 PUSH1 0x40 MLOAD SWAP4 DUP3 DUP6 DUP1 SWAP5 MLOAD SWAP4 DUP5 SWAP3 ADD PUSH2 0x2232 JUMP JUMPDEST DUP2 ADD PUSH1 0x6 DUP2 MSTORE SUB ADD SWAP1 KECCAK256 DUP1 SLOAD DUP3 LT ISZERO PUSH2 0x16E JUMPI PUSH1 0x20 SWAP2 PUSH2 0x8CF SWAP2 PUSH2 0x232C JUMP JUMPDEST CALLVALUE PUSH2 0x16E JUMPI PUSH1 0x0 CALLDATASIZE PUSH1 0x3 NOT ADD SLT PUSH2 0x16E JUMPI PUSH1 0x40 MLOAD PUSH32 0x0 PUSH1 0x1 PUSH1 0x1 PUSH1 0xA0 SHL SUB AND DUP2 MSTORE PUSH1 0x20 SWAP1 RETURN JUMPDEST CALLVALUE PUSH2 0x16E JUMPI PUSH1 0x20 CALLDATASIZE PUSH1 0x3 NOT ADD SLT PUSH2 0x16E JUMPI PUSH1 0x4 CALLDATALOAD DUP1 PUSH1 0x0 MSTORE PUSH1 0x5 PUSH1 0x20 MSTORE PUSH1 0x40 PUSH1 0x0 KECCAK256 PUSH1 0x9 DUP2 ADD PUSH1 0xFF DUP2 SLOAD AND PUSH1 0x8 DUP2 LT ISZERO PUSH2 0x383 JUMPI PUSH1 0x1 SUB PUSH2 0x13EB JUMPI PUSH1 0xB DUP3 ADD SLOAD TIMESTAMP GT ISZERO PUSH2 0x13A6 JUMPI PUSH1 0x4 PUSH1 0xFF NOT DUP3 SLOAD AND OR SWAP1 SSTORE PUSH3 0x15180 TIMESTAMP ADD SWAP2 DUP3 TIMESTAMP GT PUSH2 0x65D JUMPI PUSH1 0xE DUP3 PUSH32 0xE07AD455E24561261E9047AAB2F668AE1FC2CC6FDA35021764673613B888836D SWAP5 PUSH1 0xC PUSH1 0x80 SWAP6 ADD SSTORE ADD PUSH2 0x1309 DUP2 SLOAD PUSH2 0x2117 JUMP JUMPDEST PUSH1 0x1F DUP2 GT PUSH2 0x1384 JUMPI JUMPDEST POP PUSH1 0x1E PUSH15 0x26B4B9B9B2B21031B432B1B596B4B7 PUSH1 0x89 SHL ADD SWAP1 SSTORE PUSH32 0x771AD1A63DB62F3C96F995005DC4038B2D11173769793751C154AFEC8E3EED6D PUSH1 0x20 PUSH1 0x40 MLOAD DUP4 DUP2 MSTORE LOG1 PUSH1 0x40 MLOAD SWAP1 DUP2 MSTORE PUSH1 0x40 PUSH1 0x20 DUP3 ADD MSTORE PUSH1 0xF PUSH1 0x40 DUP3 ADD MSTORE PUSH15 0x26B4B9B9B2B21031B432B1B596B4B7 PUSH1 0x89 SHL PUSH1 0x60 DUP3 ADD MSTORE LOG1 STOP JUMPDEST PUSH2 0x13A0 SWAP1 DUP3 PUSH1 0x0 MSTORE PUSH1 0x1F PUSH1 0x20 PUSH1 0x0 KECCAK256 SWAP2 ADD PUSH1 0x5 SHR DUP2 ADD SWAP1 PUSH2 0x284A JUMP JUMPDEST DUP5 PUSH2 0x1312 JUMP JUMPDEST PUSH1 0x40 MLOAD PUSH3 0x461BCD PUSH1 0xE5 SHL DUP2 MSTORE PUSH1 0x20 PUSH1 0x4 DUP3 ADD MSTORE PUSH1 0x1B PUSH1 0x24 DUP3 ADD MSTORE PUSH32 0x436865636B2D696E2077696E646F77206E6F7420657870697265640000000000 PUSH1 0x44 DUP3 ADD MSTORE PUSH1 0x64 SWAP1 REVERT JUMPDEST PUSH1 0x40 MLOAD PUSH3 0x461BCD PUSH1 0xE5 SHL DUP2 MSTORE PUSH1 0x20 PUSH1 0x4 DUP3 ADD MSTORE PUSH1 0x16 PUSH1 0x24 DUP3 ADD MSTORE PUSH22 0x4E6F7420696E20636865636B2D696E2077696E646F77 PUSH1 0x50 SHL PUSH1 0x44 DUP3 ADD MSTORE PUSH1 0x64 SWAP1 REVERT JUMPDEST CALLVALUE PUSH2 0x16E JUMPI PUSH1 0x0 CALLDATASIZE PUSH1 0x3 NOT ADD SLT PUSH2 0x16E JUMPI PUSH2 0x1442 PUSH2 0x2CCF JUMP JUMPDEST PUSH1 0x0 DUP1 SLOAD PUSH1 0x1 PUSH1 0x1 PUSH1 0xA0 SHL SUB NOT DUP2 AND DUP3 SSTORE PUSH1 0x1 PUSH1 0x1 PUSH1 0xA0 SHL SUB AND PUSH32 0x8BE0079C531659141344CD1FD0A4F28419497F9722A3DAAFE3B4186F6B6457E0 DUP3 DUP1 LOG3 STOP JUMPDEST CALLVALUE PUSH2 0x16E JUMPI PUSH1 0x20 CALLDATASIZE PUSH1 0x3 NOT ADD SLT PUSH2 0x16E JUMPI PUSH1 0x1 PUSH1 0x1 PUSH1 0xA0 SHL SUB PUSH2 0x14A3 PUSH2 0x22DC JUMP JUMPDEST AND PUSH1 0x0 MSTORE PUSH1 0x7 PUSH1 0x20 MSTORE PUSH1 0x40 PUSH1 0x0 KECCAK256 PUSH1 0x40 MLOAD SWAP1 DUP2 PUSH1 0x20 DUP3 SLOAD SWAP2 DUP3 DUP2 MSTORE ADD SWAP2 PUSH1 0x0 MSTORE PUSH1 0x20 PUSH1 0x0 KECCAK256 SWAP1 PUSH1 0x0 JUMPDEST DUP2 DUP2 LT PUSH2 0x14E3 JUMPI PUSH2 0x28C DUP6 PUSH2 0x280 DUP2 DUP8 SUB DUP3 PUSH2 0x216D JUMP JUMPDEST DUP3 SLOAD DUP5 MSTORE PUSH1 0x20 SWAP1 SWAP4 ADD SWAP3 PUSH1 0x1 SWAP3 DUP4 ADD SWAP3 ADD PUSH2 0x14CC JUMP JUMPDEST CALLVALUE PUSH2 0x16E JUMPI PUSH1 0x0 CALLDATASIZE PUSH1 0x3 NOT ADD SLT PUSH2 0x16E JUMPI PUSH1 0x3 SLOAD PUSH1 0x40 MLOAD PUSH1 0x1 PUSH1 0x1 PUSH1 0xA0 SHL SUB SWAP1 SWAP2 AND DUP2 MSTORE PUSH1 0x20 SWAP1 RETURN JUMPDEST PUSH2 0x20F9 JUMP JUMPDEST CALLVALUE PUSH2 0x16E JUMPI PUSH1 0x20 CALLDATASIZE PUSH1 0x3 NOT ADD SLT PUSH2 0x16E JUMPI PUSH1 0x20 PUSH2 0x1542 PUSH2 0x22DC JUMP JUMPDEST PUSH1 0x40 MLOAD PUSH32 0x0 PUSH1 0x1 PUSH1 0x1 PUSH1 0xA0 SHL SUB SWAP1 DUP2 AND SWAP3 AND SWAP2 SWAP1 SWAP2 EQ DUP2 MSTORE RETURN JUMPDEST CALLVALUE PUSH2 0x16E JUMPI PUSH1 0x60 CALLDATASIZE PUSH1 0x3 NOT ADD SLT PUSH2 0x16E JUMPI PUSH1 0x4 CALLDATALOAD PUSH1 0x1 PUSH1 0x1 PUSH1 0x40 SHL SUB DUP2 GT PUSH2 0x16E JUMPI PUSH2 0x15BD PUSH2 0x15B0 PUSH1 0x20 SWAP3 CALLDATASIZE SWAP1 PUSH1 0x4 ADD PUSH2 0x2295 JUMP JUMPDEST PUSH1 0x44 CALLDATALOAD SWAP1 PUSH1 0x24 CALLDATALOAD SWAP1 PUSH2 0x291D JUMP JUMPDEST PUSH1 0x40 MLOAD SWAP1 ISZERO ISZERO DUP2 MSTORE RETURN JUMPDEST CALLVALUE PUSH2 0x16E JUMPI PUSH1 0x20 CALLDATASIZE PUSH1 0x3 NOT ADD SLT PUSH2 0x16E JUMPI PUSH1 0x4 CALLDATALOAD DUP1 PUSH1 0x0 MSTORE PUSH1 0x5 PUSH1 0x20 MSTORE PUSH1 0x40 PUSH1 0x0 KECCAK256 PUSH1 0x9 DUP2 ADD SWAP1 PUSH1 0xFF DUP3 SLOAD AND PUSH1 0x8 DUP2 LT ISZERO PUSH2 0x383 JUMPI PUSH1 0x4 PUSH2 0x1608 SWAP2 EQ PUSH2 0x28E0 JUMP JUMPDEST PUSH1 0xC DUP2 ADD SLOAD TIMESTAMP GT ISZERO PUSH2 0x16B7 JUMPI PUSH1 0xD ADD SLOAD PUSH1 0xFF DUP2 PUSH1 0x8 SHR AND SWAP1 DUP2 PUSH2 0x16A9 JUMPI JUMPDEST POP PUSH2 0x1664 JUMPI DUP1 SLOAD PUSH1 0xFF NOT AND PUSH1 0x7 OR SWAP1 SSTORE PUSH1 0x40 MLOAD SWAP1 DUP2 MSTORE PUSH32 0x2DAB28113E16EE2FB971A1376CE8421E58FC1C3D20D7ACFF8927A494FDE0CDC0 SWAP1 PUSH1 0x20 SWAP1 LOG1 STOP JUMPDEST PUSH1 0x40 MLOAD PUSH3 0x461BCD PUSH1 0xE5 SHL DUP2 MSTORE PUSH1 0x20 PUSH1 0x4 DUP3 ADD MSTORE PUSH1 0x18 PUSH1 0x24 DUP3 ADD MSTORE PUSH32 0x4469737075746520616C7265616479207265736F6C7665640000000000000000 PUSH1 0x44 DUP3 ADD MSTORE PUSH1 0x64 SWAP1 REVERT JUMPDEST PUSH1 0xFF SWAP2 POP PUSH1 0x10 SHR AND DUP4 PUSH2 0x1626 JUMP JUMPDEST PUSH1 0x40 MLOAD PUSH3 0x461BCD PUSH1 0xE5 SHL DUP2 MSTORE PUSH1 0x20 PUSH1 0x4 DUP3 ADD MSTORE PUSH1 0x25 PUSH1 0x24 DUP3 ADD MSTORE PUSH32 0x44697370757465207265736F6C7574696F6E2077696E646F77206E6F74206578 PUSH1 0x44 DUP3 ADD MSTORE PUSH5 0x1C1A5C9959 PUSH1 0xDA SHL PUSH1 0x64 DUP3 ADD MSTORE PUSH1 0x84 SWAP1 REVERT JUMPDEST CALLVALUE PUSH2 0x16E JUMPI PUSH1 0xC0 CALLDATASIZE PUSH1 0x3 NOT ADD SLT PUSH2 0x16E JUMPI PUSH1 0x4 CALLDATALOAD PUSH1 0x1 PUSH1 0x1 PUSH1 0x40 SHL SUB DUP2 GT PUSH2 0x16E JUMPI PUSH2 0x173A SWAP1 CALLDATASIZE SWAP1 PUSH1 0x4 ADD PUSH2 0x2295 JUMP JUMPDEST PUSH1 0x84 CALLDATALOAD PUSH1 0x1 PUSH1 0x1 PUSH1 0x40 SHL SUB DUP2 GT PUSH2 0x16E JUMPI PUSH2 0x1759 SWAP1 CALLDATASIZE SWAP1 PUSH1 0x4 ADD PUSH2 0x2295 JUMP JUMPDEST SWAP1 PUSH1 0xA4 CALLDATALOAD PUSH1 0x1 PUSH1 0x1 PUSH1 0x40 SHL SUB DUP2 GT PUSH2 0x16E JUMPI PUSH2 0x1779 SWAP1 CALLDATASIZE SWAP1 PUSH1 0x4 ADD PUSH2 0x2295 JUMP JUMPDEST PUSH1 0x1 SLOAD PUSH1 0x40 MLOAD PUSH4 0x4DF47953 PUSH1 0xE1 SHL DUP2 MSTORE PUSH1 0x20 PUSH1 0x4 DUP3 ADD MSTORE PUSH1 0x1 PUSH1 0x1 PUSH1 0xA0 SHL SUB SWAP1 SWAP2 AND SWAP1 PUSH1 0x0 DUP2 DUP1 PUSH2 0x17AD PUSH1 0x24 DUP3 ADD DUP9 PUSH2 0x2255 JUMP JUMPDEST SUB DUP2 DUP6 GAS STATICCALL DUP1 ISZERO PUSH2 0x10EF JUMPI PUSH1 0x4 SWAP2 PUSH1 0x20 SWAP2 PUSH1 0x0 SWAP2 PUSH1 0x0 SWAP2 PUSH2 0x1ED9 JUMPI JUMPDEST POP PUSH2 0x17D3 SWAP1 PUSH2 0x2630 JUMP JUMPDEST PUSH1 0x1 PUSH1 0x1 PUSH1 0xA0 SHL SUB AND SWAP3 PUSH2 0x17E8 DUP5 ISZERO ISZERO PUSH2 0x2672 JUMP JUMPDEST PUSH2 0x17F5 TIMESTAMP PUSH1 0x24 CALLDATALOAD GT PUSH2 0x26BE JUMP JUMPDEST PUSH2 0x1804 PUSH1 0x24 CALLDATALOAD PUSH1 0x44 CALLDATALOAD GT PUSH2 0x270A JUMP JUMPDEST PUSH2 0x1816 PUSH2 0x9DE PUSH1 0x44 CALLDATALOAD PUSH1 0x24 CALLDATALOAD DUP10 PUSH2 0x291D JUMP JUMPDEST PUSH2 0x182B PUSH3 0x15180 PUSH2 0x9F7 PUSH1 0x24 CALLDATALOAD PUSH1 0x44 CALLDATALOAD PUSH2 0x27B6 JUMP JUMPDEST PUSH1 0x40 MLOAD PUSH4 0x3375E33F PUSH1 0xE2 SHL DUP2 MSTORE SWAP3 DUP4 SWAP2 DUP3 SWAP1 GAS STATICCALL DUP1 ISZERO PUSH2 0x10EF JUMPI PUSH2 0xFFFF PUSH2 0x1861 SWAP2 PUSH2 0x3E8 SWAP4 PUSH1 0x0 SWAP2 PUSH2 0x1EBA JUMPI POP AND PUSH1 0x64 CALLDATALOAD PUSH2 0x2828 JUMP JUMPDEST DIV SWAP3 PUSH2 0x186F DUP5 PUSH1 0x64 CALLDATALOAD PUSH2 0x27B6 JUMP JUMPDEST SWAP4 PUSH2 0x187B PUSH1 0x4 SLOAD PUSH2 0x283B JUMP JUMPDEST SWAP5 DUP6 PUSH1 0x4 SSTORE PUSH2 0x1888 PUSH2 0x2DB4 JUMP JUMPDEST SWAP2 PUSH1 0x40 MLOAD SWAP5 PUSH2 0x1896 DUP7 PUSH2 0x2151 JUMP JUMPDEST DUP8 DUP7 MSTORE DUP5 PUSH1 0x20 DUP8 ADD MSTORE PUSH1 0x1 DUP1 PUSH1 0xA0 SHL SUB DUP5 AND PUSH1 0x40 DUP8 ADD MSTORE PUSH1 0x60 DUP7 ADD MSTORE PUSH1 0x24 CALLDATALOAD PUSH1 0x80 DUP7 ADD MSTORE PUSH1 0x44 CALLDATALOAD PUSH1 0xA0 DUP7 ADD MSTORE PUSH1 0x64 CALLDATALOAD PUSH1 0xC0 DUP7 ADD MSTORE PUSH1 0xE0 DUP6 ADD MSTORE PUSH2 0x100 DUP5 ADD MSTORE PUSH1 0x0 PUSH2 0x120 DUP5 ADD MSTORE PUSH1 0x0 PUSH2 0x140 DUP5 ADD MSTORE PUSH1 0x0 PUSH2 0x160 DUP5 ADD MSTORE PUSH1 0x0 PUSH2 0x180 DUP5 ADD MSTORE PUSH1 0x0 PUSH2 0x1A0 DUP5 ADD MSTORE PUSH1 0x0 PUSH2 0x1C0 DUP5 ADD MSTORE PUSH1 0x0 PUSH2 0x1E0 DUP5 ADD MSTORE PUSH1 0x20 SWAP6 PUSH1 0x40 MLOAD PUSH2 0x191D DUP9 DUP3 PUSH2 0x216D JUMP JUMPDEST PUSH1 0x0 DUP2 MSTORE PUSH2 0x200 DUP6 ADD MSTORE DUP5 PUSH2 0x220 DUP6 ADD MSTORE DUP1 PUSH2 0x240 DUP6 ADD MSTORE PUSH1 0x1 PUSH2 0x260 DUP6 ADD MSTORE DUP6 PUSH1 0x0 MSTORE PUSH1 0x5 DUP8 MSTORE PUSH1 0x40 PUSH1 0x0 KECCAK256 DUP5 MLOAD DUP2 SSTORE PUSH1 0x20 DUP6 ADD MLOAD DUP1 MLOAD SWAP1 PUSH1 0x1 PUSH1 0x1 PUSH1 0x40 SHL SUB DUP3 GT PUSH2 0xF4E JUMPI DUP2 SWAP1 PUSH2 0x1980 DUP3 PUSH2 0x1977 PUSH1 0x1 DUP8 ADD SLOAD PUSH2 0x2117 JUMP JUMPDEST PUSH1 0x1 DUP8 ADD PUSH2 0x2861 JUMP JUMPDEST DUP11 SWAP1 PUSH1 0x1F DUP4 GT PUSH1 0x1 EQ PUSH2 0x1E49 JUMPI PUSH1 0x0 SWAP3 PUSH2 0x1E3E JUMPI JUMPDEST POP POP DUP2 PUSH1 0x1 SHL SWAP2 PUSH1 0x0 NOT SWAP1 PUSH1 0x3 SHL SHR NOT AND OR PUSH1 0x1 DUP3 ADD SSTORE JUMPDEST PUSH1 0x40 DUP6 ADD MLOAD PUSH1 0x2 DUP3 ADD DUP1 SLOAD PUSH1 0x1 PUSH1 0x1 PUSH1 0xA0 SHL SUB SWAP3 DUP4 AND PUSH1 0x1 PUSH1 0x1 PUSH1 0xA0 SHL SUB NOT SWAP2 DUP3 AND OR SWAP1 SWAP2 SSTORE PUSH1 0x60 DUP8 ADD MLOAD PUSH1 0x3 DUP5 ADD DUP1 SLOAD SWAP2 SWAP1 SWAP4 AND SWAP2 AND OR SWAP1 SSTORE PUSH1 0x80 DUP6 ADD MLOAD PUSH1 0x4 DUP3 ADD SSTORE PUSH1 0xA0 DUP6 ADD MLOAD PUSH1 0x5 DUP3 ADD SSTORE PUSH1 0xC0 DUP6 ADD MLOAD PUSH1 0x6 DUP3 ADD SSTORE PUSH1 0xE0 DUP6 ADD MLOAD PUSH1 0x7 DUP3 ADD SSTORE PUSH2 0x100 DUP6 ADD MLOAD PUSH1 0x8 DUP1 DUP4 ADD SWAP2 SWAP1 SWAP2 SSTORE PUSH2 0x120 DUP7 ADD MLOAD SWAP1 DUP2 LT ISZERO PUSH2 0x383 JUMPI PUSH2 0x1A39 SWAP1 PUSH1 0x9 DUP4 ADD PUSH2 0x2396 JUMP JUMPDEST PUSH2 0x140 DUP6 ADD MLOAD PUSH1 0xA DUP3 ADD SSTORE PUSH2 0x160 DUP6 ADD MLOAD PUSH1 0xB DUP3 ADD SSTORE PUSH2 0x180 DUP6 ADD MLOAD PUSH1 0xC DUP3 ADD SSTORE PUSH2 0x1AB6 PUSH1 0xD DUP3 ADD PUSH2 0x1A7E PUSH2 0x1A0 DUP9 ADD MLOAD ISZERO ISZERO DUP3 SWAP1 PUSH1 0xFF DUP1 NOT DUP4 SLOAD AND SWAP2 ISZERO ISZERO AND OR SWAP1 SSTORE JUMP JUMPDEST PUSH2 0x1C0 DUP8 ADD MLOAD DUP2 SLOAD PUSH2 0xFF00 NOT AND SWAP1 ISZERO ISZERO PUSH1 0x8 SHL PUSH2 0xFF00 AND OR DUP2 SSTORE PUSH2 0x1E0 DUP8 ADD MLOAD DUP2 SLOAD PUSH3 0xFF0000 NOT AND SWAP1 ISZERO ISZERO PUSH1 0x10 SHL PUSH3 0xFF0000 AND OR SWAP1 SSTORE JUMP JUMPDEST PUSH1 0xE DUP2 ADD PUSH2 0x200 DUP7 ADD MLOAD DUP1 MLOAD SWAP1 PUSH1 0x1 PUSH1 0x1 PUSH1 0x40 SHL SUB DUP3 GT PUSH2 0xF4E JUMPI DUP2 SWAP1 PUSH2 0x1AE1 DUP3 PUSH2 0xD0A DUP7 SLOAD PUSH2 0x2117 JUMP JUMPDEST DUP12 SWAP1 PUSH1 0x1F DUP4 GT PUSH1 0x1 EQ PUSH2 0x1DD7 JUMPI PUSH1 0x0 SWAP3 PUSH2 0x1DCC JUMPI JUMPDEST POP POP DUP2 PUSH1 0x1 SHL SWAP2 PUSH1 0x0 NOT SWAP1 PUSH1 0x3 SHL SHR NOT AND OR SWAP1 SSTORE JUMPDEST PUSH1 0xF DUP2 ADD PUSH2 0x220 DUP7 ADD MLOAD DUP1 MLOAD SWAP1 PUSH1 0x1 PUSH1 0x1 PUSH1 0x40 SHL SUB DUP3 GT PUSH2 0xF4E JUMPI DUP2 SWAP1 PUSH2 0x1B36 DUP3 PUSH2 0xD0A DUP7 SLOAD PUSH2 0x2117 JUMP JUMPDEST DUP12 SWAP1 PUSH1 0x1F DUP4 GT PUSH1 0x1 EQ PUSH2 0x1D65 JUMPI PUSH1 0x0 SWAP3 PUSH2 0x1D5A JUMPI JUMPDEST POP POP DUP2 PUSH1 0x1 SHL SWAP2 PUSH1 0x0 NOT SWAP1 PUSH1 0x3 SHL SHR NOT AND OR SWAP1 SSTORE JUMPDEST PUSH2 0x240 DUP6 ADD MLOAD SWAP5 DUP6 MLOAD PUSH1 0x1 PUSH1 0x1 PUSH1 0x40 SHL SUB DUP2 GT PUSH2 0xF4E JUMPI DUP9 SWAP7 PUSH2 0x1B93 DUP3 PUSH2 0x1B8A PUSH1 0x10 DUP8 ADD SLOAD PUSH2 0x2117 JUMP JUMPDEST PUSH1 0x10 DUP8 ADD PUSH2 0x2861 JUMP JUMPDEST DUP11 SWAP1 PUSH1 0x1F DUP4 GT PUSH1 0x1 EQ PUSH2 0x1CB1 JUMPI PUSH2 0x1C9B SWAP5 PUSH1 0x11 PUSH2 0x260 PUSH2 0x1C5D SWAP10 SWAP7 DUP7 PUSH2 0x1C82 SWAP8 PUSH32 0x4C0EDC0C8794BA89C4649924F32B10A82065AD4E9FD335D0CB04CACC759D70D0 SWAP14 SWAP12 SWAP8 PUSH2 0x1C11 SWAP8 PUSH1 0x0 SWAP3 PUSH2 0x1CA6 JUMPI JUMPDEST POP POP DUP2 PUSH1 0x1 SHL SWAP2 PUSH1 0x0 NOT SWAP1 PUSH1 0x3 SHL SHR NOT AND OR PUSH1 0x10 DUP6 ADD SSTORE ADD MLOAD ISZERO ISZERO SWAP2 ADD SWAP1 PUSH1 0xFF DUP1 NOT DUP4 SLOAD AND SWAP2 ISZERO ISZERO AND OR SWAP1 SSTORE JUMP JUMPDEST PUSH2 0x1C2B DUP9 PUSH1 0x40 MLOAD DUP14 DUP2 DUP2 PUSH2 0xE4C DUP12 DUP4 DUP2 MLOAD SWAP4 DUP5 SWAP3 ADD PUSH2 0x2232 JUMP JUMPDEST PUSH1 0x1 DUP1 PUSH1 0xA0 SHL SUB DUP4 AND PUSH1 0x0 MSTORE PUSH1 0x7 DUP12 MSTORE PUSH2 0x1C49 DUP9 PUSH1 0x40 PUSH1 0x0 KECCAK256 PUSH2 0x28A6 JUMP JUMPDEST PUSH1 0x40 MLOAD SWAP6 DUP7 SWAP6 PUSH1 0xC0 DUP8 MSTORE PUSH1 0xC0 DUP8 ADD SWAP1 PUSH2 0x2255 JUMP JUMPDEST SWAP1 PUSH1 0x24 CALLDATALOAD DUP13 DUP8 ADD MSTORE PUSH1 0x44 CALLDATALOAD PUSH1 0x40 DUP8 ADD MSTORE PUSH1 0x64 CALLDATALOAD PUSH1 0x60 DUP8 ADD MSTORE DUP6 DUP3 SUB PUSH1 0x80 DUP8 ADD MSTORE PUSH2 0x2255 JUMP JUMPDEST DUP4 DUP2 SUB PUSH1 0xA0 DUP6 ADD MSTORE PUSH1 0x1 PUSH1 0x1 PUSH1 0xA0 SHL SUB SWAP1 SWAP2 AND SWAP7 PUSH2 0x2255 JUMP JUMPDEST SUB SWAP1 LOG3 PUSH1 0x40 MLOAD SWAP1 DUP2 MSTORE RETURN JUMPDEST ADD MLOAD SWAP1 POP CODESIZE DUP1 PUSH2 0x1BE3 JUMP JUMPDEST SWAP1 PUSH1 0x10 DUP6 ADD PUSH1 0x0 MSTORE DUP12 PUSH1 0x0 KECCAK256 SWAP2 PUSH1 0x0 JUMPDEST DUP14 PUSH1 0x1F NOT DUP7 AND DUP3 LT PUSH2 0x1D41 JUMPI POP POP SWAP5 PUSH1 0x11 PUSH2 0x260 PUSH2 0x1C5D SWAP10 SWAP7 PUSH1 0x1 DUP8 PUSH32 0x4C0EDC0C8794BA89C4649924F32B10A82065AD4E9FD335D0CB04CACC759D70D0 SWAP14 SWAP12 SWAP8 PUSH2 0x1C11 SWAP8 PUSH2 0x1C9B SWAP13 PUSH2 0x1C82 SWAP12 PUSH1 0x1F NOT DUP2 AND LT PUSH2 0x1D28 JUMPI JUMPDEST POP POP POP DUP2 SHL ADD PUSH1 0x10 DUP6 ADD SSTORE PUSH2 0xE1D JUMP JUMPDEST ADD MLOAD PUSH1 0x0 NOT PUSH1 0xF8 DUP5 PUSH1 0x3 SHL AND SHR NOT AND SWAP1 SSTORE CODESIZE DUP1 DUP1 PUSH2 0x1D18 JUMP JUMPDEST DUP4 DUP4 ADD MLOAD DUP6 SSTORE DUP14 SWAP12 POP PUSH1 0x1 SWAP1 SWAP5 ADD SWAP4 SWAP3 DUP4 ADD SWAP3 ADD PUSH2 0x1CC1 JUMP JUMPDEST ADD MLOAD SWAP1 POP DUP12 DUP1 PUSH2 0x1B4B JUMP JUMPDEST PUSH1 0x0 DUP6 DUP2 MSTORE DUP14 DUP2 KECCAK256 SWAP4 POP PUSH1 0x1F NOT DUP6 AND SWAP1 DUP15 JUMPDEST DUP3 DUP3 LT PUSH2 0x1DB4 JUMPI POP POP SWAP1 DUP5 PUSH1 0x1 SWAP6 SWAP5 SWAP4 SWAP3 LT PUSH2 0x1D9B JUMPI JUMPDEST POP POP POP DUP2 SHL ADD SWAP1 SSTORE PUSH2 0x1B60 JUMP JUMPDEST ADD MLOAD PUSH1 0x0 NOT PUSH1 0xF8 DUP5 PUSH1 0x3 SHL AND SHR NOT AND SWAP1 SSTORE DUP12 DUP1 DUP1 PUSH2 0x1D8E JUMP JUMPDEST DUP1 PUSH1 0x1 DUP7 SWAP8 DUP3 SWAP5 SWAP8 DUP8 ADD MLOAD DUP2 SSTORE ADD SWAP7 ADD SWAP5 ADD SWAP1 PUSH2 0x1D77 JUMP JUMPDEST ADD MLOAD SWAP1 POP DUP12 DUP1 PUSH2 0x1AF6 JUMP JUMPDEST PUSH1 0x0 DUP6 DUP2 MSTORE DUP14 DUP2 KECCAK256 SWAP4 POP PUSH1 0x1F NOT DUP6 AND SWAP1 DUP15 JUMPDEST DUP3 DUP3 LT PUSH2 0x1E26 JUMPI POP POP SWAP1 DUP5 PUSH1 0x1 SWAP6 SWAP5 SWAP4 SWAP3 LT PUSH2 0x1E0D JUMPI JUMPDEST POP POP POP DUP2 SHL ADD SWAP1 SSTORE PUSH2 0x1B0B JUMP JUMPDEST ADD MLOAD PUSH1 0x0 NOT PUSH1 0xF8 DUP5 PUSH1 0x3 SHL AND SHR NOT AND SWAP1 SSTORE DUP12 DUP1 DUP1 PUSH2 0x1E00 JUMP JUMPDEST DUP1 PUSH1 0x1 DUP7 SWAP8 DUP3 SWAP5 SWAP8 DUP8 ADD MLOAD DUP2 SSTORE ADD SWAP7 ADD SWAP5 ADD SWAP1 PUSH2 0x1DE9 JUMP JUMPDEST ADD MLOAD SWAP1 POP DUP11 DUP1 PUSH2 0x1995 JUMP JUMPDEST SWAP3 POP PUSH1 0x1 DUP5 ADD PUSH1 0x0 MSTORE DUP11 PUSH1 0x0 KECCAK256 SWAP1 PUSH1 0x0 SWAP4 JUMPDEST DUP13 PUSH1 0x1F NOT DUP6 AND DUP7 LT PUSH2 0x1EA1 JUMPI POP PUSH1 0x1 SWAP5 POP DUP4 PUSH1 0x1F NOT DUP2 AND LT PUSH2 0x1E88 JUMPI JUMPDEST POP POP POP DUP2 SHL ADD PUSH1 0x1 DUP3 ADD SSTORE PUSH2 0x19AD JUMP JUMPDEST ADD MLOAD PUSH1 0x0 NOT PUSH1 0xF8 DUP5 PUSH1 0x3 SHL AND SHR NOT AND SWAP1 SSTORE DUP11 DUP1 DUP1 PUSH2 0x1E78 JUMP JUMPDEST DUP3 DUP3 ADD MLOAD DUP5 SSTORE SWAP5 DUP6 ADD SWAP5 PUSH1 0x1 SWAP1 SWAP4 ADD SWAP3 SWAP1 SWAP2 ADD SWAP1 PUSH2 0x1E5B JUMP JUMPDEST PUSH2 0x1ED3 SWAP2 POP PUSH1 0x20 RETURNDATASIZE PUSH1 0x20 GT PUSH2 0x10E8 JUMPI PUSH2 0x10DA DUP2 DUP4 PUSH2 0x216D JUMP JUMPDEST DUP9 PUSH2 0xA85 JUMP JUMPDEST PUSH2 0x17D3 SWAP3 POP PUSH2 0x1EF3 SWAP2 POP RETURNDATASIZE DUP1 PUSH1 0x0 DUP4 RETURNDATACOPY PUSH2 0x115A DUP2 DUP4 PUSH2 0x216D JUMP JUMPDEST POP SWAP5 SWAP4 POP POP SWAP1 POP SWAP2 SWAP1 PUSH2 0x17C9 JUMP JUMPDEST CALLVALUE PUSH2 0x16E JUMPI PUSH1 0x20 CALLDATASIZE PUSH1 0x3 NOT ADD SLT PUSH2 0x16E JUMPI PUSH1 0x4 CALLDATALOAD PUSH1 0x0 MSTORE PUSH1 0x5 PUSH1 0x20 MSTORE PUSH1 0x40 PUSH1 0x0 KECCAK256 DUP1 SLOAD SWAP1 PUSH1 0x1 DUP2 ADD PUSH2 0x1F32 SWAP1 PUSH2 0x218E JUMP JUMPDEST PUSH1 0xE0 MSTORE PUSH1 0x1 PUSH1 0xA0 SHL PUSH1 0x1 SWAP1 SUB PUSH1 0x2 DUP3 ADD SLOAD AND SWAP2 DUP2 PUSH1 0x1 PUSH1 0xA0 SHL PUSH1 0x1 SWAP1 SUB PUSH1 0x3 DUP3 ADD SLOAD AND PUSH1 0x4 DUP3 ADD SLOAD SWAP5 PUSH1 0x5 DUP4 ADD SLOAD SWAP4 PUSH1 0x6 DUP5 ADD SLOAD SWAP3 PUSH1 0x7 DUP6 ADD SLOAD PUSH1 0x8 DUP7 ADD SLOAD SWAP1 PUSH1 0x9 DUP8 ADD SLOAD PUSH1 0xFF AND SWAP6 PUSH1 0xA DUP9 ADD SLOAD SWAP9 PUSH1 0xB DUP10 ADD SLOAD SWAP12 PUSH1 0xC DUP11 ADD SLOAD SWAP6 PUSH1 0xD DUP12 ADD SLOAD PUSH1 0xC0 MSTORE PUSH1 0xE DUP12 ADD PUSH2 0x1FA2 SWAP1 PUSH2 0x218E JUMP JUMPDEST SWAP8 PUSH2 0x1FAF PUSH1 0xF DUP14 ADD PUSH2 0x218E JUMP JUMPDEST SWAP12 PUSH1 0x10 ADD PUSH2 0x1FBC SWAP1 PUSH2 0x218E JUMP JUMPDEST SWAP14 PUSH1 0x11 ADD SLOAD PUSH1 0xFF AND PUSH1 0x80 MSTORE PUSH1 0x40 MLOAD PUSH1 0xA0 MSTORE PUSH1 0xA0 MLOAD MSTORE PUSH1 0xA0 MLOAD PUSH1 0x20 ADD PUSH2 0x280 SWAP1 MSTORE PUSH1 0xA0 MLOAD PUSH2 0x280 ADD PUSH1 0xE0 MLOAD SWAP1 PUSH2 0x1FF0 SWAP2 PUSH2 0x2255 JUMP JUMPDEST SWAP9 PUSH1 0xA0 MLOAD PUSH1 0x40 ADD MSTORE PUSH1 0xA0 MLOAD PUSH1 0x60 ADD MSTORE PUSH1 0xA0 MLOAD PUSH1 0x80 ADD MSTORE PUSH1 0xA0 MLOAD PUSH1 0xA0 ADD MSTORE PUSH1 0xA0 MLOAD PUSH1 0xC0 ADD MSTORE PUSH1 0xA0 MLOAD PUSH1 0xE0 ADD MSTORE PUSH1 0xA0 MLOAD PUSH2 0x100 ADD MSTORE PUSH1 0x8 DUP5 LT ISZERO PUSH2 0x383 JUMPI PUSH2 0x20C6 SWAP8 PUSH2 0x20B3 SWAP7 PUSH2 0x20A0 SWAP6 PUSH2 0x120 PUSH1 0xA0 MLOAD ADD MSTORE PUSH2 0x140 PUSH1 0xA0 MLOAD ADD MSTORE PUSH2 0x160 PUSH1 0xA0 MLOAD ADD MSTORE PUSH2 0x180 PUSH1 0xA0 MLOAD ADD MSTORE PUSH1 0xFF PUSH1 0xC0 MLOAD AND ISZERO ISZERO PUSH2 0x1A0 PUSH1 0xA0 MLOAD ADD MSTORE PUSH1 0xFF PUSH1 0xC0 MLOAD PUSH1 0x8 SHR AND ISZERO ISZERO PUSH2 0x1C0 PUSH1 0xA0 MLOAD ADD MSTORE PUSH1 0xFF PUSH1 0xC0 MLOAD PUSH1 0x10 SHR AND ISZERO ISZERO PUSH2 0x1E0 PUSH1 0xA0 MLOAD ADD MSTORE PUSH1 0xA0 MLOAD DUP3 SUB PUSH2 0x200 PUSH1 0xA0 MLOAD ADD MSTORE PUSH2 0x2255 JUMP JUMPDEST SWAP1 PUSH1 0xA0 MLOAD DUP3 SUB PUSH2 0x220 PUSH1 0xA0 MLOAD ADD MSTORE PUSH2 0x2255 JUMP JUMPDEST SWAP1 PUSH1 0xA0 MLOAD DUP3 SUB PUSH2 0x240 PUSH1 0xA0 MLOAD ADD MSTORE PUSH2 0x2255 JUMP JUMPDEST PUSH1 0x80 MLOAD ISZERO ISZERO PUSH2 0x260 PUSH1 0xA0 MLOAD ADD MSTORE PUSH1 0xA0 MLOAD SWAP1 SUB PUSH1 0xA0 MLOAD RETURN JUMPDEST CALLVALUE PUSH2 0x16E JUMPI PUSH1 0x20 CALLDATASIZE PUSH1 0x3 NOT ADD SLT PUSH2 0x16E JUMPI PUSH2 0x1197 PUSH1 0x4 CALLDATALOAD PUSH2 0x23AE JUMP JUMPDEST CALLVALUE PUSH2 0x16E JUMPI PUSH1 0x0 CALLDATASIZE PUSH1 0x3 NOT ADD SLT PUSH2 0x16E JUMPI PUSH1 0x20 PUSH1 0x40 MLOAD PUSH3 0x15180 DUP2 MSTORE RETURN JUMPDEST SWAP1 PUSH1 0x1 DUP3 DUP2 SHR SWAP3 AND DUP1 ISZERO PUSH2 0x2147 JUMPI JUMPDEST PUSH1 0x20 DUP4 LT EQ PUSH2 0x2131 JUMPI JUMP JUMPDEST PUSH4 0x4E487B71 PUSH1 0xE0 SHL PUSH1 0x0 MSTORE PUSH1 0x22 PUSH1 0x4 MSTORE PUSH1 0x24 PUSH1 0x0 REVERT JUMPDEST SWAP2 PUSH1 0x7F AND SWAP2 PUSH2 0x2126 JUMP JUMPDEST PUSH2 0x280 DUP2 ADD SWAP1 DUP2 LT PUSH1 0x1 PUSH1 0x1 PUSH1 0x40 SHL SUB DUP3 GT OR PUSH2 0xF4E JUMPI PUSH1 0x40 MSTORE JUMP JUMPDEST SWAP1 PUSH1 0x1F DUP1 NOT SWAP2 ADD AND DUP2 ADD SWAP1 DUP2 LT PUSH1 0x1 PUSH1 0x1 PUSH1 0x40 SHL SUB DUP3 GT OR PUSH2 0xF4E JUMPI PUSH1 0x40 MSTORE JUMP JUMPDEST SWAP1 PUSH1 0x40 MLOAD SWAP2 DUP3 PUSH1 0x0 DUP3 SLOAD SWAP3 PUSH2 0x21A2 DUP5 PUSH2 0x2117 JUMP JUMPDEST DUP1 DUP5 MSTORE SWAP4 PUSH1 0x1 DUP2 AND SWAP1 DUP2 ISZERO PUSH2 0x2210 JUMPI POP PUSH1 0x1 EQ PUSH2 0x21C9 JUMPI JUMPDEST POP PUSH2 0x21C7 SWAP3 POP SUB DUP4 PUSH2 0x216D JUMP JUMPDEST JUMP JUMPDEST SWAP1 POP PUSH1 0x0 SWAP3 SWAP2 SWAP3 MSTORE PUSH1 0x20 PUSH1 0x0 KECCAK256 SWAP1 PUSH1 0x0 SWAP2 JUMPDEST DUP2 DUP4 LT PUSH2 0x21F4 JUMPI POP POP SWAP1 PUSH1 0x20 PUSH2 0x21C7 SWAP3 DUP3 ADD ADD CODESIZE PUSH2 0x21BA JUMP JUMPDEST PUSH1 0x20 SWAP2 SWAP4 POP DUP1 PUSH1 0x1 SWAP2 SLOAD DUP4 DUP6 DUP10 ADD ADD MSTORE ADD SWAP2 ADD SWAP1 SWAP2 DUP5 SWAP3 PUSH2 0x21DB JUMP JUMPDEST SWAP1 POP PUSH1 0x20 SWAP3 POP PUSH2 0x21C7 SWAP5 SWAP2 POP PUSH1 0xFF NOT AND DUP3 DUP5 ADD MSTORE ISZERO ISZERO PUSH1 0x5 SHL DUP3 ADD ADD CODESIZE PUSH2 0x21BA JUMP JUMPDEST PUSH1 0x0 JUMPDEST DUP4 DUP2 LT PUSH2 0x2245 JUMPI POP POP PUSH1 0x0 SWAP2 ADD MSTORE JUMP JUMPDEST DUP2 DUP2 ADD MLOAD DUP4 DUP3 ADD MSTORE PUSH1 0x20 ADD PUSH2 0x2235 JUMP JUMPDEST SWAP1 PUSH1 0x20 SWAP2 PUSH2 0x226E DUP2 MLOAD DUP1 SWAP3 DUP2 DUP6 MSTORE DUP6 DUP1 DUP7 ADD SWAP2 ADD PUSH2 0x2232 JUMP JUMPDEST PUSH1 0x1F ADD PUSH1 0x1F NOT AND ADD ADD SWAP1 JUMP JUMPDEST PUSH1 0x1 PUSH1 0x1 PUSH1 0x40 SHL SUB DUP2 GT PUSH2 0xF4E JUMPI PUSH1 0x1F ADD PUSH1 0x1F NOT AND PUSH1 0x20 ADD SWAP1 JUMP JUMPDEST DUP2 PUSH1 0x1F DUP3 ADD SLT ISZERO PUSH2 0x16E JUMPI DUP1 CALLDATALOAD SWAP1 PUSH2 0x22AC DUP3 PUSH2 0x227A JUMP JUMPDEST SWAP3 PUSH2 0x22BA PUSH1 0x40 MLOAD SWAP5 DUP6 PUSH2 0x216D JUMP JUMPDEST DUP3 DUP5 MSTORE PUSH1 0x20 DUP4 DUP4 ADD ADD GT PUSH2 0x16E JUMPI DUP2 PUSH1 0x0 SWAP3 PUSH1 0x20 DUP1 SWAP4 ADD DUP4 DUP7 ADD CALLDATACOPY DUP4 ADD ADD MSTORE SWAP1 JUMP JUMPDEST PUSH1 0x4 CALLDATALOAD SWAP1 PUSH1 0x1 PUSH1 0x1 PUSH1 0xA0 SHL SUB DUP3 AND DUP3 SUB PUSH2 0x16E JUMPI JUMP JUMPDEST PUSH1 0x20 PUSH1 0x40 DUP2 DUP4 ADD SWAP3 DUP3 DUP2 MSTORE DUP5 MLOAD DUP1 SWAP5 MSTORE ADD SWAP3 ADD SWAP1 PUSH1 0x0 JUMPDEST DUP2 DUP2 LT PUSH2 0x2316 JUMPI POP POP POP SWAP1 JUMP JUMPDEST DUP3 MLOAD DUP5 MSTORE PUSH1 0x20 SWAP4 DUP5 ADD SWAP4 SWAP1 SWAP3 ADD SWAP2 PUSH1 0x1 ADD PUSH2 0x2309 JUMP JUMPDEST DUP1 SLOAD DUP3 LT ISZERO PUSH2 0x2344 JUMPI PUSH1 0x0 MSTORE PUSH1 0x20 PUSH1 0x0 KECCAK256 ADD SWAP1 PUSH1 0x0 SWAP1 JUMP JUMPDEST PUSH4 0x4E487B71 PUSH1 0xE0 SHL PUSH1 0x0 MSTORE PUSH1 0x32 PUSH1 0x4 MSTORE PUSH1 0x24 PUSH1 0x0 REVERT JUMPDEST ISZERO PUSH2 0x2361 JUMPI JUMP JUMPDEST PUSH1 0x40 MLOAD PUSH3 0x461BCD PUSH1 0xE5 SHL DUP2 MSTORE PUSH1 0x20 PUSH1 0x4 DUP3 ADD MSTORE PUSH1 0xD PUSH1 0x24 DUP3 ADD MSTORE PUSH13 0x139BDD081D1A194819DD595CDD PUSH1 0x9A SHL PUSH1 0x44 DUP3 ADD MSTORE PUSH1 0x64 SWAP1 REVERT JUMPDEST SWAP1 PUSH1 0x8 DUP2 LT ISZERO PUSH2 0x383 JUMPI PUSH1 0xFF DUP1 NOT DUP4 SLOAD AND SWAP2 AND OR SWAP1 SSTORE JUMP JUMPDEST PUSH1 0x0 DUP2 DUP2 MSTORE PUSH1 0x5 PUSH1 0x20 MSTORE PUSH1 0x40 SWAP1 KECCAK256 PUSH1 0x2 DUP2 ADD DUP1 SLOAD SWAP1 SWAP2 SWAP1 PUSH2 0x23DD SWAP1 PUSH1 0x1 PUSH1 0x1 PUSH1 0xA0 SHL SUB SWAP1 DUP2 AND SWAP1 PUSH2 0x4A8 PUSH2 0x2DB4 JUMP JUMPDEST PUSH1 0x9 DUP2 ADD PUSH1 0xFF DUP2 SLOAD AND PUSH1 0x8 DUP2 LT ISZERO PUSH2 0x383 JUMPI PUSH2 0x2526 JUMPI PUSH1 0x4 DUP3 ADD SLOAD TIMESTAMP LT ISZERO PUSH2 0x24EC JUMPI DUP1 SLOAD PUSH1 0xFF NOT AND PUSH1 0x5 OR SWAP1 SSTORE PUSH1 0x11 DUP2 ADD SLOAD PUSH1 0xFF AND PUSH2 0x24BD JUMPI PUSH1 0x2 SLOAD SWAP2 SLOAD PUSH1 0x8 DUP3 ADD DUP1 SLOAD PUSH32 0xEDC1198B595A44E20B4738F6C85854E2C9F704982F488658F4C765030F152656 SWAP6 PUSH1 0x40 SWAP6 SWAP1 SWAP5 SWAP3 SWAP4 PUSH2 0x2486 SWAP4 SWAP3 PUSH2 0x2467 SWAP3 SWAP1 SWAP2 PUSH1 0x1 PUSH1 0x1 PUSH1 0xA0 SHL SUB SWAP1 DUP2 AND SWAP2 AND PUSH2 0x2C94 JUMP JUMPDEST PUSH1 0x2 SLOAD PUSH1 0x3 SLOAD PUSH1 0x7 SWAP1 SWAP3 ADD SLOAD SWAP2 PUSH1 0x1 PUSH1 0x1 PUSH1 0xA0 SHL SUB SWAP1 DUP2 AND SWAP2 AND PUSH2 0x2C94 JUMP JUMPDEST PUSH32 0xF774C001CB52A3566B767ED6E37C92706ACB2B80A3FF6049E2849CD62725D085 PUSH1 0x20 DUP5 MLOAD DUP5 DUP2 MSTORE LOG1 SLOAD DUP3 MLOAD SWAP2 DUP3 MSTORE PUSH1 0x20 DUP3 ADD MSTORE LOG1 JUMP JUMPDEST POP POP PUSH1 0x20 PUSH32 0xF774C001CB52A3566B767ED6E37C92706ACB2B80A3FF6049E2849CD62725D085 SWAP2 PUSH1 0x40 MLOAD SWAP1 DUP2 MSTORE LOG1 JUMP JUMPDEST PUSH1 0x40 MLOAD PUSH3 0x461BCD PUSH1 0xE5 SHL DUP2 MSTORE PUSH1 0x20 PUSH1 0x4 DUP3 ADD MSTORE PUSH1 0x12 PUSH1 0x24 DUP3 ADD MSTORE PUSH18 0x5061737420636865636B2D696E2064617465 PUSH1 0x70 SHL PUSH1 0x44 DUP3 ADD MSTORE PUSH1 0x64 SWAP1 REVERT JUMPDEST PUSH1 0x40 MLOAD PUSH3 0x461BCD PUSH1 0xE5 SHL DUP2 MSTORE PUSH1 0x20 PUSH1 0x4 DUP3 ADD MSTORE PUSH1 0x15 PUSH1 0x24 DUP3 ADD MSTORE PUSH21 0x43616E6E6F742063616E63656C20626F6F6B696E67 PUSH1 0x58 SHL PUSH1 0x44 DUP3 ADD MSTORE PUSH1 0x64 SWAP1 REVERT JUMPDEST DUP2 PUSH1 0x1F DUP3 ADD SLT ISZERO PUSH2 0x16E JUMPI DUP1 MLOAD PUSH2 0x2579 DUP2 PUSH2 0x227A JUMP JUMPDEST SWAP3 PUSH2 0x2587 PUSH1 0x40 MLOAD SWAP5 DUP6 PUSH2 0x216D JUMP JUMPDEST DUP2 DUP5 MSTORE PUSH1 0x20 DUP3 DUP5 ADD ADD GT PUSH2 0x16E JUMPI PUSH2 0x25A5 SWAP2 PUSH1 0x20 DUP1 DUP6 ADD SWAP2 ADD PUSH2 0x2232 JUMP JUMPDEST SWAP1 JUMP JUMPDEST MLOAD SWAP1 PUSH1 0x1 PUSH1 0x1 PUSH1 0xA0 SHL SUB DUP3 AND DUP3 SUB PUSH2 0x16E JUMPI JUMP JUMPDEST SWAP2 PUSH1 0xC0 DUP4 DUP4 SUB SLT PUSH2 0x16E JUMPI DUP3 MLOAD PUSH1 0x1 PUSH1 0x1 PUSH1 0x40 SHL SUB DUP2 GT PUSH2 0x16E JUMPI DUP3 PUSH2 0x25E3 SWAP2 DUP6 ADD PUSH2 0x2563 JUMP JUMPDEST SWAP3 PUSH2 0x25F0 PUSH1 0x20 DUP3 ADD PUSH2 0x25A8 JUMP JUMPDEST SWAP3 PUSH2 0x25FD PUSH1 0x40 DUP4 ADD PUSH2 0x25A8 JUMP JUMPDEST SWAP3 PUSH1 0x60 DUP4 ADD MLOAD SWAP3 PUSH1 0x80 DUP2 ADD MLOAD DUP1 ISZERO ISZERO DUP2 SUB PUSH2 0x16E JUMPI SWAP3 PUSH1 0xA0 DUP3 ADD MLOAD PUSH1 0x1 PUSH1 0x1 PUSH1 0x40 SHL SUB DUP2 GT PUSH2 0x16E JUMPI PUSH2 0x25A5 SWAP3 ADD PUSH2 0x2563 JUMP JUMPDEST ISZERO PUSH2 0x2637 JUMPI JUMP JUMPDEST PUSH1 0x40 MLOAD PUSH3 0x461BCD PUSH1 0xE5 SHL DUP2 MSTORE PUSH1 0x20 PUSH1 0x4 DUP3 ADD MSTORE PUSH1 0x13 PUSH1 0x24 DUP3 ADD MSTORE PUSH19 0x50726F7065727479206E6F7420616374697665 PUSH1 0x68 SHL PUSH1 0x44 DUP3 ADD MSTORE PUSH1 0x64 SWAP1 REVERT JUMPDEST ISZERO PUSH2 0x2679 JUMPI JUMP JUMPDEST PUSH1 0x40 MLOAD PUSH3 0x461BCD PUSH1 0xE5 SHL DUP2 MSTORE PUSH1 0x20 PUSH1 0x4 DUP3 ADD MSTORE PUSH1 0x17 PUSH1 0x24 DUP3 ADD MSTORE PUSH32 0x50726F706572747920646F6573206E6F74206578697374000000000000000000 PUSH1 0x44 DUP3 ADD MSTORE PUSH1 0x64 SWAP1 REVERT JUMPDEST ISZERO PUSH2 0x26C5 JUMPI JUMP JUMPDEST PUSH1 0x40 MLOAD PUSH3 0x461BCD PUSH1 0xE5 SHL DUP2 MSTORE PUSH1 0x20 PUSH1 0x4 DUP3 ADD MSTORE PUSH1 0x1E PUSH1 0x24 DUP3 ADD MSTORE PUSH32 0x436865636B2D696E206D75737420626520696E20746865206675747572650000 PUSH1 0x44 DUP3 ADD MSTORE PUSH1 0x64 SWAP1 REVERT JUMPDEST ISZERO PUSH2 0x2711 JUMPI JUMP JUMPDEST PUSH1 0x64 PUSH1 0x40 MLOAD PUSH3 0x461BCD PUSH1 0xE5 SHL DUP2 MSTORE PUSH1 0x20 PUSH1 0x4 DUP3 ADD MSTORE PUSH1 0x20 PUSH1 0x24 DUP3 ADD MSTORE PUSH32 0x436865636B2D6F7574206D75737420626520616674657220636865636B2D696E PUSH1 0x44 DUP3 ADD MSTORE REVERT JUMPDEST ISZERO PUSH2 0x275C JUMPI JUMP JUMPDEST PUSH1 0x40 MLOAD PUSH3 0x461BCD PUSH1 0xE5 SHL DUP2 MSTORE PUSH1 0x20 PUSH1 0x4 DUP3 ADD MSTORE PUSH1 0x2C PUSH1 0x24 DUP3 ADD MSTORE PUSH32 0x426F6F6B696E6720646174657320636F6E666C69637420776974682065786973 PUSH1 0x44 DUP3 ADD MSTORE PUSH12 0x74696E6720626F6F6B696E67 PUSH1 0xA0 SHL PUSH1 0x64 DUP3 ADD MSTORE PUSH1 0x84 SWAP1 REVERT JUMPDEST SWAP2 SWAP1 DUP3 SUB SWAP2 DUP3 GT PUSH2 0x65D JUMPI JUMP JUMPDEST ISZERO PUSH2 0x27CA JUMPI JUMP JUMPDEST PUSH1 0x64 PUSH1 0x40 MLOAD PUSH3 0x461BCD PUSH1 0xE5 SHL DUP2 MSTORE PUSH1 0x20 PUSH1 0x4 DUP3 ADD MSTORE PUSH1 0x20 PUSH1 0x24 DUP3 ADD MSTORE PUSH32 0x426F6F6B696E67206D757374206265206174206C656173742031206E69676874 PUSH1 0x44 DUP3 ADD MSTORE REVERT JUMPDEST SWAP1 DUP2 PUSH1 0x20 SWAP2 SUB SLT PUSH2 0x16E JUMPI MLOAD PUSH2 0xFFFF DUP2 AND DUP2 SUB PUSH2 0x16E JUMPI SWAP1 JUMP JUMPDEST DUP2 DUP2 MUL SWAP3 SWAP2 DUP2 ISZERO SWAP2 DUP5 DIV EQ OR ISZERO PUSH2 0x65D JUMPI JUMP JUMPDEST PUSH1 0x0 NOT DUP2 EQ PUSH2 0x65D JUMPI PUSH1 0x1 ADD SWAP1 JUMP JUMPDEST DUP2 DUP2 LT PUSH2 0x2855 JUMPI POP POP JUMP JUMPDEST PUSH1 0x0 DUP2 SSTORE PUSH1 0x1 ADD PUSH2 0x284A JUMP JUMPDEST SWAP2 SWAP1 PUSH1 0x1F DUP2 GT PUSH2 0x2870 JUMPI POP POP POP JUMP JUMPDEST PUSH2 0x21C7 SWAP3 PUSH1 0x0 MSTORE PUSH1 0x20 PUSH1 0x0 KECCAK256 SWAP1 PUSH1 0x20 PUSH1 0x1F DUP5 ADD PUSH1 0x5 SHR DUP4 ADD SWAP4 LT PUSH2 0x289C JUMPI JUMPDEST PUSH1 0x1F ADD PUSH1 0x5 SHR ADD SWAP1 PUSH2 0x284A JUMP JUMPDEST SWAP1 SWAP2 POP DUP2 SWAP1 PUSH2 0x288F JUMP JUMPDEST DUP1 SLOAD PUSH9 0x10000000000000000 DUP2 LT ISZERO PUSH2 0xF4E JUMPI PUSH2 0x28C8 SWAP2 PUSH1 0x1 DUP3 ADD DUP2 SSTORE PUSH2 0x232C JUMP JUMPDEST DUP2 SWAP3 SWAP2 SLOAD SWAP1 PUSH1 0x3 SHL SWAP2 DUP3 SHL SWAP2 PUSH1 0x0 NOT SWAP1 SHL NOT AND OR SWAP1 SSTORE JUMP JUMPDEST ISZERO PUSH2 0x28E7 JUMPI JUMP JUMPDEST PUSH1 0x40 MLOAD PUSH3 0x461BCD PUSH1 0xE5 SHL DUP2 MSTORE PUSH1 0x20 PUSH1 0x4 DUP3 ADD MSTORE PUSH1 0xE PUSH1 0x24 DUP3 ADD MSTORE PUSH14 0x4E6F7420696E2064697370757465 PUSH1 0x90 SHL PUSH1 0x44 DUP3 ADD MSTORE PUSH1 0x64 SWAP1 REVERT JUMPDEST PUSH1 0x20 PUSH2 0x2939 SWAP2 SWAP4 SWAP3 SWAP4 DUP2 PUSH1 0x40 MLOAD SWAP4 DUP3 DUP6 DUP1 SWAP5 MLOAD SWAP4 DUP5 SWAP3 ADD PUSH2 0x2232 JUMP JUMPDEST DUP2 ADD PUSH1 0x6 DUP2 MSTORE SUB ADD SWAP1 KECCAK256 SWAP1 PUSH1 0x40 MLOAD DUP1 DUP4 PUSH1 0x20 DUP3 SWAP6 SLOAD SWAP4 DUP5 DUP2 MSTORE ADD SWAP1 PUSH1 0x0 MSTORE PUSH1 0x20 PUSH1 0x0 KECCAK256 SWAP3 PUSH1 0x0 JUMPDEST DUP2 DUP2 LT PUSH2 0x2A23 JUMPI POP POP PUSH2 0x2975 SWAP3 POP SUB DUP4 PUSH2 0x216D JUMP JUMPDEST PUSH1 0x0 JUMPDEST DUP3 MLOAD DUP2 LT ISZERO PUSH2 0x2A1A JUMPI PUSH1 0x0 PUSH1 0x20 DUP3 PUSH1 0x5 SHL DUP6 ADD ADD MLOAD DUP2 MSTORE PUSH1 0x5 PUSH1 0x20 MSTORE PUSH1 0x40 DUP2 KECCAK256 SWAP1 PUSH1 0xFF PUSH1 0x9 DUP4 ADD SLOAD AND PUSH1 0x8 DUP2 LT ISZERO PUSH2 0x2A06 JUMPI PUSH1 0x5 DUP2 EQ SWAP2 DUP3 ISZERO PUSH2 0x29F9 JUMPI JUMPDEST POP POP PUSH2 0x29F0 JUMPI PUSH1 0x5 DUP2 ADD SLOAD DUP6 LT SWAP1 DUP2 PUSH2 0x29E2 JUMPI JUMPDEST POP PUSH2 0x29D9 JUMPI PUSH1 0x1 SWAP1 JUMPDEST ADD PUSH2 0x2978 JUMP JUMPDEST POP POP POP POP PUSH1 0x1 SWAP1 JUMP JUMPDEST PUSH1 0x4 SWAP2 POP ADD SLOAD DUP3 GT CODESIZE PUSH2 0x29CA JUMP JUMPDEST POP PUSH1 0x1 SWAP1 PUSH2 0x29D3 JUMP JUMPDEST PUSH1 0x6 SWAP3 POP POP EQ CODESIZE DUP1 PUSH2 0x29B6 JUMP JUMPDEST PUSH4 0x4E487B71 PUSH1 0xE0 SHL DUP3 MSTORE PUSH1 0x21 PUSH1 0x4 MSTORE PUSH1 0x24 DUP3 REVERT JUMPDEST POP POP POP POP PUSH1 0x0 SWAP1 JUMP JUMPDEST DUP5 SLOAD DUP4 MSTORE PUSH1 0x1 SWAP5 DUP6 ADD SWAP5 DUP8 SWAP5 POP PUSH1 0x20 SWAP1 SWAP4 ADD SWAP3 ADD PUSH2 0x2960 JUMP JUMPDEST SWAP1 DUP2 PUSH1 0x0 MSTORE PUSH1 0x5 PUSH1 0x20 MSTORE PUSH1 0x40 PUSH1 0x0 KECCAK256 PUSH1 0x9 DUP2 ADD PUSH1 0xFF DUP2 SLOAD AND PUSH1 0x8 DUP2 LT ISZERO PUSH2 0x383 JUMPI PUSH1 0x7 SUB PUSH2 0x2C11 JUMPI PUSH1 0x64 DUP4 GT PUSH2 0x2BD7 JUMPI PUSH1 0xFF PUSH1 0x11 DUP4 ADD SLOAD AND PUSH2 0x2B91 JUMPI PUSH2 0x2ADB SWAP1 PUSH1 0x64 PUSH1 0x8 DUP5 ADD SLOAD SWAP5 PUSH2 0x2ACE PUSH2 0x2A9D DUP4 PUSH2 0x2A95 DUP5 DUP11 PUSH2 0x2828 JUMP JUMPDEST DIV DUP1 SWAP9 PUSH2 0x27B6 JUMP JUMPDEST SWAP6 DUP8 ISZERO ISZERO SWAP7 DUP8 PUSH2 0x2B6C JUMPI JUMPDEST DUP1 PUSH2 0x2B47 JUMPI JUMPDEST POP PUSH1 0x2 SLOAD PUSH1 0x3 SLOAD PUSH1 0x7 SWAP1 SWAP3 ADD SLOAD SWAP2 PUSH1 0x1 PUSH1 0x1 PUSH1 0xA0 SHL SUB SWAP1 DUP2 AND SWAP2 AND PUSH2 0x2C94 JUMP JUMPDEST SUB PUSH2 0x2B3F JUMPI PUSH1 0x6 SWAP1 PUSH2 0x2396 JUMP JUMPDEST PUSH32 0xE70F5CB5ECDE9644C195A97CF45A506DE023D1D170CD972F04441FAFD993F150 PUSH1 0x20 PUSH1 0x40 MLOAD DUP6 DUP2 MSTORE LOG1 PUSH2 0x2B0D JUMPI POP POP JUMP JUMPDEST PUSH32 0xEDC1198B595A44E20B4738F6C85854E2C9F704982F488658F4C765030F152656 SWAP2 PUSH1 0x40 SWAP2 DUP3 MLOAD SWAP2 DUP3 MSTORE PUSH1 0x20 DUP3 ADD MSTORE LOG1 JUMP JUMPDEST PUSH1 0x3 SWAP1 PUSH2 0x2396 JUMP JUMPDEST PUSH1 0x2 SLOAD PUSH1 0x3 DUP4 ADD SLOAD PUSH2 0x2B66 SWAP3 SWAP2 PUSH1 0x1 PUSH1 0x1 PUSH1 0xA0 SHL SUB SWAP2 DUP3 AND SWAP2 AND PUSH2 0x2C94 JUMP JUMPDEST CODESIZE PUSH2 0x2AAE JUMP JUMPDEST PUSH1 0x2 DUP1 SLOAD SWAP1 DUP4 ADD SLOAD PUSH2 0x2B8C SWAP2 DUP12 SWAP2 PUSH1 0x1 PUSH1 0x1 PUSH1 0xA0 SHL SUB SWAP1 DUP2 AND SWAP2 AND PUSH2 0x2C94 JUMP JUMPDEST PUSH2 0x2AA8 JUMP JUMPDEST PUSH32 0xE70F5CB5ECDE9644C195A97CF45A506DE023D1D170CD972F04441FAFD993F150 SWAP4 SWAP2 POP PUSH2 0x2BCE SWAP1 PUSH1 0x64 PUSH1 0x20 SWAP5 EQ PUSH1 0x0 EQ PUSH2 0x2B3F JUMPI PUSH1 0x6 SWAP1 PUSH2 0x2396 JUMP JUMPDEST PUSH1 0x40 MLOAD SWAP1 DUP2 MSTORE LOG1 JUMP JUMPDEST PUSH1 0x40 MLOAD PUSH3 0x461BCD PUSH1 0xE5 SHL DUP2 MSTORE PUSH1 0x20 PUSH1 0x4 DUP3 ADD MSTORE PUSH1 0x12 PUSH1 0x24 DUP3 ADD MSTORE PUSH18 0x496E76616C69642070657263656E74616765 PUSH1 0x70 SHL PUSH1 0x44 DUP3 ADD MSTORE PUSH1 0x64 SWAP1 REVERT JUMPDEST PUSH1 0x40 MLOAD PUSH3 0x461BCD PUSH1 0xE5 SHL DUP2 MSTORE PUSH1 0x20 PUSH1 0x4 DUP3 ADD MSTORE PUSH1 0x16 PUSH1 0x24 DUP3 ADD MSTORE PUSH22 0x2737BA1032B9B1B0B630BA32B2103A379030B236B4B7 PUSH1 0x51 SHL PUSH1 0x44 DUP3 ADD MSTORE PUSH1 0x64 SWAP1 REVERT JUMPDEST ISZERO PUSH2 0x2C56 JUMPI JUMP JUMPDEST PUSH1 0x40 MLOAD PUSH3 0x461BCD PUSH1 0xE5 SHL DUP2 MSTORE PUSH1 0x20 PUSH1 0x4 DUP3 ADD MSTORE PUSH1 0x16 PUSH1 0x24 DUP3 ADD MSTORE PUSH22 0x111A5CDC1D5D19481DDA5B991BDDC8195E1C1A5C9959 PUSH1 0x52 SHL PUSH1 0x44 DUP3 ADD MSTORE PUSH1 0x64 SWAP1 REVERT JUMPDEST PUSH1 0x40 MLOAD PUSH4 0xA9059CBB PUSH1 0xE0 SHL PUSH1 0x20 DUP3 ADD MSTORE PUSH1 0x1 PUSH1 0x1 PUSH1 0xA0 SHL SUB SWAP1 SWAP3 AND PUSH1 0x24 DUP4 ADD MSTORE PUSH1 0x44 DUP1 DUP4 ADD SWAP4 SWAP1 SWAP4 MSTORE SWAP2 DUP2 MSTORE PUSH2 0x21C7 SWAP2 PUSH2 0xA41 PUSH1 0x64 DUP4 PUSH2 0x216D JUMP JUMPDEST PUSH1 0x0 SLOAD PUSH1 0x1 PUSH1 0x1 PUSH1 0xA0 SHL SUB SWAP1 DUP2 AND SWAP1 PUSH2 0x2CE6 PUSH2 0x2DB4 JUMP JUMPDEST AND SUB PUSH2 0x2CEE JUMPI JUMP JUMPDEST PUSH2 0x2CF6 PUSH2 0x2DB4 JUMP JUMPDEST PUSH4 0x118CDAA7 PUSH1 0xE0 SHL PUSH1 0x0 SWAP1 DUP2 MSTORE PUSH1 0x1 PUSH1 0x1 PUSH1 0xA0 SHL SUB SWAP2 SWAP1 SWAP2 AND PUSH1 0x4 MSTORE PUSH1 0x24 SWAP1 REVERT JUMPDEST PUSH1 0x20 PUSH32 0xE70F5CB5ECDE9644C195A97CF45A506DE023D1D170CD972F04441FAFD993F150 SWAP2 DUP1 PUSH1 0x0 MSTORE PUSH1 0x5 DUP3 MSTORE PUSH1 0x40 PUSH1 0x0 KECCAK256 PUSH1 0x9 DUP2 ADD PUSH1 0x3 PUSH1 0xFF NOT DUP3 SLOAD AND OR SWAP1 SSTORE PUSH1 0xFF PUSH1 0x11 DUP3 ADD SLOAD AND PUSH2 0x2DAA JUMPI PUSH1 0x2 SLOAD PUSH1 0x3 SLOAD PUSH1 0x7 DUP4 ADD SLOAD PUSH2 0x2BCE SWAP4 SWAP3 PUSH2 0x2D89 SWAP3 PUSH1 0x1 PUSH1 0x1 PUSH1 0xA0 SHL SUB SWAP1 DUP2 AND SWAP2 AND PUSH2 0x2C94 JUMP JUMPDEST PUSH1 0x2 SLOAD PUSH1 0x3 DUP3 ADD SLOAD PUSH1 0x8 SWAP1 SWAP3 ADD SLOAD SWAP2 PUSH1 0x1 PUSH1 0x1 PUSH1 0xA0 SHL SUB SWAP1 DUP2 AND SWAP2 AND PUSH2 0x2C94 JUMP JUMPDEST POP PUSH1 0x40 MLOAD SWAP1 DUP2 MSTORE LOG1 JUMP JUMPDEST CALLER PUSH32 0x0 PUSH1 0x1 PUSH1 0x1 PUSH1 0xA0 SHL SUB AND EQ DUP1 PUSH2 0x2E02 JUMPI JUMPDEST ISZERO PUSH2 0x2DFE JUMPI PUSH1 0x13 NOT CALLDATASIZE ADD CALLDATASIZE DUP2 GT PUSH2 0x65D JUMPI CALLDATALOAD PUSH1 0x60 SHR SWAP1 JUMP JUMPDEST CALLER SWAP1 JUMP JUMPDEST POP PUSH1 0x14 CALLDATASIZE LT ISZERO PUSH2 0x2DE6 JUMP JUMPDEST SWAP1 PUSH1 0x0 PUSH1 0x20 SWAP2 DUP3 DUP2 MLOAD SWAP2 ADD DUP3 DUP6 GAS CALL ISZERO PUSH2 0x10EF JUMPI PUSH1 0x0 MLOAD RETURNDATASIZE PUSH2 0x2E5F JUMPI POP PUSH1 0x1 PUSH1 0x1 PUSH1 0xA0 SHL SUB DUP2 AND EXTCODESIZE ISZERO JUMPDEST PUSH2 0x2E3E JUMPI POP JUMP JUMPDEST PUSH4 0x5274AFE7 PUSH1 0xE0 SHL PUSH1 0x0 SWAP1 DUP2 MSTORE PUSH1 0x1 PUSH1 0x1 PUSH1 0xA0 SHL SUB SWAP2 SWAP1 SWAP2 AND PUSH1 0x4 MSTORE PUSH1 0x24 SWAP1 REVERT JUMPDEST PUSH1 0x1 EQ ISZERO PUSH2 0x2E37 JUMP INVALID LOG2 PUSH5 0x6970667358 0x22 SLT KECCAK256 0xA6 0xEC SWAP7 CODECOPY PUSH14 0x3CEB6D7C91AA87D221B50ED8DBD8 0x2E SWAP12 0xBD 0xD9 0xEE 0xBD 0xDB CALLER LOG4 0x1F 0xB9 LOG4 0xC9 PUSH5 0x736F6C6343 STOP ADDMOD SHR STOP CALLER "},"methodIdentifiers":{"CHECK_IN_WINDOW()":"00f44ccd","DISPUTE_RESOLUTION_WINDOW()":"5c980829","adminResolveDispute(uint256,uint256)":"8e60144a","bookings(uint256)":"1dab301e","cancelBooking(uint256)":"0dca825e","checkIn(uint256)":"e95a644f","createBooking(string,uint256,uint256,uint256,string)":"93c02f22","createBookingPaid(string,uint256,uint256,uint256,string,string)":"1f7a8939","escalateDispute(uint256)":"20a68d25","eurcToken()":"f3b0f3b9","getGuestBookings(address)":"63809aef","getPropertyBookings(string)":"f2c41b5a","guestBookings(address,uint256)":"a41cfa69","guestResolveDispute(uint256)":"bae391d9","hasBookingConflict(string,uint256,uint256)":"288c1609","hostResolveDispute(uint256)":"f1161855","isTrustedForwarder(address)":"572b6c05","owner()":"8da5cb5b","processMissedCheckIn(uint256)":"72beb510","propertyBookings(string,uint256)":"8d1cc984","propertyMarketplace()":"c3ed62ce","renounceOwnership()":"715018a6","setTreasury(address)":"f0f44260","transferOwnership(address)":"f2fde38b","treasury()":"61d027b3","triggerCheckInWindow(uint256)":"ccef7f33","trustedForwarder()":"7da0a877"}}}}}