{"contracts/PropertyMarketplace.sol":{"PropertyMarketplace":{"abi":[{"inputs":[{"internalType":"address payable","name":"_feeRecipient","type":"address"},{"internalType":"address","name":"_trustedForwarder","type":"address"}],"stateMutability":"nonpayable","type":"constructor"},{"inputs":[{"internalType":"address","name":"owner","type":"address"}],"name":"OwnableInvalidOwner","type":"error"},{"inputs":[{"internalType":"address","name":"account","type":"address"}],"name":"OwnableUnauthorizedAccount","type":"error"},{"anonymous":false,"inputs":[{"indexed":false,"internalType":"address","name":"newFeeRecipient","type":"address"}],"name":"FeeRecipientUpdated","type":"event"},{"anonymous":false,"inputs":[{"indexed":true,"internalType":"address","name":"previousOwner","type":"address"},{"indexed":true,"internalType":"address","name":"newOwner","type":"address"}],"name":"OwnershipTransferred","type":"event"},{"anonymous":false,"inputs":[{"indexed":false,"internalType":"uint16","name":"newFeePercentage","type":"uint16"}],"name":"PlatformFeeUpdated","type":"event"},{"anonymous":false,"inputs":[{"indexed":false,"internalType":"string","name":"propertyId","type":"string"},{"indexed":false,"internalType":"address","name":"tokenAddress","type":"address"},{"indexed":false,"internalType":"address","name":"owner","type":"address"}],"name":"PropertyListed","type":"event"},{"anonymous":false,"inputs":[{"indexed":false,"internalType":"string","name":"propertyId","type":"string"},{"indexed":false,"internalType":"string","name":"newPropertyURI","type":"string"}],"name":"PropertyMetadataUpdated","type":"event"},{"anonymous":false,"inputs":[{"indexed":false,"internalType":"string","name":"propertyId","type":"string"}],"name":"PropertyRemoved","type":"event"},{"anonymous":false,"inputs":[{"indexed":false,"internalType":"string","name":"propertyId","type":"string"},{"indexed":false,"internalType":"uint256","name":"newPricePerNight","type":"uint256"},{"indexed":false,"internalType":"bool","name":"isActive","type":"bool"}],"name":"PropertyUpdated","type":"event"},{"inputs":[],"name":"feeRecipient","outputs":[{"internalType":"address payable","name":"","type":"address"}],"stateMutability":"view","type":"function"},{"inputs":[],"name":"getActivePropertyIds","outputs":[{"internalType":"string[]","name":"","type":"string[]"}],"stateMutability":"view","type":"function"},{"inputs":[],"name":"getAllPropertyIds","outputs":[{"internalType":"string[]","name":"","type":"string[]"}],"stateMutability":"view","type":"function"},{"inputs":[{"internalType":"address","name":"forwarder","type":"address"}],"name":"isTrustedForwarder","outputs":[{"internalType":"bool","name":"","type":"bool"}],"stateMutability":"view","type":"function"},{"inputs":[{"internalType":"string","name":"_propertyURI","type":"string"},{"internalType":"uint256","name":"_pricePerNight","type":"uint256"},{"internalType":"string","name":"_tokenName","type":"string"},{"internalType":"string","name":"_tokenSymbol","type":"string"}],"name":"listProperty","outputs":[{"internalType":"string","name":"","type":"string"}],"stateMutability":"nonpayable","type":"function"},{"inputs":[],"name":"owner","outputs":[{"internalType":"address","name":"","type":"address"}],"stateMutability":"view","type":"function"},{"inputs":[],"name":"platformFeePercentage","outputs":[{"internalType":"uint16","name":"","type":"uint16"}],"stateMutability":"view","type":"function"},{"inputs":[{"internalType":"string","name":"","type":"string"}],"name":"properties","outputs":[{"internalType":"string","name":"propertyId","type":"string"},{"internalType":"address","name":"propertyTokenAddress","type":"address"},{"internalType":"address","name":"owner","type":"address"},{"internalType":"uint256","name":"pricePerNight","type":"uint256"},{"internalType":"bool","name":"isActive","type":"bool"},{"internalType":"string","name":"propertyURI","type":"string"}],"stateMutability":"view","type":"function"},{"inputs":[{"internalType":"uint256","name":"","type":"uint256"}],"name":"propertyIds","outputs":[{"internalType":"string","name":"","type":"string"}],"stateMutability":"view","type":"function"},{"inputs":[{"internalType":"string","name":"_propertyId","type":"string"}],"name":"removeProperty","outputs":[],"stateMutability":"nonpayable","type":"function"},{"inputs":[],"name":"renounceOwnership","outputs":[],"stateMutability":"nonpayable","type":"function"},{"inputs":[{"internalType":"address","name":"newOwner","type":"address"}],"name":"transferOwnership","outputs":[],"stateMutability":"nonpayable","type":"function"},{"inputs":[],"name":"trustedForwarder","outputs":[{"internalType":"address","name":"","type":"address"}],"stateMutability":"view","type":"function"},{"inputs":[{"internalType":"address payable","name":"_newFeeRecipient","type":"address"}],"name":"updateFeeRecipient","outputs":[],"stateMutability":"nonpayable","type":"function"},{"inputs":[{"internalType":"uint16","name":"_newFeePercentage","type":"uint16"}],"name":"updatePlatformFee","outputs":[],"stateMutability":"nonpayable","type":"function"},{"inputs":[{"internalType":"string","name":"_propertyId","type":"string"},{"internalType":"uint256","name":"_pricePerNight","type":"uint256"},{"internalType":"bool","name":"_isActive","type":"bool"}],"name":"updateProperty","outputs":[],"stateMutability":"nonpayable","type":"function"},{"inputs":[{"internalType":"string","name":"_propertyId","type":"string"},{"internalType":"string","name":"_propertyURI","type":"string"}],"name":"updatePropertyMetadata","outputs":[],"stateMutability":"nonpayable","type":"function"}],"evm":{"bytecode":{"linkReferences":{},"object":"60a03461011b57601f6126cc38819003918201601f19168301916001600160401b0383118484101761012057808492604094855283398101031261011b5780516001600160a01b038116919082900361011b5760200151906001600160a01b038216820361011b576001600160a01b03610077610136565b1680156101055760005490604051938160018060a01b0384167f8be0079c531659141344cd1fd0a4f28419497f9722a3daafe3b4186f6b6457e0600080a36080526001600160b01b031990911617600f60a11b17600055600180546001600160a01b03191691909117905561254490816101888239608051818181610623015281816107ea01526112380152f35b631e4fbdf760e01b600052600060045260246000fd5b600080fd5b634e487b7160e01b600052604160045260246000fd5b6080516001600160a01b031633148061017c575b15610178576013193601368111610162573560601c90565b634e487b7160e01b600052601160045260246000fd5b3390565b50601436101561014a56fe6080604052600436101561001257600080fd5b60003560e01c8063024ea25f14610bc557806343cf8f40146108d357806346904840146108aa5780634ff69e831461081c578063572b6c05146107bf57806370dfd4c7146106ab578063715018a6146106525780637da0a8771461060d5780638da5cb5b146105e45780638f425b60146105375780639be8f2a614610467578063afb06952146103b5578063cadce7f0146102a4578063cdd78cfc1461027f578063d03b47f41461021a578063f160d369146101695763f2fde38b146100d757600080fd5b34610164576020366003190112610164576004356001600160a01b03811690819003610164576101056111ed565b801561014e57600080546001600160a01b03198116831782556001600160a01b0316907f8be0079c531659141344cd1fd0a4f28419497f9722a3daafe3b4186f6b6457e09080a3005b631e4fbdf760e01b600052600060045260246000fd5b600080fd5b34610164576020366003190112610164576004356001600160a01b03811690819003610164576101976111ed565b80156101e3576020817f7a7b5a0a132f9e0581eb8527f66eae9ee89c2a3e79d4ac7e41a1f1f4d48a7fc2926bffffffffffffffffffffffff60a01b6001541617600155604051908152a1005b60405162461bcd60e51b815260206004820152600f60248201526e496e76616c6964206164647265737360881b6044820152606490fd5b34610164576020366003190112610164576004356004548110156101645761024190610eca565b6102695761025161026591610e26565b604051918291602083526020830190610d67565b0390f35b634e487b7160e01b600052600060045260246000fd5b3461016457600036600319011261016457602061ffff60005460a01c16604051908152f35b34610164576040366003190112610164576004356001600160401b038111610164576102d4903690600401610cfd565b6024356001600160401b038111610164577fa13fadc1c5c334ea6e145084f409555b4012c16e89ca751fb310aad5ccc587cc916103b061031b6103a2933690600401610cfd565b61038e81600561037e602060405161036d8951916002848c0193610340818487610d44565b6003908301908152829003850190912001546001600160a01b0390811690610366611235565b1614610efb565b604051809381928b51928391610d44565b8101600381520301902001610f61565b604051938493604085526040850190610d67565b908382036020850152610d67565b0390a1005b346101645760203660031901126101645760043561ffff811690818103610164576103de6111ed565b60648211610433576000805461ffff60a01b191660a09290921b61ffff60a01b169190911790556040519081527f8043734007c449f33c5ec8cb55f80415b9bed289de65701af55e6be91da1e7a190602090a1005b60405162461bcd60e51b815260206004820152600c60248201526b08ccaca40e8dede40d0d2ced60a31b6044820152606490fd5b34610164576020366003190112610164576004356001600160401b038111610164576104b2602061049f610513933690600401610cfd565b8160405193828580945193849201610d44565b810160038152030190206102656104c882610e26565b9160018060a01b036001820154169060018060a01b036002820154169060038101546104fe600560ff6004850154169301610e26565b9260405197889760c0895260c0890190610d67565b946020880152604087015260608601521515608085015283820360a0850152610d67565b34610164576020366003190112610164576004356001600160401b038111610164576103b061058b7f2516ef5ed12c60ddff5a3ca2ea3127f5c811f520289b143e2ab7cab822b5167f923690600401610cfd565b60046105bd60206040516105ac855191600284880193610340818487610d44565b604051809381928751928391610d44565b810160038152030190200160ff198154169055604051918291602083526020830190610d67565b34610164576000366003190112610164576000546040516001600160a01b039091168152602090f35b34610164576000366003190112610164576040517f00000000000000000000000000000000000000000000000000000000000000006001600160a01b03168152602090f35b346101645760003660031901126101645761066b6111ed565b600080546001600160a01b0319811682556001600160a01b03167f8be0079c531659141344cd1fd0a4f28419497f9722a3daafe3b4186f6b6457e08280a3005b3461016457600036600319011261016457600080600454905b81811061078b57506106d58261106c565b916106e36040519384610cc1565b8083526106f2601f199161106c565b0160005b81811061077a5750506000805b82811061071857604051806102658682610d8c565b60ff600461072e61072884610eca565b50611083565b01541661073e575b600101610703565b9061077260019161075761075185610eca565b50610e26565b6107618288611111565b5261076c8187611111565b50610f3c565b919050610736565b8060606020809387010152016106f6565b60ff600461079b61072884610eca565b0154166107ab575b6001016106c4565b916107b7600191610f3c565b9290506107a3565b34610164576020366003190112610164576004356001600160a01b03811690819003610164576040517f00000000000000000000000000000000000000000000000000000000000000006001600160a01b03169091148152602090f35b34610164576000366003190112610164576004546108398161106c565b906108476040519283610cc1565b8082526020820160046000527f8a35acfbc15ff81a39ae7d344fd709f28e8600b4aa8c65c6b64bfe7fe36bd19b6000915b83831061088d57604051806102658782610d8c565b60016020819261089c85610e26565b815201920192019190610878565b34610164576000366003190112610164576001546040516001600160a01b039091168152602090f35b34610164576080366003190112610164576004356001600160401b03811161016457610903903690600401610cfd565b6044356001600160401b03811161016457610922903690600401610cfd565b6064356001600160401b03811161016457610941903690600401610cfd565b9161094a611235565b610961610958600254610f3c565b80600255611125565b906040519361099f602486602081019563050524f560e41b875261098e8151809260208686019101610d44565b81010301601f198101875286610cc1565b6040519161128091828401908482106001600160401b03831117610ba3576080986109fe610a0c92879661128f883960a085526109f06109e260a087018d610d67565b86810360208801528b610d67565b908582036040870152610d67565b908382036060850152610d67565b6001600160a01b03909216970187905203906000f08015610bb9576040516001600160a01b03919091169260c08201906001600160401b03821183831017610ba357610b0886610b10956005946040528186526020860188815260408701908b8252610ab3610aa1602060608b0195602435875260808c01976001895260a08d019a8b52604051938492839251928391610d44565b81016003815203019020985189610f61565b516001880180546001600160a01b039283166001600160a01b03199182161790915591516002890180549190921692169190911790555160038601555160048501805460ff191691151560ff16919091179055565b519101610f61565b60045468010000000000000000811015610ba357806001610b349201600455610eca565b9190916102695761026593610b6a847f4e1b971c2b915c91b64e085b7b743f653f2a4fa2832bdca06a7d8449185f0df194610f61565b60405191829160608352610b816060840187610d67565b91602084015260408301520390a1604051918291602083526020830190610d67565b634e487b7160e01b600052604160045260246000fd5b6040513d6000823e3d90fd5b34610164576060366003190112610164576004356001600160401b03811161016457610bf5903690600401610cfd565b60443580151591602435838303610164577f82a2bd5239115c5f4a384a1e0d3c2a744e28b15e55112577cffbe41c8ed1ae4393610c9d610cb1946004610c816020604051610c508951916002848c0193610340818487610d44565b87600360405184818d51610c65818389610d44565b8101848152030190200155604051809381928b51928391610d44565b81016003815203019020019060ff801983541691151516179055565b604051938493606085526060850190610d67565b91602084015260408301520390a1005b90601f801991011681019081106001600160401b03821117610ba357604052565b6001600160401b038111610ba357601f01601f191660200190565b81601f8201121561016457803590610d1482610ce2565b92610d226040519485610cc1565b8284526020838301011161016457816000926020809301838601378301015290565b60005b838110610d575750506000910152565b8181015183820152602001610d47565b90602091610d8081518092818552858086019101610d44565b601f01601f1916010190565b602081016020825282518091526040820191602060408360051b8301019401926000915b838310610dbf57505050505090565b9091929394602080610ddd600193603f198682030187528951610d67565b97019301930191939290610db0565b90600182811c92168015610e1c575b6020831014610e0657565b634e487b7160e01b600052602260045260246000fd5b91607f1691610dfb565b9060405191826000825492610e3a84610dec565b8084529360018116908115610ea85750600114610e61575b50610e5f92500383610cc1565b565b90506000929192526020600020906000915b818310610e8c575050906020610e5f9282010138610e52565b6020919350806001915483858901015201910190918492610e73565b905060209250610e5f94915060ff191682840152151560051b82010138610e52565b600454811015610ee557600460005260206000200190600090565b634e487b7160e01b600052603260045260246000fd5b15610f0257565b60405162461bcd60e51b81526020600482015260126024820152712737ba10383937b832b93a3c9037bbb732b960711b6044820152606490fd5b6000198114610f4b5760010190565b634e487b7160e01b600052601160045260246000fd5b91909182516001600160401b038111610ba357610f7e8254610dec565b601f8111611024575b506020601f8211600114610fc25781929394600092610fb7575b50508160011b916000199060031b1c1916179055565b015190503880610fa1565b601f1982169083600052806000209160005b81811061100c57509583600195969710610ff3575b505050811b019055565b015160001960f88460031b161c19169055388080610fe9565b9192602060018192868b015181550194019201610fd4565b826000526020600020601f830160051c81019160208410611062575b601f0160051c01905b8181106110565750610f87565b60008155600101611049565b9091508190611040565b6001600160401b038111610ba35760051b60200190565b6040519081600082549261109684610dec565b93600181169081156110f757506001146110bb575b5060209250600381520301902090565b9150506000528160206000206000905b8382106110df5750506020918101386110ab565b602091925080600191548487015201910183916110cb565b60ff191684525060209380151502830191503890506110ab565b8051821015610ee55760209160051b010190565b80156111cd57600081805b6111b9575061113e81610ce2565b9061114c6040519283610cc1565b808252601f1961115b82610ce2565b013660208401375b809280156111b2576000198201918211610f4b578193600a82066030019283603011610f4b5784511115610ee557600a9260f81b6001600160f81b03191660001a908401601f01530491611163565b5050905090565b906111c5600a91610f3c565b910480611130565b506040516111dc604082610cc1565b60018152600360fc1b602082015290565b6000546001600160a01b0390811690611204611235565b160361120c57565b611214611235565b63118cdaa760e01b60009081526001600160a01b0391909116600452602490fd5b337f00000000000000000000000000000000000000000000000000000000000000006001600160a01b03161480611283575b1561127f576013193601368111610f4b573560601c90565b3390565b50601436101561126756fe6080604052346106fe576112808038038061001981610703565b928339810160a0828203126106fe5781516001600160401b0381116106fe5781610044918401610728565b60208301519091906001600160401b0381116106fe5781610066918501610728565b60408401519091906001600160401b0381116106fe5781610088918601610728565b60608501519091906001600160401b0381116106fe576080916100ac918701610728565b9401516001600160a01b03811691908290036106fe578051906001600160401b0382116104235760035490600182811c921680156106f4575b60208310146104035781601f849311610684575b50602090601f831160011461061c57600092610611575b50508160011b916000199060031b1c1916176003555b83516001600160401b03811161042357600454600181811c91168015610607575b602082101461040357601f81116105a2575b50602094601f821160011461053b57948192939495600092610530575b50508160011b916000199060031b1c1916176004555b801561051a57600580546001600160a01b03198116831790915581906001600160a01b03167f8be0079c531659141344cd1fd0a4f28419497f9722a3daafe3b4186f6b6457e0600080a382516001600160401b03811161042357600654600181811c91168015610510575b602082101461040357601f81116104ab575b506020601f82116001146104445781929394600092610439575b50508160011b916000199060031b1c1916176006555b81516001600160401b03811161042357600754600181811c91168015610419575b602082101461040357601f811161039e575b50602092601f8211600114610339579281929360009261032e575b50508160011b916000199060031b1c1916176007555b6000600254683635c9adc5dea00000810180911161031a57600255508060005260006020526040600020683635c9adc5dea00000815401905560007fddf252ad1be2c89b69c2b068fc378daa952ba7f163c4a11628f55a4df523b3ef6020604051683635c9adc5dea000008152a3604051610aec90816107948239f35b634e487b7160e01b82526011600452602482fd5b015190503880610287565b601f198216936007600052806000209160005b868110610386575083600195961061036d575b505050811b0160075561029d565b015160001960f88460031b161c1916905538808061035f565b9192602060018192868501518155019401920161034c565b60076000527fa66cc928b5edb82af9bd49922954155ab7b0942694bea4ce44661d9a8736c688601f830160051c810191602084106103f9575b601f0160051c01905b8181106103ed575061026c565b600081556001016103e0565b90915081906103d7565b634e487b7160e01b600052602260045260246000fd5b90607f169061025a565b634e487b7160e01b600052604160045260246000fd5b015190503880610223565b601f198216906006600052806000209160005b8181106104935750958360019596971061047a575b505050811b01600655610239565b015160001960f88460031b161c1916905538808061046c565b9192602060018192868b015181550194019201610457565b60066000527ff652222313e28459528d920b65115c16c04f3efc82aaedc97be59f3f377c0d3f601f830160051c81019160208410610506575b601f0160051c01905b8181106104fa5750610209565b600081556001016104ed565b90915081906104e4565b90607f16906101f7565b631e4fbdf760e01b600052600060045260246000fd5b015190503880610176565b601f198216956004600052806000209160005b88811061058a57508360019596979810610571575b505050811b0160045561018c565b015160001960f88460031b161c19169055388080610563565b9192602060018192868501518155019401920161054e565b60046000527f8a35acfbc15ff81a39ae7d344fd709f28e8600b4aa8c65c6b64bfe7fe36bd19b601f830160051c810191602084106105fd575b601f0160051c01905b8181106105f15750610159565b600081556001016105e4565b90915081906105db565b90607f1690610147565b015190503880610110565b600360009081528281209350601f198516905b81811061066c5750908460019594939210610653575b505050811b01600355610126565b015160001960f88460031b161c19169055388080610645565b9293602060018192878601518155019501930161062f565b60036000529091507fc2575a0e9e593c00f959f8c92f12db2869c3395a3b0502d05e2516446f71f85b601f840160051c810191602085106106ea575b90601f859493920160051c01905b8181106106db57506100f9565b600081558493506001016106ce565b90915081906106c0565b91607f16916100e5565b600080fd5b6040519190601f01601f191682016001600160401b0381118382101761042357604052565b81601f820112156106fe578051906001600160401b03821161042357610757601f8301601f1916602001610703565b92828452602083830101116106fe5760005b82811061077e57505060206000918301015290565b8060208092840101518282870101520161076956fe6080604052600436101561001257600080fd5b60003560e01c806306fdde031461082f578063095ea7b3146107a957806318160ddd1461078b57806323b872dd1461069e578063313ce5671461068257806370a0823114610648578063715018a6146105eb5780638da5cb5b146105c257806395d89b411461051a5780639babbbd114610484578063a9059cbb14610453578063c18549ad1461027e578063dd62ed3e1461022d578063ee7a3b8e146101505763f2fde38b146100c157600080fd5b3461014b57602036600319011261014b576100da610920565b6100e2610a6d565b6001600160a01b0316801561013557600580546001600160a01b0319811683179091556001600160a01b03167f8be0079c531659141344cd1fd0a4f28419497f9722a3daafe3b4186f6b6457e0600080a3005b631e4fbdf760e01b600052600060045260246000fd5b600080fd5b3461014b57600036600319011261014b5760405160006006546101728161094c565b808452906001811690811561020957506001146101aa575b6101a68361019a81850382610986565b604051918291826108d7565b0390f35b600660009081527ff652222313e28459528d920b65115c16c04f3efc82aaedc97be59f3f377c0d3f939250905b8082106101ef5750909150810160200161019a61018a565b9192600181602092548385880101520191019092916101d7565b60ff191660208086019190915291151560051b8401909101915061019a905061018a565b3461014b57604036600319011261014b57610246610920565b61024e610936565b6001600160a01b039182166000908152600160209081526040808320949093168252928352819020549051908152f35b3461014b57602036600319011261014b5760043567ffffffffffffffff811161014b573660238201121561014b57806004013567ffffffffffffffff811161043d57604051916102d8601f8301601f191660200184610986565b818352366024838301011161014b57816000926024602093018386013783010152610301610a6d565b805167ffffffffffffffff811161043d5761031d60075461094c565b601f81116103d0575b50602091601f821160011461036457918192600092610359575b5050600019600383901b1c191660019190911b17600755005b015190508280610340565b601f198216926007600052600080516020610a978339815191529160005b8581106103b85750836001951061039f575b505050811b01600755005b015160001960f88460031b161c19169055828080610394565b91926020600181928685015181550194019201610382565b6007600052601f820160051c600080516020610a97833981519152019060208310610427575b601f0160051c600080516020610a9783398151915201905b81811061041b5750610326565b6000815560010161040e565b600080516020610a9783398151915291506103f6565b634e487b7160e01b600052604160045260246000fd5b3461014b57604036600319011261014b5761047961046f610920565b60243590336109a8565b602060405160018152f35b3461014b57600036600319011261014b5760405160006007546104a68161094c565b808452906001811690811561020957506001146104cd576101a68361019a81850382610986565b60076000908152600080516020610a97833981519152939250905b8082106105005750909150810160200161019a61018a565b9192600181602092548385880101520191019092916104e8565b3461014b57600036600319011261014b57604051600060045461053c8161094c565b80845290600181169081156102095750600114610563576101a68361019a81850382610986565b600460009081527f8a35acfbc15ff81a39ae7d344fd709f28e8600b4aa8c65c6b64bfe7fe36bd19b939250905b8082106105a85750909150810160200161019a61018a565b919260018160209254838588010152019101909291610590565b3461014b57600036600319011261014b576005546040516001600160a01b039091168152602090f35b3461014b57600036600319011261014b57610604610a6d565b600580546001600160a01b031981169091556000906001600160a01b03167f8be0079c531659141344cd1fd0a4f28419497f9722a3daafe3b4186f6b6457e08280a3005b3461014b57602036600319011261014b576001600160a01b03610669610920565b1660005260006020526020604060002054604051908152f35b3461014b57600036600319011261014b57602060405160128152f35b3461014b57606036600319011261014b576106b7610920565b6106bf610936565b6001600160a01b03821660008181526001602090815260408083203384529091529020549092604435929160001981106106ff575b5061047993506109a8565b83811061076e57841561075857331561074257610479946000526001602052604060002060018060a01b03331660005260205283604060002091039055846106f4565b634a1406b160e11b600052600060045260246000fd5b63e602df0560e01b600052600060045260246000fd5b8390637dc7a0d960e11b6000523360045260245260445260646000fd5b3461014b57600036600319011261014b576020600254604051908152f35b3461014b57604036600319011261014b576107c2610920565b602435903315610758576001600160a01b031690811561074257336000526001602052604060002082600052602052806040600020556040519081527f8c5be1e5ebec7d5bd14f71427d1e84f3dd0314c0f7b2291e5b200ac8c7c3b92560203392a3602060405160018152f35b3461014b57600036600319011261014b5760405160006003546108518161094c565b80845290600181169081156102095750600114610878576101a68361019a81850382610986565b600360009081527fc2575a0e9e593c00f959f8c92f12db2869c3395a3b0502d05e2516446f71f85b939250905b8082106108bd5750909150810160200161019a61018a565b9192600181602092548385880101520191019092916108a5565b91909160208152825180602083015260005b81811061090a575060409293506000838284010152601f8019910116010190565b80602080928701015160408286010152016108e9565b600435906001600160a01b038216820361014b57565b602435906001600160a01b038216820361014b57565b90600182811c9216801561097c575b602083101461096657565b634e487b7160e01b600052602260045260246000fd5b91607f169161095b565b90601f8019910116810190811067ffffffffffffffff82111761043d57604052565b6001600160a01b0316908115610a57576001600160a01b0316918215610a41576000828152806020526040812054828110610a275791604082827fddf252ad1be2c89b69c2b068fc378daa952ba7f163c4a11628f55a4df523b3ef958760209652828652038282205586815280845220818154019055604051908152a3565b916064928463391434e360e21b8452600452602452604452fd5b63ec442f0560e01b600052600060045260246000fd5b634b637e8f60e11b600052600060045260246000fd5b6005546001600160a01b03163303610a8157565b63118cdaa760e01b6000523360045260246000fdfea66cc928b5edb82af9bd49922954155ab7b0942694bea4ce44661d9a8736c688a264697066735822122044f3b23a7d40362906dba3dc234efbf5311d8d609970a76d118f8b779d443e1764736f6c634300081c0033a2646970667358221220f88e2ed288ddb55f61a72d304afb989a151b902e6bc077fdbbf5a0b03aae9da464736f6c634300081c0033","opcodes":"PUSH1 0xA0 CALLVALUE PUSH2 0x11B JUMPI PUSH1 0x1F PUSH2 0x26CC CODESIZE DUP2 SWAP1 SUB SWAP2 DUP3 ADD PUSH1 0x1F NOT AND DUP4 ADD SWAP2 PUSH1 0x1 PUSH1 0x1 PUSH1 0x40 SHL SUB DUP4 GT DUP5 DUP5 LT OR PUSH2 0x120 JUMPI DUP1 DUP5 SWAP3 PUSH1 0x40 SWAP5 DUP6 MSTORE DUP4 CODECOPY DUP2 ADD SUB SLT PUSH2 0x11B JUMPI DUP1 MLOAD PUSH1 0x1 PUSH1 0x1 PUSH1 0xA0 SHL SUB DUP2 AND SWAP2 SWAP1 DUP3 SWAP1 SUB PUSH2 0x11B JUMPI PUSH1 0x20 ADD MLOAD SWAP1 PUSH1 0x1 PUSH1 0x1 PUSH1 0xA0 SHL SUB DUP3 AND DUP3 SUB PUSH2 0x11B JUMPI PUSH1 0x1 PUSH1 0x1 PUSH1 0xA0 SHL SUB PUSH2 0x77 PUSH2 0x136 JUMP JUMPDEST AND DUP1 ISZERO PUSH2 0x105 JUMPI PUSH1 0x0 SLOAD SWAP1 PUSH1 0x40 MLOAD SWAP4 DUP2 PUSH1 0x1 DUP1 PUSH1 0xA0 SHL SUB DUP5 AND PUSH32 0x8BE0079C531659141344CD1FD0A4F28419497F9722A3DAAFE3B4186F6B6457E0 PUSH1 0x0 DUP1 LOG3 PUSH1 0x80 MSTORE PUSH1 0x1 PUSH1 0x1 PUSH1 0xB0 SHL SUB NOT SWAP1 SWAP2 AND OR PUSH1 0xF PUSH1 0xA1 SHL OR PUSH1 0x0 SSTORE PUSH1 0x1 DUP1 SLOAD PUSH1 0x1 PUSH1 0x1 PUSH1 0xA0 SHL SUB NOT AND SWAP2 SWAP1 SWAP2 OR SWAP1 SSTORE PUSH2 0x2544 SWAP1 DUP2 PUSH2 0x188 DUP3 CODECOPY PUSH1 0x80 MLOAD DUP2 DUP2 DUP2 PUSH2 0x623 ADD MSTORE DUP2 DUP2 PUSH2 0x7EA ADD MSTORE PUSH2 0x1238 ADD MSTORE RETURN JUMPDEST PUSH4 0x1E4FBDF7 PUSH1 0xE0 SHL PUSH1 0x0 MSTORE PUSH1 0x0 PUSH1 0x4 MSTORE PUSH1 0x24 PUSH1 0x0 REVERT JUMPDEST PUSH1 0x0 DUP1 REVERT JUMPDEST PUSH4 0x4E487B71 PUSH1 0xE0 SHL PUSH1 0x0 MSTORE PUSH1 0x41 PUSH1 0x4 MSTORE PUSH1 0x24 PUSH1 0x0 REVERT JUMPDEST PUSH1 0x80 MLOAD PUSH1 0x1 PUSH1 0x1 PUSH1 0xA0 SHL SUB AND CALLER EQ DUP1 PUSH2 0x17C JUMPI JUMPDEST ISZERO PUSH2 0x178 JUMPI PUSH1 0x13 NOT CALLDATASIZE ADD CALLDATASIZE DUP2 GT PUSH2 0x162 JUMPI CALLDATALOAD PUSH1 0x60 SHR SWAP1 JUMP JUMPDEST PUSH4 0x4E487B71 PUSH1 0xE0 SHL PUSH1 0x0 MSTORE PUSH1 0x11 PUSH1 0x4 MSTORE PUSH1 0x24 PUSH1 0x0 REVERT JUMPDEST CALLER SWAP1 JUMP JUMPDEST POP PUSH1 0x14 CALLDATASIZE LT ISZERO PUSH2 0x14A JUMP INVALID PUSH1 0x80 PUSH1 0x40 MSTORE PUSH1 0x4 CALLDATASIZE LT ISZERO PUSH2 0x12 JUMPI PUSH1 0x0 DUP1 REVERT JUMPDEST PUSH1 0x0 CALLDATALOAD PUSH1 0xE0 SHR DUP1 PUSH4 0x24EA25F EQ PUSH2 0xBC5 JUMPI DUP1 PUSH4 0x43CF8F40 EQ PUSH2 0x8D3 JUMPI DUP1 PUSH4 0x46904840 EQ PUSH2 0x8AA JUMPI DUP1 PUSH4 0x4FF69E83 EQ PUSH2 0x81C JUMPI DUP1 PUSH4 0x572B6C05 EQ PUSH2 0x7BF JUMPI DUP1 PUSH4 0x70DFD4C7 EQ PUSH2 0x6AB JUMPI DUP1 PUSH4 0x715018A6 EQ PUSH2 0x652 JUMPI DUP1 PUSH4 0x7DA0A877 EQ PUSH2 0x60D JUMPI DUP1 PUSH4 0x8DA5CB5B EQ PUSH2 0x5E4 JUMPI DUP1 PUSH4 0x8F425B60 EQ PUSH2 0x537 JUMPI DUP1 PUSH4 0x9BE8F2A6 EQ PUSH2 0x467 JUMPI DUP1 PUSH4 0xAFB06952 EQ PUSH2 0x3B5 JUMPI DUP1 PUSH4 0xCADCE7F0 EQ PUSH2 0x2A4 JUMPI DUP1 PUSH4 0xCDD78CFC EQ PUSH2 0x27F JUMPI DUP1 PUSH4 0xD03B47F4 EQ PUSH2 0x21A JUMPI DUP1 PUSH4 0xF160D369 EQ PUSH2 0x169 JUMPI PUSH4 0xF2FDE38B EQ PUSH2 0xD7 JUMPI PUSH1 0x0 DUP1 REVERT JUMPDEST CALLVALUE PUSH2 0x164 JUMPI PUSH1 0x20 CALLDATASIZE PUSH1 0x3 NOT ADD SLT PUSH2 0x164 JUMPI PUSH1 0x4 CALLDATALOAD PUSH1 0x1 PUSH1 0x1 PUSH1 0xA0 SHL SUB DUP2 AND SWAP1 DUP2 SWAP1 SUB PUSH2 0x164 JUMPI PUSH2 0x105 PUSH2 0x11ED JUMP JUMPDEST DUP1 ISZERO PUSH2 0x14E JUMPI PUSH1 0x0 DUP1 SLOAD PUSH1 0x1 PUSH1 0x1 PUSH1 0xA0 SHL SUB NOT DUP2 AND DUP4 OR DUP3 SSTORE PUSH1 0x1 PUSH1 0x1 PUSH1 0xA0 SHL SUB AND SWAP1 PUSH32 0x8BE0079C531659141344CD1FD0A4F28419497F9722A3DAAFE3B4186F6B6457E0 SWAP1 DUP1 LOG3 STOP JUMPDEST PUSH4 0x1E4FBDF7 PUSH1 0xE0 SHL PUSH1 0x0 MSTORE PUSH1 0x0 PUSH1 0x4 MSTORE PUSH1 0x24 PUSH1 0x0 REVERT JUMPDEST PUSH1 0x0 DUP1 REVERT JUMPDEST CALLVALUE PUSH2 0x164 JUMPI PUSH1 0x20 CALLDATASIZE PUSH1 0x3 NOT ADD SLT PUSH2 0x164 JUMPI PUSH1 0x4 CALLDATALOAD PUSH1 0x1 PUSH1 0x1 PUSH1 0xA0 SHL SUB DUP2 AND SWAP1 DUP2 SWAP1 SUB PUSH2 0x164 JUMPI PUSH2 0x197 PUSH2 0x11ED JUMP JUMPDEST DUP1 ISZERO PUSH2 0x1E3 JUMPI PUSH1 0x20 DUP2 PUSH32 0x7A7B5A0A132F9E0581EB8527F66EAE9EE89C2A3E79D4AC7E41A1F1F4D48A7FC2 SWAP3 PUSH12 0xFFFFFFFFFFFFFFFFFFFFFFFF PUSH1 0xA0 SHL PUSH1 0x1 SLOAD AND OR PUSH1 0x1 SSTORE PUSH1 0x40 MLOAD SWAP1 DUP2 MSTORE LOG1 STOP JUMPDEST PUSH1 0x40 MLOAD PUSH3 0x461BCD PUSH1 0xE5 SHL DUP2 MSTORE PUSH1 0x20 PUSH1 0x4 DUP3 ADD MSTORE PUSH1 0xF PUSH1 0x24 DUP3 ADD MSTORE PUSH15 0x496E76616C69642061646472657373 PUSH1 0x88 SHL PUSH1 0x44 DUP3 ADD MSTORE PUSH1 0x64 SWAP1 REVERT JUMPDEST CALLVALUE PUSH2 0x164 JUMPI PUSH1 0x20 CALLDATASIZE PUSH1 0x3 NOT ADD SLT PUSH2 0x164 JUMPI PUSH1 0x4 CALLDATALOAD PUSH1 0x4 SLOAD DUP2 LT ISZERO PUSH2 0x164 JUMPI PUSH2 0x241 SWAP1 PUSH2 0xECA JUMP JUMPDEST PUSH2 0x269 JUMPI PUSH2 0x251 PUSH2 0x265 SWAP2 PUSH2 0xE26 JUMP JUMPDEST PUSH1 0x40 MLOAD SWAP2 DUP3 SWAP2 PUSH1 0x20 DUP4 MSTORE PUSH1 0x20 DUP4 ADD SWAP1 PUSH2 0xD67 JUMP JUMPDEST SUB SWAP1 RETURN JUMPDEST PUSH4 0x4E487B71 PUSH1 0xE0 SHL PUSH1 0x0 MSTORE PUSH1 0x0 PUSH1 0x4 MSTORE PUSH1 0x24 PUSH1 0x0 REVERT JUMPDEST CALLVALUE PUSH2 0x164 JUMPI PUSH1 0x0 CALLDATASIZE PUSH1 0x3 NOT ADD SLT PUSH2 0x164 JUMPI PUSH1 0x20 PUSH2 0xFFFF PUSH1 0x0 SLOAD PUSH1 0xA0 SHR AND PUSH1 0x40 MLOAD SWAP1 DUP2 MSTORE RETURN JUMPDEST CALLVALUE PUSH2 0x164 JUMPI PUSH1 0x40 CALLDATASIZE PUSH1 0x3 NOT ADD SLT PUSH2 0x164 JUMPI PUSH1 0x4 CALLDATALOAD PUSH1 0x1 PUSH1 0x1 PUSH1 0x40 SHL SUB DUP2 GT PUSH2 0x164 JUMPI PUSH2 0x2D4 SWAP1 CALLDATASIZE SWAP1 PUSH1 0x4 ADD PUSH2 0xCFD JUMP JUMPDEST PUSH1 0x24 CALLDATALOAD PUSH1 0x1 PUSH1 0x1 PUSH1 0x40 SHL SUB DUP2 GT PUSH2 0x164 JUMPI PUSH32 0xA13FADC1C5C334EA6E145084F409555B4012C16E89CA751FB310AAD5CCC587CC SWAP2 PUSH2 0x3B0 PUSH2 0x31B PUSH2 0x3A2 SWAP4 CALLDATASIZE SWAP1 PUSH1 0x4 ADD PUSH2 0xCFD JUMP JUMPDEST PUSH2 0x38E DUP2 PUSH1 0x5 PUSH2 0x37E PUSH1 0x20 PUSH1 0x40 MLOAD PUSH2 0x36D DUP10 MLOAD SWAP2 PUSH1 0x2 DUP5 DUP13 ADD SWAP4 PUSH2 0x340 DUP2 DUP5 DUP8 PUSH2 0xD44 JUMP JUMPDEST PUSH1 0x3 SWAP1 DUP4 ADD SWAP1 DUP2 MSTORE DUP3 SWAP1 SUB DUP6 ADD SWAP1 SWAP2 KECCAK256 ADD SLOAD PUSH1 0x1 PUSH1 0x1 PUSH1 0xA0 SHL SUB SWAP1 DUP2 AND SWAP1 PUSH2 0x366 PUSH2 0x1235 JUMP JUMPDEST AND EQ PUSH2 0xEFB JUMP JUMPDEST PUSH1 0x40 MLOAD DUP1 SWAP4 DUP2 SWAP3 DUP12 MLOAD SWAP3 DUP4 SWAP2 PUSH2 0xD44 JUMP JUMPDEST DUP2 ADD PUSH1 0x3 DUP2 MSTORE SUB ADD SWAP1 KECCAK256 ADD PUSH2 0xF61 JUMP JUMPDEST PUSH1 0x40 MLOAD SWAP4 DUP5 SWAP4 PUSH1 0x40 DUP6 MSTORE PUSH1 0x40 DUP6 ADD SWAP1 PUSH2 0xD67 JUMP JUMPDEST SWAP1 DUP4 DUP3 SUB PUSH1 0x20 DUP6 ADD MSTORE PUSH2 0xD67 JUMP JUMPDEST SUB SWAP1 LOG1 STOP JUMPDEST CALLVALUE PUSH2 0x164 JUMPI PUSH1 0x20 CALLDATASIZE PUSH1 0x3 NOT ADD SLT PUSH2 0x164 JUMPI PUSH1 0x4 CALLDATALOAD PUSH2 0xFFFF DUP2 AND SWAP1 DUP2 DUP2 SUB PUSH2 0x164 JUMPI PUSH2 0x3DE PUSH2 0x11ED JUMP JUMPDEST PUSH1 0x64 DUP3 GT PUSH2 0x433 JUMPI PUSH1 0x0 DUP1 SLOAD PUSH2 0xFFFF PUSH1 0xA0 SHL NOT AND PUSH1 0xA0 SWAP3 SWAP1 SWAP3 SHL PUSH2 0xFFFF PUSH1 0xA0 SHL AND SWAP2 SWAP1 SWAP2 OR SWAP1 SSTORE PUSH1 0x40 MLOAD SWAP1 DUP2 MSTORE PUSH32 0x8043734007C449F33C5EC8CB55F80415B9BED289DE65701AF55E6BE91DA1E7A1 SWAP1 PUSH1 0x20 SWAP1 LOG1 STOP JUMPDEST PUSH1 0x40 MLOAD PUSH3 0x461BCD PUSH1 0xE5 SHL DUP2 MSTORE PUSH1 0x20 PUSH1 0x4 DUP3 ADD MSTORE PUSH1 0xC PUSH1 0x24 DUP3 ADD MSTORE PUSH12 0x8CCACA40E8DEDE40D0D2CED PUSH1 0xA3 SHL PUSH1 0x44 DUP3 ADD MSTORE PUSH1 0x64 SWAP1 REVERT JUMPDEST CALLVALUE PUSH2 0x164 JUMPI PUSH1 0x20 CALLDATASIZE PUSH1 0x3 NOT ADD SLT PUSH2 0x164 JUMPI PUSH1 0x4 CALLDATALOAD PUSH1 0x1 PUSH1 0x1 PUSH1 0x40 SHL SUB DUP2 GT PUSH2 0x164 JUMPI PUSH2 0x4B2 PUSH1 0x20 PUSH2 0x49F PUSH2 0x513 SWAP4 CALLDATASIZE SWAP1 PUSH1 0x4 ADD PUSH2 0xCFD JUMP JUMPDEST DUP2 PUSH1 0x40 MLOAD SWAP4 DUP3 DUP6 DUP1 SWAP5 MLOAD SWAP4 DUP5 SWAP3 ADD PUSH2 0xD44 JUMP JUMPDEST DUP2 ADD PUSH1 0x3 DUP2 MSTORE SUB ADD SWAP1 KECCAK256 PUSH2 0x265 PUSH2 0x4C8 DUP3 PUSH2 0xE26 JUMP JUMPDEST SWAP2 PUSH1 0x1 DUP1 PUSH1 0xA0 SHL SUB PUSH1 0x1 DUP3 ADD SLOAD AND SWAP1 PUSH1 0x1 DUP1 PUSH1 0xA0 SHL SUB PUSH1 0x2 DUP3 ADD SLOAD AND SWAP1 PUSH1 0x3 DUP2 ADD SLOAD PUSH2 0x4FE PUSH1 0x5 PUSH1 0xFF PUSH1 0x4 DUP6 ADD SLOAD AND SWAP4 ADD PUSH2 0xE26 JUMP JUMPDEST SWAP3 PUSH1 0x40 MLOAD SWAP8 DUP9 SWAP8 PUSH1 0xC0 DUP10 MSTORE PUSH1 0xC0 DUP10 ADD SWAP1 PUSH2 0xD67 JUMP JUMPDEST SWAP5 PUSH1 0x20 DUP9 ADD MSTORE PUSH1 0x40 DUP8 ADD MSTORE PUSH1 0x60 DUP7 ADD MSTORE ISZERO ISZERO PUSH1 0x80 DUP6 ADD MSTORE DUP4 DUP3 SUB PUSH1 0xA0 DUP6 ADD MSTORE PUSH2 0xD67 JUMP JUMPDEST CALLVALUE PUSH2 0x164 JUMPI PUSH1 0x20 CALLDATASIZE PUSH1 0x3 NOT ADD SLT PUSH2 0x164 JUMPI PUSH1 0x4 CALLDATALOAD PUSH1 0x1 PUSH1 0x1 PUSH1 0x40 SHL SUB DUP2 GT PUSH2 0x164 JUMPI PUSH2 0x3B0 PUSH2 0x58B PUSH32 0x2516EF5ED12C60DDFF5A3CA2EA3127F5C811F520289B143E2AB7CAB822B5167F SWAP3 CALLDATASIZE SWAP1 PUSH1 0x4 ADD PUSH2 0xCFD JUMP JUMPDEST PUSH1 0x4 PUSH2 0x5BD PUSH1 0x20 PUSH1 0x40 MLOAD PUSH2 0x5AC DUP6 MLOAD SWAP2 PUSH1 0x2 DUP5 DUP9 ADD SWAP4 PUSH2 0x340 DUP2 DUP5 DUP8 PUSH2 0xD44 JUMP JUMPDEST PUSH1 0x40 MLOAD DUP1 SWAP4 DUP2 SWAP3 DUP8 MLOAD SWAP3 DUP4 SWAP2 PUSH2 0xD44 JUMP JUMPDEST DUP2 ADD PUSH1 0x3 DUP2 MSTORE SUB ADD SWAP1 KECCAK256 ADD PUSH1 0xFF NOT DUP2 SLOAD AND SWAP1 SSTORE PUSH1 0x40 MLOAD SWAP2 DUP3 SWAP2 PUSH1 0x20 DUP4 MSTORE PUSH1 0x20 DUP4 ADD SWAP1 PUSH2 0xD67 JUMP JUMPDEST CALLVALUE PUSH2 0x164 JUMPI PUSH1 0x0 CALLDATASIZE PUSH1 0x3 NOT ADD SLT PUSH2 0x164 JUMPI PUSH1 0x0 SLOAD PUSH1 0x40 MLOAD PUSH1 0x1 PUSH1 0x1 PUSH1 0xA0 SHL SUB SWAP1 SWAP2 AND DUP2 MSTORE PUSH1 0x20 SWAP1 RETURN JUMPDEST CALLVALUE PUSH2 0x164 JUMPI PUSH1 0x0 CALLDATASIZE PUSH1 0x3 NOT ADD SLT PUSH2 0x164 JUMPI PUSH1 0x40 MLOAD PUSH32 0x0 PUSH1 0x1 PUSH1 0x1 PUSH1 0xA0 SHL SUB AND DUP2 MSTORE PUSH1 0x20 SWAP1 RETURN JUMPDEST CALLVALUE PUSH2 0x164 JUMPI PUSH1 0x0 CALLDATASIZE PUSH1 0x3 NOT ADD SLT PUSH2 0x164 JUMPI PUSH2 0x66B PUSH2 0x11ED JUMP JUMPDEST PUSH1 0x0 DUP1 SLOAD PUSH1 0x1 PUSH1 0x1 PUSH1 0xA0 SHL SUB NOT DUP2 AND DUP3 SSTORE PUSH1 0x1 PUSH1 0x1 PUSH1 0xA0 SHL SUB AND PUSH32 0x8BE0079C531659141344CD1FD0A4F28419497F9722A3DAAFE3B4186F6B6457E0 DUP3 DUP1 LOG3 STOP JUMPDEST CALLVALUE PUSH2 0x164 JUMPI PUSH1 0x0 CALLDATASIZE PUSH1 0x3 NOT ADD SLT PUSH2 0x164 JUMPI PUSH1 0x0 DUP1 PUSH1 0x4 SLOAD SWAP1 JUMPDEST DUP2 DUP2 LT PUSH2 0x78B JUMPI POP PUSH2 0x6D5 DUP3 PUSH2 0x106C JUMP JUMPDEST SWAP2 PUSH2 0x6E3 PUSH1 0x40 MLOAD SWAP4 DUP5 PUSH2 0xCC1 JUMP JUMPDEST DUP1 DUP4 MSTORE PUSH2 0x6F2 PUSH1 0x1F NOT SWAP2 PUSH2 0x106C JUMP JUMPDEST ADD PUSH1 0x0 JUMPDEST DUP2 DUP2 LT PUSH2 0x77A JUMPI POP POP PUSH1 0x0 DUP1 JUMPDEST DUP3 DUP2 LT PUSH2 0x718 JUMPI PUSH1 0x40 MLOAD DUP1 PUSH2 0x265 DUP7 DUP3 PUSH2 0xD8C JUMP JUMPDEST PUSH1 0xFF PUSH1 0x4 PUSH2 0x72E PUSH2 0x728 DUP5 PUSH2 0xECA JUMP JUMPDEST POP PUSH2 0x1083 JUMP JUMPDEST ADD SLOAD AND PUSH2 0x73E JUMPI JUMPDEST PUSH1 0x1 ADD PUSH2 0x703 JUMP JUMPDEST SWAP1 PUSH2 0x772 PUSH1 0x1 SWAP2 PUSH2 0x757 PUSH2 0x751 DUP6 PUSH2 0xECA JUMP JUMPDEST POP PUSH2 0xE26 JUMP JUMPDEST PUSH2 0x761 DUP3 DUP9 PUSH2 0x1111 JUMP JUMPDEST MSTORE PUSH2 0x76C DUP2 DUP8 PUSH2 0x1111 JUMP JUMPDEST POP PUSH2 0xF3C JUMP JUMPDEST SWAP2 SWAP1 POP PUSH2 0x736 JUMP JUMPDEST DUP1 PUSH1 0x60 PUSH1 0x20 DUP1 SWAP4 DUP8 ADD ADD MSTORE ADD PUSH2 0x6F6 JUMP JUMPDEST PUSH1 0xFF PUSH1 0x4 PUSH2 0x79B PUSH2 0x728 DUP5 PUSH2 0xECA JUMP JUMPDEST ADD SLOAD AND PUSH2 0x7AB JUMPI JUMPDEST PUSH1 0x1 ADD PUSH2 0x6C4 JUMP JUMPDEST SWAP2 PUSH2 0x7B7 PUSH1 0x1 SWAP2 PUSH2 0xF3C JUMP JUMPDEST SWAP3 SWAP1 POP PUSH2 0x7A3 JUMP JUMPDEST CALLVALUE PUSH2 0x164 JUMPI PUSH1 0x20 CALLDATASIZE PUSH1 0x3 NOT ADD SLT PUSH2 0x164 JUMPI PUSH1 0x4 CALLDATALOAD PUSH1 0x1 PUSH1 0x1 PUSH1 0xA0 SHL SUB DUP2 AND SWAP1 DUP2 SWAP1 SUB PUSH2 0x164 JUMPI PUSH1 0x40 MLOAD PUSH32 0x0 PUSH1 0x1 PUSH1 0x1 PUSH1 0xA0 SHL SUB AND SWAP1 SWAP2 EQ DUP2 MSTORE PUSH1 0x20 SWAP1 RETURN JUMPDEST CALLVALUE PUSH2 0x164 JUMPI PUSH1 0x0 CALLDATASIZE PUSH1 0x3 NOT ADD SLT PUSH2 0x164 JUMPI PUSH1 0x4 SLOAD PUSH2 0x839 DUP2 PUSH2 0x106C JUMP JUMPDEST SWAP1 PUSH2 0x847 PUSH1 0x40 MLOAD SWAP3 DUP4 PUSH2 0xCC1 JUMP JUMPDEST DUP1 DUP3 MSTORE PUSH1 0x20 DUP3 ADD PUSH1 0x4 PUSH1 0x0 MSTORE PUSH32 0x8A35ACFBC15FF81A39AE7D344FD709F28E8600B4AA8C65C6B64BFE7FE36BD19B PUSH1 0x0 SWAP2 JUMPDEST DUP4 DUP4 LT PUSH2 0x88D JUMPI PUSH1 0x40 MLOAD DUP1 PUSH2 0x265 DUP8 DUP3 PUSH2 0xD8C JUMP JUMPDEST PUSH1 0x1 PUSH1 0x20 DUP2 SWAP3 PUSH2 0x89C DUP6 PUSH2 0xE26 JUMP JUMPDEST DUP2 MSTORE ADD SWAP3 ADD SWAP3 ADD SWAP2 SWAP1 PUSH2 0x878 JUMP JUMPDEST CALLVALUE PUSH2 0x164 JUMPI PUSH1 0x0 CALLDATASIZE PUSH1 0x3 NOT ADD SLT PUSH2 0x164 JUMPI PUSH1 0x1 SLOAD PUSH1 0x40 MLOAD PUSH1 0x1 PUSH1 0x1 PUSH1 0xA0 SHL SUB SWAP1 SWAP2 AND DUP2 MSTORE PUSH1 0x20 SWAP1 RETURN JUMPDEST CALLVALUE PUSH2 0x164 JUMPI PUSH1 0x80 CALLDATASIZE PUSH1 0x3 NOT ADD SLT PUSH2 0x164 JUMPI PUSH1 0x4 CALLDATALOAD PUSH1 0x1 PUSH1 0x1 PUSH1 0x40 SHL SUB DUP2 GT PUSH2 0x164 JUMPI PUSH2 0x903 SWAP1 CALLDATASIZE SWAP1 PUSH1 0x4 ADD PUSH2 0xCFD JUMP JUMPDEST PUSH1 0x44 CALLDATALOAD PUSH1 0x1 PUSH1 0x1 PUSH1 0x40 SHL SUB DUP2 GT PUSH2 0x164 JUMPI PUSH2 0x922 SWAP1 CALLDATASIZE SWAP1 PUSH1 0x4 ADD PUSH2 0xCFD JUMP JUMPDEST PUSH1 0x64 CALLDATALOAD PUSH1 0x1 PUSH1 0x1 PUSH1 0x40 SHL SUB DUP2 GT PUSH2 0x164 JUMPI PUSH2 0x941 SWAP1 CALLDATASIZE SWAP1 PUSH1 0x4 ADD PUSH2 0xCFD JUMP JUMPDEST SWAP2 PUSH2 0x94A PUSH2 0x1235 JUMP JUMPDEST PUSH2 0x961 PUSH2 0x958 PUSH1 0x2 SLOAD PUSH2 0xF3C JUMP JUMPDEST DUP1 PUSH1 0x2 SSTORE PUSH2 0x1125 JUMP JUMPDEST SWAP1 PUSH1 0x40 MLOAD SWAP4 PUSH2 0x99F PUSH1 0x24 DUP7 PUSH1 0x20 DUP2 ADD SWAP6 PUSH4 0x50524F5 PUSH1 0xE4 SHL DUP8 MSTORE PUSH2 0x98E DUP2 MLOAD DUP1 SWAP3 PUSH1 0x20 DUP7 DUP7 ADD SWAP2 ADD PUSH2 0xD44 JUMP JUMPDEST DUP2 ADD SUB ADD PUSH1 0x1F NOT DUP2 ADD DUP8 MSTORE DUP7 PUSH2 0xCC1 JUMP JUMPDEST PUSH1 0x40 MLOAD SWAP2 PUSH2 0x1280 SWAP2 DUP3 DUP5 ADD SWAP1 DUP5 DUP3 LT PUSH1 0x1 PUSH1 0x1 PUSH1 0x40 SHL SUB DUP4 GT OR PUSH2 0xBA3 JUMPI PUSH1 0x80 SWAP9 PUSH2 0x9FE PUSH2 0xA0C SWAP3 DUP8 SWAP7 PUSH2 0x128F DUP9 CODECOPY PUSH1 0xA0 DUP6 MSTORE PUSH2 0x9F0 PUSH2 0x9E2 PUSH1 0xA0 DUP8 ADD DUP14 PUSH2 0xD67 JUMP JUMPDEST DUP7 DUP2 SUB PUSH1 0x20 DUP9 ADD MSTORE DUP12 PUSH2 0xD67 JUMP JUMPDEST SWAP1 DUP6 DUP3 SUB PUSH1 0x40 DUP8 ADD MSTORE PUSH2 0xD67 JUMP JUMPDEST SWAP1 DUP4 DUP3 SUB PUSH1 0x60 DUP6 ADD MSTORE PUSH2 0xD67 JUMP JUMPDEST PUSH1 0x1 PUSH1 0x1 PUSH1 0xA0 SHL SUB SWAP1 SWAP3 AND SWAP8 ADD DUP8 SWAP1 MSTORE SUB SWAP1 PUSH1 0x0 CREATE DUP1 ISZERO PUSH2 0xBB9 JUMPI PUSH1 0x40 MLOAD PUSH1 0x1 PUSH1 0x1 PUSH1 0xA0 SHL SUB SWAP2 SWAP1 SWAP2 AND SWAP3 PUSH1 0xC0 DUP3 ADD SWAP1 PUSH1 0x1 PUSH1 0x1 PUSH1 0x40 SHL SUB DUP3 GT DUP4 DUP4 LT OR PUSH2 0xBA3 JUMPI PUSH2 0xB08 DUP7 PUSH2 0xB10 SWAP6 PUSH1 0x5 SWAP5 PUSH1 0x40 MSTORE DUP2 DUP7 MSTORE PUSH1 0x20 DUP7 ADD DUP9 DUP2 MSTORE PUSH1 0x40 DUP8 ADD SWAP1 DUP12 DUP3 MSTORE PUSH2 0xAB3 PUSH2 0xAA1 PUSH1 0x20 PUSH1 0x60 DUP12 ADD SWAP6 PUSH1 0x24 CALLDATALOAD DUP8 MSTORE PUSH1 0x80 DUP13 ADD SWAP8 PUSH1 0x1 DUP10 MSTORE PUSH1 0xA0 DUP14 ADD SWAP11 DUP12 MSTORE PUSH1 0x40 MLOAD SWAP4 DUP5 SWAP3 DUP4 SWAP3 MLOAD SWAP3 DUP4 SWAP2 PUSH2 0xD44 JUMP JUMPDEST DUP2 ADD PUSH1 0x3 DUP2 MSTORE SUB ADD SWAP1 KECCAK256 SWAP9 MLOAD DUP10 PUSH2 0xF61 JUMP JUMPDEST MLOAD PUSH1 0x1 DUP9 ADD DUP1 SLOAD PUSH1 0x1 PUSH1 0x1 PUSH1 0xA0 SHL SUB SWAP3 DUP4 AND PUSH1 0x1 PUSH1 0x1 PUSH1 0xA0 SHL SUB NOT SWAP2 DUP3 AND OR SWAP1 SWAP2 SSTORE SWAP2 MLOAD PUSH1 0x2 DUP10 ADD DUP1 SLOAD SWAP2 SWAP1 SWAP3 AND SWAP3 AND SWAP2 SWAP1 SWAP2 OR SWAP1 SSTORE MLOAD PUSH1 0x3 DUP7 ADD SSTORE MLOAD PUSH1 0x4 DUP6 ADD DUP1 SLOAD PUSH1 0xFF NOT AND SWAP2 ISZERO ISZERO PUSH1 0xFF AND SWAP2 SWAP1 SWAP2 OR SWAP1 SSTORE JUMP JUMPDEST MLOAD SWAP2 ADD PUSH2 0xF61 JUMP JUMPDEST PUSH1 0x4 SLOAD PUSH9 0x10000000000000000 DUP2 LT ISZERO PUSH2 0xBA3 JUMPI DUP1 PUSH1 0x1 PUSH2 0xB34 SWAP3 ADD PUSH1 0x4 SSTORE PUSH2 0xECA JUMP JUMPDEST SWAP2 SWAP1 SWAP2 PUSH2 0x269 JUMPI PUSH2 0x265 SWAP4 PUSH2 0xB6A DUP5 PUSH32 0x4E1B971C2B915C91B64E085B7B743F653F2A4FA2832BDCA06A7D8449185F0DF1 SWAP5 PUSH2 0xF61 JUMP JUMPDEST PUSH1 0x40 MLOAD SWAP2 DUP3 SWAP2 PUSH1 0x60 DUP4 MSTORE PUSH2 0xB81 PUSH1 0x60 DUP5 ADD DUP8 PUSH2 0xD67 JUMP JUMPDEST SWAP2 PUSH1 0x20 DUP5 ADD MSTORE PUSH1 0x40 DUP4 ADD MSTORE SUB SWAP1 LOG1 PUSH1 0x40 MLOAD SWAP2 DUP3 SWAP2 PUSH1 0x20 DUP4 MSTORE PUSH1 0x20 DUP4 ADD SWAP1 PUSH2 0xD67 JUMP JUMPDEST PUSH4 0x4E487B71 PUSH1 0xE0 SHL PUSH1 0x0 MSTORE PUSH1 0x41 PUSH1 0x4 MSTORE PUSH1 0x24 PUSH1 0x0 REVERT JUMPDEST PUSH1 0x40 MLOAD RETURNDATASIZE PUSH1 0x0 DUP3 RETURNDATACOPY RETURNDATASIZE SWAP1 REVERT JUMPDEST CALLVALUE PUSH2 0x164 JUMPI PUSH1 0x60 CALLDATASIZE PUSH1 0x3 NOT ADD SLT PUSH2 0x164 JUMPI PUSH1 0x4 CALLDATALOAD PUSH1 0x1 PUSH1 0x1 PUSH1 0x40 SHL SUB DUP2 GT PUSH2 0x164 JUMPI PUSH2 0xBF5 SWAP1 CALLDATASIZE SWAP1 PUSH1 0x4 ADD PUSH2 0xCFD JUMP JUMPDEST PUSH1 0x44 CALLDATALOAD DUP1 ISZERO ISZERO SWAP2 PUSH1 0x24 CALLDATALOAD DUP4 DUP4 SUB PUSH2 0x164 JUMPI PUSH32 0x82A2BD5239115C5F4A384A1E0D3C2A744E28B15E55112577CFFBE41C8ED1AE43 SWAP4 PUSH2 0xC9D PUSH2 0xCB1 SWAP5 PUSH1 0x4 PUSH2 0xC81 PUSH1 0x20 PUSH1 0x40 MLOAD PUSH2 0xC50 DUP10 MLOAD SWAP2 PUSH1 0x2 DUP5 DUP13 ADD SWAP4 PUSH2 0x340 DUP2 DUP5 DUP8 PUSH2 0xD44 JUMP JUMPDEST DUP8 PUSH1 0x3 PUSH1 0x40 MLOAD DUP5 DUP2 DUP14 MLOAD PUSH2 0xC65 DUP2 DUP4 DUP10 PUSH2 0xD44 JUMP JUMPDEST DUP2 ADD DUP5 DUP2 MSTORE SUB ADD SWAP1 KECCAK256 ADD SSTORE PUSH1 0x40 MLOAD DUP1 SWAP4 DUP2 SWAP3 DUP12 MLOAD SWAP3 DUP4 SWAP2 PUSH2 0xD44 JUMP JUMPDEST DUP2 ADD PUSH1 0x3 DUP2 MSTORE SUB ADD SWAP1 KECCAK256 ADD SWAP1 PUSH1 0xFF DUP1 NOT DUP4 SLOAD AND SWAP2 ISZERO ISZERO AND OR SWAP1 SSTORE JUMP JUMPDEST PUSH1 0x40 MLOAD SWAP4 DUP5 SWAP4 PUSH1 0x60 DUP6 MSTORE PUSH1 0x60 DUP6 ADD SWAP1 PUSH2 0xD67 JUMP JUMPDEST SWAP2 PUSH1 0x20 DUP5 ADD MSTORE PUSH1 0x40 DUP4 ADD MSTORE SUB SWAP1 LOG1 STOP JUMPDEST SWAP1 PUSH1 0x1F DUP1 NOT SWAP2 ADD AND DUP2 ADD SWAP1 DUP2 LT PUSH1 0x1 PUSH1 0x1 PUSH1 0x40 SHL SUB DUP3 GT OR PUSH2 0xBA3 JUMPI PUSH1 0x40 MSTORE JUMP JUMPDEST PUSH1 0x1 PUSH1 0x1 PUSH1 0x40 SHL SUB DUP2 GT PUSH2 0xBA3 JUMPI PUSH1 0x1F ADD PUSH1 0x1F NOT AND PUSH1 0x20 ADD SWAP1 JUMP JUMPDEST DUP2 PUSH1 0x1F DUP3 ADD SLT ISZERO PUSH2 0x164 JUMPI DUP1 CALLDATALOAD SWAP1 PUSH2 0xD14 DUP3 PUSH2 0xCE2 JUMP JUMPDEST SWAP3 PUSH2 0xD22 PUSH1 0x40 MLOAD SWAP5 DUP6 PUSH2 0xCC1 JUMP JUMPDEST DUP3 DUP5 MSTORE PUSH1 0x20 DUP4 DUP4 ADD ADD GT PUSH2 0x164 JUMPI DUP2 PUSH1 0x0 SWAP3 PUSH1 0x20 DUP1 SWAP4 ADD DUP4 DUP7 ADD CALLDATACOPY DUP4 ADD ADD MSTORE SWAP1 JUMP JUMPDEST PUSH1 0x0 JUMPDEST DUP4 DUP2 LT PUSH2 0xD57 JUMPI POP POP PUSH1 0x0 SWAP2 ADD MSTORE JUMP JUMPDEST DUP2 DUP2 ADD MLOAD DUP4 DUP3 ADD MSTORE PUSH1 0x20 ADD PUSH2 0xD47 JUMP JUMPDEST SWAP1 PUSH1 0x20 SWAP2 PUSH2 0xD80 DUP2 MLOAD DUP1 SWAP3 DUP2 DUP6 MSTORE DUP6 DUP1 DUP7 ADD SWAP2 ADD PUSH2 0xD44 JUMP JUMPDEST PUSH1 0x1F ADD PUSH1 0x1F NOT AND ADD ADD SWAP1 JUMP JUMPDEST PUSH1 0x20 DUP2 ADD PUSH1 0x20 DUP3 MSTORE DUP3 MLOAD DUP1 SWAP2 MSTORE PUSH1 0x40 DUP3 ADD SWAP2 PUSH1 0x20 PUSH1 0x40 DUP4 PUSH1 0x5 SHL DUP4 ADD ADD SWAP5 ADD SWAP3 PUSH1 0x0 SWAP2 JUMPDEST DUP4 DUP4 LT PUSH2 0xDBF JUMPI POP POP POP POP POP SWAP1 JUMP JUMPDEST SWAP1 SWAP2 SWAP3 SWAP4 SWAP5 PUSH1 0x20 DUP1 PUSH2 0xDDD PUSH1 0x1 SWAP4 PUSH1 0x3F NOT DUP7 DUP3 SUB ADD DUP8 MSTORE DUP10 MLOAD PUSH2 0xD67 JUMP JUMPDEST SWAP8 ADD SWAP4 ADD SWAP4 ADD SWAP2 SWAP4 SWAP3 SWAP1 PUSH2 0xDB0 JUMP JUMPDEST SWAP1 PUSH1 0x1 DUP3 DUP2 SHR SWAP3 AND DUP1 ISZERO PUSH2 0xE1C JUMPI JUMPDEST PUSH1 0x20 DUP4 LT EQ PUSH2 0xE06 JUMPI JUMP JUMPDEST PUSH4 0x4E487B71 PUSH1 0xE0 SHL PUSH1 0x0 MSTORE PUSH1 0x22 PUSH1 0x4 MSTORE PUSH1 0x24 PUSH1 0x0 REVERT JUMPDEST SWAP2 PUSH1 0x7F AND SWAP2 PUSH2 0xDFB JUMP JUMPDEST SWAP1 PUSH1 0x40 MLOAD SWAP2 DUP3 PUSH1 0x0 DUP3 SLOAD SWAP3 PUSH2 0xE3A DUP5 PUSH2 0xDEC JUMP JUMPDEST DUP1 DUP5 MSTORE SWAP4 PUSH1 0x1 DUP2 AND SWAP1 DUP2 ISZERO PUSH2 0xEA8 JUMPI POP PUSH1 0x1 EQ PUSH2 0xE61 JUMPI JUMPDEST POP PUSH2 0xE5F SWAP3 POP SUB DUP4 PUSH2 0xCC1 JUMP JUMPDEST JUMP JUMPDEST SWAP1 POP PUSH1 0x0 SWAP3 SWAP2 SWAP3 MSTORE PUSH1 0x20 PUSH1 0x0 KECCAK256 SWAP1 PUSH1 0x0 SWAP2 JUMPDEST DUP2 DUP4 LT PUSH2 0xE8C JUMPI POP POP SWAP1 PUSH1 0x20 PUSH2 0xE5F SWAP3 DUP3 ADD ADD CODESIZE PUSH2 0xE52 JUMP JUMPDEST PUSH1 0x20 SWAP2 SWAP4 POP DUP1 PUSH1 0x1 SWAP2 SLOAD DUP4 DUP6 DUP10 ADD ADD MSTORE ADD SWAP2 ADD SWAP1 SWAP2 DUP5 SWAP3 PUSH2 0xE73 JUMP JUMPDEST SWAP1 POP PUSH1 0x20 SWAP3 POP PUSH2 0xE5F SWAP5 SWAP2 POP PUSH1 0xFF NOT AND DUP3 DUP5 ADD MSTORE ISZERO ISZERO PUSH1 0x5 SHL DUP3 ADD ADD CODESIZE PUSH2 0xE52 JUMP JUMPDEST PUSH1 0x4 SLOAD DUP2 LT ISZERO PUSH2 0xEE5 JUMPI PUSH1 0x4 PUSH1 0x0 MSTORE PUSH1 0x20 PUSH1 0x0 KECCAK256 ADD SWAP1 PUSH1 0x0 SWAP1 JUMP JUMPDEST PUSH4 0x4E487B71 PUSH1 0xE0 SHL PUSH1 0x0 MSTORE PUSH1 0x32 PUSH1 0x4 MSTORE PUSH1 0x24 PUSH1 0x0 REVERT JUMPDEST ISZERO PUSH2 0xF02 JUMPI JUMP JUMPDEST PUSH1 0x40 MLOAD PUSH3 0x461BCD PUSH1 0xE5 SHL DUP2 MSTORE PUSH1 0x20 PUSH1 0x4 DUP3 ADD MSTORE PUSH1 0x12 PUSH1 0x24 DUP3 ADD MSTORE PUSH18 0x2737BA10383937B832B93A3C9037BBB732B9 PUSH1 0x71 SHL PUSH1 0x44 DUP3 ADD MSTORE PUSH1 0x64 SWAP1 REVERT JUMPDEST PUSH1 0x0 NOT DUP2 EQ PUSH2 0xF4B JUMPI PUSH1 0x1 ADD SWAP1 JUMP JUMPDEST PUSH4 0x4E487B71 PUSH1 0xE0 SHL PUSH1 0x0 MSTORE PUSH1 0x11 PUSH1 0x4 MSTORE PUSH1 0x24 PUSH1 0x0 REVERT JUMPDEST SWAP2 SWAP1 SWAP2 DUP3 MLOAD PUSH1 0x1 PUSH1 0x1 PUSH1 0x40 SHL SUB DUP2 GT PUSH2 0xBA3 JUMPI PUSH2 0xF7E DUP3 SLOAD PUSH2 0xDEC JUMP JUMPDEST PUSH1 0x1F DUP2 GT PUSH2 0x1024 JUMPI JUMPDEST POP PUSH1 0x20 PUSH1 0x1F DUP3 GT PUSH1 0x1 EQ PUSH2 0xFC2 JUMPI DUP2 SWAP3 SWAP4 SWAP5 PUSH1 0x0 SWAP3 PUSH2 0xFB7 JUMPI JUMPDEST POP POP DUP2 PUSH1 0x1 SHL SWAP2 PUSH1 0x0 NOT SWAP1 PUSH1 0x3 SHL SHR NOT AND OR SWAP1 SSTORE JUMP JUMPDEST ADD MLOAD SWAP1 POP CODESIZE DUP1 PUSH2 0xFA1 JUMP JUMPDEST PUSH1 0x1F NOT DUP3 AND SWAP1 DUP4 PUSH1 0x0 MSTORE DUP1 PUSH1 0x0 KECCAK256 SWAP2 PUSH1 0x0 JUMPDEST DUP2 DUP2 LT PUSH2 0x100C JUMPI POP SWAP6 DUP4 PUSH1 0x1 SWAP6 SWAP7 SWAP8 LT PUSH2 0xFF3 JUMPI JUMPDEST POP POP POP DUP2 SHL ADD SWAP1 SSTORE JUMP JUMPDEST ADD MLOAD PUSH1 0x0 NOT PUSH1 0xF8 DUP5 PUSH1 0x3 SHL AND SHR NOT AND SWAP1 SSTORE CODESIZE DUP1 DUP1 PUSH2 0xFE9 JUMP JUMPDEST SWAP2 SWAP3 PUSH1 0x20 PUSH1 0x1 DUP2 SWAP3 DUP7 DUP12 ADD MLOAD DUP2 SSTORE ADD SWAP5 ADD SWAP3 ADD PUSH2 0xFD4 JUMP JUMPDEST DUP3 PUSH1 0x0 MSTORE PUSH1 0x20 PUSH1 0x0 KECCAK256 PUSH1 0x1F DUP4 ADD PUSH1 0x5 SHR DUP2 ADD SWAP2 PUSH1 0x20 DUP5 LT PUSH2 0x1062 JUMPI JUMPDEST PUSH1 0x1F ADD PUSH1 0x5 SHR ADD SWAP1 JUMPDEST DUP2 DUP2 LT PUSH2 0x1056 JUMPI POP PUSH2 0xF87 JUMP JUMPDEST PUSH1 0x0 DUP2 SSTORE PUSH1 0x1 ADD PUSH2 0x1049 JUMP JUMPDEST SWAP1 SWAP2 POP DUP2 SWAP1 PUSH2 0x1040 JUMP JUMPDEST PUSH1 0x1 PUSH1 0x1 PUSH1 0x40 SHL SUB DUP2 GT PUSH2 0xBA3 JUMPI PUSH1 0x5 SHL PUSH1 0x20 ADD SWAP1 JUMP JUMPDEST PUSH1 0x40 MLOAD SWAP1 DUP2 PUSH1 0x0 DUP3 SLOAD SWAP3 PUSH2 0x1096 DUP5 PUSH2 0xDEC JUMP JUMPDEST SWAP4 PUSH1 0x1 DUP2 AND SWAP1 DUP2 ISZERO PUSH2 0x10F7 JUMPI POP PUSH1 0x1 EQ PUSH2 0x10BB JUMPI JUMPDEST POP PUSH1 0x20 SWAP3 POP PUSH1 0x3 DUP2 MSTORE SUB ADD SWAP1 KECCAK256 SWAP1 JUMP JUMPDEST SWAP2 POP POP PUSH1 0x0 MSTORE DUP2 PUSH1 0x20 PUSH1 0x0 KECCAK256 PUSH1 0x0 SWAP1 JUMPDEST DUP4 DUP3 LT PUSH2 0x10DF JUMPI POP POP PUSH1 0x20 SWAP2 DUP2 ADD CODESIZE PUSH2 0x10AB JUMP JUMPDEST PUSH1 0x20 SWAP2 SWAP3 POP DUP1 PUSH1 0x1 SWAP2 SLOAD DUP5 DUP8 ADD MSTORE ADD SWAP2 ADD DUP4 SWAP2 PUSH2 0x10CB JUMP JUMPDEST PUSH1 0xFF NOT AND DUP5 MSTORE POP PUSH1 0x20 SWAP4 DUP1 ISZERO ISZERO MUL DUP4 ADD SWAP2 POP CODESIZE SWAP1 POP PUSH2 0x10AB JUMP JUMPDEST DUP1 MLOAD DUP3 LT ISZERO PUSH2 0xEE5 JUMPI PUSH1 0x20 SWAP2 PUSH1 0x5 SHL ADD ADD SWAP1 JUMP JUMPDEST DUP1 ISZERO PUSH2 0x11CD JUMPI PUSH1 0x0 DUP2 DUP1 JUMPDEST PUSH2 0x11B9 JUMPI POP PUSH2 0x113E DUP2 PUSH2 0xCE2 JUMP JUMPDEST SWAP1 PUSH2 0x114C PUSH1 0x40 MLOAD SWAP3 DUP4 PUSH2 0xCC1 JUMP JUMPDEST DUP1 DUP3 MSTORE PUSH1 0x1F NOT PUSH2 0x115B DUP3 PUSH2 0xCE2 JUMP JUMPDEST ADD CALLDATASIZE PUSH1 0x20 DUP5 ADD CALLDATACOPY JUMPDEST DUP1 SWAP3 DUP1 ISZERO PUSH2 0x11B2 JUMPI PUSH1 0x0 NOT DUP3 ADD SWAP2 DUP3 GT PUSH2 0xF4B JUMPI DUP2 SWAP4 PUSH1 0xA DUP3 MOD PUSH1 0x30 ADD SWAP3 DUP4 PUSH1 0x30 GT PUSH2 0xF4B JUMPI DUP5 MLOAD GT ISZERO PUSH2 0xEE5 JUMPI PUSH1 0xA SWAP3 PUSH1 0xF8 SHL PUSH1 0x1 PUSH1 0x1 PUSH1 0xF8 SHL SUB NOT AND PUSH1 0x0 BYTE SWAP1 DUP5 ADD PUSH1 0x1F ADD MSTORE8 DIV SWAP2 PUSH2 0x1163 JUMP JUMPDEST POP POP SWAP1 POP SWAP1 JUMP JUMPDEST SWAP1 PUSH2 0x11C5 PUSH1 0xA SWAP2 PUSH2 0xF3C JUMP JUMPDEST SWAP2 DIV DUP1 PUSH2 0x1130 JUMP JUMPDEST POP PUSH1 0x40 MLOAD PUSH2 0x11DC PUSH1 0x40 DUP3 PUSH2 0xCC1 JUMP JUMPDEST PUSH1 0x1 DUP2 MSTORE PUSH1 0x3 PUSH1 0xFC SHL PUSH1 0x20 DUP3 ADD MSTORE SWAP1 JUMP JUMPDEST PUSH1 0x0 SLOAD PUSH1 0x1 PUSH1 0x1 PUSH1 0xA0 SHL SUB SWAP1 DUP2 AND SWAP1 PUSH2 0x1204 PUSH2 0x1235 JUMP JUMPDEST AND SUB PUSH2 0x120C JUMPI JUMP JUMPDEST PUSH2 0x1214 PUSH2 0x1235 JUMP JUMPDEST PUSH4 0x118CDAA7 PUSH1 0xE0 SHL PUSH1 0x0 SWAP1 DUP2 MSTORE PUSH1 0x1 PUSH1 0x1 PUSH1 0xA0 SHL SUB SWAP2 SWAP1 SWAP2 AND PUSH1 0x4 MSTORE PUSH1 0x24 SWAP1 REVERT JUMPDEST CALLER PUSH32 0x0 PUSH1 0x1 PUSH1 0x1 PUSH1 0xA0 SHL SUB AND EQ DUP1 PUSH2 0x1283 JUMPI JUMPDEST ISZERO PUSH2 0x127F JUMPI PUSH1 0x13 NOT CALLDATASIZE ADD CALLDATASIZE DUP2 GT PUSH2 0xF4B JUMPI CALLDATALOAD PUSH1 0x60 SHR SWAP1 JUMP JUMPDEST CALLER SWAP1 JUMP JUMPDEST POP PUSH1 0x14 CALLDATASIZE LT ISZERO PUSH2 0x1267 JUMP INVALID PUSH1 0x80 PUSH1 0x40 MSTORE CALLVALUE PUSH2 0x6FE JUMPI PUSH2 0x1280 DUP1 CODESIZE SUB DUP1 PUSH2 0x19 DUP2 PUSH2 0x703 JUMP JUMPDEST SWAP3 DUP4 CODECOPY DUP2 ADD PUSH1 0xA0 DUP3 DUP3 SUB SLT PUSH2 0x6FE JUMPI DUP2 MLOAD PUSH1 0x1 PUSH1 0x1 PUSH1 0x40 SHL SUB DUP2 GT PUSH2 0x6FE JUMPI DUP2 PUSH2 0x44 SWAP2 DUP5 ADD PUSH2 0x728 JUMP JUMPDEST PUSH1 0x20 DUP4 ADD MLOAD SWAP1 SWAP2 SWAP1 PUSH1 0x1 PUSH1 0x1 PUSH1 0x40 SHL SUB DUP2 GT PUSH2 0x6FE JUMPI DUP2 PUSH2 0x66 SWAP2 DUP6 ADD PUSH2 0x728 JUMP JUMPDEST PUSH1 0x40 DUP5 ADD MLOAD SWAP1 SWAP2 SWAP1 PUSH1 0x1 PUSH1 0x1 PUSH1 0x40 SHL SUB DUP2 GT PUSH2 0x6FE JUMPI DUP2 PUSH2 0x88 SWAP2 DUP7 ADD PUSH2 0x728 JUMP JUMPDEST PUSH1 0x60 DUP6 ADD MLOAD SWAP1 SWAP2 SWAP1 PUSH1 0x1 PUSH1 0x1 PUSH1 0x40 SHL SUB DUP2 GT PUSH2 0x6FE JUMPI PUSH1 0x80 SWAP2 PUSH2 0xAC SWAP2 DUP8 ADD PUSH2 0x728 JUMP JUMPDEST SWAP5 ADD MLOAD PUSH1 0x1 PUSH1 0x1 PUSH1 0xA0 SHL SUB DUP2 AND SWAP2 SWAP1 DUP3 SWAP1 SUB PUSH2 0x6FE JUMPI DUP1 MLOAD SWAP1 PUSH1 0x1 PUSH1 0x1 PUSH1 0x40 SHL SUB DUP3 GT PUSH2 0x423 JUMPI PUSH1 0x3 SLOAD SWAP1 PUSH1 0x1 DUP3 DUP2 SHR SWAP3 AND DUP1 ISZERO PUSH2 0x6F4 JUMPI JUMPDEST PUSH1 0x20 DUP4 LT EQ PUSH2 0x403 JUMPI DUP2 PUSH1 0x1F DUP5 SWAP4 GT PUSH2 0x684 JUMPI JUMPDEST POP PUSH1 0x20 SWAP1 PUSH1 0x1F DUP4 GT PUSH1 0x1 EQ PUSH2 0x61C JUMPI PUSH1 0x0 SWAP3 PUSH2 0x611 JUMPI JUMPDEST POP POP DUP2 PUSH1 0x1 SHL SWAP2 PUSH1 0x0 NOT SWAP1 PUSH1 0x3 SHL SHR NOT AND OR PUSH1 0x3 SSTORE JUMPDEST DUP4 MLOAD PUSH1 0x1 PUSH1 0x1 PUSH1 0x40 SHL SUB DUP2 GT PUSH2 0x423 JUMPI PUSH1 0x4 SLOAD PUSH1 0x1 DUP2 DUP2 SHR SWAP2 AND DUP1 ISZERO PUSH2 0x607 JUMPI JUMPDEST PUSH1 0x20 DUP3 LT EQ PUSH2 0x403 JUMPI PUSH1 0x1F DUP2 GT PUSH2 0x5A2 JUMPI JUMPDEST POP PUSH1 0x20 SWAP5 PUSH1 0x1F DUP3 GT PUSH1 0x1 EQ PUSH2 0x53B JUMPI SWAP5 DUP2 SWAP3 SWAP4 SWAP5 SWAP6 PUSH1 0x0 SWAP3 PUSH2 0x530 JUMPI JUMPDEST POP POP DUP2 PUSH1 0x1 SHL SWAP2 PUSH1 0x0 NOT SWAP1 PUSH1 0x3 SHL SHR NOT AND OR PUSH1 0x4 SSTORE JUMPDEST DUP1 ISZERO PUSH2 0x51A JUMPI PUSH1 0x5 DUP1 SLOAD PUSH1 0x1 PUSH1 0x1 PUSH1 0xA0 SHL SUB NOT DUP2 AND DUP4 OR SWAP1 SWAP2 SSTORE DUP2 SWAP1 PUSH1 0x1 PUSH1 0x1 PUSH1 0xA0 SHL SUB AND PUSH32 0x8BE0079C531659141344CD1FD0A4F28419497F9722A3DAAFE3B4186F6B6457E0 PUSH1 0x0 DUP1 LOG3 DUP3 MLOAD PUSH1 0x1 PUSH1 0x1 PUSH1 0x40 SHL SUB DUP2 GT PUSH2 0x423 JUMPI PUSH1 0x6 SLOAD PUSH1 0x1 DUP2 DUP2 SHR SWAP2 AND DUP1 ISZERO PUSH2 0x510 JUMPI JUMPDEST PUSH1 0x20 DUP3 LT EQ PUSH2 0x403 JUMPI PUSH1 0x1F DUP2 GT PUSH2 0x4AB JUMPI JUMPDEST POP PUSH1 0x20 PUSH1 0x1F DUP3 GT PUSH1 0x1 EQ PUSH2 0x444 JUMPI DUP2 SWAP3 SWAP4 SWAP5 PUSH1 0x0 SWAP3 PUSH2 0x439 JUMPI JUMPDEST POP POP DUP2 PUSH1 0x1 SHL SWAP2 PUSH1 0x0 NOT SWAP1 PUSH1 0x3 SHL SHR NOT AND OR PUSH1 0x6 SSTORE JUMPDEST DUP2 MLOAD PUSH1 0x1 PUSH1 0x1 PUSH1 0x40 SHL SUB DUP2 GT PUSH2 0x423 JUMPI PUSH1 0x7 SLOAD PUSH1 0x1 DUP2 DUP2 SHR SWAP2 AND DUP1 ISZERO PUSH2 0x419 JUMPI JUMPDEST PUSH1 0x20 DUP3 LT EQ PUSH2 0x403 JUMPI PUSH1 0x1F DUP2 GT PUSH2 0x39E JUMPI JUMPDEST POP PUSH1 0x20 SWAP3 PUSH1 0x1F DUP3 GT PUSH1 0x1 EQ PUSH2 0x339 JUMPI SWAP3 DUP2 SWAP3 SWAP4 PUSH1 0x0 SWAP3 PUSH2 0x32E JUMPI JUMPDEST POP POP DUP2 PUSH1 0x1 SHL SWAP2 PUSH1 0x0 NOT SWAP1 PUSH1 0x3 SHL SHR NOT AND OR PUSH1 0x7 SSTORE JUMPDEST PUSH1 0x0 PUSH1 0x2 SLOAD PUSH9 0x3635C9ADC5DEA00000 DUP2 ADD DUP1 SWAP2 GT PUSH2 0x31A JUMPI PUSH1 0x2 SSTORE POP DUP1 PUSH1 0x0 MSTORE PUSH1 0x0 PUSH1 0x20 MSTORE PUSH1 0x40 PUSH1 0x0 KECCAK256 PUSH9 0x3635C9ADC5DEA00000 DUP2 SLOAD ADD SWAP1 SSTORE PUSH1 0x0 PUSH32 0xDDF252AD1BE2C89B69C2B068FC378DAA952BA7F163C4A11628F55A4DF523B3EF PUSH1 0x20 PUSH1 0x40 MLOAD PUSH9 0x3635C9ADC5DEA00000 DUP2 MSTORE LOG3 PUSH1 0x40 MLOAD PUSH2 0xAEC SWAP1 DUP2 PUSH2 0x794 DUP3 CODECOPY RETURN JUMPDEST PUSH4 0x4E487B71 PUSH1 0xE0 SHL DUP3 MSTORE PUSH1 0x11 PUSH1 0x4 MSTORE PUSH1 0x24 DUP3 REVERT JUMPDEST ADD MLOAD SWAP1 POP CODESIZE DUP1 PUSH2 0x287 JUMP JUMPDEST PUSH1 0x1F NOT DUP3 AND SWAP4 PUSH1 0x7 PUSH1 0x0 MSTORE DUP1 PUSH1 0x0 KECCAK256 SWAP2 PUSH1 0x0 JUMPDEST DUP7 DUP2 LT PUSH2 0x386 JUMPI POP DUP4 PUSH1 0x1 SWAP6 SWAP7 LT PUSH2 0x36D JUMPI JUMPDEST POP POP POP DUP2 SHL ADD PUSH1 0x7 SSTORE PUSH2 0x29D JUMP JUMPDEST ADD MLOAD PUSH1 0x0 NOT PUSH1 0xF8 DUP5 PUSH1 0x3 SHL AND SHR NOT AND SWAP1 SSTORE CODESIZE DUP1 DUP1 PUSH2 0x35F JUMP JUMPDEST SWAP2 SWAP3 PUSH1 0x20 PUSH1 0x1 DUP2 SWAP3 DUP7 DUP6 ADD MLOAD DUP2 SSTORE ADD SWAP5 ADD SWAP3 ADD PUSH2 0x34C JUMP JUMPDEST PUSH1 0x7 PUSH1 0x0 MSTORE PUSH32 0xA66CC928B5EDB82AF9BD49922954155AB7B0942694BEA4CE44661D9A8736C688 PUSH1 0x1F DUP4 ADD PUSH1 0x5 SHR DUP2 ADD SWAP2 PUSH1 0x20 DUP5 LT PUSH2 0x3F9 JUMPI JUMPDEST PUSH1 0x1F ADD PUSH1 0x5 SHR ADD SWAP1 JUMPDEST DUP2 DUP2 LT PUSH2 0x3ED JUMPI POP PUSH2 0x26C JUMP JUMPDEST PUSH1 0x0 DUP2 SSTORE PUSH1 0x1 ADD PUSH2 0x3E0 JUMP JUMPDEST SWAP1 SWAP2 POP DUP2 SWAP1 PUSH2 0x3D7 JUMP JUMPDEST PUSH4 0x4E487B71 PUSH1 0xE0 SHL PUSH1 0x0 MSTORE PUSH1 0x22 PUSH1 0x4 MSTORE PUSH1 0x24 PUSH1 0x0 REVERT JUMPDEST SWAP1 PUSH1 0x7F AND SWAP1 PUSH2 0x25A JUMP JUMPDEST PUSH4 0x4E487B71 PUSH1 0xE0 SHL PUSH1 0x0 MSTORE PUSH1 0x41 PUSH1 0x4 MSTORE PUSH1 0x24 PUSH1 0x0 REVERT JUMPDEST ADD MLOAD SWAP1 POP CODESIZE DUP1 PUSH2 0x223 JUMP JUMPDEST PUSH1 0x1F NOT DUP3 AND SWAP1 PUSH1 0x6 PUSH1 0x0 MSTORE DUP1 PUSH1 0x0 KECCAK256 SWAP2 PUSH1 0x0 JUMPDEST DUP2 DUP2 LT PUSH2 0x493 JUMPI POP SWAP6 DUP4 PUSH1 0x1 SWAP6 SWAP7 SWAP8 LT PUSH2 0x47A JUMPI JUMPDEST POP POP POP DUP2 SHL ADD PUSH1 0x6 SSTORE PUSH2 0x239 JUMP JUMPDEST ADD MLOAD PUSH1 0x0 NOT PUSH1 0xF8 DUP5 PUSH1 0x3 SHL AND SHR NOT AND SWAP1 SSTORE CODESIZE DUP1 DUP1 PUSH2 0x46C JUMP JUMPDEST SWAP2 SWAP3 PUSH1 0x20 PUSH1 0x1 DUP2 SWAP3 DUP7 DUP12 ADD MLOAD DUP2 SSTORE ADD SWAP5 ADD SWAP3 ADD PUSH2 0x457 JUMP JUMPDEST PUSH1 0x6 PUSH1 0x0 MSTORE PUSH32 0xF652222313E28459528D920B65115C16C04F3EFC82AAEDC97BE59F3F377C0D3F PUSH1 0x1F DUP4 ADD PUSH1 0x5 SHR DUP2 ADD SWAP2 PUSH1 0x20 DUP5 LT PUSH2 0x506 JUMPI JUMPDEST PUSH1 0x1F ADD PUSH1 0x5 SHR ADD SWAP1 JUMPDEST DUP2 DUP2 LT PUSH2 0x4FA JUMPI POP PUSH2 0x209 JUMP JUMPDEST PUSH1 0x0 DUP2 SSTORE PUSH1 0x1 ADD PUSH2 0x4ED JUMP JUMPDEST SWAP1 SWAP2 POP DUP2 SWAP1 PUSH2 0x4E4 JUMP JUMPDEST SWAP1 PUSH1 0x7F AND SWAP1 PUSH2 0x1F7 JUMP JUMPDEST PUSH4 0x1E4FBDF7 PUSH1 0xE0 SHL PUSH1 0x0 MSTORE PUSH1 0x0 PUSH1 0x4 MSTORE PUSH1 0x24 PUSH1 0x0 REVERT JUMPDEST ADD MLOAD SWAP1 POP CODESIZE DUP1 PUSH2 0x176 JUMP JUMPDEST PUSH1 0x1F NOT DUP3 AND SWAP6 PUSH1 0x4 PUSH1 0x0 MSTORE DUP1 PUSH1 0x0 KECCAK256 SWAP2 PUSH1 0x0 JUMPDEST DUP9 DUP2 LT PUSH2 0x58A JUMPI POP DUP4 PUSH1 0x1 SWAP6 SWAP7 SWAP8 SWAP9 LT PUSH2 0x571 JUMPI JUMPDEST POP POP POP DUP2 SHL ADD PUSH1 0x4 SSTORE PUSH2 0x18C JUMP JUMPDEST ADD MLOAD PUSH1 0x0 NOT PUSH1 0xF8 DUP5 PUSH1 0x3 SHL AND SHR NOT AND SWAP1 SSTORE CODESIZE DUP1 DUP1 PUSH2 0x563 JUMP JUMPDEST SWAP2 SWAP3 PUSH1 0x20 PUSH1 0x1 DUP2 SWAP3 DUP7 DUP6 ADD MLOAD DUP2 SSTORE ADD SWAP5 ADD SWAP3 ADD PUSH2 0x54E JUMP JUMPDEST PUSH1 0x4 PUSH1 0x0 MSTORE PUSH32 0x8A35ACFBC15FF81A39AE7D344FD709F28E8600B4AA8C65C6B64BFE7FE36BD19B PUSH1 0x1F DUP4 ADD PUSH1 0x5 SHR DUP2 ADD SWAP2 PUSH1 0x20 DUP5 LT PUSH2 0x5FD JUMPI JUMPDEST PUSH1 0x1F ADD PUSH1 0x5 SHR ADD SWAP1 JUMPDEST DUP2 DUP2 LT PUSH2 0x5F1 JUMPI POP PUSH2 0x159 JUMP JUMPDEST PUSH1 0x0 DUP2 SSTORE PUSH1 0x1 ADD PUSH2 0x5E4 JUMP JUMPDEST SWAP1 SWAP2 POP DUP2 SWAP1 PUSH2 0x5DB JUMP JUMPDEST SWAP1 PUSH1 0x7F AND SWAP1 PUSH2 0x147 JUMP JUMPDEST ADD MLOAD SWAP1 POP CODESIZE DUP1 PUSH2 0x110 JUMP JUMPDEST PUSH1 0x3 PUSH1 0x0 SWAP1 DUP2 MSTORE DUP3 DUP2 KECCAK256 SWAP4 POP PUSH1 0x1F NOT DUP6 AND SWAP1 JUMPDEST DUP2 DUP2 LT PUSH2 0x66C JUMPI POP SWAP1 DUP5 PUSH1 0x1 SWAP6 SWAP5 SWAP4 SWAP3 LT PUSH2 0x653 JUMPI JUMPDEST POP POP POP DUP2 SHL ADD PUSH1 0x3 SSTORE PUSH2 0x126 JUMP JUMPDEST ADD MLOAD PUSH1 0x0 NOT PUSH1 0xF8 DUP5 PUSH1 0x3 SHL AND SHR NOT AND SWAP1 SSTORE CODESIZE DUP1 DUP1 PUSH2 0x645 JUMP JUMPDEST SWAP3 SWAP4 PUSH1 0x20 PUSH1 0x1 DUP2 SWAP3 DUP8 DUP7 ADD MLOAD DUP2 SSTORE ADD SWAP6 ADD SWAP4 ADD PUSH2 0x62F JUMP JUMPDEST PUSH1 0x3 PUSH1 0x0 MSTORE SWAP1 SWAP2 POP PUSH32 0xC2575A0E9E593C00F959F8C92F12DB2869C3395A3B0502D05E2516446F71F85B PUSH1 0x1F DUP5 ADD PUSH1 0x5 SHR DUP2 ADD SWAP2 PUSH1 0x20 DUP6 LT PUSH2 0x6EA JUMPI JUMPDEST SWAP1 PUSH1 0x1F DUP6 SWAP5 SWAP4 SWAP3 ADD PUSH1 0x5 SHR ADD SWAP1 JUMPDEST DUP2 DUP2 LT PUSH2 0x6DB JUMPI POP PUSH2 0xF9 JUMP JUMPDEST PUSH1 0x0 DUP2 SSTORE DUP5 SWAP4 POP PUSH1 0x1 ADD PUSH2 0x6CE JUMP JUMPDEST SWAP1 SWAP2 POP DUP2 SWAP1 PUSH2 0x6C0 JUMP JUMPDEST SWAP2 PUSH1 0x7F AND SWAP2 PUSH2 0xE5 JUMP JUMPDEST PUSH1 0x0 DUP1 REVERT JUMPDEST PUSH1 0x40 MLOAD SWAP2 SWAP1 PUSH1 0x1F ADD PUSH1 0x1F NOT AND DUP3 ADD PUSH1 0x1 PUSH1 0x1 PUSH1 0x40 SHL SUB DUP2 GT DUP4 DUP3 LT OR PUSH2 0x423 JUMPI PUSH1 0x40 MSTORE JUMP JUMPDEST DUP2 PUSH1 0x1F DUP3 ADD SLT ISZERO PUSH2 0x6FE JUMPI DUP1 MLOAD SWAP1 PUSH1 0x1 PUSH1 0x1 PUSH1 0x40 SHL SUB DUP3 GT PUSH2 0x423 JUMPI PUSH2 0x757 PUSH1 0x1F DUP4 ADD PUSH1 0x1F NOT AND PUSH1 0x20 ADD PUSH2 0x703 JUMP JUMPDEST SWAP3 DUP3 DUP5 MSTORE PUSH1 0x20 DUP4 DUP4 ADD ADD GT PUSH2 0x6FE JUMPI PUSH1 0x0 JUMPDEST DUP3 DUP2 LT PUSH2 0x77E JUMPI POP POP PUSH1 0x20 PUSH1 0x0 SWAP2 DUP4 ADD ADD MSTORE SWAP1 JUMP JUMPDEST DUP1 PUSH1 0x20 DUP1 SWAP3 DUP5 ADD ADD MLOAD DUP3 DUP3 DUP8 ADD ADD MSTORE ADD PUSH2 0x769 JUMP INVALID PUSH1 0x80 PUSH1 0x40 MSTORE PUSH1 0x4 CALLDATASIZE LT ISZERO PUSH2 0x12 JUMPI PUSH1 0x0 DUP1 REVERT JUMPDEST PUSH1 0x0 CALLDATALOAD PUSH1 0xE0 SHR DUP1 PUSH4 0x6FDDE03 EQ PUSH2 0x82F JUMPI DUP1 PUSH4 0x95EA7B3 EQ PUSH2 0x7A9 JUMPI DUP1 PUSH4 0x18160DDD EQ PUSH2 0x78B JUMPI DUP1 PUSH4 0x23B872DD EQ PUSH2 0x69E JUMPI DUP1 PUSH4 0x313CE567 EQ PUSH2 0x682 JUMPI DUP1 PUSH4 0x70A08231 EQ PUSH2 0x648 JUMPI DUP1 PUSH4 0x715018A6 EQ PUSH2 0x5EB JUMPI DUP1 PUSH4 0x8DA5CB5B EQ PUSH2 0x5C2 JUMPI DUP1 PUSH4 0x95D89B41 EQ PUSH2 0x51A JUMPI DUP1 PUSH4 0x9BABBBD1 EQ PUSH2 0x484 JUMPI DUP1 PUSH4 0xA9059CBB EQ PUSH2 0x453 JUMPI DUP1 PUSH4 0xC18549AD EQ PUSH2 0x27E JUMPI DUP1 PUSH4 0xDD62ED3E EQ PUSH2 0x22D JUMPI DUP1 PUSH4 0xEE7A3B8E EQ PUSH2 0x150 JUMPI PUSH4 0xF2FDE38B EQ PUSH2 0xC1 JUMPI PUSH1 0x0 DUP1 REVERT JUMPDEST CALLVALUE PUSH2 0x14B JUMPI PUSH1 0x20 CALLDATASIZE PUSH1 0x3 NOT ADD SLT PUSH2 0x14B JUMPI PUSH2 0xDA PUSH2 0x920 JUMP JUMPDEST PUSH2 0xE2 PUSH2 0xA6D JUMP JUMPDEST PUSH1 0x1 PUSH1 0x1 PUSH1 0xA0 SHL SUB AND DUP1 ISZERO PUSH2 0x135 JUMPI PUSH1 0x5 DUP1 SLOAD PUSH1 0x1 PUSH1 0x1 PUSH1 0xA0 SHL SUB NOT DUP2 AND DUP4 OR SWAP1 SWAP2 SSTORE PUSH1 0x1 PUSH1 0x1 PUSH1 0xA0 SHL SUB AND PUSH32 0x8BE0079C531659141344CD1FD0A4F28419497F9722A3DAAFE3B4186F6B6457E0 PUSH1 0x0 DUP1 LOG3 STOP JUMPDEST PUSH4 0x1E4FBDF7 PUSH1 0xE0 SHL PUSH1 0x0 MSTORE PUSH1 0x0 PUSH1 0x4 MSTORE PUSH1 0x24 PUSH1 0x0 REVERT JUMPDEST PUSH1 0x0 DUP1 REVERT JUMPDEST CALLVALUE PUSH2 0x14B JUMPI PUSH1 0x0 CALLDATASIZE PUSH1 0x3 NOT ADD SLT PUSH2 0x14B JUMPI PUSH1 0x40 MLOAD PUSH1 0x0 PUSH1 0x6 SLOAD PUSH2 0x172 DUP2 PUSH2 0x94C JUMP JUMPDEST DUP1 DUP5 MSTORE SWAP1 PUSH1 0x1 DUP2 AND SWAP1 DUP2 ISZERO PUSH2 0x209 JUMPI POP PUSH1 0x1 EQ PUSH2 0x1AA JUMPI JUMPDEST PUSH2 0x1A6 DUP4 PUSH2 0x19A DUP2 DUP6 SUB DUP3 PUSH2 0x986 JUMP JUMPDEST PUSH1 0x40 MLOAD SWAP2 DUP3 SWAP2 DUP3 PUSH2 0x8D7 JUMP JUMPDEST SUB SWAP1 RETURN JUMPDEST PUSH1 0x6 PUSH1 0x0 SWAP1 DUP2 MSTORE PUSH32 0xF652222313E28459528D920B65115C16C04F3EFC82AAEDC97BE59F3F377C0D3F SWAP4 SWAP3 POP SWAP1 JUMPDEST DUP1 DUP3 LT PUSH2 0x1EF JUMPI POP SWAP1 SWAP2 POP DUP2 ADD PUSH1 0x20 ADD PUSH2 0x19A PUSH2 0x18A JUMP JUMPDEST SWAP2 SWAP3 PUSH1 0x1 DUP2 PUSH1 0x20 SWAP3 SLOAD DUP4 DUP6 DUP9 ADD ADD MSTORE ADD SWAP2 ADD SWAP1 SWAP3 SWAP2 PUSH2 0x1D7 JUMP JUMPDEST PUSH1 0xFF NOT AND PUSH1 0x20 DUP1 DUP7 ADD SWAP2 SWAP1 SWAP2 MSTORE SWAP2 ISZERO ISZERO PUSH1 0x5 SHL DUP5 ADD SWAP1 SWAP2 ADD SWAP2 POP PUSH2 0x19A SWAP1 POP PUSH2 0x18A JUMP JUMPDEST CALLVALUE PUSH2 0x14B JUMPI PUSH1 0x40 CALLDATASIZE PUSH1 0x3 NOT ADD SLT PUSH2 0x14B JUMPI PUSH2 0x246 PUSH2 0x920 JUMP JUMPDEST PUSH2 0x24E PUSH2 0x936 JUMP JUMPDEST PUSH1 0x1 PUSH1 0x1 PUSH1 0xA0 SHL SUB SWAP2 DUP3 AND PUSH1 0x0 SWAP1 DUP2 MSTORE PUSH1 0x1 PUSH1 0x20 SWAP1 DUP2 MSTORE PUSH1 0x40 DUP1 DUP4 KECCAK256 SWAP5 SWAP1 SWAP4 AND DUP3 MSTORE SWAP3 DUP4 MSTORE DUP2 SWAP1 KECCAK256 SLOAD SWAP1 MLOAD SWAP1 DUP2 MSTORE RETURN JUMPDEST CALLVALUE PUSH2 0x14B JUMPI PUSH1 0x20 CALLDATASIZE PUSH1 0x3 NOT ADD SLT PUSH2 0x14B JUMPI PUSH1 0x4 CALLDATALOAD PUSH8 0xFFFFFFFFFFFFFFFF DUP2 GT PUSH2 0x14B JUMPI CALLDATASIZE PUSH1 0x23 DUP3 ADD SLT ISZERO PUSH2 0x14B JUMPI DUP1 PUSH1 0x4 ADD CALLDATALOAD PUSH8 0xFFFFFFFFFFFFFFFF DUP2 GT PUSH2 0x43D JUMPI PUSH1 0x40 MLOAD SWAP2 PUSH2 0x2D8 PUSH1 0x1F DUP4 ADD PUSH1 0x1F NOT AND PUSH1 0x20 ADD DUP5 PUSH2 0x986 JUMP JUMPDEST DUP2 DUP4 MSTORE CALLDATASIZE PUSH1 0x24 DUP4 DUP4 ADD ADD GT PUSH2 0x14B JUMPI DUP2 PUSH1 0x0 SWAP3 PUSH1 0x24 PUSH1 0x20 SWAP4 ADD DUP4 DUP7 ADD CALLDATACOPY DUP4 ADD ADD MSTORE PUSH2 0x301 PUSH2 0xA6D JUMP JUMPDEST DUP1 MLOAD PUSH8 0xFFFFFFFFFFFFFFFF DUP2 GT PUSH2 0x43D JUMPI PUSH2 0x31D PUSH1 0x7 SLOAD PUSH2 0x94C JUMP JUMPDEST PUSH1 0x1F DUP2 GT PUSH2 0x3D0 JUMPI JUMPDEST POP PUSH1 0x20 SWAP2 PUSH1 0x1F DUP3 GT PUSH1 0x1 EQ PUSH2 0x364 JUMPI SWAP2 DUP2 SWAP3 PUSH1 0x0 SWAP3 PUSH2 0x359 JUMPI JUMPDEST POP POP PUSH1 0x0 NOT PUSH1 0x3 DUP4 SWAP1 SHL SHR NOT AND PUSH1 0x1 SWAP2 SWAP1 SWAP2 SHL OR PUSH1 0x7 SSTORE STOP JUMPDEST ADD MLOAD SWAP1 POP DUP3 DUP1 PUSH2 0x340 JUMP JUMPDEST PUSH1 0x1F NOT DUP3 AND SWAP3 PUSH1 0x7 PUSH1 0x0 MSTORE PUSH1 0x0 DUP1 MLOAD PUSH1 0x20 PUSH2 0xA97 DUP4 CODECOPY DUP2 MLOAD SWAP2 MSTORE SWAP2 PUSH1 0x0 JUMPDEST DUP6 DUP2 LT PUSH2 0x3B8 JUMPI POP DUP4 PUSH1 0x1 SWAP6 LT PUSH2 0x39F JUMPI JUMPDEST POP POP POP DUP2 SHL ADD PUSH1 0x7 SSTORE STOP JUMPDEST ADD MLOAD PUSH1 0x0 NOT PUSH1 0xF8 DUP5 PUSH1 0x3 SHL AND SHR NOT AND SWAP1 SSTORE DUP3 DUP1 DUP1 PUSH2 0x394 JUMP JUMPDEST SWAP2 SWAP3 PUSH1 0x20 PUSH1 0x1 DUP2 SWAP3 DUP7 DUP6 ADD MLOAD DUP2 SSTORE ADD SWAP5 ADD SWAP3 ADD PUSH2 0x382 JUMP JUMPDEST PUSH1 0x7 PUSH1 0x0 MSTORE PUSH1 0x1F DUP3 ADD PUSH1 0x5 SHR PUSH1 0x0 DUP1 MLOAD PUSH1 0x20 PUSH2 0xA97 DUP4 CODECOPY DUP2 MLOAD SWAP2 MSTORE ADD SWAP1 PUSH1 0x20 DUP4 LT PUSH2 0x427 JUMPI JUMPDEST PUSH1 0x1F ADD PUSH1 0x5 SHR PUSH1 0x0 DUP1 MLOAD PUSH1 0x20 PUSH2 0xA97 DUP4 CODECOPY DUP2 MLOAD SWAP2 MSTORE ADD SWAP1 JUMPDEST DUP2 DUP2 LT PUSH2 0x41B JUMPI POP PUSH2 0x326 JUMP JUMPDEST PUSH1 0x0 DUP2 SSTORE PUSH1 0x1 ADD PUSH2 0x40E JUMP JUMPDEST PUSH1 0x0 DUP1 MLOAD PUSH1 0x20 PUSH2 0xA97 DUP4 CODECOPY DUP2 MLOAD SWAP2 MSTORE SWAP2 POP PUSH2 0x3F6 JUMP JUMPDEST PUSH4 0x4E487B71 PUSH1 0xE0 SHL PUSH1 0x0 MSTORE PUSH1 0x41 PUSH1 0x4 MSTORE PUSH1 0x24 PUSH1 0x0 REVERT JUMPDEST CALLVALUE PUSH2 0x14B JUMPI PUSH1 0x40 CALLDATASIZE PUSH1 0x3 NOT ADD SLT PUSH2 0x14B JUMPI PUSH2 0x479 PUSH2 0x46F PUSH2 0x920 JUMP JUMPDEST PUSH1 0x24 CALLDATALOAD SWAP1 CALLER PUSH2 0x9A8 JUMP JUMPDEST PUSH1 0x20 PUSH1 0x40 MLOAD PUSH1 0x1 DUP2 MSTORE RETURN JUMPDEST CALLVALUE PUSH2 0x14B JUMPI PUSH1 0x0 CALLDATASIZE PUSH1 0x3 NOT ADD SLT PUSH2 0x14B JUMPI PUSH1 0x40 MLOAD PUSH1 0x0 PUSH1 0x7 SLOAD PUSH2 0x4A6 DUP2 PUSH2 0x94C JUMP JUMPDEST DUP1 DUP5 MSTORE SWAP1 PUSH1 0x1 DUP2 AND SWAP1 DUP2 ISZERO PUSH2 0x209 JUMPI POP PUSH1 0x1 EQ PUSH2 0x4CD JUMPI PUSH2 0x1A6 DUP4 PUSH2 0x19A DUP2 DUP6 SUB DUP3 PUSH2 0x986 JUMP JUMPDEST PUSH1 0x7 PUSH1 0x0 SWAP1 DUP2 MSTORE PUSH1 0x0 DUP1 MLOAD PUSH1 0x20 PUSH2 0xA97 DUP4 CODECOPY DUP2 MLOAD SWAP2 MSTORE SWAP4 SWAP3 POP SWAP1 JUMPDEST DUP1 DUP3 LT PUSH2 0x500 JUMPI POP SWAP1 SWAP2 POP DUP2 ADD PUSH1 0x20 ADD PUSH2 0x19A PUSH2 0x18A JUMP JUMPDEST SWAP2 SWAP3 PUSH1 0x1 DUP2 PUSH1 0x20 SWAP3 SLOAD DUP4 DUP6 DUP9 ADD ADD MSTORE ADD SWAP2 ADD SWAP1 SWAP3 SWAP2 PUSH2 0x4E8 JUMP JUMPDEST CALLVALUE PUSH2 0x14B JUMPI PUSH1 0x0 CALLDATASIZE PUSH1 0x3 NOT ADD SLT PUSH2 0x14B JUMPI PUSH1 0x40 MLOAD PUSH1 0x0 PUSH1 0x4 SLOAD PUSH2 0x53C DUP2 PUSH2 0x94C JUMP JUMPDEST DUP1 DUP5 MSTORE SWAP1 PUSH1 0x1 DUP2 AND SWAP1 DUP2 ISZERO PUSH2 0x209 JUMPI POP PUSH1 0x1 EQ PUSH2 0x563 JUMPI PUSH2 0x1A6 DUP4 PUSH2 0x19A DUP2 DUP6 SUB DUP3 PUSH2 0x986 JUMP JUMPDEST PUSH1 0x4 PUSH1 0x0 SWAP1 DUP2 MSTORE PUSH32 0x8A35ACFBC15FF81A39AE7D344FD709F28E8600B4AA8C65C6B64BFE7FE36BD19B SWAP4 SWAP3 POP SWAP1 JUMPDEST DUP1 DUP3 LT PUSH2 0x5A8 JUMPI POP SWAP1 SWAP2 POP DUP2 ADD PUSH1 0x20 ADD PUSH2 0x19A PUSH2 0x18A JUMP JUMPDEST SWAP2 SWAP3 PUSH1 0x1 DUP2 PUSH1 0x20 SWAP3 SLOAD DUP4 DUP6 DUP9 ADD ADD MSTORE ADD SWAP2 ADD SWAP1 SWAP3 SWAP2 PUSH2 0x590 JUMP JUMPDEST CALLVALUE PUSH2 0x14B JUMPI PUSH1 0x0 CALLDATASIZE PUSH1 0x3 NOT ADD SLT PUSH2 0x14B JUMPI PUSH1 0x5 SLOAD PUSH1 0x40 MLOAD PUSH1 0x1 PUSH1 0x1 PUSH1 0xA0 SHL SUB SWAP1 SWAP2 AND DUP2 MSTORE PUSH1 0x20 SWAP1 RETURN JUMPDEST CALLVALUE PUSH2 0x14B JUMPI PUSH1 0x0 CALLDATASIZE PUSH1 0x3 NOT ADD SLT PUSH2 0x14B JUMPI PUSH2 0x604 PUSH2 0xA6D JUMP JUMPDEST PUSH1 0x5 DUP1 SLOAD PUSH1 0x1 PUSH1 0x1 PUSH1 0xA0 SHL SUB NOT DUP2 AND SWAP1 SWAP2 SSTORE PUSH1 0x0 SWAP1 PUSH1 0x1 PUSH1 0x1 PUSH1 0xA0 SHL SUB AND PUSH32 0x8BE0079C531659141344CD1FD0A4F28419497F9722A3DAAFE3B4186F6B6457E0 DUP3 DUP1 LOG3 STOP JUMPDEST CALLVALUE PUSH2 0x14B JUMPI PUSH1 0x20 CALLDATASIZE PUSH1 0x3 NOT ADD SLT PUSH2 0x14B JUMPI PUSH1 0x1 PUSH1 0x1 PUSH1 0xA0 SHL SUB PUSH2 0x669 PUSH2 0x920 JUMP JUMPDEST AND PUSH1 0x0 MSTORE PUSH1 0x0 PUSH1 0x20 MSTORE PUSH1 0x20 PUSH1 0x40 PUSH1 0x0 KECCAK256 SLOAD PUSH1 0x40 MLOAD SWAP1 DUP2 MSTORE RETURN JUMPDEST CALLVALUE PUSH2 0x14B JUMPI PUSH1 0x0 CALLDATASIZE PUSH1 0x3 NOT ADD SLT PUSH2 0x14B JUMPI PUSH1 0x20 PUSH1 0x40 MLOAD PUSH1 0x12 DUP2 MSTORE RETURN JUMPDEST CALLVALUE PUSH2 0x14B JUMPI PUSH1 0x60 CALLDATASIZE PUSH1 0x3 NOT ADD SLT PUSH2 0x14B JUMPI PUSH2 0x6B7 PUSH2 0x920 JUMP JUMPDEST PUSH2 0x6BF PUSH2 0x936 JUMP JUMPDEST PUSH1 0x1 PUSH1 0x1 PUSH1 0xA0 SHL SUB DUP3 AND PUSH1 0x0 DUP2 DUP2 MSTORE PUSH1 0x1 PUSH1 0x20 SWAP1 DUP2 MSTORE PUSH1 0x40 DUP1 DUP4 KECCAK256 CALLER DUP5 MSTORE SWAP1 SWAP2 MSTORE SWAP1 KECCAK256 SLOAD SWAP1 SWAP3 PUSH1 0x44 CALLDATALOAD SWAP3 SWAP2 PUSH1 0x0 NOT DUP2 LT PUSH2 0x6FF JUMPI JUMPDEST POP PUSH2 0x479 SWAP4 POP PUSH2 0x9A8 JUMP JUMPDEST DUP4 DUP2 LT PUSH2 0x76E JUMPI DUP5 ISZERO PUSH2 0x758 JUMPI CALLER ISZERO PUSH2 0x742 JUMPI PUSH2 0x479 SWAP5 PUSH1 0x0 MSTORE PUSH1 0x1 PUSH1 0x20 MSTORE PUSH1 0x40 PUSH1 0x0 KECCAK256 PUSH1 0x1 DUP1 PUSH1 0xA0 SHL SUB CALLER AND PUSH1 0x0 MSTORE PUSH1 0x20 MSTORE DUP4 PUSH1 0x40 PUSH1 0x0 KECCAK256 SWAP2 SUB SWAP1 SSTORE DUP5 PUSH2 0x6F4 JUMP JUMPDEST PUSH4 0x4A1406B1 PUSH1 0xE1 SHL PUSH1 0x0 MSTORE PUSH1 0x0 PUSH1 0x4 MSTORE PUSH1 0x24 PUSH1 0x0 REVERT JUMPDEST PUSH4 0xE602DF05 PUSH1 0xE0 SHL PUSH1 0x0 MSTORE PUSH1 0x0 PUSH1 0x4 MSTORE PUSH1 0x24 PUSH1 0x0 REVERT JUMPDEST DUP4 SWAP1 PUSH4 0x7DC7A0D9 PUSH1 0xE1 SHL PUSH1 0x0 MSTORE CALLER PUSH1 0x4 MSTORE PUSH1 0x24 MSTORE PUSH1 0x44 MSTORE PUSH1 0x64 PUSH1 0x0 REVERT JUMPDEST CALLVALUE PUSH2 0x14B JUMPI PUSH1 0x0 CALLDATASIZE PUSH1 0x3 NOT ADD SLT PUSH2 0x14B JUMPI PUSH1 0x20 PUSH1 0x2 SLOAD PUSH1 0x40 MLOAD SWAP1 DUP2 MSTORE RETURN JUMPDEST CALLVALUE PUSH2 0x14B JUMPI PUSH1 0x40 CALLDATASIZE PUSH1 0x3 NOT ADD SLT PUSH2 0x14B JUMPI PUSH2 0x7C2 PUSH2 0x920 JUMP JUMPDEST PUSH1 0x24 CALLDATALOAD SWAP1 CALLER ISZERO PUSH2 0x758 JUMPI PUSH1 0x1 PUSH1 0x1 PUSH1 0xA0 SHL SUB AND SWAP1 DUP2 ISZERO PUSH2 0x742 JUMPI CALLER PUSH1 0x0 MSTORE PUSH1 0x1 PUSH1 0x20 MSTORE PUSH1 0x40 PUSH1 0x0 KECCAK256 DUP3 PUSH1 0x0 MSTORE PUSH1 0x20 MSTORE DUP1 PUSH1 0x40 PUSH1 0x0 KECCAK256 SSTORE PUSH1 0x40 MLOAD SWAP1 DUP2 MSTORE PUSH32 0x8C5BE1E5EBEC7D5BD14F71427D1E84F3DD0314C0F7B2291E5B200AC8C7C3B925 PUSH1 0x20 CALLER SWAP3 LOG3 PUSH1 0x20 PUSH1 0x40 MLOAD PUSH1 0x1 DUP2 MSTORE RETURN JUMPDEST CALLVALUE PUSH2 0x14B JUMPI PUSH1 0x0 CALLDATASIZE PUSH1 0x3 NOT ADD SLT PUSH2 0x14B JUMPI PUSH1 0x40 MLOAD PUSH1 0x0 PUSH1 0x3 SLOAD PUSH2 0x851 DUP2 PUSH2 0x94C JUMP JUMPDEST DUP1 DUP5 MSTORE SWAP1 PUSH1 0x1 DUP2 AND SWAP1 DUP2 ISZERO PUSH2 0x209 JUMPI POP PUSH1 0x1 EQ PUSH2 0x878 JUMPI PUSH2 0x1A6 DUP4 PUSH2 0x19A DUP2 DUP6 SUB DUP3 PUSH2 0x986 JUMP JUMPDEST PUSH1 0x3 PUSH1 0x0 SWAP1 DUP2 MSTORE PUSH32 0xC2575A0E9E593C00F959F8C92F12DB2869C3395A3B0502D05E2516446F71F85B SWAP4 SWAP3 POP SWAP1 JUMPDEST DUP1 DUP3 LT PUSH2 0x8BD JUMPI POP SWAP1 SWAP2 POP DUP2 ADD PUSH1 0x20 ADD PUSH2 0x19A PUSH2 0x18A JUMP JUMPDEST SWAP2 SWAP3 PUSH1 0x1 DUP2 PUSH1 0x20 SWAP3 SLOAD DUP4 DUP6 DUP9 ADD ADD MSTORE ADD SWAP2 ADD SWAP1 SWAP3 SWAP2 PUSH2 0x8A5 JUMP JUMPDEST SWAP2 SWAP1 SWAP2 PUSH1 0x20 DUP2 MSTORE DUP3 MLOAD DUP1 PUSH1 0x20 DUP4 ADD MSTORE PUSH1 0x0 JUMPDEST DUP2 DUP2 LT PUSH2 0x90A JUMPI POP PUSH1 0x40 SWAP3 SWAP4 POP PUSH1 0x0 DUP4 DUP3 DUP5 ADD ADD MSTORE PUSH1 0x1F DUP1 NOT SWAP2 ADD AND ADD ADD SWAP1 JUMP JUMPDEST DUP1 PUSH1 0x20 DUP1 SWAP3 DUP8 ADD ADD MLOAD PUSH1 0x40 DUP3 DUP7 ADD ADD MSTORE ADD PUSH2 0x8E9 JUMP JUMPDEST PUSH1 0x4 CALLDATALOAD SWAP1 PUSH1 0x1 PUSH1 0x1 PUSH1 0xA0 SHL SUB DUP3 AND DUP3 SUB PUSH2 0x14B JUMPI JUMP JUMPDEST PUSH1 0x24 CALLDATALOAD SWAP1 PUSH1 0x1 PUSH1 0x1 PUSH1 0xA0 SHL SUB DUP3 AND DUP3 SUB PUSH2 0x14B JUMPI JUMP JUMPDEST SWAP1 PUSH1 0x1 DUP3 DUP2 SHR SWAP3 AND DUP1 ISZERO PUSH2 0x97C JUMPI JUMPDEST PUSH1 0x20 DUP4 LT EQ PUSH2 0x966 JUMPI JUMP JUMPDEST PUSH4 0x4E487B71 PUSH1 0xE0 SHL PUSH1 0x0 MSTORE PUSH1 0x22 PUSH1 0x4 MSTORE PUSH1 0x24 PUSH1 0x0 REVERT JUMPDEST SWAP2 PUSH1 0x7F AND SWAP2 PUSH2 0x95B JUMP JUMPDEST SWAP1 PUSH1 0x1F DUP1 NOT SWAP2 ADD AND DUP2 ADD SWAP1 DUP2 LT PUSH8 0xFFFFFFFFFFFFFFFF DUP3 GT OR PUSH2 0x43D JUMPI PUSH1 0x40 MSTORE JUMP JUMPDEST PUSH1 0x1 PUSH1 0x1 PUSH1 0xA0 SHL SUB AND SWAP1 DUP2 ISZERO PUSH2 0xA57 JUMPI PUSH1 0x1 PUSH1 0x1 PUSH1 0xA0 SHL SUB AND SWAP2 DUP3 ISZERO PUSH2 0xA41 JUMPI PUSH1 0x0 DUP3 DUP2 MSTORE DUP1 PUSH1 0x20 MSTORE PUSH1 0x40 DUP2 KECCAK256 SLOAD DUP3 DUP2 LT PUSH2 0xA27 JUMPI SWAP2 PUSH1 0x40 DUP3 DUP3 PUSH32 0xDDF252AD1BE2C89B69C2B068FC378DAA952BA7F163C4A11628F55A4DF523B3EF SWAP6 DUP8 PUSH1 0x20 SWAP7 MSTORE DUP3 DUP7 MSTORE SUB DUP3 DUP3 KECCAK256 SSTORE DUP7 DUP2 MSTORE DUP1 DUP5 MSTORE KECCAK256 DUP2 DUP2 SLOAD ADD SWAP1 SSTORE PUSH1 0x40 MLOAD SWAP1 DUP2 MSTORE LOG3 JUMP JUMPDEST SWAP2 PUSH1 0x64 SWAP3 DUP5 PUSH4 0x391434E3 PUSH1 0xE2 SHL DUP5 MSTORE PUSH1 0x4 MSTORE PUSH1 0x24 MSTORE PUSH1 0x44 MSTORE REVERT JUMPDEST PUSH4 0xEC442F05 PUSH1 0xE0 SHL PUSH1 0x0 MSTORE PUSH1 0x0 PUSH1 0x4 MSTORE PUSH1 0x24 PUSH1 0x0 REVERT JUMPDEST PUSH4 0x4B637E8F PUSH1 0xE1 SHL PUSH1 0x0 MSTORE PUSH1 0x0 PUSH1 0x4 MSTORE PUSH1 0x24 PUSH1 0x0 REVERT JUMPDEST PUSH1 0x5 SLOAD PUSH1 0x1 PUSH1 0x1 PUSH1 0xA0 SHL SUB AND CALLER SUB PUSH2 0xA81 JUMPI JUMP JUMPDEST PUSH4 0x118CDAA7 PUSH1 0xE0 SHL PUSH1 0x0 MSTORE CALLER PUSH1 0x4 MSTORE PUSH1 0x24 PUSH1 0x0 REVERT INVALID 0xA6 PUSH13 0xC928B5EDB82AF9BD4992295415 GAS 0xB7 0xB0 SWAP5 0x26 SWAP5 0xBE LOG4 0xCE PREVRANDAO PUSH7 0x1D9A8736C688A2 PUSH5 0x6970667358 0x22 SLT KECCAK256 PREVRANDAO RETURN 0xB2 GASPRICE PUSH30 0x40362906DBA3DC234EFBF5311D8D609970A76D118F8B779D443E1764736F PUSH13 0x634300081C0033A26469706673 PC 0x22 SLT KECCAK256 0xF8 DUP15 0x2E 0xD2 DUP9 0xDD 0xB5 PUSH0 PUSH2 0xA72D ADDRESS BLOBBASEFEE 0xFB SWAP9 SWAP11 ISZERO SHL SWAP1 0x2E PUSH12 0xC077FDBBF5A0B03AAE9DA464 PUSH20 0x6F6C634300081C00330000000000000000000000 "},"methodIdentifiers":{"feeRecipient()":"46904840","getActivePropertyIds()":"70dfd4c7","getAllPropertyIds()":"4ff69e83","isTrustedForwarder(address)":"572b6c05","listProperty(string,uint256,string,string)":"43cf8f40","owner()":"8da5cb5b","platformFeePercentage()":"cdd78cfc","properties(string)":"9be8f2a6","propertyIds(uint256)":"d03b47f4","removeProperty(string)":"8f425b60","renounceOwnership()":"715018a6","transferOwnership(address)":"f2fde38b","trustedForwarder()":"7da0a877","updateFeeRecipient(address)":"f160d369","updatePlatformFee(uint16)":"afb06952","updateProperty(string,uint256,bool)":"024ea25f","updatePropertyMetadata(string,string)":"cadce7f0"}}}}}