{"contracts/EIP712Domain.sol":{"EIP712Domain":{"abi":[{"inputs":[],"stateMutability":"nonpayable","type":"constructor"},{"inputs":[],"name":"DOMAIN_SEPARATOR","outputs":[{"internalType":"bytes32","name":"","type":"bytes32"}],"stateMutability":"view","type":"function"},{"inputs":[],"name":"getDomainSeparator","outputs":[{"internalType":"bytes32","name":"","type":"bytes32"}],"stateMutability":"view","type":"function"}],"evm":{"bytecode":{"linkReferences":{},"object":"60a0604052346100e3576040516100176040826100e8565b600e81526d141c9bdc195c9d1e54995b9d185b60921b602090910152604080517f121882bc0e60bf0579f0c9587e1eb73657ba331613a91591fa26b1d1689847c59161006390826100e8565b600181526020810190603160f81b82525190206040519060208201927f8b73c3c69bb8fe3d512ecc4cf759cc79239f7b179b0ffacaa9a75d522b39400f8452604083015260608201524660808201523060a082015260a081526100c760c0826100e8565b51902060805260405160a3908161012282396080518160450152f35b600080fd5b601f909101601f19168101906001600160401b0382119082101761010b57604052565b634e487b7160e01b600052604160045260246000fdfe60806040526004361015601157600080fd5b60003560e01c80633644e51514602f5763ed24911d14602f57600080fd5b34606857600036600319011260685760206040517f00000000000000000000000000000000000000000000000000000000000000008152f35b600080fdfea26469706673582212202a95dec5a3bc151c6469bc8430d42d35fe3a75f26e655852e19c31ed5c31eee064736f6c634300081c0033","opcodes":"PUSH1 0xA0 PUSH1 0x40 MSTORE CALLVALUE PUSH2 0xE3 JUMPI PUSH1 0x40 MLOAD PUSH2 0x17 PUSH1 0x40 DUP3 PUSH2 0xE8 JUMP JUMPDEST PUSH1 0xE DUP2 MSTORE PUSH14 0x141C9BDC195C9D1E54995B9D185B PUSH1 0x92 SHL PUSH1 0x20 SWAP1 SWAP2 ADD MSTORE PUSH1 0x40 DUP1 MLOAD PUSH32 0x121882BC0E60BF0579F0C9587E1EB73657BA331613A91591FA26B1D1689847C5 SWAP2 PUSH2 0x63 SWAP1 DUP3 PUSH2 0xE8 JUMP JUMPDEST PUSH1 0x1 DUP2 MSTORE PUSH1 0x20 DUP2 ADD SWAP1 PUSH1 0x31 PUSH1 0xF8 SHL DUP3 MSTORE MLOAD SWAP1 KECCAK256 PUSH1 0x40 MLOAD SWAP1 PUSH1 0x20 DUP3 ADD SWAP3 PUSH32 0x8B73C3C69BB8FE3D512ECC4CF759CC79239F7B179B0FFACAA9A75D522B39400F DUP5 MSTORE PUSH1 0x40 DUP4 ADD MSTORE PUSH1 0x60 DUP3 ADD MSTORE CHAINID PUSH1 0x80 DUP3 ADD MSTORE ADDRESS PUSH1 0xA0 DUP3 ADD MSTORE PUSH1 0xA0 DUP2 MSTORE PUSH2 0xC7 PUSH1 0xC0 DUP3 PUSH2 0xE8 JUMP JUMPDEST MLOAD SWAP1 KECCAK256 PUSH1 0x80 MSTORE PUSH1 0x40 MLOAD PUSH1 0xA3 SWAP1 DUP2 PUSH2 0x122 DUP3 CODECOPY PUSH1 0x80 MLOAD DUP2 PUSH1 0x45 ADD MSTORE RETURN JUMPDEST PUSH1 0x0 DUP1 REVERT JUMPDEST PUSH1 0x1F SWAP1 SWAP2 ADD PUSH1 0x1F NOT AND DUP2 ADD SWAP1 PUSH1 0x1 PUSH1 0x1 PUSH1 0x40 SHL SUB DUP3 GT SWAP1 DUP3 LT OR PUSH2 0x10B JUMPI PUSH1 0x40 MSTORE JUMP JUMPDEST PUSH4 0x4E487B71 PUSH1 0xE0 SHL PUSH1 0x0 MSTORE PUSH1 0x41 PUSH1 0x4 MSTORE PUSH1 0x24 PUSH1 0x0 REVERT INVALID PUSH1 0x80 PUSH1 0x40 MSTORE PUSH1 0x4 CALLDATASIZE LT ISZERO PUSH1 0x11 JUMPI PUSH1 0x0 DUP1 REVERT JUMPDEST PUSH1 0x0 CALLDATALOAD PUSH1 0xE0 SHR DUP1 PUSH4 0x3644E515 EQ PUSH1 0x2F JUMPI PUSH4 0xED24911D EQ PUSH1 0x2F JUMPI PUSH1 0x0 DUP1 REVERT JUMPDEST CALLVALUE PUSH1 0x68 JUMPI PUSH1 0x0 CALLDATASIZE PUSH1 0x3 NOT ADD SLT PUSH1 0x68 JUMPI PUSH1 0x20 PUSH1 0x40 MLOAD PUSH32 0x0 DUP2 MSTORE RETURN JUMPDEST PUSH1 0x0 DUP1 REVERT INVALID LOG2 PUSH5 0x6970667358 0x22 SLT KECCAK256 0x2A SWAP6 0xDE 0xC5 LOG3 0xBC ISZERO SHR PUSH5 0x69BC8430D4 0x2D CALLDATALOAD INVALID GASPRICE PUSH22 0xF26E655852E19C31ED5C31EEE064736F6C634300081C STOP CALLER "},"methodIdentifiers":{"DOMAIN_SEPARATOR()":"3644e515","getDomainSeparator()":"ed24911d"}}}}}