{"contracts/MetaTransactionForwarder.sol":{"MetaTransactionForwarder":{"abi":[{"inputs":[],"name":"ECDSAInvalidSignature","type":"error"},{"inputs":[{"internalType":"uint256","name":"length","type":"uint256"}],"name":"ECDSAInvalidSignatureLength","type":"error"},{"inputs":[{"internalType":"bytes32","name":"s","type":"bytes32"}],"name":"ECDSAInvalidSignatureS","type":"error"},{"anonymous":false,"inputs":[{"indexed":true,"internalType":"address","name":"from","type":"address"},{"indexed":true,"internalType":"address","name":"to","type":"address"},{"indexed":false,"internalType":"bytes","name":"data","type":"bytes"},{"indexed":false,"internalType":"uint256","name":"nonce","type":"uint256"}],"name":"MetaTransactionExecuted","type":"event"},{"inputs":[],"name":"DOMAIN_SEPARATOR","outputs":[{"internalType":"bytes32","name":"","type":"bytes32"}],"stateMutability":"view","type":"function"},{"inputs":[],"name":"META_TRANSACTION_TYPEHASH","outputs":[{"internalType":"bytes32","name":"","type":"bytes32"}],"stateMutability":"view","type":"function"},{"inputs":[{"internalType":"address","name":"_from","type":"address"},{"internalType":"address","name":"_to","type":"address"},{"internalType":"uint256","name":"_value","type":"uint256"},{"internalType":"bytes","name":"_data","type":"bytes"},{"internalType":"uint256","name":"_deadline","type":"uint256"},{"internalType":"bytes","name":"_signature","type":"bytes"}],"name":"executeMetaTransaction","outputs":[{"internalType":"bytes","name":"","type":"bytes"}],"stateMutability":"payable","type":"function"},{"inputs":[],"name":"getDomainSeparator","outputs":[{"internalType":"bytes32","name":"","type":"bytes32"}],"stateMutability":"view","type":"function"},{"inputs":[],"name":"getMetaTransactionTypeHash","outputs":[{"internalType":"bytes32","name":"","type":"bytes32"}],"stateMutability":"pure","type":"function"},{"inputs":[{"internalType":"address","name":"_from","type":"address"}],"name":"getNonce","outputs":[{"internalType":"uint256","name":"","type":"uint256"}],"stateMutability":"view","type":"function"},{"inputs":[{"internalType":"address","name":"","type":"address"}],"name":"nonces","outputs":[{"internalType":"uint256","name":"","type":"uint256"}],"stateMutability":"view","type":"function"}],"evm":{"bytecode":{"linkReferences":{},"object":"60a0604052346100ec576040516100176040826100f1565b600e81526d141c9bdc195c9d1e54995b9d185b60921b602090910152604080517f121882bc0e60bf0579f0c9587e1eb73657ba331613a91591fa26b1d1689847c59161006390826100f1565b600181526020810190603160f81b82525190206040519060208201927f8b73c3c69bb8fe3d512ecc4cf759cc79239f7b179b0ffacaa9a75d522b39400f8452604083015260608201524660808201523060a082015260a081526100c760c0826100f1565b5190206080526040516107ff908161012b82396080518181816101d701526105940152f35b600080fd5b601f909101601f19168101906001600160401b0382119082101761011457604052565b634e487b7160e01b600052604160045260246000fdfe608080604052600436101561001357600080fd5b60003560e01c9081632d0335ab14610530575080633644e515146100ac5780637ecebe00146104f6578063aa31ff27146100b1578063ddd6122b1461006c578063ed24911d146100ac5763fa2c322d1461006c57600080fd5b346100a75760003660031901126100a75760206040517f5fd13291509f17086d2ba1f9103f57ac2690f1273d0270f42ae34baa7a80b4fa8152f35b600080fd5b61057c565b60c03660031901126100a7576100c5610566565b6024356001600160a01b038116908181036100a7576044359260643567ffffffffffffffff81116100a7576100fe9036906004016105b7565b90916084359560a43567ffffffffffffffff81116100a7576101249036906004016105b7565b95908842116104a5576001600160a01b0384169687156104525787918260005260006020526040600020549a3661015c90898b610639565b80519060200120906040519060208201927f5fd13291509f17086d2ba1f9103f57ac2690f1273d0270f42ae34baa7a80b4fa84528660408401528d606084015288608084015260a08301528d60c083015260e082015260e081526101c2610100826105e5565b519020604051602081019161190160f01b83527f0000000000000000000000000000000000000000000000000000000000000000602283015260428201526042815261020f6062826105e5565b51902091369061021e92610639565b61022791610670565b610230916106ac565b6001600160a01b0316036104025785600052600060205260406000209283549260001984146103ec57600094600186950190556040516102a16014602083818101968b8d89378b8201906bffffffffffffffffffffffff199060601b16838201520301600b198101845201826105e5565b51925af1943d156103e4573d956102b78761061d565b966102c560405198896105e5565b87523d6000602089013e5b15610378577f7a1753a319619f1a6ef1e6da9b07d884430b64c13a1d967530217eb5918d8b379282606092604051948593604085528160408601528585013760008383018501526020830152601f01601f19168101030190a360405190602082528181519182602083015260005b8381106103605750508160006040809484010152601f80199101168101030190f35b6020828201810151604087840101528593500161033e565b855186901561038957602081519101fd5b60405162461bcd60e51b815260206004820152602d60248201527f4d6574615472616e73616374696f6e3a205472616e73616374696f6e2065786560448201526c18dd5d1a5bdb8819985a5b1959609a1b6064820152608490fd5b6060956102d0565b634e487b7160e01b600052601160045260246000fd5b60405162461bcd60e51b815260206004820152602260248201527f4d6574615472616e73616374696f6e3a20496e76616c6964207369676e617475604482015261726560f01b6064820152608490fd5b60405162461bcd60e51b815260206004820152602560248201527f4d6574615472616e73616374696f6e3a20496e76616c69642066726f6d206164604482015264647265737360d81b6064820152608490fd5b60405162461bcd60e51b8152602060048201526024808201527f4d6574615472616e73616374696f6e3a205472616e73616374696f6e206578706044820152631a5c995960e21b6064820152608490fd5b346100a75760203660031901126100a7576001600160a01b03610517610566565b1660005260006020526020604060002054604051908152f35b346100a75760203660031901126100a7576020906001600160a01b03610554610566565b16600052600082526040600020548152f35b600435906001600160a01b03821682036100a757565b346100a75760003660031901126100a75760206040517f00000000000000000000000000000000000000000000000000000000000000008152f35b9181601f840112156100a75782359167ffffffffffffffff83116100a757602083818601950101116100a757565b90601f8019910116810190811067ffffffffffffffff82111761060757604052565b634e487b7160e01b600052604160045260246000fd5b67ffffffffffffffff811161060757601f01601f191660200190565b9291926106458261061d565b9161065360405193846105e5565b8294818452818301116100a7578281602093846000960137010152565b81519190604183036106a15761069a92506020820151906060604084015193015160001a90610734565b9192909190565b505060009160029190565b919091600481101561071e57806106c257509050565b6000600182036106dd5763f645eedf60e01b60005260046000fd5b50600281036106fb578263fce698f760e01b60005260045260246000fd5b909160036000921461070b575050565b6335e2f38360e21b825260045260249150fd5b634e487b7160e01b600052602160045260246000fd5b91907f7fffffffffffffffffffffffffffffff5d576e7357a4501ddfe92f46681b20a084116107bd579160209360809260ff60009560405194855216868401526040830152606082015282805260015afa156107b1576000516001600160a01b038116156107a55790600090600090565b50600090600190600090565b6040513d6000823e3d90fd5b5050506000916003919056fea2646970667358221220db81ccc79bc9540acf34bac57e7226c72c969fa970a5e64daf9d088d8f04754064736f6c634300081c0033","opcodes":"PUSH1 0xA0 PUSH1 0x40 MSTORE CALLVALUE PUSH2 0xEC JUMPI PUSH1 0x40 MLOAD PUSH2 0x17 PUSH1 0x40 DUP3 PUSH2 0xF1 JUMP JUMPDEST PUSH1 0xE DUP2 MSTORE PUSH14 0x141C9BDC195C9D1E54995B9D185B PUSH1 0x92 SHL PUSH1 0x20 SWAP1 SWAP2 ADD MSTORE PUSH1 0x40 DUP1 MLOAD PUSH32 0x121882BC0E60BF0579F0C9587E1EB73657BA331613A91591FA26B1D1689847C5 SWAP2 PUSH2 0x63 SWAP1 DUP3 PUSH2 0xF1 JUMP JUMPDEST PUSH1 0x1 DUP2 MSTORE PUSH1 0x20 DUP2 ADD SWAP1 PUSH1 0x31 PUSH1 0xF8 SHL DUP3 MSTORE MLOAD SWAP1 KECCAK256 PUSH1 0x40 MLOAD SWAP1 PUSH1 0x20 DUP3 ADD SWAP3 PUSH32 0x8B73C3C69BB8FE3D512ECC4CF759CC79239F7B179B0FFACAA9A75D522B39400F DUP5 MSTORE PUSH1 0x40 DUP4 ADD MSTORE PUSH1 0x60 DUP3 ADD MSTORE CHAINID PUSH1 0x80 DUP3 ADD MSTORE ADDRESS PUSH1 0xA0 DUP3 ADD MSTORE PUSH1 0xA0 DUP2 MSTORE PUSH2 0xC7 PUSH1 0xC0 DUP3 PUSH2 0xF1 JUMP JUMPDEST MLOAD SWAP1 KECCAK256 PUSH1 0x80 MSTORE PUSH1 0x40 MLOAD PUSH2 0x7FF SWAP1 DUP2 PUSH2 0x12B DUP3 CODECOPY PUSH1 0x80 MLOAD DUP2 DUP2 DUP2 PUSH2 0x1D7 ADD MSTORE PUSH2 0x594 ADD MSTORE RETURN JUMPDEST PUSH1 0x0 DUP1 REVERT JUMPDEST PUSH1 0x1F SWAP1 SWAP2 ADD PUSH1 0x1F NOT AND DUP2 ADD SWAP1 PUSH1 0x1 PUSH1 0x1 PUSH1 0x40 SHL SUB DUP3 GT SWAP1 DUP3 LT OR PUSH2 0x114 JUMPI PUSH1 0x40 MSTORE JUMP JUMPDEST PUSH4 0x4E487B71 PUSH1 0xE0 SHL PUSH1 0x0 MSTORE PUSH1 0x41 PUSH1 0x4 MSTORE PUSH1 0x24 PUSH1 0x0 REVERT INVALID PUSH1 0x80 DUP1 PUSH1 0x40 MSTORE PUSH1 0x4 CALLDATASIZE LT ISZERO PUSH2 0x13 JUMPI PUSH1 0x0 DUP1 REVERT JUMPDEST PUSH1 0x0 CALLDATALOAD PUSH1 0xE0 SHR SWAP1 DUP2 PUSH4 0x2D0335AB EQ PUSH2 0x530 JUMPI POP DUP1 PUSH4 0x3644E515 EQ PUSH2 0xAC JUMPI DUP1 PUSH4 0x7ECEBE00 EQ PUSH2 0x4F6 JUMPI DUP1 PUSH4 0xAA31FF27 EQ PUSH2 0xB1 JUMPI DUP1 PUSH4 0xDDD6122B EQ PUSH2 0x6C JUMPI DUP1 PUSH4 0xED24911D EQ PUSH2 0xAC JUMPI PUSH4 0xFA2C322D EQ PUSH2 0x6C JUMPI PUSH1 0x0 DUP1 REVERT JUMPDEST CALLVALUE PUSH2 0xA7 JUMPI PUSH1 0x0 CALLDATASIZE PUSH1 0x3 NOT ADD SLT PUSH2 0xA7 JUMPI PUSH1 0x20 PUSH1 0x40 MLOAD PUSH32 0x5FD13291509F17086D2BA1F9103F57AC2690F1273D0270F42AE34BAA7A80B4FA DUP2 MSTORE RETURN JUMPDEST PUSH1 0x0 DUP1 REVERT JUMPDEST PUSH2 0x57C JUMP JUMPDEST PUSH1 0xC0 CALLDATASIZE PUSH1 0x3 NOT ADD SLT PUSH2 0xA7 JUMPI PUSH2 0xC5 PUSH2 0x566 JUMP JUMPDEST PUSH1 0x24 CALLDATALOAD PUSH1 0x1 PUSH1 0x1 PUSH1 0xA0 SHL SUB DUP2 AND SWAP1 DUP2 DUP2 SUB PUSH2 0xA7 JUMPI PUSH1 0x44 CALLDATALOAD SWAP3 PUSH1 0x64 CALLDATALOAD PUSH8 0xFFFFFFFFFFFFFFFF DUP2 GT PUSH2 0xA7 JUMPI PUSH2 0xFE SWAP1 CALLDATASIZE SWAP1 PUSH1 0x4 ADD PUSH2 0x5B7 JUMP JUMPDEST SWAP1 SWAP2 PUSH1 0x84 CALLDATALOAD SWAP6 PUSH1 0xA4 CALLDATALOAD PUSH8 0xFFFFFFFFFFFFFFFF DUP2 GT PUSH2 0xA7 JUMPI PUSH2 0x124 SWAP1 CALLDATASIZE SWAP1 PUSH1 0x4 ADD PUSH2 0x5B7 JUMP JUMPDEST SWAP6 SWAP1 DUP9 TIMESTAMP GT PUSH2 0x4A5 JUMPI PUSH1 0x1 PUSH1 0x1 PUSH1 0xA0 SHL SUB DUP5 AND SWAP7 DUP8 ISZERO PUSH2 0x452 JUMPI DUP8 SWAP2 DUP3 PUSH1 0x0 MSTORE PUSH1 0x0 PUSH1 0x20 MSTORE PUSH1 0x40 PUSH1 0x0 KECCAK256 SLOAD SWAP11 CALLDATASIZE PUSH2 0x15C SWAP1 DUP10 DUP12 PUSH2 0x639 JUMP JUMPDEST DUP1 MLOAD SWAP1 PUSH1 0x20 ADD KECCAK256 SWAP1 PUSH1 0x40 MLOAD SWAP1 PUSH1 0x20 DUP3 ADD SWAP3 PUSH32 0x5FD13291509F17086D2BA1F9103F57AC2690F1273D0270F42AE34BAA7A80B4FA DUP5 MSTORE DUP7 PUSH1 0x40 DUP5 ADD MSTORE DUP14 PUSH1 0x60 DUP5 ADD MSTORE DUP9 PUSH1 0x80 DUP5 ADD MSTORE PUSH1 0xA0 DUP4 ADD MSTORE DUP14 PUSH1 0xC0 DUP4 ADD MSTORE PUSH1 0xE0 DUP3 ADD MSTORE PUSH1 0xE0 DUP2 MSTORE PUSH2 0x1C2 PUSH2 0x100 DUP3 PUSH2 0x5E5 JUMP JUMPDEST MLOAD SWAP1 KECCAK256 PUSH1 0x40 MLOAD PUSH1 0x20 DUP2 ADD SWAP2 PUSH2 0x1901 PUSH1 0xF0 SHL DUP4 MSTORE PUSH32 0x0 PUSH1 0x22 DUP4 ADD MSTORE PUSH1 0x42 DUP3 ADD MSTORE PUSH1 0x42 DUP2 MSTORE PUSH2 0x20F PUSH1 0x62 DUP3 PUSH2 0x5E5 JUMP JUMPDEST MLOAD SWAP1 KECCAK256 SWAP2 CALLDATASIZE SWAP1 PUSH2 0x21E SWAP3 PUSH2 0x639 JUMP JUMPDEST PUSH2 0x227 SWAP2 PUSH2 0x670 JUMP JUMPDEST PUSH2 0x230 SWAP2 PUSH2 0x6AC JUMP JUMPDEST PUSH1 0x1 PUSH1 0x1 PUSH1 0xA0 SHL SUB AND SUB PUSH2 0x402 JUMPI DUP6 PUSH1 0x0 MSTORE PUSH1 0x0 PUSH1 0x20 MSTORE PUSH1 0x40 PUSH1 0x0 KECCAK256 SWAP3 DUP4 SLOAD SWAP3 PUSH1 0x0 NOT DUP5 EQ PUSH2 0x3EC JUMPI PUSH1 0x0 SWAP5 PUSH1 0x1 DUP7 SWAP6 ADD SWAP1 SSTORE PUSH1 0x40 MLOAD PUSH2 0x2A1 PUSH1 0x14 PUSH1 0x20 DUP4 DUP2 DUP2 ADD SWAP7 DUP12 DUP14 DUP10 CALLDATACOPY DUP12 DUP3 ADD SWAP1 PUSH12 0xFFFFFFFFFFFFFFFFFFFFFFFF NOT SWAP1 PUSH1 0x60 SHL AND DUP4 DUP3 ADD MSTORE SUB ADD PUSH1 0xB NOT DUP2 ADD DUP5 MSTORE ADD DUP3 PUSH2 0x5E5 JUMP JUMPDEST MLOAD SWAP3 GAS CALL SWAP5 RETURNDATASIZE ISZERO PUSH2 0x3E4 JUMPI RETURNDATASIZE SWAP6 PUSH2 0x2B7 DUP8 PUSH2 0x61D JUMP JUMPDEST SWAP7 PUSH2 0x2C5 PUSH1 0x40 MLOAD SWAP9 DUP10 PUSH2 0x5E5 JUMP JUMPDEST DUP8 MSTORE RETURNDATASIZE PUSH1 0x0 PUSH1 0x20 DUP10 ADD RETURNDATACOPY JUMPDEST ISZERO PUSH2 0x378 JUMPI PUSH32 0x7A1753A319619F1A6EF1E6DA9B07D884430B64C13A1D967530217EB5918D8B37 SWAP3 DUP3 PUSH1 0x60 SWAP3 PUSH1 0x40 MLOAD SWAP5 DUP6 SWAP4 PUSH1 0x40 DUP6 MSTORE DUP2 PUSH1 0x40 DUP7 ADD MSTORE DUP6 DUP6 ADD CALLDATACOPY PUSH1 0x0 DUP4 DUP4 ADD DUP6 ADD MSTORE PUSH1 0x20 DUP4 ADD MSTORE PUSH1 0x1F ADD PUSH1 0x1F NOT AND DUP2 ADD SUB ADD SWAP1 LOG3 PUSH1 0x40 MLOAD SWAP1 PUSH1 0x20 DUP3 MSTORE DUP2 DUP2 MLOAD SWAP2 DUP3 PUSH1 0x20 DUP4 ADD MSTORE PUSH1 0x0 JUMPDEST DUP4 DUP2 LT PUSH2 0x360 JUMPI POP POP DUP2 PUSH1 0x0 PUSH1 0x40 DUP1 SWAP5 DUP5 ADD ADD MSTORE PUSH1 0x1F DUP1 NOT SWAP2 ADD AND DUP2 ADD SUB ADD SWAP1 RETURN JUMPDEST PUSH1 0x20 DUP3 DUP3 ADD DUP2 ADD MLOAD PUSH1 0x40 DUP8 DUP5 ADD ADD MSTORE DUP6 SWAP4 POP ADD PUSH2 0x33E JUMP JUMPDEST DUP6 MLOAD DUP7 SWAP1 ISZERO PUSH2 0x389 JUMPI PUSH1 0x20 DUP2 MLOAD SWAP2 ADD REVERT JUMPDEST PUSH1 0x40 MLOAD PUSH3 0x461BCD PUSH1 0xE5 SHL DUP2 MSTORE PUSH1 0x20 PUSH1 0x4 DUP3 ADD MSTORE PUSH1 0x2D PUSH1 0x24 DUP3 ADD MSTORE PUSH32 0x4D6574615472616E73616374696F6E3A205472616E73616374696F6E20657865 PUSH1 0x44 DUP3 ADD MSTORE PUSH13 0x18DD5D1A5BDB8819985A5B1959 PUSH1 0x9A SHL PUSH1 0x64 DUP3 ADD MSTORE PUSH1 0x84 SWAP1 REVERT JUMPDEST PUSH1 0x60 SWAP6 PUSH2 0x2D0 JUMP JUMPDEST PUSH4 0x4E487B71 PUSH1 0xE0 SHL PUSH1 0x0 MSTORE PUSH1 0x11 PUSH1 0x4 MSTORE PUSH1 0x24 PUSH1 0x0 REVERT JUMPDEST PUSH1 0x40 MLOAD PUSH3 0x461BCD PUSH1 0xE5 SHL DUP2 MSTORE PUSH1 0x20 PUSH1 0x4 DUP3 ADD MSTORE PUSH1 0x22 PUSH1 0x24 DUP3 ADD MSTORE PUSH32 0x4D6574615472616E73616374696F6E3A20496E76616C6964207369676E617475 PUSH1 0x44 DUP3 ADD MSTORE PUSH2 0x7265 PUSH1 0xF0 SHL PUSH1 0x64 DUP3 ADD MSTORE PUSH1 0x84 SWAP1 REVERT JUMPDEST PUSH1 0x40 MLOAD PUSH3 0x461BCD PUSH1 0xE5 SHL DUP2 MSTORE PUSH1 0x20 PUSH1 0x4 DUP3 ADD MSTORE PUSH1 0x25 PUSH1 0x24 DUP3 ADD MSTORE PUSH32 0x4D6574615472616E73616374696F6E3A20496E76616C69642066726F6D206164 PUSH1 0x44 DUP3 ADD MSTORE PUSH5 0x6472657373 PUSH1 0xD8 SHL PUSH1 0x64 DUP3 ADD MSTORE PUSH1 0x84 SWAP1 REVERT JUMPDEST PUSH1 0x40 MLOAD PUSH3 0x461BCD PUSH1 0xE5 SHL DUP2 MSTORE PUSH1 0x20 PUSH1 0x4 DUP3 ADD MSTORE PUSH1 0x24 DUP1 DUP3 ADD MSTORE PUSH32 0x4D6574615472616E73616374696F6E3A205472616E73616374696F6E20657870 PUSH1 0x44 DUP3 ADD MSTORE PUSH4 0x1A5C9959 PUSH1 0xE2 SHL PUSH1 0x64 DUP3 ADD MSTORE PUSH1 0x84 SWAP1 REVERT JUMPDEST CALLVALUE PUSH2 0xA7 JUMPI PUSH1 0x20 CALLDATASIZE PUSH1 0x3 NOT ADD SLT PUSH2 0xA7 JUMPI PUSH1 0x1 PUSH1 0x1 PUSH1 0xA0 SHL SUB PUSH2 0x517 PUSH2 0x566 JUMP JUMPDEST AND PUSH1 0x0 MSTORE PUSH1 0x0 PUSH1 0x20 MSTORE PUSH1 0x20 PUSH1 0x40 PUSH1 0x0 KECCAK256 SLOAD PUSH1 0x40 MLOAD SWAP1 DUP2 MSTORE RETURN JUMPDEST CALLVALUE PUSH2 0xA7 JUMPI PUSH1 0x20 CALLDATASIZE PUSH1 0x3 NOT ADD SLT PUSH2 0xA7 JUMPI PUSH1 0x20 SWAP1 PUSH1 0x1 PUSH1 0x1 PUSH1 0xA0 SHL SUB PUSH2 0x554 PUSH2 0x566 JUMP JUMPDEST AND PUSH1 0x0 MSTORE PUSH1 0x0 DUP3 MSTORE PUSH1 0x40 PUSH1 0x0 KECCAK256 SLOAD DUP2 MSTORE RETURN JUMPDEST PUSH1 0x4 CALLDATALOAD SWAP1 PUSH1 0x1 PUSH1 0x1 PUSH1 0xA0 SHL SUB DUP3 AND DUP3 SUB PUSH2 0xA7 JUMPI JUMP JUMPDEST CALLVALUE PUSH2 0xA7 JUMPI PUSH1 0x0 CALLDATASIZE PUSH1 0x3 NOT ADD SLT PUSH2 0xA7 JUMPI PUSH1 0x20 PUSH1 0x40 MLOAD PUSH32 0x0 DUP2 MSTORE RETURN JUMPDEST SWAP2 DUP2 PUSH1 0x1F DUP5 ADD SLT ISZERO PUSH2 0xA7 JUMPI DUP3 CALLDATALOAD SWAP2 PUSH8 0xFFFFFFFFFFFFFFFF DUP4 GT PUSH2 0xA7 JUMPI PUSH1 0x20 DUP4 DUP2 DUP7 ADD SWAP6 ADD ADD GT PUSH2 0xA7 JUMPI JUMP JUMPDEST SWAP1 PUSH1 0x1F DUP1 NOT SWAP2 ADD AND DUP2 ADD SWAP1 DUP2 LT PUSH8 0xFFFFFFFFFFFFFFFF DUP3 GT OR PUSH2 0x607 JUMPI PUSH1 0x40 MSTORE JUMP JUMPDEST PUSH4 0x4E487B71 PUSH1 0xE0 SHL PUSH1 0x0 MSTORE PUSH1 0x41 PUSH1 0x4 MSTORE PUSH1 0x24 PUSH1 0x0 REVERT JUMPDEST PUSH8 0xFFFFFFFFFFFFFFFF DUP2 GT PUSH2 0x607 JUMPI PUSH1 0x1F ADD PUSH1 0x1F NOT AND PUSH1 0x20 ADD SWAP1 JUMP JUMPDEST SWAP3 SWAP2 SWAP3 PUSH2 0x645 DUP3 PUSH2 0x61D JUMP JUMPDEST SWAP2 PUSH2 0x653 PUSH1 0x40 MLOAD SWAP4 DUP5 PUSH2 0x5E5 JUMP JUMPDEST DUP3 SWAP5 DUP2 DUP5 MSTORE DUP2 DUP4 ADD GT PUSH2 0xA7 JUMPI DUP3 DUP2 PUSH1 0x20 SWAP4 DUP5 PUSH1 0x0 SWAP7 ADD CALLDATACOPY ADD ADD MSTORE JUMP JUMPDEST DUP2 MLOAD SWAP2 SWAP1 PUSH1 0x41 DUP4 SUB PUSH2 0x6A1 JUMPI PUSH2 0x69A SWAP3 POP PUSH1 0x20 DUP3 ADD MLOAD SWAP1 PUSH1 0x60 PUSH1 0x40 DUP5 ADD MLOAD SWAP4 ADD MLOAD PUSH1 0x0 BYTE SWAP1 PUSH2 0x734 JUMP JUMPDEST SWAP2 SWAP3 SWAP1 SWAP2 SWAP1 JUMP JUMPDEST POP POP PUSH1 0x0 SWAP2 PUSH1 0x2 SWAP2 SWAP1 JUMP JUMPDEST SWAP2 SWAP1 SWAP2 PUSH1 0x4 DUP2 LT ISZERO PUSH2 0x71E JUMPI DUP1 PUSH2 0x6C2 JUMPI POP SWAP1 POP JUMP JUMPDEST PUSH1 0x0 PUSH1 0x1 DUP3 SUB PUSH2 0x6DD JUMPI PUSH4 0xF645EEDF PUSH1 0xE0 SHL PUSH1 0x0 MSTORE PUSH1 0x4 PUSH1 0x0 REVERT JUMPDEST POP PUSH1 0x2 DUP2 SUB PUSH2 0x6FB JUMPI DUP3 PUSH4 0xFCE698F7 PUSH1 0xE0 SHL PUSH1 0x0 MSTORE PUSH1 0x4 MSTORE PUSH1 0x24 PUSH1 0x0 REVERT JUMPDEST SWAP1 SWAP2 PUSH1 0x3 PUSH1 0x0 SWAP3 EQ PUSH2 0x70B JUMPI POP POP JUMP JUMPDEST PUSH4 0x35E2F383 PUSH1 0xE2 SHL DUP3 MSTORE PUSH1 0x4 MSTORE PUSH1 0x24 SWAP2 POP REVERT JUMPDEST PUSH4 0x4E487B71 PUSH1 0xE0 SHL PUSH1 0x0 MSTORE PUSH1 0x21 PUSH1 0x4 MSTORE PUSH1 0x24 PUSH1 0x0 REVERT JUMPDEST SWAP2 SWAP1 PUSH32 0x7FFFFFFFFFFFFFFFFFFFFFFFFFFFFFFF5D576E7357A4501DDFE92F46681B20A0 DUP5 GT PUSH2 0x7BD JUMPI SWAP2 PUSH1 0x20 SWAP4 PUSH1 0x80 SWAP3 PUSH1 0xFF PUSH1 0x0 SWAP6 PUSH1 0x40 MLOAD SWAP5 DUP6 MSTORE AND DUP7 DUP5 ADD MSTORE PUSH1 0x40 DUP4 ADD MSTORE PUSH1 0x60 DUP3 ADD MSTORE DUP3 DUP1 MSTORE PUSH1 0x1 GAS STATICCALL ISZERO PUSH2 0x7B1 JUMPI PUSH1 0x0 MLOAD PUSH1 0x1 PUSH1 0x1 PUSH1 0xA0 SHL SUB DUP2 AND ISZERO PUSH2 0x7A5 JUMPI SWAP1 PUSH1 0x0 SWAP1 PUSH1 0x0 SWAP1 JUMP JUMPDEST POP PUSH1 0x0 SWAP1 PUSH1 0x1 SWAP1 PUSH1 0x0 SWAP1 JUMP JUMPDEST PUSH1 0x40 MLOAD RETURNDATASIZE PUSH1 0x0 DUP3 RETURNDATACOPY RETURNDATASIZE SWAP1 REVERT JUMPDEST POP POP POP PUSH1 0x0 SWAP2 PUSH1 0x3 SWAP2 SWAP1 JUMP INVALID LOG2 PUSH5 0x6970667358 0x22 SLT KECCAK256 0xDB DUP2 0xCC 0xC7 SWAP12 0xC9 SLOAD EXP 0xCF CALLVALUE 0xBA 0xC5 PUSH31 0x7226C72C969FA970A5E64DAF9D088D8F04754064736F6C634300081C003300 "},"methodIdentifiers":{"DOMAIN_SEPARATOR()":"3644e515","META_TRANSACTION_TYPEHASH()":"fa2c322d","executeMetaTransaction(address,address,uint256,bytes,uint256,bytes)":"aa31ff27","getDomainSeparator()":"ed24911d","getMetaTransactionTypeHash()":"ddd6122b","getNonce(address)":"2d0335ab","nonces(address)":"7ecebe00"}}}}}