{"contracts/BookingManager.sol":{"BookingManager":{"abi":[{"inputs":[{"internalType":"address","name":"_propertyMarketplaceAddress","type":"address"},{"internalType":"address","name":"_trustedForwarder","type":"address"}],"stateMutability":"nonpayable","type":"constructor"},{"inputs":[{"internalType":"address","name":"owner","type":"address"}],"name":"OwnableInvalidOwner","type":"error"},{"inputs":[{"internalType":"address","name":"account","type":"address"}],"name":"OwnableUnauthorizedAccount","type":"error"},{"anonymous":false,"inputs":[{"indexed":false,"internalType":"uint256","name":"bookingId","type":"uint256"}],"name":"BookingCancelled","type":"event"},{"anonymous":false,"inputs":[{"indexed":false,"internalType":"uint256","name":"bookingId","type":"uint256"}],"name":"BookingCompleted","type":"event"},{"anonymous":false,"inputs":[{"indexed":false,"internalType":"uint256","name":"bookingId","type":"uint256"},{"indexed":false,"internalType":"string","name":"propertyId","type":"string"},{"indexed":false,"internalType":"address","name":"guest","type":"address"},{"indexed":false,"internalType":"uint256","name":"checkInDate","type":"uint256"},{"indexed":false,"internalType":"uint256","name":"amount","type":"uint256"}],"name":"BookingCreated","type":"event"},{"anonymous":false,"inputs":[{"indexed":false,"internalType":"uint256","name":"bookingId","type":"uint256"},{"indexed":false,"internalType":"uint256","name":"amount","type":"uint256"}],"name":"BookingRefunded","type":"event"},{"anonymous":false,"inputs":[{"indexed":false,"internalType":"uint256","name":"bookingId","type":"uint256"}],"name":"CheckInMissed","type":"event"},{"anonymous":false,"inputs":[{"indexed":false,"internalType":"uint256","name":"bookingId","type":"uint256"},{"indexed":false,"internalType":"uint256","name":"deadline","type":"uint256"}],"name":"CheckInWindowOpened","type":"event"},{"anonymous":false,"inputs":[{"indexed":false,"internalType":"uint256","name":"bookingId","type":"uint256"},{"indexed":false,"internalType":"address","name":"guest","type":"address"}],"name":"CheckedIn","type":"event"},{"anonymous":false,"inputs":[{"indexed":false,"internalType":"uint256","name":"bookingId","type":"uint256"}],"name":"DisputeEscalated","type":"event"},{"anonymous":false,"inputs":[{"indexed":false,"internalType":"uint256","name":"bookingId","type":"uint256"},{"indexed":false,"internalType":"string","name":"reason","type":"string"}],"name":"DisputeRaised","type":"event"},{"anonymous":false,"inputs":[{"indexed":false,"internalType":"uint256","name":"bookingId","type":"uint256"},{"indexed":false,"internalType":"bool","name":"byHost","type":"bool"},{"indexed":false,"internalType":"bool","name":"byGuest","type":"bool"}],"name":"DisputeResolved","type":"event"},{"anonymous":false,"inputs":[{"indexed":true,"internalType":"address","name":"previousOwner","type":"address"},{"indexed":true,"internalType":"address","name":"newOwner","type":"address"}],"name":"OwnershipTransferred","type":"event"},{"inputs":[],"name":"CHECK_IN_WINDOW","outputs":[{"internalType":"uint256","name":"","type":"uint256"}],"stateMutability":"view","type":"function"},{"inputs":[],"name":"DISPUTE_RESOLUTION_WINDOW","outputs":[{"internalType":"uint256","name":"","type":"uint256"}],"stateMutability":"view","type":"function"},{"inputs":[{"internalType":"uint256","name":"_bookingId","type":"uint256"},{"internalType":"bool","name":"_refundToGuest","type":"bool"}],"name":"adminResolveDispute","outputs":[],"stateMutability":"nonpayable","type":"function"},{"inputs":[{"internalType":"uint256","name":"","type":"uint256"}],"name":"bookings","outputs":[{"internalType":"uint256","name":"bookingId","type":"uint256"},{"internalType":"string","name":"propertyId","type":"string"},{"internalType":"address","name":"guest","type":"address"},{"internalType":"uint256","name":"checkInDate","type":"uint256"},{"internalType":"uint256","name":"checkOutDate","type":"uint256"},{"internalType":"uint256","name":"totalAmount","type":"uint256"},{"internalType":"uint256","name":"platformFee","type":"uint256"},{"internalType":"uint256","name":"hostAmount","type":"uint256"},{"internalType":"enum BookingManager.BookingStatus","name":"status","type":"uint8"},{"internalType":"uint256","name":"checkInWindowStart","type":"uint256"},{"internalType":"uint256","name":"checkInDeadline","type":"uint256"},{"internalType":"uint256","name":"disputeDeadline","type":"uint256"},{"internalType":"bool","name":"isCheckInComplete","type":"bool"},{"internalType":"bool","name":"isResolvedByHost","type":"bool"},{"internalType":"bool","name":"isResolvedByGuest","type":"bool"},{"internalType":"string","name":"disputeReason","type":"string"}],"stateMutability":"view","type":"function"},{"inputs":[{"internalType":"uint256","name":"_bookingId","type":"uint256"}],"name":"cancelBooking","outputs":[],"stateMutability":"nonpayable","type":"function"},{"inputs":[{"internalType":"uint256","name":"_bookingId","type":"uint256"}],"name":"checkIn","outputs":[],"stateMutability":"nonpayable","type":"function"},{"inputs":[{"internalType":"string","name":"_propertyId","type":"string"},{"internalType":"uint256","name":"_checkInDate","type":"uint256"},{"internalType":"uint256","name":"_checkOutDate","type":"uint256"}],"name":"createBooking","outputs":[{"internalType":"uint256","name":"","type":"uint256"}],"stateMutability":"payable","type":"function"},{"inputs":[{"internalType":"uint256","name":"_bookingId","type":"uint256"}],"name":"escalateDispute","outputs":[],"stateMutability":"nonpayable","type":"function"},{"inputs":[{"internalType":"address","name":"_guest","type":"address"}],"name":"getGuestBookings","outputs":[{"internalType":"uint256[]","name":"","type":"uint256[]"}],"stateMutability":"view","type":"function"},{"inputs":[{"internalType":"string","name":"_propertyId","type":"string"}],"name":"getPropertyBookings","outputs":[{"internalType":"uint256[]","name":"","type":"uint256[]"}],"stateMutability":"view","type":"function"},{"inputs":[{"internalType":"address","name":"","type":"address"},{"internalType":"uint256","name":"","type":"uint256"}],"name":"guestBookings","outputs":[{"internalType":"uint256","name":"","type":"uint256"}],"stateMutability":"view","type":"function"},{"inputs":[{"internalType":"uint256","name":"_bookingId","type":"uint256"}],"name":"guestResolveDispute","outputs":[],"stateMutability":"nonpayable","type":"function"},{"inputs":[{"internalType":"string","name":"_propertyId","type":"string"},{"internalType":"uint256","name":"_checkInDate","type":"uint256"},{"internalType":"uint256","name":"_checkOutDate","type":"uint256"}],"name":"hasBookingConflict","outputs":[{"internalType":"bool","name":"hasConflict","type":"bool"}],"stateMutability":"view","type":"function"},{"inputs":[{"internalType":"uint256","name":"_bookingId","type":"uint256"}],"name":"hostResolveDispute","outputs":[],"stateMutability":"nonpayable","type":"function"},{"inputs":[{"internalType":"address","name":"forwarder","type":"address"}],"name":"isTrustedForwarder","outputs":[{"internalType":"bool","name":"","type":"bool"}],"stateMutability":"view","type":"function"},{"inputs":[],"name":"owner","outputs":[{"internalType":"address","name":"","type":"address"}],"stateMutability":"view","type":"function"},{"inputs":[{"internalType":"uint256","name":"_bookingId","type":"uint256"}],"name":"processMissedCheckIn","outputs":[],"stateMutability":"nonpayable","type":"function"},{"inputs":[{"internalType":"string","name":"","type":"string"},{"internalType":"uint256","name":"","type":"uint256"}],"name":"propertyBookings","outputs":[{"internalType":"uint256","name":"","type":"uint256"}],"stateMutability":"view","type":"function"},{"inputs":[],"name":"propertyMarketplace","outputs":[{"internalType":"contract PropertyMarketplace","name":"","type":"address"}],"stateMutability":"view","type":"function"},{"inputs":[],"name":"renounceOwnership","outputs":[],"stateMutability":"nonpayable","type":"function"},{"inputs":[{"internalType":"address","name":"newOwner","type":"address"}],"name":"transferOwnership","outputs":[],"stateMutability":"nonpayable","type":"function"},{"inputs":[{"internalType":"uint256","name":"_bookingId","type":"uint256"}],"name":"triggerCheckInWindow","outputs":[],"stateMutability":"nonpayable","type":"function"},{"inputs":[],"name":"trustedForwarder","outputs":[{"internalType":"address","name":"","type":"address"}],"stateMutability":"view","type":"function"}],"evm":{"bytecode":{"linkReferences":{},"object":"60a03461010f57601f61245c38819003918201601f19168301916001600160401b0383118484101761011457808492604094855283398101031261010f57610052602061004b8361012a565b920161012a565b906001600160a01b0361006361013e565b169182156100f957600080546001600160a01b031981168517825560405194916001600160a01b03909116907f8be0079c531659141344cd1fd0a4f28419497f9722a3daafe3b4186f6b6457e09080a3608052600180546001600160a01b0319166001600160a01b03929092169190911790556122cc908161019082396080518181816112fb015281816115d601526122400152f35b631e4fbdf760e01b600052600060045260246000fd5b600080fd5b634e487b7160e01b600052604160045260246000fd5b51906001600160a01b038216820361010f57565b6080516001600160a01b0316331480610184575b1561018057601319360136811161016a573560601c90565b634e487b7160e01b600052601160045260246000fd5b3390565b50601436101561015256fe6080604052600436101561001257600080fd5b60003560e01c8062f44ccd146119fe5780630dca825e146118965780631dab301e1461177057806320a68d251461162d578063288c16091461160a578063572b6c05146115b65780635c980829146115b157806363809aef1461153a578063715018a6146114e157806372beb5101461132a5780637da0a877146112e55780638d1cc984146112795780638da5cb5b14611250578063a41cfa69146111f7578063bae391d91461111a578063c3ed62ce146110f1578063ccef7f3314610f3b578063d09dc22b14610e25578063dd66294614610543578063e95a644f146103f9578063f116185514610251578063f2c41b5a146101a65763f2fde38b1461011857600080fd5b346101a15760203660031901126101a157610131611bfd565b6101396120e2565b6001600160a01b0316801561018b57600080546001600160a01b03198116831782556001600160a01b0316907f8be0079c531659141344cd1fd0a4f28419497f9722a3daafe3b4186f6b6457e09080a3005b631e4fbdf760e01b600052600060045260246000fd5b600080fd5b346101a15760203660031901126101a15760043567ffffffffffffffff81116101a15760206101dc6101ef923690600401611b80565b8160405193828580945193849201611b1c565b8101600481520301902060405190816020825491828152019160005260206000209060005b81811061023b576102378561022b81870382611a56565b60405191829182611c13565b0390f35b8254845260209093019260019283019201610214565b346101a15760203660031901126101a15760043580600052600360205260406000209060018060a01b036001541660006040518092634df4795360e11b825281806102a2600189016004830161204f565b03915afa9081156103ed576000916103c4575b506001600160a01b036102c661223d565b166001600160a01b03909116036103865760ff6008830154169060088210156103705760ff600c7f847a573abaa8875d3fe466d414094860f38be0ea3e161a0ef08c0acd955f7ea79461031d600460609614611d29565b61032d600b820154421115611ee1565b01805461ff0019166101001780825560101c8216610362575b5460101c166040519182526001602083015215156040820152a1005b61036b8361212a565b610346565b634e487b7160e01b600052602160045260246000fd5b60405162461bcd60e51b81526020600482015260166024820152752737ba103a343290383937b832b93a3c9037bbb732b960511b6044820152606490fd5b6103e191503d806000833e6103d98183611a56565b810190611f7f565b505050915050836102b5565b6040513d6000823e3d90fd5b346101a15760203660031901126101a1576004356000818152600360205260409020600281015461043f906001600160a01b039081169061043861223d565b1614611c7b565b600881019160ff83541660088110156103705760010361050557600a82015442116104c057600c6040927f70790c0ab38e2aca9b5520985fe66db2a3700c3680b61c3853b5554f67a2c31c94600260ff1982541617905501600160ff198254161790556104aa61223d565b82519182526001600160a01b03166020820152a1005b60405162461bcd60e51b815260206004820152601760248201527f436865636b2d696e2077696e646f7720657870697265640000000000000000006044820152606490fd5b60405162461bcd60e51b81526020600482015260166024820152752737ba103932b0b23c903337b91031b432b1b596b4b760511b6044820152606490fd5b61054c36611bc7565b600154604051634df4795360e11b8152602060048201526001600160a01b0390911693919290600081806105836024820187611b3f565b0381885afa80156103ed57600090600092600091610e00575b5015610dc5576001600160a01b031615610d805742821115610d3b5781841115610cf7576105cb848385611d66565b610c9d57620151806105dd8386611ff5565b048015610c59576105ed91612002565b93843410610c1d57602060049160405192838092633375e33f60e21b82525afa9081156103ed57600091610bd7575b5061062e61ffff6103e8921686612002565b049361063a8582611ff5565b91600254946000198614610bc1576001860160025561065761223d565b9360405191610200830183811067ffffffffffffffff821117610bab5760405260018801835286602084015260018060a01b038616604084015283606084015260808301528360a08301528760c083015260e08201526000610100820152600061012082015260006101408201526000610160820152600061018082015260006101a082015260006101c08201526020966040516106f58982611a56565b600081526101e083015260018701600052600388526040600020918051835560018301602082015180519067ffffffffffffffff8211610bab5781906107458261073f8654611a1c565b86611e9c565b8c908d601f8411600114610b455750600092610b3a575b50508160011b916000199060031b1c19161790555b6002830160018060a01b036040830151166bffffffffffffffffffffffff60a01b825416179055606081015160038401556080810151600484015560a0810151600584015560c0810151600684015560e08101516007840155600883019261010082015193600885101561037057805460ff95861660ff19919091161790556101208201516009820155610140820151600a820155610160820151600b820155610180820151600c820180546101a08501516101c086015162ffffff199092169315159097169290921795151560081b61ff00169590951790151560101b62ff000016179093556101e001518051600093600d019167ffffffffffffffff8211610b265781906108858261073f8654611a1c565b8b90601f8311600114610ac1578692610ab6575b50508160011b916000199060031b1c19161790555b6108da60405187516108c381838d8c01611b1c565b810190600482528a8160018c019303019020612015565b6001600160a01b038516825260058852604082206108fc906001890190612015565b60015460405163011a412160e61b8152908990829060049082906001600160a01b03165afa908115610aab579083918291610a66575b5090918291829182916001600160a01b03165af161094e611cb7565b5015610a2b578234116109c9575b50917fb21a131db9e3377301833ce70be73b950ef23b9d94873b831ac7bbee23314c3893916109a19360405194859460018901865260a08a87015260a0860190611b3f565b6001600160a01b039093166040850152606084015260808301520390a1600160405191018152f35b8080806109d68634611ff5565b875af16109e1611cb7565b50156109ed578661095c565b60405162461bcd60e51b81526004810187905260166024820152751499599d5b99081d1c985b9cd9995c8819985a5b195960521b6044820152606490fd5b60405162461bcd60e51b8152600481018890526013602482015272119959481d1c985b9cd9995c8819985a5b1959606a1b6044820152606490fd5b8092508a8092503d8311610aa4575b610a7f8183611a56565b81010312610aa057516001600160a01b0381168103610aa057829081610932565b8280fd5b503d610a75565b6040513d85823e3d90fd5b015190508b80610899565b8487528c87209250601f198416878e5b828210610b0e575050908460019594939210610af5575b505050811b0190556108ae565b015160001960f88460031b161c191690558b8080610ae8565b80600186978294978701518155019601940190610ad1565b634e487b7160e01b85526041600452602485fd5b015190508c8061075c565b60008681528181209450601f198616915b828210610b93575050908460019594939210610b7a575b505050811b019055610771565b015160001960f88460031b161c191690558c8080610b6d565b80600186978294978701518155019601940190610b56565b634e487b7160e01b600052604160045260246000fd5b634e487b7160e01b600052601160045260246000fd5b6020813d602011610c15575b81610bf060209383611a56565b81010312610c1157519061ffff82168203610c0e575061062e61061c565b80fd5b5080fd5b3d9150610be3565b60405162461bcd60e51b8152602060048201526014602482015273125b9cdd59999a58da595b9d081c185e5b595b9d60621b6044820152606490fd5b606460405162461bcd60e51b815260206004820152602060248201527f426f6f6b696e67206d757374206265206174206c656173742031206e696768746044820152fd5b60405162461bcd60e51b815260206004820152602c60248201527f426f6f6b696e6720646174657320636f6e666c6963742077697468206578697360448201526b74696e6720626f6f6b696e6760a01b6064820152608490fd5b606460405162461bcd60e51b815260206004820152602060248201527f436865636b2d6f7574206d75737420626520616674657220636865636b2d696e6044820152fd5b60405162461bcd60e51b815260206004820152601e60248201527f436865636b2d696e206d75737420626520696e207468652066757475726500006044820152606490fd5b60405162461bcd60e51b815260206004820152601760248201527f50726f706572747920646f6573206e6f742065786973740000000000000000006044820152606490fd5b60405162461bcd60e51b815260206004820152601360248201527250726f7065727479206e6f742061637469766560681b6044820152606490fd5b915050610e1891503d806000833e6103d98183611a56565b509350915090918761059c565b346101a15760403660031901126101a15760043560243580151581036101a157610e4d6120e2565b81600052600360205260ff60086040600020015416600881101561037057600703610efd5715610ef2576040817fedc1198b595a44e20b4738f6c85854e2c9f704982f488658f4c765030f1526569260005260036020528160002060088101600660ff19825416179055610ee46000808080600760018060a01b036002880154169601958654905af1610ede611cb7565b50611ce7565b5482519182526020820152a1005b610efb9061212a565b005b60405162461bcd60e51b81526020600482015260166024820152752737ba1032b9b1b0b630ba32b2103a379030b236b4b760511b6044820152606490fd5b346101a15760203660031901126101a1576004358060005260036020526040600020818154036110b357600881019160ff835416600881101561037057611079576003820154421061103457600982018054610fe557429055620151804201804211610bc1577fd6c4872cc5d86d0c496ad388bbe994a94376b28276d219fb70019f84d4b3b76193600a60409401918255600160ff198254161790555482519182526020820152a1005b60405162461bcd60e51b815260206004820152602160248201527f436865636b2d696e2077696e646f7720616c72656164792074726967676572656044820152601960fa1b6064820152608490fd5b60405162461bcd60e51b815260206004820152601960248201527f436865636b2d696e2064617465206e6f742072656163686564000000000000006044820152606490fd5b60405162461bcd60e51b8152602060048201526012602482015271426f6f6b696e67206e6f742061637469766560701b6044820152606490fd5b60405162461bcd60e51b8152602060048201526016602482015275109bdbdada5b99c8191bd95cc81b9bdd08195e1a5cdd60521b6044820152606490fd5b346101a15760003660031901126101a1576001546040516001600160a01b039091168152602090f35b346101a15760203660031901126101a1576004356000818152600360205260409020600281015490919061115c906001600160a01b039081169061043861223d565b60ff6008830154169060088210156103705760ff600c7f847a573abaa8875d3fe466d414094860f38be0ea3e161a0ef08c0acd955f7ea7946111a2600460609614611d29565b6111b2600b820154421115611ee1565b01805462ff00001916620100001780825560081c82166111e9575b5460081c166040519182521515602082015260016040820152a1005b6111f28361212a565b6111cd565b346101a15760403660031901126101a157611210611bfd565b6001600160a01b03166000908152600560205260409020805460243591908210156101a15760209161124191611c4d565b90549060031b1c604051908152f35b346101a15760003660031901126101a1576000546040516001600160a01b039091168152602090f35b346101a15760403660031901126101a15760043567ffffffffffffffff81116101a1576112aa903690600401611b80565b6112c66020602435928160405193828580945193849201611b1c565b8101600481520301902080548210156101a15760209161124191611c4d565b346101a15760003660031901126101a1576040517f00000000000000000000000000000000000000000000000000000000000000006001600160a01b03168152602090f35b346101a15760203660031901126101a15760043580600052600360205260406000206008810160ff8154166008811015610370576001036114a357600a82015442111561145e57600460ff1982541617905562015180420191824211610bc157600d827fe07ad455e24561261e9047aab2f668ae1fc2cc6fda35021764673613b888836d94600b6080950155016113c18154611a1c565b601f811161143c575b50601e6e26b4b9b9b2b21031b432b1b596b4b760891b0190557f771ad1a63db62f3c96f995005dc4038b2d11173769793751c154afec8e3eed6d6020604051838152a160405190815260406020820152600f60408201526e26b4b9b9b2b21031b432b1b596b4b760891b6060820152a1005b6114589082600052601f6020600020910160051c810190611e85565b846113ca565b60405162461bcd60e51b815260206004820152601b60248201527f436865636b2d696e2077696e646f77206e6f74206578706972656400000000006044820152606490fd5b60405162461bcd60e51b81526020600482015260166024820152754e6f7420696e20636865636b2d696e2077696e646f7760501b6044820152606490fd5b346101a15760003660031901126101a1576114fa6120e2565b600080546001600160a01b0319811682556001600160a01b03167f8be0079c531659141344cd1fd0a4f28419497f9722a3daafe3b4186f6b6457e08280a3005b346101a15760203660031901126101a1576001600160a01b0361155b611bfd565b166000526005602052604060002060405190816020825491828152019160005260206000209060005b81811061159b576102378561022b81870382611a56565b8254845260209093019260019283019201611584565b6119fe565b346101a15760203660031901126101a15760206115d1611bfd565b6040517f00000000000000000000000000000000000000000000000000000000000000006001600160a01b039081169216919091148152f35b346101a157602061162361161d36611bc7565b91611d66565b6040519015158152f35b346101a15760203660031901126101a1576004358060005260036020526040600020600881019060ff825416600881101561037057600461166e9114611d29565b600b81015442111561171d57600c015460ff8160081c16908161170f575b506116ca57805460ff191660071790556040519081527f2dab28113e16ee2fb971a1376ce8421e58fc1c3d20d7acff8927a494fde0cdc090602090a1005b60405162461bcd60e51b815260206004820152601860248201527f4469737075746520616c7265616479207265736f6c76656400000000000000006044820152606490fd5b60ff915060101c168361168c565b60405162461bcd60e51b815260206004820152602560248201527f44697370757465207265736f6c7574696f6e2077696e646f77206e6f742065786044820152641c1a5c995960da1b6064820152608490fd5b346101a15760203660031901126101a157600435600052600360205260406000208054600182016117a090611a78565b91600160a01b60019003600282015416916003820154926004830154936005840154936006810154916007820154600883015460ff1693600984015497600a85015499600b86015494600c87015496600d016117fb90611a78565b986040519d8e9b8c5260208c0161020090526102008c0161181b91611b3f565b9a6040015260608d015260808c015260a08b015260c08a015260e089015260088310156103705787966102379660ff946101008a01526101208901526101408801526101608701528181161515610180870152818160081c1615156101a087015260101c1615156101c08501528382036101e0850152611b3f565b346101a15760203660031901126101a15760043560008181526003602052604090206002810180549092906118d9906001600160a01b039081169061043861223d565b600882019160ff8354166008811015610370576119c157600381015442101561198757611950600080808060077fedc1198b595a44e20b4738f6c85854e2c9f704982f488658f4c765030f15265699604099600560ff1982541617905560018060a01b039054169601958654905af1610ede611cb7565b7ff774c001cb52a3566b767ed6e37c92706acb2b80a3ff6049e2849cd62725d08560208451848152a15482519182526020820152a1005b60405162461bcd60e51b81526020600482015260126024820152715061737420636865636b2d696e206461746560701b6044820152606490fd5b60405162461bcd60e51b815260206004820152601560248201527443616e6e6f742063616e63656c20626f6f6b696e6760581b6044820152606490fd5b346101a15760003660031901126101a1576020604051620151808152f35b90600182811c92168015611a4c575b6020831014611a3657565b634e487b7160e01b600052602260045260246000fd5b91607f1691611a2b565b90601f8019910116810190811067ffffffffffffffff821117610bab57604052565b9060405191826000825492611a8c84611a1c565b8084529360018116908115611afa5750600114611ab3575b50611ab192500383611a56565b565b90506000929192526020600020906000915b818310611ade575050906020611ab19282010138611aa4565b6020919350806001915483858901015201910190918492611ac5565b905060209250611ab194915060ff191682840152151560051b82010138611aa4565b60005b838110611b2f5750506000910152565b8181015183820152602001611b1f565b90602091611b5881518092818552858086019101611b1c565b601f01601f1916010190565b67ffffffffffffffff8111610bab57601f01601f191660200190565b81601f820112156101a157803590611b9782611b64565b92611ba56040519485611a56565b828452602083830101116101a157816000926020809301838601378301015290565b60606003198201126101a1576004359067ffffffffffffffff82116101a157611bf291600401611b80565b906024359060443590565b600435906001600160a01b03821682036101a157565b602060408183019282815284518094520192019060005b818110611c375750505090565b8251845260209384019390920191600101611c2a565b8054821015611c655760005260206000200190600090565b634e487b7160e01b600052603260045260246000fd5b15611c8257565b60405162461bcd60e51b815260206004820152600d60248201526c139bdd081d1a194819dd595cdd609a1b6044820152606490fd5b3d15611ce2573d90611cc882611b64565b91611cd66040519384611a56565b82523d6000602084013e565b606090565b15611cee57565b60405162461bcd60e51b815260206004820152601360248201527211dd595cdd081c99599d5b990819985a5b1959606a1b6044820152606490fd5b15611d3057565b60405162461bcd60e51b815260206004820152600e60248201526d4e6f7420696e206469737075746560901b6044820152606490fd5b6020611d82919392938160405193828580945193849201611b1c565b81016004815203019020906040518083602082955493848152019060005260206000209260005b818110611e6c575050611dbe92500383611a56565b60005b8251811015611e6357600060208260051b8501015181526003602052604081209060ff6008830154166008811015611e4f5760058114918215611e42575b5050611e3957600481015485109081611e2b575b50611e22576001905b01611dc1565b50505050600190565b600391500154821138611e13565b50600190611e1c565b6006925050143880611dff565b634e487b7160e01b82526021600452602482fd5b50505050600090565b8454835260019485019487945060209093019201611da9565b818110611e90575050565b60008155600101611e85565b9190601f8111611eab57505050565b611ab1926000526020600020906020601f840160051c83019310611ed7575b601f0160051c0190611e85565b9091508190611eca565b15611ee857565b60405162461bcd60e51b8152602060048201526016602482015275111a5cdc1d5d19481dda5b991bddc8195e1c1a5c995960521b6044820152606490fd5b81601f820112156101a1578051611f3c81611b64565b92611f4a6040519485611a56565b818452602082840101116101a157611f689160208085019101611b1c565b90565b51906001600160a01b03821682036101a157565b9160c0838303126101a157825167ffffffffffffffff81116101a15782611fa7918501611f26565b92611fb460208201611f6b565b92611fc160408301611f6b565b92606083015192608081015180151581036101a1579260a082015167ffffffffffffffff81116101a157611f689201611f26565b91908203918211610bc157565b81810292918115918404141715610bc157565b805468010000000000000000811015610bab5761203791600182018155611c4d565b819291549060031b91821b91600019901b1916179055565b906020825260009181549161206383611a1c565b928360208401526001811690816000146120c15750600114612086575b50505090565b600090815260208120929350915b8383106120aa5750604092500101388080612080565b805460408484010152602090920191600101612094565b9150506040935060ff929192191683830152151560051b0101388080612080565b6000546001600160a01b03908116906120f961223d565b160361210157565b61210961223d565b63118cdaa760e01b60009081526001600160a01b0391909116600452602490fd5b806000526003602052604060002060018060a01b03600154169060006040518093634df4795360e11b82528180612167600187016004830161204f565b03915afa9081156103ed576000928392839283928392612218575b5060088101805460ff1916600317905560070154906001600160a01b03165af16121aa611cb7565b50156121dd5760207fe70f5cb5ecde9644c195a97cf45a506de023d1d170cd972f04441fafd993f15091604051908152a1565b60405162461bcd60e51b8152602060048201526013602482015272121bdcdd081c185e5b595b9d0819985a5b1959606a1b6044820152606490fd5b6007919250612230903d8086833e6103d98183611a56565b5050509150509190612182565b337f00000000000000000000000000000000000000000000000000000000000000006001600160a01b0316148061228b575b15612287576013193601368111610bc1573560601c90565b3390565b50601436101561226f56fea2646970667358221220f1a19bc4ce50c102b5355f0f2dfcafa6de619813cacc9fd3facf9b9092a082f264736f6c634300081c0033","opcodes":"PUSH1 0xA0 CALLVALUE PUSH2 0x10F JUMPI PUSH1 0x1F PUSH2 0x245C CODESIZE DUP2 SWAP1 SUB SWAP2 DUP3 ADD PUSH1 0x1F NOT AND DUP4 ADD SWAP2 PUSH1 0x1 PUSH1 0x1 PUSH1 0x40 SHL SUB DUP4 GT DUP5 DUP5 LT OR PUSH2 0x114 JUMPI DUP1 DUP5 SWAP3 PUSH1 0x40 SWAP5 DUP6 MSTORE DUP4 CODECOPY DUP2 ADD SUB SLT PUSH2 0x10F JUMPI PUSH2 0x52 PUSH1 0x20 PUSH2 0x4B DUP4 PUSH2 0x12A JUMP JUMPDEST SWAP3 ADD PUSH2 0x12A JUMP JUMPDEST SWAP1 PUSH1 0x1 PUSH1 0x1 PUSH1 0xA0 SHL SUB PUSH2 0x63 PUSH2 0x13E JUMP JUMPDEST AND SWAP2 DUP3 ISZERO PUSH2 0xF9 JUMPI PUSH1 0x0 DUP1 SLOAD PUSH1 0x1 PUSH1 0x1 PUSH1 0xA0 SHL SUB NOT DUP2 AND DUP6 OR DUP3 SSTORE PUSH1 0x40 MLOAD SWAP5 SWAP2 PUSH1 0x1 PUSH1 0x1 PUSH1 0xA0 SHL SUB SWAP1 SWAP2 AND SWAP1 PUSH32 0x8BE0079C531659141344CD1FD0A4F28419497F9722A3DAAFE3B4186F6B6457E0 SWAP1 DUP1 LOG3 PUSH1 0x80 MSTORE PUSH1 0x1 DUP1 SLOAD PUSH1 0x1 PUSH1 0x1 PUSH1 0xA0 SHL SUB NOT AND PUSH1 0x1 PUSH1 0x1 PUSH1 0xA0 SHL SUB SWAP3 SWAP1 SWAP3 AND SWAP2 SWAP1 SWAP2 OR SWAP1 SSTORE PUSH2 0x22CC SWAP1 DUP2 PUSH2 0x190 DUP3 CODECOPY PUSH1 0x80 MLOAD DUP2 DUP2 DUP2 PUSH2 0x12FB ADD MSTORE DUP2 DUP2 PUSH2 0x15D6 ADD MSTORE PUSH2 0x2240 ADD MSTORE RETURN JUMPDEST PUSH4 0x1E4FBDF7 PUSH1 0xE0 SHL PUSH1 0x0 MSTORE PUSH1 0x0 PUSH1 0x4 MSTORE PUSH1 0x24 PUSH1 0x0 REVERT JUMPDEST PUSH1 0x0 DUP1 REVERT JUMPDEST PUSH4 0x4E487B71 PUSH1 0xE0 SHL PUSH1 0x0 MSTORE PUSH1 0x41 PUSH1 0x4 MSTORE PUSH1 0x24 PUSH1 0x0 REVERT JUMPDEST MLOAD SWAP1 PUSH1 0x1 PUSH1 0x1 PUSH1 0xA0 SHL SUB DUP3 AND DUP3 SUB PUSH2 0x10F JUMPI JUMP JUMPDEST PUSH1 0x80 MLOAD PUSH1 0x1 PUSH1 0x1 PUSH1 0xA0 SHL SUB AND CALLER EQ DUP1 PUSH2 0x184 JUMPI JUMPDEST ISZERO PUSH2 0x180 JUMPI PUSH1 0x13 NOT CALLDATASIZE ADD CALLDATASIZE DUP2 GT PUSH2 0x16A JUMPI CALLDATALOAD PUSH1 0x60 SHR SWAP1 JUMP JUMPDEST PUSH4 0x4E487B71 PUSH1 0xE0 SHL PUSH1 0x0 MSTORE PUSH1 0x11 PUSH1 0x4 MSTORE PUSH1 0x24 PUSH1 0x0 REVERT JUMPDEST CALLER SWAP1 JUMP JUMPDEST POP PUSH1 0x14 CALLDATASIZE LT ISZERO PUSH2 0x152 JUMP INVALID PUSH1 0x80 PUSH1 0x40 MSTORE PUSH1 0x4 CALLDATASIZE LT ISZERO PUSH2 0x12 JUMPI PUSH1 0x0 DUP1 REVERT JUMPDEST PUSH1 0x0 CALLDATALOAD PUSH1 0xE0 SHR DUP1 PUSH3 0xF44CCD EQ PUSH2 0x19FE JUMPI DUP1 PUSH4 0xDCA825E EQ PUSH2 0x1896 JUMPI DUP1 PUSH4 0x1DAB301E EQ PUSH2 0x1770 JUMPI DUP1 PUSH4 0x20A68D25 EQ PUSH2 0x162D JUMPI DUP1 PUSH4 0x288C1609 EQ PUSH2 0x160A JUMPI DUP1 PUSH4 0x572B6C05 EQ PUSH2 0x15B6 JUMPI DUP1 PUSH4 0x5C980829 EQ PUSH2 0x15B1 JUMPI DUP1 PUSH4 0x63809AEF EQ PUSH2 0x153A JUMPI DUP1 PUSH4 0x715018A6 EQ PUSH2 0x14E1 JUMPI DUP1 PUSH4 0x72BEB510 EQ PUSH2 0x132A JUMPI DUP1 PUSH4 0x7DA0A877 EQ PUSH2 0x12E5 JUMPI DUP1 PUSH4 0x8D1CC984 EQ PUSH2 0x1279 JUMPI DUP1 PUSH4 0x8DA5CB5B EQ PUSH2 0x1250 JUMPI DUP1 PUSH4 0xA41CFA69 EQ PUSH2 0x11F7 JUMPI DUP1 PUSH4 0xBAE391D9 EQ PUSH2 0x111A JUMPI DUP1 PUSH4 0xC3ED62CE EQ PUSH2 0x10F1 JUMPI DUP1 PUSH4 0xCCEF7F33 EQ PUSH2 0xF3B JUMPI DUP1 PUSH4 0xD09DC22B EQ PUSH2 0xE25 JUMPI DUP1 PUSH4 0xDD662946 EQ PUSH2 0x543 JUMPI DUP1 PUSH4 0xE95A644F EQ PUSH2 0x3F9 JUMPI DUP1 PUSH4 0xF1161855 EQ PUSH2 0x251 JUMPI DUP1 PUSH4 0xF2C41B5A EQ PUSH2 0x1A6 JUMPI PUSH4 0xF2FDE38B EQ PUSH2 0x118 JUMPI PUSH1 0x0 DUP1 REVERT JUMPDEST CALLVALUE PUSH2 0x1A1 JUMPI PUSH1 0x20 CALLDATASIZE PUSH1 0x3 NOT ADD SLT PUSH2 0x1A1 JUMPI PUSH2 0x131 PUSH2 0x1BFD JUMP JUMPDEST PUSH2 0x139 PUSH2 0x20E2 JUMP JUMPDEST PUSH1 0x1 PUSH1 0x1 PUSH1 0xA0 SHL SUB AND DUP1 ISZERO PUSH2 0x18B JUMPI PUSH1 0x0 DUP1 SLOAD PUSH1 0x1 PUSH1 0x1 PUSH1 0xA0 SHL SUB NOT DUP2 AND DUP4 OR DUP3 SSTORE PUSH1 0x1 PUSH1 0x1 PUSH1 0xA0 SHL SUB AND SWAP1 PUSH32 0x8BE0079C531659141344CD1FD0A4F28419497F9722A3DAAFE3B4186F6B6457E0 SWAP1 DUP1 LOG3 STOP JUMPDEST PUSH4 0x1E4FBDF7 PUSH1 0xE0 SHL PUSH1 0x0 MSTORE PUSH1 0x0 PUSH1 0x4 MSTORE PUSH1 0x24 PUSH1 0x0 REVERT JUMPDEST PUSH1 0x0 DUP1 REVERT JUMPDEST CALLVALUE PUSH2 0x1A1 JUMPI PUSH1 0x20 CALLDATASIZE PUSH1 0x3 NOT ADD SLT PUSH2 0x1A1 JUMPI PUSH1 0x4 CALLDATALOAD PUSH8 0xFFFFFFFFFFFFFFFF DUP2 GT PUSH2 0x1A1 JUMPI PUSH1 0x20 PUSH2 0x1DC PUSH2 0x1EF SWAP3 CALLDATASIZE SWAP1 PUSH1 0x4 ADD PUSH2 0x1B80 JUMP JUMPDEST DUP2 PUSH1 0x40 MLOAD SWAP4 DUP3 DUP6 DUP1 SWAP5 MLOAD SWAP4 DUP5 SWAP3 ADD PUSH2 0x1B1C JUMP JUMPDEST DUP2 ADD PUSH1 0x4 DUP2 MSTORE SUB ADD SWAP1 KECCAK256 PUSH1 0x40 MLOAD SWAP1 DUP2 PUSH1 0x20 DUP3 SLOAD SWAP2 DUP3 DUP2 MSTORE ADD SWAP2 PUSH1 0x0 MSTORE PUSH1 0x20 PUSH1 0x0 KECCAK256 SWAP1 PUSH1 0x0 JUMPDEST DUP2 DUP2 LT PUSH2 0x23B JUMPI PUSH2 0x237 DUP6 PUSH2 0x22B DUP2 DUP8 SUB DUP3 PUSH2 0x1A56 JUMP JUMPDEST PUSH1 0x40 MLOAD SWAP2 DUP3 SWAP2 DUP3 PUSH2 0x1C13 JUMP JUMPDEST SUB SWAP1 RETURN JUMPDEST DUP3 SLOAD DUP5 MSTORE PUSH1 0x20 SWAP1 SWAP4 ADD SWAP3 PUSH1 0x1 SWAP3 DUP4 ADD SWAP3 ADD PUSH2 0x214 JUMP JUMPDEST CALLVALUE PUSH2 0x1A1 JUMPI PUSH1 0x20 CALLDATASIZE PUSH1 0x3 NOT ADD SLT PUSH2 0x1A1 JUMPI PUSH1 0x4 CALLDATALOAD DUP1 PUSH1 0x0 MSTORE PUSH1 0x3 PUSH1 0x20 MSTORE PUSH1 0x40 PUSH1 0x0 KECCAK256 SWAP1 PUSH1 0x1 DUP1 PUSH1 0xA0 SHL SUB PUSH1 0x1 SLOAD AND PUSH1 0x0 PUSH1 0x40 MLOAD DUP1 SWAP3 PUSH4 0x4DF47953 PUSH1 0xE1 SHL DUP3 MSTORE DUP2 DUP1 PUSH2 0x2A2 PUSH1 0x1 DUP10 ADD PUSH1 0x4 DUP4 ADD PUSH2 0x204F JUMP JUMPDEST SUB SWAP2 GAS STATICCALL SWAP1 DUP2 ISZERO PUSH2 0x3ED JUMPI PUSH1 0x0 SWAP2 PUSH2 0x3C4 JUMPI JUMPDEST POP PUSH1 0x1 PUSH1 0x1 PUSH1 0xA0 SHL SUB PUSH2 0x2C6 PUSH2 0x223D JUMP JUMPDEST AND PUSH1 0x1 PUSH1 0x1 PUSH1 0xA0 SHL SUB SWAP1 SWAP2 AND SUB PUSH2 0x386 JUMPI PUSH1 0xFF PUSH1 0x8 DUP4 ADD SLOAD AND SWAP1 PUSH1 0x8 DUP3 LT ISZERO PUSH2 0x370 JUMPI PUSH1 0xFF PUSH1 0xC PUSH32 0x847A573ABAA8875D3FE466D414094860F38BE0EA3E161A0EF08C0ACD955F7EA7 SWAP5 PUSH2 0x31D PUSH1 0x4 PUSH1 0x60 SWAP7 EQ PUSH2 0x1D29 JUMP JUMPDEST PUSH2 0x32D PUSH1 0xB DUP3 ADD SLOAD TIMESTAMP GT ISZERO PUSH2 0x1EE1 JUMP JUMPDEST ADD DUP1 SLOAD PUSH2 0xFF00 NOT AND PUSH2 0x100 OR DUP1 DUP3 SSTORE PUSH1 0x10 SHR DUP3 AND PUSH2 0x362 JUMPI JUMPDEST SLOAD PUSH1 0x10 SHR AND PUSH1 0x40 MLOAD SWAP2 DUP3 MSTORE PUSH1 0x1 PUSH1 0x20 DUP4 ADD MSTORE ISZERO ISZERO PUSH1 0x40 DUP3 ADD MSTORE LOG1 STOP JUMPDEST PUSH2 0x36B DUP4 PUSH2 0x212A JUMP JUMPDEST PUSH2 0x346 JUMP JUMPDEST PUSH4 0x4E487B71 PUSH1 0xE0 SHL PUSH1 0x0 MSTORE PUSH1 0x21 PUSH1 0x4 MSTORE PUSH1 0x24 PUSH1 0x0 REVERT JUMPDEST PUSH1 0x40 MLOAD PUSH3 0x461BCD PUSH1 0xE5 SHL DUP2 MSTORE PUSH1 0x20 PUSH1 0x4 DUP3 ADD MSTORE PUSH1 0x16 PUSH1 0x24 DUP3 ADD MSTORE PUSH22 0x2737BA103A343290383937B832B93A3C9037BBB732B9 PUSH1 0x51 SHL PUSH1 0x44 DUP3 ADD MSTORE PUSH1 0x64 SWAP1 REVERT JUMPDEST PUSH2 0x3E1 SWAP2 POP RETURNDATASIZE DUP1 PUSH1 0x0 DUP4 RETURNDATACOPY PUSH2 0x3D9 DUP2 DUP4 PUSH2 0x1A56 JUMP JUMPDEST DUP2 ADD SWAP1 PUSH2 0x1F7F JUMP JUMPDEST POP POP POP SWAP2 POP POP DUP4 PUSH2 0x2B5 JUMP JUMPDEST PUSH1 0x40 MLOAD RETURNDATASIZE PUSH1 0x0 DUP3 RETURNDATACOPY RETURNDATASIZE SWAP1 REVERT JUMPDEST CALLVALUE PUSH2 0x1A1 JUMPI PUSH1 0x20 CALLDATASIZE PUSH1 0x3 NOT ADD SLT PUSH2 0x1A1 JUMPI PUSH1 0x4 CALLDATALOAD PUSH1 0x0 DUP2 DUP2 MSTORE PUSH1 0x3 PUSH1 0x20 MSTORE PUSH1 0x40 SWAP1 KECCAK256 PUSH1 0x2 DUP2 ADD SLOAD PUSH2 0x43F SWAP1 PUSH1 0x1 PUSH1 0x1 PUSH1 0xA0 SHL SUB SWAP1 DUP2 AND SWAP1 PUSH2 0x438 PUSH2 0x223D JUMP JUMPDEST AND EQ PUSH2 0x1C7B JUMP JUMPDEST PUSH1 0x8 DUP2 ADD SWAP2 PUSH1 0xFF DUP4 SLOAD AND PUSH1 0x8 DUP2 LT ISZERO PUSH2 0x370 JUMPI PUSH1 0x1 SUB PUSH2 0x505 JUMPI PUSH1 0xA DUP3 ADD SLOAD TIMESTAMP GT PUSH2 0x4C0 JUMPI PUSH1 0xC PUSH1 0x40 SWAP3 PUSH32 0x70790C0AB38E2ACA9B5520985FE66DB2A3700C3680B61C3853B5554F67A2C31C SWAP5 PUSH1 0x2 PUSH1 0xFF NOT DUP3 SLOAD AND OR SWAP1 SSTORE ADD PUSH1 0x1 PUSH1 0xFF NOT DUP3 SLOAD AND OR SWAP1 SSTORE PUSH2 0x4AA PUSH2 0x223D JUMP JUMPDEST DUP3 MLOAD SWAP2 DUP3 MSTORE PUSH1 0x1 PUSH1 0x1 PUSH1 0xA0 SHL SUB AND PUSH1 0x20 DUP3 ADD MSTORE LOG1 STOP JUMPDEST PUSH1 0x40 MLOAD PUSH3 0x461BCD PUSH1 0xE5 SHL DUP2 MSTORE PUSH1 0x20 PUSH1 0x4 DUP3 ADD MSTORE PUSH1 0x17 PUSH1 0x24 DUP3 ADD MSTORE PUSH32 0x436865636B2D696E2077696E646F772065787069726564000000000000000000 PUSH1 0x44 DUP3 ADD MSTORE PUSH1 0x64 SWAP1 REVERT JUMPDEST PUSH1 0x40 MLOAD PUSH3 0x461BCD PUSH1 0xE5 SHL DUP2 MSTORE PUSH1 0x20 PUSH1 0x4 DUP3 ADD MSTORE PUSH1 0x16 PUSH1 0x24 DUP3 ADD MSTORE PUSH22 0x2737BA103932B0B23C903337B91031B432B1B596B4B7 PUSH1 0x51 SHL PUSH1 0x44 DUP3 ADD MSTORE PUSH1 0x64 SWAP1 REVERT JUMPDEST PUSH2 0x54C CALLDATASIZE PUSH2 0x1BC7 JUMP JUMPDEST PUSH1 0x1 SLOAD PUSH1 0x40 MLOAD PUSH4 0x4DF47953 PUSH1 0xE1 SHL DUP2 MSTORE PUSH1 0x20 PUSH1 0x4 DUP3 ADD MSTORE PUSH1 0x1 PUSH1 0x1 PUSH1 0xA0 SHL SUB SWAP1 SWAP2 AND SWAP4 SWAP2 SWAP3 SWAP1 PUSH1 0x0 DUP2 DUP1 PUSH2 0x583 PUSH1 0x24 DUP3 ADD DUP8 PUSH2 0x1B3F JUMP JUMPDEST SUB DUP2 DUP9 GAS STATICCALL DUP1 ISZERO PUSH2 0x3ED JUMPI PUSH1 0x0 SWAP1 PUSH1 0x0 SWAP3 PUSH1 0x0 SWAP2 PUSH2 0xE00 JUMPI JUMPDEST POP ISZERO PUSH2 0xDC5 JUMPI PUSH1 0x1 PUSH1 0x1 PUSH1 0xA0 SHL SUB AND ISZERO PUSH2 0xD80 JUMPI TIMESTAMP DUP3 GT ISZERO PUSH2 0xD3B JUMPI DUP2 DUP5 GT ISZERO PUSH2 0xCF7 JUMPI PUSH2 0x5CB DUP5 DUP4 DUP6 PUSH2 0x1D66 JUMP JUMPDEST PUSH2 0xC9D JUMPI PUSH3 0x15180 PUSH2 0x5DD DUP4 DUP7 PUSH2 0x1FF5 JUMP JUMPDEST DIV DUP1 ISZERO PUSH2 0xC59 JUMPI PUSH2 0x5ED SWAP2 PUSH2 0x2002 JUMP JUMPDEST SWAP4 DUP5 CALLVALUE LT PUSH2 0xC1D JUMPI PUSH1 0x20 PUSH1 0x4 SWAP2 PUSH1 0x40 MLOAD SWAP3 DUP4 DUP1 SWAP3 PUSH4 0x3375E33F PUSH1 0xE2 SHL DUP3 MSTORE GAS STATICCALL SWAP1 DUP2 ISZERO PUSH2 0x3ED JUMPI PUSH1 0x0 SWAP2 PUSH2 0xBD7 JUMPI JUMPDEST POP PUSH2 0x62E PUSH2 0xFFFF PUSH2 0x3E8 SWAP3 AND DUP7 PUSH2 0x2002 JUMP JUMPDEST DIV SWAP4 PUSH2 0x63A DUP6 DUP3 PUSH2 0x1FF5 JUMP JUMPDEST SWAP2 PUSH1 0x2 SLOAD SWAP5 PUSH1 0x0 NOT DUP7 EQ PUSH2 0xBC1 JUMPI PUSH1 0x1 DUP7 ADD PUSH1 0x2 SSTORE PUSH2 0x657 PUSH2 0x223D JUMP JUMPDEST SWAP4 PUSH1 0x40 MLOAD SWAP2 PUSH2 0x200 DUP4 ADD DUP4 DUP2 LT PUSH8 0xFFFFFFFFFFFFFFFF DUP3 GT OR PUSH2 0xBAB JUMPI PUSH1 0x40 MSTORE PUSH1 0x1 DUP9 ADD DUP4 MSTORE DUP7 PUSH1 0x20 DUP5 ADD MSTORE PUSH1 0x1 DUP1 PUSH1 0xA0 SHL SUB DUP7 AND PUSH1 0x40 DUP5 ADD MSTORE DUP4 PUSH1 0x60 DUP5 ADD MSTORE PUSH1 0x80 DUP4 ADD MSTORE DUP4 PUSH1 0xA0 DUP4 ADD MSTORE DUP8 PUSH1 0xC0 DUP4 ADD MSTORE PUSH1 0xE0 DUP3 ADD MSTORE PUSH1 0x0 PUSH2 0x100 DUP3 ADD MSTORE PUSH1 0x0 PUSH2 0x120 DUP3 ADD MSTORE PUSH1 0x0 PUSH2 0x140 DUP3 ADD MSTORE PUSH1 0x0 PUSH2 0x160 DUP3 ADD MSTORE PUSH1 0x0 PUSH2 0x180 DUP3 ADD MSTORE PUSH1 0x0 PUSH2 0x1A0 DUP3 ADD MSTORE PUSH1 0x0 PUSH2 0x1C0 DUP3 ADD MSTORE PUSH1 0x20 SWAP7 PUSH1 0x40 MLOAD PUSH2 0x6F5 DUP10 DUP3 PUSH2 0x1A56 JUMP JUMPDEST PUSH1 0x0 DUP2 MSTORE PUSH2 0x1E0 DUP4 ADD MSTORE PUSH1 0x1 DUP8 ADD PUSH1 0x0 MSTORE PUSH1 0x3 DUP9 MSTORE PUSH1 0x40 PUSH1 0x0 KECCAK256 SWAP2 DUP1 MLOAD DUP4 SSTORE PUSH1 0x1 DUP4 ADD PUSH1 0x20 DUP3 ADD MLOAD DUP1 MLOAD SWAP1 PUSH8 0xFFFFFFFFFFFFFFFF DUP3 GT PUSH2 0xBAB JUMPI DUP2 SWAP1 PUSH2 0x745 DUP3 PUSH2 0x73F DUP7 SLOAD PUSH2 0x1A1C JUMP JUMPDEST DUP7 PUSH2 0x1E9C JUMP JUMPDEST DUP13 SWAP1 DUP14 PUSH1 0x1F DUP5 GT PUSH1 0x1 EQ PUSH2 0xB45 JUMPI POP PUSH1 0x0 SWAP3 PUSH2 0xB3A JUMPI JUMPDEST POP POP DUP2 PUSH1 0x1 SHL SWAP2 PUSH1 0x0 NOT SWAP1 PUSH1 0x3 SHL SHR NOT AND OR SWAP1 SSTORE JUMPDEST PUSH1 0x2 DUP4 ADD PUSH1 0x1 DUP1 PUSH1 0xA0 SHL SUB PUSH1 0x40 DUP4 ADD MLOAD AND PUSH12 0xFFFFFFFFFFFFFFFFFFFFFFFF PUSH1 0xA0 SHL DUP3 SLOAD AND OR SWAP1 SSTORE PUSH1 0x60 DUP2 ADD MLOAD PUSH1 0x3 DUP5 ADD SSTORE PUSH1 0x80 DUP2 ADD MLOAD PUSH1 0x4 DUP5 ADD SSTORE PUSH1 0xA0 DUP2 ADD MLOAD PUSH1 0x5 DUP5 ADD SSTORE PUSH1 0xC0 DUP2 ADD MLOAD PUSH1 0x6 DUP5 ADD SSTORE PUSH1 0xE0 DUP2 ADD MLOAD PUSH1 0x7 DUP5 ADD SSTORE PUSH1 0x8 DUP4 ADD SWAP3 PUSH2 0x100 DUP3 ADD MLOAD SWAP4 PUSH1 0x8 DUP6 LT ISZERO PUSH2 0x370 JUMPI DUP1 SLOAD PUSH1 0xFF SWAP6 DUP7 AND PUSH1 0xFF NOT SWAP2 SWAP1 SWAP2 AND OR SWAP1 SSTORE PUSH2 0x120 DUP3 ADD MLOAD PUSH1 0x9 DUP3 ADD SSTORE PUSH2 0x140 DUP3 ADD MLOAD PUSH1 0xA DUP3 ADD SSTORE PUSH2 0x160 DUP3 ADD MLOAD PUSH1 0xB DUP3 ADD SSTORE PUSH2 0x180 DUP3 ADD MLOAD PUSH1 0xC DUP3 ADD DUP1 SLOAD PUSH2 0x1A0 DUP6 ADD MLOAD PUSH2 0x1C0 DUP7 ADD MLOAD PUSH3 0xFFFFFF NOT SWAP1 SWAP3 AND SWAP4 ISZERO ISZERO SWAP1 SWAP8 AND SWAP3 SWAP1 SWAP3 OR SWAP6 ISZERO ISZERO PUSH1 0x8 SHL PUSH2 0xFF00 AND SWAP6 SWAP1 SWAP6 OR SWAP1 ISZERO ISZERO PUSH1 0x10 SHL PUSH3 0xFF0000 AND OR SWAP1 SWAP4 SSTORE PUSH2 0x1E0 ADD MLOAD DUP1 MLOAD PUSH1 0x0 SWAP4 PUSH1 0xD ADD SWAP2 PUSH8 0xFFFFFFFFFFFFFFFF DUP3 GT PUSH2 0xB26 JUMPI DUP2 SWAP1 PUSH2 0x885 DUP3 PUSH2 0x73F DUP7 SLOAD PUSH2 0x1A1C JUMP JUMPDEST DUP12 SWAP1 PUSH1 0x1F DUP4 GT PUSH1 0x1 EQ PUSH2 0xAC1 JUMPI DUP7 SWAP3 PUSH2 0xAB6 JUMPI JUMPDEST POP POP DUP2 PUSH1 0x1 SHL SWAP2 PUSH1 0x0 NOT SWAP1 PUSH1 0x3 SHL SHR NOT AND OR SWAP1 SSTORE JUMPDEST PUSH2 0x8DA PUSH1 0x40 MLOAD DUP8 MLOAD PUSH2 0x8C3 DUP2 DUP4 DUP14 DUP13 ADD PUSH2 0x1B1C JUMP JUMPDEST DUP2 ADD SWAP1 PUSH1 0x4 DUP3 MSTORE DUP11 DUP2 PUSH1 0x1 DUP13 ADD SWAP4 SUB ADD SWAP1 KECCAK256 PUSH2 0x2015 JUMP JUMPDEST PUSH1 0x1 PUSH1 0x1 PUSH1 0xA0 SHL SUB DUP6 AND DUP3 MSTORE PUSH1 0x5 DUP9 MSTORE PUSH1 0x40 DUP3 KECCAK256 PUSH2 0x8FC SWAP1 PUSH1 0x1 DUP10 ADD SWAP1 PUSH2 0x2015 JUMP JUMPDEST PUSH1 0x1 SLOAD PUSH1 0x40 MLOAD PUSH4 0x11A4121 PUSH1 0xE6 SHL DUP2 MSTORE SWAP1 DUP10 SWAP1 DUP3 SWAP1 PUSH1 0x4 SWAP1 DUP3 SWAP1 PUSH1 0x1 PUSH1 0x1 PUSH1 0xA0 SHL SUB AND GAS STATICCALL SWAP1 DUP2 ISZERO PUSH2 0xAAB JUMPI SWAP1 DUP4 SWAP2 DUP3 SWAP2 PUSH2 0xA66 JUMPI JUMPDEST POP SWAP1 SWAP2 DUP3 SWAP2 DUP3 SWAP2 DUP3 SWAP2 PUSH1 0x1 PUSH1 0x1 PUSH1 0xA0 SHL SUB AND GAS CALL PUSH2 0x94E PUSH2 0x1CB7 JUMP JUMPDEST POP ISZERO PUSH2 0xA2B JUMPI DUP3 CALLVALUE GT PUSH2 0x9C9 JUMPI JUMPDEST POP SWAP2 PUSH32 0xB21A131DB9E3377301833CE70BE73B950EF23B9D94873B831AC7BBEE23314C38 SWAP4 SWAP2 PUSH2 0x9A1 SWAP4 PUSH1 0x40 MLOAD SWAP5 DUP6 SWAP5 PUSH1 0x1 DUP10 ADD DUP7 MSTORE PUSH1 0xA0 DUP11 DUP8 ADD MSTORE PUSH1 0xA0 DUP7 ADD SWAP1 PUSH2 0x1B3F JUMP JUMPDEST PUSH1 0x1 PUSH1 0x1 PUSH1 0xA0 SHL SUB SWAP1 SWAP4 AND PUSH1 0x40 DUP6 ADD MSTORE PUSH1 0x60 DUP5 ADD MSTORE PUSH1 0x80 DUP4 ADD MSTORE SUB SWAP1 LOG1 PUSH1 0x1 PUSH1 0x40 MLOAD SWAP2 ADD DUP2 MSTORE RETURN JUMPDEST DUP1 DUP1 DUP1 PUSH2 0x9D6 DUP7 CALLVALUE PUSH2 0x1FF5 JUMP JUMPDEST DUP8 GAS CALL PUSH2 0x9E1 PUSH2 0x1CB7 JUMP JUMPDEST POP ISZERO PUSH2 0x9ED JUMPI DUP7 PUSH2 0x95C JUMP JUMPDEST PUSH1 0x40 MLOAD PUSH3 0x461BCD PUSH1 0xE5 SHL DUP2 MSTORE PUSH1 0x4 DUP2 ADD DUP8 SWAP1 MSTORE PUSH1 0x16 PUSH1 0x24 DUP3 ADD MSTORE PUSH22 0x1499599D5B99081D1C985B9CD9995C8819985A5B1959 PUSH1 0x52 SHL PUSH1 0x44 DUP3 ADD MSTORE PUSH1 0x64 SWAP1 REVERT JUMPDEST PUSH1 0x40 MLOAD PUSH3 0x461BCD PUSH1 0xE5 SHL DUP2 MSTORE PUSH1 0x4 DUP2 ADD DUP9 SWAP1 MSTORE PUSH1 0x13 PUSH1 0x24 DUP3 ADD MSTORE PUSH19 0x119959481D1C985B9CD9995C8819985A5B1959 PUSH1 0x6A SHL PUSH1 0x44 DUP3 ADD MSTORE PUSH1 0x64 SWAP1 REVERT JUMPDEST DUP1 SWAP3 POP DUP11 DUP1 SWAP3 POP RETURNDATASIZE DUP4 GT PUSH2 0xAA4 JUMPI JUMPDEST PUSH2 0xA7F DUP2 DUP4 PUSH2 0x1A56 JUMP JUMPDEST DUP2 ADD SUB SLT PUSH2 0xAA0 JUMPI MLOAD PUSH1 0x1 PUSH1 0x1 PUSH1 0xA0 SHL SUB DUP2 AND DUP2 SUB PUSH2 0xAA0 JUMPI DUP3 SWAP1 DUP2 PUSH2 0x932 JUMP JUMPDEST DUP3 DUP1 REVERT JUMPDEST POP RETURNDATASIZE PUSH2 0xA75 JUMP JUMPDEST PUSH1 0x40 MLOAD RETURNDATASIZE DUP6 DUP3 RETURNDATACOPY RETURNDATASIZE SWAP1 REVERT JUMPDEST ADD MLOAD SWAP1 POP DUP12 DUP1 PUSH2 0x899 JUMP JUMPDEST DUP5 DUP8 MSTORE DUP13 DUP8 KECCAK256 SWAP3 POP PUSH1 0x1F NOT DUP5 AND DUP8 DUP15 JUMPDEST DUP3 DUP3 LT PUSH2 0xB0E JUMPI POP POP SWAP1 DUP5 PUSH1 0x1 SWAP6 SWAP5 SWAP4 SWAP3 LT PUSH2 0xAF5 JUMPI JUMPDEST POP POP POP DUP2 SHL ADD SWAP1 SSTORE PUSH2 0x8AE JUMP JUMPDEST ADD MLOAD PUSH1 0x0 NOT PUSH1 0xF8 DUP5 PUSH1 0x3 SHL AND SHR NOT AND SWAP1 SSTORE DUP12 DUP1 DUP1 PUSH2 0xAE8 JUMP JUMPDEST DUP1 PUSH1 0x1 DUP7 SWAP8 DUP3 SWAP5 SWAP8 DUP8 ADD MLOAD DUP2 SSTORE ADD SWAP7 ADD SWAP5 ADD SWAP1 PUSH2 0xAD1 JUMP JUMPDEST PUSH4 0x4E487B71 PUSH1 0xE0 SHL DUP6 MSTORE PUSH1 0x41 PUSH1 0x4 MSTORE PUSH1 0x24 DUP6 REVERT JUMPDEST ADD MLOAD SWAP1 POP DUP13 DUP1 PUSH2 0x75C JUMP JUMPDEST PUSH1 0x0 DUP7 DUP2 MSTORE DUP2 DUP2 KECCAK256 SWAP5 POP PUSH1 0x1F NOT DUP7 AND SWAP2 JUMPDEST DUP3 DUP3 LT PUSH2 0xB93 JUMPI POP POP SWAP1 DUP5 PUSH1 0x1 SWAP6 SWAP5 SWAP4 SWAP3 LT PUSH2 0xB7A JUMPI JUMPDEST POP POP POP DUP2 SHL ADD SWAP1 SSTORE PUSH2 0x771 JUMP JUMPDEST ADD MLOAD PUSH1 0x0 NOT PUSH1 0xF8 DUP5 PUSH1 0x3 SHL AND SHR NOT AND SWAP1 SSTORE DUP13 DUP1 DUP1 PUSH2 0xB6D JUMP JUMPDEST DUP1 PUSH1 0x1 DUP7 SWAP8 DUP3 SWAP5 SWAP8 DUP8 ADD MLOAD DUP2 SSTORE ADD SWAP7 ADD SWAP5 ADD SWAP1 PUSH2 0xB56 JUMP JUMPDEST PUSH4 0x4E487B71 PUSH1 0xE0 SHL PUSH1 0x0 MSTORE PUSH1 0x41 PUSH1 0x4 MSTORE PUSH1 0x24 PUSH1 0x0 REVERT JUMPDEST PUSH4 0x4E487B71 PUSH1 0xE0 SHL PUSH1 0x0 MSTORE PUSH1 0x11 PUSH1 0x4 MSTORE PUSH1 0x24 PUSH1 0x0 REVERT JUMPDEST PUSH1 0x20 DUP2 RETURNDATASIZE PUSH1 0x20 GT PUSH2 0xC15 JUMPI JUMPDEST DUP2 PUSH2 0xBF0 PUSH1 0x20 SWAP4 DUP4 PUSH2 0x1A56 JUMP JUMPDEST DUP2 ADD SUB SLT PUSH2 0xC11 JUMPI MLOAD SWAP1 PUSH2 0xFFFF DUP3 AND DUP3 SUB PUSH2 0xC0E JUMPI POP PUSH2 0x62E PUSH2 0x61C JUMP JUMPDEST DUP1 REVERT JUMPDEST POP DUP1 REVERT JUMPDEST RETURNDATASIZE SWAP2 POP PUSH2 0xBE3 JUMP JUMPDEST PUSH1 0x40 MLOAD PUSH3 0x461BCD PUSH1 0xE5 SHL DUP2 MSTORE PUSH1 0x20 PUSH1 0x4 DUP3 ADD MSTORE PUSH1 0x14 PUSH1 0x24 DUP3 ADD MSTORE PUSH20 0x125B9CDD59999A58DA595B9D081C185E5B595B9D PUSH1 0x62 SHL PUSH1 0x44 DUP3 ADD MSTORE PUSH1 0x64 SWAP1 REVERT JUMPDEST PUSH1 0x64 PUSH1 0x40 MLOAD PUSH3 0x461BCD PUSH1 0xE5 SHL DUP2 MSTORE PUSH1 0x20 PUSH1 0x4 DUP3 ADD MSTORE PUSH1 0x20 PUSH1 0x24 DUP3 ADD MSTORE PUSH32 0x426F6F6B696E67206D757374206265206174206C656173742031206E69676874 PUSH1 0x44 DUP3 ADD MSTORE REVERT JUMPDEST PUSH1 0x40 MLOAD PUSH3 0x461BCD PUSH1 0xE5 SHL DUP2 MSTORE PUSH1 0x20 PUSH1 0x4 DUP3 ADD MSTORE PUSH1 0x2C PUSH1 0x24 DUP3 ADD MSTORE PUSH32 0x426F6F6B696E6720646174657320636F6E666C69637420776974682065786973 PUSH1 0x44 DUP3 ADD MSTORE PUSH12 0x74696E6720626F6F6B696E67 PUSH1 0xA0 SHL PUSH1 0x64 DUP3 ADD MSTORE PUSH1 0x84 SWAP1 REVERT JUMPDEST PUSH1 0x64 PUSH1 0x40 MLOAD PUSH3 0x461BCD PUSH1 0xE5 SHL DUP2 MSTORE PUSH1 0x20 PUSH1 0x4 DUP3 ADD MSTORE PUSH1 0x20 PUSH1 0x24 DUP3 ADD MSTORE PUSH32 0x436865636B2D6F7574206D75737420626520616674657220636865636B2D696E PUSH1 0x44 DUP3 ADD MSTORE REVERT JUMPDEST PUSH1 0x40 MLOAD PUSH3 0x461BCD PUSH1 0xE5 SHL DUP2 MSTORE PUSH1 0x20 PUSH1 0x4 DUP3 ADD MSTORE PUSH1 0x1E PUSH1 0x24 DUP3 ADD MSTORE PUSH32 0x436865636B2D696E206D75737420626520696E20746865206675747572650000 PUSH1 0x44 DUP3 ADD MSTORE PUSH1 0x64 SWAP1 REVERT JUMPDEST PUSH1 0x40 MLOAD PUSH3 0x461BCD PUSH1 0xE5 SHL DUP2 MSTORE PUSH1 0x20 PUSH1 0x4 DUP3 ADD MSTORE PUSH1 0x17 PUSH1 0x24 DUP3 ADD MSTORE PUSH32 0x50726F706572747920646F6573206E6F74206578697374000000000000000000 PUSH1 0x44 DUP3 ADD MSTORE PUSH1 0x64 SWAP1 REVERT JUMPDEST PUSH1 0x40 MLOAD PUSH3 0x461BCD PUSH1 0xE5 SHL DUP2 MSTORE PUSH1 0x20 PUSH1 0x4 DUP3 ADD MSTORE PUSH1 0x13 PUSH1 0x24 DUP3 ADD MSTORE PUSH19 0x50726F7065727479206E6F7420616374697665 PUSH1 0x68 SHL PUSH1 0x44 DUP3 ADD MSTORE PUSH1 0x64 SWAP1 REVERT JUMPDEST SWAP2 POP POP PUSH2 0xE18 SWAP2 POP RETURNDATASIZE DUP1 PUSH1 0x0 DUP4 RETURNDATACOPY PUSH2 0x3D9 DUP2 DUP4 PUSH2 0x1A56 JUMP JUMPDEST POP SWAP4 POP SWAP2 POP SWAP1 SWAP2 DUP8 PUSH2 0x59C JUMP JUMPDEST CALLVALUE PUSH2 0x1A1 JUMPI PUSH1 0x40 CALLDATASIZE PUSH1 0x3 NOT ADD SLT PUSH2 0x1A1 JUMPI PUSH1 0x4 CALLDATALOAD PUSH1 0x24 CALLDATALOAD DUP1 ISZERO ISZERO DUP2 SUB PUSH2 0x1A1 JUMPI PUSH2 0xE4D PUSH2 0x20E2 JUMP JUMPDEST DUP2 PUSH1 0x0 MSTORE PUSH1 0x3 PUSH1 0x20 MSTORE PUSH1 0xFF PUSH1 0x8 PUSH1 0x40 PUSH1 0x0 KECCAK256 ADD SLOAD AND PUSH1 0x8 DUP2 LT ISZERO PUSH2 0x370 JUMPI PUSH1 0x7 SUB PUSH2 0xEFD JUMPI ISZERO PUSH2 0xEF2 JUMPI PUSH1 0x40 DUP2 PUSH32 0xEDC1198B595A44E20B4738F6C85854E2C9F704982F488658F4C765030F152656 SWAP3 PUSH1 0x0 MSTORE PUSH1 0x3 PUSH1 0x20 MSTORE DUP2 PUSH1 0x0 KECCAK256 PUSH1 0x8 DUP2 ADD PUSH1 0x6 PUSH1 0xFF NOT DUP3 SLOAD AND OR SWAP1 SSTORE PUSH2 0xEE4 PUSH1 0x0 DUP1 DUP1 DUP1 PUSH1 0x7 PUSH1 0x1 DUP1 PUSH1 0xA0 SHL SUB PUSH1 0x2 DUP9 ADD SLOAD AND SWAP7 ADD SWAP6 DUP7 SLOAD SWAP1 GAS CALL PUSH2 0xEDE PUSH2 0x1CB7 JUMP JUMPDEST POP PUSH2 0x1CE7 JUMP JUMPDEST SLOAD DUP3 MLOAD SWAP2 DUP3 MSTORE PUSH1 0x20 DUP3 ADD MSTORE LOG1 STOP JUMPDEST PUSH2 0xEFB SWAP1 PUSH2 0x212A JUMP JUMPDEST STOP JUMPDEST PUSH1 0x40 MLOAD PUSH3 0x461BCD PUSH1 0xE5 SHL DUP2 MSTORE PUSH1 0x20 PUSH1 0x4 DUP3 ADD MSTORE PUSH1 0x16 PUSH1 0x24 DUP3 ADD MSTORE PUSH22 0x2737BA1032B9B1B0B630BA32B2103A379030B236B4B7 PUSH1 0x51 SHL PUSH1 0x44 DUP3 ADD MSTORE PUSH1 0x64 SWAP1 REVERT JUMPDEST CALLVALUE PUSH2 0x1A1 JUMPI PUSH1 0x20 CALLDATASIZE PUSH1 0x3 NOT ADD SLT PUSH2 0x1A1 JUMPI PUSH1 0x4 CALLDATALOAD DUP1 PUSH1 0x0 MSTORE PUSH1 0x3 PUSH1 0x20 MSTORE PUSH1 0x40 PUSH1 0x0 KECCAK256 DUP2 DUP2 SLOAD SUB PUSH2 0x10B3 JUMPI PUSH1 0x8 DUP2 ADD SWAP2 PUSH1 0xFF DUP4 SLOAD AND PUSH1 0x8 DUP2 LT ISZERO PUSH2 0x370 JUMPI PUSH2 0x1079 JUMPI PUSH1 0x3 DUP3 ADD SLOAD TIMESTAMP LT PUSH2 0x1034 JUMPI PUSH1 0x9 DUP3 ADD DUP1 SLOAD PUSH2 0xFE5 JUMPI TIMESTAMP SWAP1 SSTORE PUSH3 0x15180 TIMESTAMP ADD DUP1 TIMESTAMP GT PUSH2 0xBC1 JUMPI PUSH32 0xD6C4872CC5D86D0C496AD388BBE994A94376B28276D219FB70019F84D4B3B761 SWAP4 PUSH1 0xA PUSH1 0x40 SWAP5 ADD SWAP2 DUP3 SSTORE PUSH1 0x1 PUSH1 0xFF NOT DUP3 SLOAD AND OR SWAP1 SSTORE SLOAD DUP3 MLOAD SWAP2 DUP3 MSTORE PUSH1 0x20 DUP3 ADD MSTORE LOG1 STOP JUMPDEST PUSH1 0x40 MLOAD PUSH3 0x461BCD PUSH1 0xE5 SHL DUP2 MSTORE PUSH1 0x20 PUSH1 0x4 DUP3 ADD MSTORE PUSH1 0x21 PUSH1 0x24 DUP3 ADD MSTORE PUSH32 0x436865636B2D696E2077696E646F7720616C7265616479207472696767657265 PUSH1 0x44 DUP3 ADD MSTORE PUSH1 0x19 PUSH1 0xFA SHL PUSH1 0x64 DUP3 ADD MSTORE PUSH1 0x84 SWAP1 REVERT JUMPDEST PUSH1 0x40 MLOAD PUSH3 0x461BCD PUSH1 0xE5 SHL DUP2 MSTORE PUSH1 0x20 PUSH1 0x4 DUP3 ADD MSTORE PUSH1 0x19 PUSH1 0x24 DUP3 ADD MSTORE PUSH32 0x436865636B2D696E2064617465206E6F74207265616368656400000000000000 PUSH1 0x44 DUP3 ADD MSTORE PUSH1 0x64 SWAP1 REVERT JUMPDEST PUSH1 0x40 MLOAD PUSH3 0x461BCD PUSH1 0xE5 SHL DUP2 MSTORE PUSH1 0x20 PUSH1 0x4 DUP3 ADD MSTORE PUSH1 0x12 PUSH1 0x24 DUP3 ADD MSTORE PUSH18 0x426F6F6B696E67206E6F7420616374697665 PUSH1 0x70 SHL PUSH1 0x44 DUP3 ADD MSTORE PUSH1 0x64 SWAP1 REVERT JUMPDEST PUSH1 0x40 MLOAD PUSH3 0x461BCD PUSH1 0xE5 SHL DUP2 MSTORE PUSH1 0x20 PUSH1 0x4 DUP3 ADD MSTORE PUSH1 0x16 PUSH1 0x24 DUP3 ADD MSTORE PUSH22 0x109BDBDADA5B99C8191BD95CC81B9BDD08195E1A5CDD PUSH1 0x52 SHL PUSH1 0x44 DUP3 ADD MSTORE PUSH1 0x64 SWAP1 REVERT JUMPDEST CALLVALUE PUSH2 0x1A1 JUMPI PUSH1 0x0 CALLDATASIZE PUSH1 0x3 NOT ADD SLT PUSH2 0x1A1 JUMPI PUSH1 0x1 SLOAD PUSH1 0x40 MLOAD PUSH1 0x1 PUSH1 0x1 PUSH1 0xA0 SHL SUB SWAP1 SWAP2 AND DUP2 MSTORE PUSH1 0x20 SWAP1 RETURN JUMPDEST CALLVALUE PUSH2 0x1A1 JUMPI PUSH1 0x20 CALLDATASIZE PUSH1 0x3 NOT ADD SLT PUSH2 0x1A1 JUMPI PUSH1 0x4 CALLDATALOAD PUSH1 0x0 DUP2 DUP2 MSTORE PUSH1 0x3 PUSH1 0x20 MSTORE PUSH1 0x40 SWAP1 KECCAK256 PUSH1 0x2 DUP2 ADD SLOAD SWAP1 SWAP2 SWAP1 PUSH2 0x115C SWAP1 PUSH1 0x1 PUSH1 0x1 PUSH1 0xA0 SHL SUB SWAP1 DUP2 AND SWAP1 PUSH2 0x438 PUSH2 0x223D JUMP JUMPDEST PUSH1 0xFF PUSH1 0x8 DUP4 ADD SLOAD AND SWAP1 PUSH1 0x8 DUP3 LT ISZERO PUSH2 0x370 JUMPI PUSH1 0xFF PUSH1 0xC PUSH32 0x847A573ABAA8875D3FE466D414094860F38BE0EA3E161A0EF08C0ACD955F7EA7 SWAP5 PUSH2 0x11A2 PUSH1 0x4 PUSH1 0x60 SWAP7 EQ PUSH2 0x1D29 JUMP JUMPDEST PUSH2 0x11B2 PUSH1 0xB DUP3 ADD SLOAD TIMESTAMP GT ISZERO PUSH2 0x1EE1 JUMP JUMPDEST ADD DUP1 SLOAD PUSH3 0xFF0000 NOT AND PUSH3 0x10000 OR DUP1 DUP3 SSTORE PUSH1 0x8 SHR DUP3 AND PUSH2 0x11E9 JUMPI JUMPDEST SLOAD PUSH1 0x8 SHR AND PUSH1 0x40 MLOAD SWAP2 DUP3 MSTORE ISZERO ISZERO PUSH1 0x20 DUP3 ADD MSTORE PUSH1 0x1 PUSH1 0x40 DUP3 ADD MSTORE LOG1 STOP JUMPDEST PUSH2 0x11F2 DUP4 PUSH2 0x212A JUMP JUMPDEST PUSH2 0x11CD JUMP JUMPDEST CALLVALUE PUSH2 0x1A1 JUMPI PUSH1 0x40 CALLDATASIZE PUSH1 0x3 NOT ADD SLT PUSH2 0x1A1 JUMPI PUSH2 0x1210 PUSH2 0x1BFD JUMP JUMPDEST PUSH1 0x1 PUSH1 0x1 PUSH1 0xA0 SHL SUB AND PUSH1 0x0 SWAP1 DUP2 MSTORE PUSH1 0x5 PUSH1 0x20 MSTORE PUSH1 0x40 SWAP1 KECCAK256 DUP1 SLOAD PUSH1 0x24 CALLDATALOAD SWAP2 SWAP1 DUP3 LT ISZERO PUSH2 0x1A1 JUMPI PUSH1 0x20 SWAP2 PUSH2 0x1241 SWAP2 PUSH2 0x1C4D JUMP JUMPDEST SWAP1 SLOAD SWAP1 PUSH1 0x3 SHL SHR PUSH1 0x40 MLOAD SWAP1 DUP2 MSTORE RETURN JUMPDEST CALLVALUE PUSH2 0x1A1 JUMPI PUSH1 0x0 CALLDATASIZE PUSH1 0x3 NOT ADD SLT PUSH2 0x1A1 JUMPI PUSH1 0x0 SLOAD PUSH1 0x40 MLOAD PUSH1 0x1 PUSH1 0x1 PUSH1 0xA0 SHL SUB SWAP1 SWAP2 AND DUP2 MSTORE PUSH1 0x20 SWAP1 RETURN JUMPDEST CALLVALUE PUSH2 0x1A1 JUMPI PUSH1 0x40 CALLDATASIZE PUSH1 0x3 NOT ADD SLT PUSH2 0x1A1 JUMPI PUSH1 0x4 CALLDATALOAD PUSH8 0xFFFFFFFFFFFFFFFF DUP2 GT PUSH2 0x1A1 JUMPI PUSH2 0x12AA SWAP1 CALLDATASIZE SWAP1 PUSH1 0x4 ADD PUSH2 0x1B80 JUMP JUMPDEST PUSH2 0x12C6 PUSH1 0x20 PUSH1 0x24 CALLDATALOAD SWAP3 DUP2 PUSH1 0x40 MLOAD SWAP4 DUP3 DUP6 DUP1 SWAP5 MLOAD SWAP4 DUP5 SWAP3 ADD PUSH2 0x1B1C JUMP JUMPDEST DUP2 ADD PUSH1 0x4 DUP2 MSTORE SUB ADD SWAP1 KECCAK256 DUP1 SLOAD DUP3 LT ISZERO PUSH2 0x1A1 JUMPI PUSH1 0x20 SWAP2 PUSH2 0x1241 SWAP2 PUSH2 0x1C4D JUMP JUMPDEST CALLVALUE PUSH2 0x1A1 JUMPI PUSH1 0x0 CALLDATASIZE PUSH1 0x3 NOT ADD SLT PUSH2 0x1A1 JUMPI PUSH1 0x40 MLOAD PUSH32 0x0 PUSH1 0x1 PUSH1 0x1 PUSH1 0xA0 SHL SUB AND DUP2 MSTORE PUSH1 0x20 SWAP1 RETURN JUMPDEST CALLVALUE PUSH2 0x1A1 JUMPI PUSH1 0x20 CALLDATASIZE PUSH1 0x3 NOT ADD SLT PUSH2 0x1A1 JUMPI PUSH1 0x4 CALLDATALOAD DUP1 PUSH1 0x0 MSTORE PUSH1 0x3 PUSH1 0x20 MSTORE PUSH1 0x40 PUSH1 0x0 KECCAK256 PUSH1 0x8 DUP2 ADD PUSH1 0xFF DUP2 SLOAD AND PUSH1 0x8 DUP2 LT ISZERO PUSH2 0x370 JUMPI PUSH1 0x1 SUB PUSH2 0x14A3 JUMPI PUSH1 0xA DUP3 ADD SLOAD TIMESTAMP GT ISZERO PUSH2 0x145E JUMPI PUSH1 0x4 PUSH1 0xFF NOT DUP3 SLOAD AND OR SWAP1 SSTORE PUSH3 0x15180 TIMESTAMP ADD SWAP2 DUP3 TIMESTAMP GT PUSH2 0xBC1 JUMPI PUSH1 0xD DUP3 PUSH32 0xE07AD455E24561261E9047AAB2F668AE1FC2CC6FDA35021764673613B888836D SWAP5 PUSH1 0xB PUSH1 0x80 SWAP6 ADD SSTORE ADD PUSH2 0x13C1 DUP2 SLOAD PUSH2 0x1A1C JUMP JUMPDEST PUSH1 0x1F DUP2 GT PUSH2 0x143C JUMPI JUMPDEST POP PUSH1 0x1E PUSH15 0x26B4B9B9B2B21031B432B1B596B4B7 PUSH1 0x89 SHL ADD SWAP1 SSTORE PUSH32 0x771AD1A63DB62F3C96F995005DC4038B2D11173769793751C154AFEC8E3EED6D PUSH1 0x20 PUSH1 0x40 MLOAD DUP4 DUP2 MSTORE LOG1 PUSH1 0x40 MLOAD SWAP1 DUP2 MSTORE PUSH1 0x40 PUSH1 0x20 DUP3 ADD MSTORE PUSH1 0xF PUSH1 0x40 DUP3 ADD MSTORE PUSH15 0x26B4B9B9B2B21031B432B1B596B4B7 PUSH1 0x89 SHL PUSH1 0x60 DUP3 ADD MSTORE LOG1 STOP JUMPDEST PUSH2 0x1458 SWAP1 DUP3 PUSH1 0x0 MSTORE PUSH1 0x1F PUSH1 0x20 PUSH1 0x0 KECCAK256 SWAP2 ADD PUSH1 0x5 SHR DUP2 ADD SWAP1 PUSH2 0x1E85 JUMP JUMPDEST DUP5 PUSH2 0x13CA JUMP JUMPDEST PUSH1 0x40 MLOAD PUSH3 0x461BCD PUSH1 0xE5 SHL DUP2 MSTORE PUSH1 0x20 PUSH1 0x4 DUP3 ADD MSTORE PUSH1 0x1B PUSH1 0x24 DUP3 ADD MSTORE PUSH32 0x436865636B2D696E2077696E646F77206E6F7420657870697265640000000000 PUSH1 0x44 DUP3 ADD MSTORE PUSH1 0x64 SWAP1 REVERT JUMPDEST PUSH1 0x40 MLOAD PUSH3 0x461BCD PUSH1 0xE5 SHL DUP2 MSTORE PUSH1 0x20 PUSH1 0x4 DUP3 ADD MSTORE PUSH1 0x16 PUSH1 0x24 DUP3 ADD MSTORE PUSH22 0x4E6F7420696E20636865636B2D696E2077696E646F77 PUSH1 0x50 SHL PUSH1 0x44 DUP3 ADD MSTORE PUSH1 0x64 SWAP1 REVERT JUMPDEST CALLVALUE PUSH2 0x1A1 JUMPI PUSH1 0x0 CALLDATASIZE PUSH1 0x3 NOT ADD SLT PUSH2 0x1A1 JUMPI PUSH2 0x14FA PUSH2 0x20E2 JUMP JUMPDEST PUSH1 0x0 DUP1 SLOAD PUSH1 0x1 PUSH1 0x1 PUSH1 0xA0 SHL SUB NOT DUP2 AND DUP3 SSTORE PUSH1 0x1 PUSH1 0x1 PUSH1 0xA0 SHL SUB AND PUSH32 0x8BE0079C531659141344CD1FD0A4F28419497F9722A3DAAFE3B4186F6B6457E0 DUP3 DUP1 LOG3 STOP JUMPDEST CALLVALUE PUSH2 0x1A1 JUMPI PUSH1 0x20 CALLDATASIZE PUSH1 0x3 NOT ADD SLT PUSH2 0x1A1 JUMPI PUSH1 0x1 PUSH1 0x1 PUSH1 0xA0 SHL SUB PUSH2 0x155B PUSH2 0x1BFD JUMP JUMPDEST AND PUSH1 0x0 MSTORE PUSH1 0x5 PUSH1 0x20 MSTORE PUSH1 0x40 PUSH1 0x0 KECCAK256 PUSH1 0x40 MLOAD SWAP1 DUP2 PUSH1 0x20 DUP3 SLOAD SWAP2 DUP3 DUP2 MSTORE ADD SWAP2 PUSH1 0x0 MSTORE PUSH1 0x20 PUSH1 0x0 KECCAK256 SWAP1 PUSH1 0x0 JUMPDEST DUP2 DUP2 LT PUSH2 0x159B JUMPI PUSH2 0x237 DUP6 PUSH2 0x22B DUP2 DUP8 SUB DUP3 PUSH2 0x1A56 JUMP JUMPDEST DUP3 SLOAD DUP5 MSTORE PUSH1 0x20 SWAP1 SWAP4 ADD SWAP3 PUSH1 0x1 SWAP3 DUP4 ADD SWAP3 ADD PUSH2 0x1584 JUMP JUMPDEST PUSH2 0x19FE JUMP JUMPDEST CALLVALUE PUSH2 0x1A1 JUMPI PUSH1 0x20 CALLDATASIZE PUSH1 0x3 NOT ADD SLT PUSH2 0x1A1 JUMPI PUSH1 0x20 PUSH2 0x15D1 PUSH2 0x1BFD JUMP JUMPDEST PUSH1 0x40 MLOAD PUSH32 0x0 PUSH1 0x1 PUSH1 0x1 PUSH1 0xA0 SHL SUB SWAP1 DUP2 AND SWAP3 AND SWAP2 SWAP1 SWAP2 EQ DUP2 MSTORE RETURN JUMPDEST CALLVALUE PUSH2 0x1A1 JUMPI PUSH1 0x20 PUSH2 0x1623 PUSH2 0x161D CALLDATASIZE PUSH2 0x1BC7 JUMP JUMPDEST SWAP2 PUSH2 0x1D66 JUMP JUMPDEST PUSH1 0x40 MLOAD SWAP1 ISZERO ISZERO DUP2 MSTORE RETURN JUMPDEST CALLVALUE PUSH2 0x1A1 JUMPI PUSH1 0x20 CALLDATASIZE PUSH1 0x3 NOT ADD SLT PUSH2 0x1A1 JUMPI PUSH1 0x4 CALLDATALOAD DUP1 PUSH1 0x0 MSTORE PUSH1 0x3 PUSH1 0x20 MSTORE PUSH1 0x40 PUSH1 0x0 KECCAK256 PUSH1 0x8 DUP2 ADD SWAP1 PUSH1 0xFF DUP3 SLOAD AND PUSH1 0x8 DUP2 LT ISZERO PUSH2 0x370 JUMPI PUSH1 0x4 PUSH2 0x166E SWAP2 EQ PUSH2 0x1D29 JUMP JUMPDEST PUSH1 0xB DUP2 ADD SLOAD TIMESTAMP GT ISZERO PUSH2 0x171D JUMPI PUSH1 0xC ADD SLOAD PUSH1 0xFF DUP2 PUSH1 0x8 SHR AND SWAP1 DUP2 PUSH2 0x170F JUMPI JUMPDEST POP PUSH2 0x16CA JUMPI DUP1 SLOAD PUSH1 0xFF NOT AND PUSH1 0x7 OR SWAP1 SSTORE PUSH1 0x40 MLOAD SWAP1 DUP2 MSTORE PUSH32 0x2DAB28113E16EE2FB971A1376CE8421E58FC1C3D20D7ACFF8927A494FDE0CDC0 SWAP1 PUSH1 0x20 SWAP1 LOG1 STOP JUMPDEST PUSH1 0x40 MLOAD PUSH3 0x461BCD PUSH1 0xE5 SHL DUP2 MSTORE PUSH1 0x20 PUSH1 0x4 DUP3 ADD MSTORE PUSH1 0x18 PUSH1 0x24 DUP3 ADD MSTORE PUSH32 0x4469737075746520616C7265616479207265736F6C7665640000000000000000 PUSH1 0x44 DUP3 ADD MSTORE PUSH1 0x64 SWAP1 REVERT JUMPDEST PUSH1 0xFF SWAP2 POP PUSH1 0x10 SHR AND DUP4 PUSH2 0x168C JUMP JUMPDEST PUSH1 0x40 MLOAD PUSH3 0x461BCD PUSH1 0xE5 SHL DUP2 MSTORE PUSH1 0x20 PUSH1 0x4 DUP3 ADD MSTORE PUSH1 0x25 PUSH1 0x24 DUP3 ADD MSTORE PUSH32 0x44697370757465207265736F6C7574696F6E2077696E646F77206E6F74206578 PUSH1 0x44 DUP3 ADD MSTORE PUSH5 0x1C1A5C9959 PUSH1 0xDA SHL PUSH1 0x64 DUP3 ADD MSTORE PUSH1 0x84 SWAP1 REVERT JUMPDEST CALLVALUE PUSH2 0x1A1 JUMPI PUSH1 0x20 CALLDATASIZE PUSH1 0x3 NOT ADD SLT PUSH2 0x1A1 JUMPI PUSH1 0x4 CALLDATALOAD PUSH1 0x0 MSTORE PUSH1 0x3 PUSH1 0x20 MSTORE PUSH1 0x40 PUSH1 0x0 KECCAK256 DUP1 SLOAD PUSH1 0x1 DUP3 ADD PUSH2 0x17A0 SWAP1 PUSH2 0x1A78 JUMP JUMPDEST SWAP2 PUSH1 0x1 PUSH1 0xA0 SHL PUSH1 0x1 SWAP1 SUB PUSH1 0x2 DUP3 ADD SLOAD AND SWAP2 PUSH1 0x3 DUP3 ADD SLOAD SWAP3 PUSH1 0x4 DUP4 ADD SLOAD SWAP4 PUSH1 0x5 DUP5 ADD SLOAD SWAP4 PUSH1 0x6 DUP2 ADD SLOAD SWAP2 PUSH1 0x7 DUP3 ADD SLOAD PUSH1 0x8 DUP4 ADD SLOAD PUSH1 0xFF AND SWAP4 PUSH1 0x9 DUP5 ADD SLOAD SWAP8 PUSH1 0xA DUP6 ADD SLOAD SWAP10 PUSH1 0xB DUP7 ADD SLOAD SWAP5 PUSH1 0xC DUP8 ADD SLOAD SWAP7 PUSH1 0xD ADD PUSH2 0x17FB SWAP1 PUSH2 0x1A78 JUMP JUMPDEST SWAP9 PUSH1 0x40 MLOAD SWAP14 DUP15 SWAP12 DUP13 MSTORE PUSH1 0x20 DUP13 ADD PUSH2 0x200 SWAP1 MSTORE PUSH2 0x200 DUP13 ADD PUSH2 0x181B SWAP2 PUSH2 0x1B3F JUMP JUMPDEST SWAP11 PUSH1 0x40 ADD MSTORE PUSH1 0x60 DUP14 ADD MSTORE PUSH1 0x80 DUP13 ADD MSTORE PUSH1 0xA0 DUP12 ADD MSTORE PUSH1 0xC0 DUP11 ADD MSTORE PUSH1 0xE0 DUP10 ADD MSTORE PUSH1 0x8 DUP4 LT ISZERO PUSH2 0x370 JUMPI DUP8 SWAP7 PUSH2 0x237 SWAP7 PUSH1 0xFF SWAP5 PUSH2 0x100 DUP11 ADD MSTORE PUSH2 0x120 DUP10 ADD MSTORE PUSH2 0x140 DUP9 ADD MSTORE PUSH2 0x160 DUP8 ADD MSTORE DUP2 DUP2 AND ISZERO ISZERO PUSH2 0x180 DUP8 ADD MSTORE DUP2 DUP2 PUSH1 0x8 SHR AND ISZERO ISZERO PUSH2 0x1A0 DUP8 ADD MSTORE PUSH1 0x10 SHR AND ISZERO ISZERO PUSH2 0x1C0 DUP6 ADD MSTORE DUP4 DUP3 SUB PUSH2 0x1E0 DUP6 ADD MSTORE PUSH2 0x1B3F JUMP JUMPDEST CALLVALUE PUSH2 0x1A1 JUMPI PUSH1 0x20 CALLDATASIZE PUSH1 0x3 NOT ADD SLT PUSH2 0x1A1 JUMPI PUSH1 0x4 CALLDATALOAD PUSH1 0x0 DUP2 DUP2 MSTORE PUSH1 0x3 PUSH1 0x20 MSTORE PUSH1 0x40 SWAP1 KECCAK256 PUSH1 0x2 DUP2 ADD DUP1 SLOAD SWAP1 SWAP3 SWAP1 PUSH2 0x18D9 SWAP1 PUSH1 0x1 PUSH1 0x1 PUSH1 0xA0 SHL SUB SWAP1 DUP2 AND SWAP1 PUSH2 0x438 PUSH2 0x223D JUMP JUMPDEST PUSH1 0x8 DUP3 ADD SWAP2 PUSH1 0xFF DUP4 SLOAD AND PUSH1 0x8 DUP2 LT ISZERO PUSH2 0x370 JUMPI PUSH2 0x19C1 JUMPI PUSH1 0x3 DUP2 ADD SLOAD TIMESTAMP LT ISZERO PUSH2 0x1987 JUMPI PUSH2 0x1950 PUSH1 0x0 DUP1 DUP1 DUP1 PUSH1 0x7 PUSH32 0xEDC1198B595A44E20B4738F6C85854E2C9F704982F488658F4C765030F152656 SWAP10 PUSH1 0x40 SWAP10 PUSH1 0x5 PUSH1 0xFF NOT DUP3 SLOAD AND OR SWAP1 SSTORE PUSH1 0x1 DUP1 PUSH1 0xA0 SHL SUB SWAP1 SLOAD AND SWAP7 ADD SWAP6 DUP7 SLOAD SWAP1 GAS CALL PUSH2 0xEDE PUSH2 0x1CB7 JUMP JUMPDEST PUSH32 0xF774C001CB52A3566B767ED6E37C92706ACB2B80A3FF6049E2849CD62725D085 PUSH1 0x20 DUP5 MLOAD DUP5 DUP2 MSTORE LOG1 SLOAD DUP3 MLOAD SWAP2 DUP3 MSTORE PUSH1 0x20 DUP3 ADD MSTORE LOG1 STOP JUMPDEST PUSH1 0x40 MLOAD PUSH3 0x461BCD PUSH1 0xE5 SHL DUP2 MSTORE PUSH1 0x20 PUSH1 0x4 DUP3 ADD MSTORE PUSH1 0x12 PUSH1 0x24 DUP3 ADD MSTORE PUSH18 0x5061737420636865636B2D696E2064617465 PUSH1 0x70 SHL PUSH1 0x44 DUP3 ADD MSTORE PUSH1 0x64 SWAP1 REVERT JUMPDEST PUSH1 0x40 MLOAD PUSH3 0x461BCD PUSH1 0xE5 SHL DUP2 MSTORE PUSH1 0x20 PUSH1 0x4 DUP3 ADD MSTORE PUSH1 0x15 PUSH1 0x24 DUP3 ADD MSTORE PUSH21 0x43616E6E6F742063616E63656C20626F6F6B696E67 PUSH1 0x58 SHL PUSH1 0x44 DUP3 ADD MSTORE PUSH1 0x64 SWAP1 REVERT JUMPDEST CALLVALUE PUSH2 0x1A1 JUMPI PUSH1 0x0 CALLDATASIZE PUSH1 0x3 NOT ADD SLT PUSH2 0x1A1 JUMPI PUSH1 0x20 PUSH1 0x40 MLOAD PUSH3 0x15180 DUP2 MSTORE RETURN JUMPDEST SWAP1 PUSH1 0x1 DUP3 DUP2 SHR SWAP3 AND DUP1 ISZERO PUSH2 0x1A4C JUMPI JUMPDEST PUSH1 0x20 DUP4 LT EQ PUSH2 0x1A36 JUMPI JUMP JUMPDEST PUSH4 0x4E487B71 PUSH1 0xE0 SHL PUSH1 0x0 MSTORE PUSH1 0x22 PUSH1 0x4 MSTORE PUSH1 0x24 PUSH1 0x0 REVERT JUMPDEST SWAP2 PUSH1 0x7F AND SWAP2 PUSH2 0x1A2B JUMP JUMPDEST SWAP1 PUSH1 0x1F DUP1 NOT SWAP2 ADD AND DUP2 ADD SWAP1 DUP2 LT PUSH8 0xFFFFFFFFFFFFFFFF DUP3 GT OR PUSH2 0xBAB JUMPI PUSH1 0x40 MSTORE JUMP JUMPDEST SWAP1 PUSH1 0x40 MLOAD SWAP2 DUP3 PUSH1 0x0 DUP3 SLOAD SWAP3 PUSH2 0x1A8C DUP5 PUSH2 0x1A1C JUMP JUMPDEST DUP1 DUP5 MSTORE SWAP4 PUSH1 0x1 DUP2 AND SWAP1 DUP2 ISZERO PUSH2 0x1AFA JUMPI POP PUSH1 0x1 EQ PUSH2 0x1AB3 JUMPI JUMPDEST POP PUSH2 0x1AB1 SWAP3 POP SUB DUP4 PUSH2 0x1A56 JUMP JUMPDEST JUMP JUMPDEST SWAP1 POP PUSH1 0x0 SWAP3 SWAP2 SWAP3 MSTORE PUSH1 0x20 PUSH1 0x0 KECCAK256 SWAP1 PUSH1 0x0 SWAP2 JUMPDEST DUP2 DUP4 LT PUSH2 0x1ADE JUMPI POP POP SWAP1 PUSH1 0x20 PUSH2 0x1AB1 SWAP3 DUP3 ADD ADD CODESIZE PUSH2 0x1AA4 JUMP JUMPDEST PUSH1 0x20 SWAP2 SWAP4 POP DUP1 PUSH1 0x1 SWAP2 SLOAD DUP4 DUP6 DUP10 ADD ADD MSTORE ADD SWAP2 ADD SWAP1 SWAP2 DUP5 SWAP3 PUSH2 0x1AC5 JUMP JUMPDEST SWAP1 POP PUSH1 0x20 SWAP3 POP PUSH2 0x1AB1 SWAP5 SWAP2 POP PUSH1 0xFF NOT AND DUP3 DUP5 ADD MSTORE ISZERO ISZERO PUSH1 0x5 SHL DUP3 ADD ADD CODESIZE PUSH2 0x1AA4 JUMP JUMPDEST PUSH1 0x0 JUMPDEST DUP4 DUP2 LT PUSH2 0x1B2F JUMPI POP POP PUSH1 0x0 SWAP2 ADD MSTORE JUMP JUMPDEST DUP2 DUP2 ADD MLOAD DUP4 DUP3 ADD MSTORE PUSH1 0x20 ADD PUSH2 0x1B1F JUMP JUMPDEST SWAP1 PUSH1 0x20 SWAP2 PUSH2 0x1B58 DUP2 MLOAD DUP1 SWAP3 DUP2 DUP6 MSTORE DUP6 DUP1 DUP7 ADD SWAP2 ADD PUSH2 0x1B1C JUMP JUMPDEST PUSH1 0x1F ADD PUSH1 0x1F NOT AND ADD ADD SWAP1 JUMP JUMPDEST PUSH8 0xFFFFFFFFFFFFFFFF DUP2 GT PUSH2 0xBAB JUMPI PUSH1 0x1F ADD PUSH1 0x1F NOT AND PUSH1 0x20 ADD SWAP1 JUMP JUMPDEST DUP2 PUSH1 0x1F DUP3 ADD SLT ISZERO PUSH2 0x1A1 JUMPI DUP1 CALLDATALOAD SWAP1 PUSH2 0x1B97 DUP3 PUSH2 0x1B64 JUMP JUMPDEST SWAP3 PUSH2 0x1BA5 PUSH1 0x40 MLOAD SWAP5 DUP6 PUSH2 0x1A56 JUMP JUMPDEST DUP3 DUP5 MSTORE PUSH1 0x20 DUP4 DUP4 ADD ADD GT PUSH2 0x1A1 JUMPI DUP2 PUSH1 0x0 SWAP3 PUSH1 0x20 DUP1 SWAP4 ADD DUP4 DUP7 ADD CALLDATACOPY DUP4 ADD ADD MSTORE SWAP1 JUMP JUMPDEST PUSH1 0x60 PUSH1 0x3 NOT DUP3 ADD SLT PUSH2 0x1A1 JUMPI PUSH1 0x4 CALLDATALOAD SWAP1 PUSH8 0xFFFFFFFFFFFFFFFF DUP3 GT PUSH2 0x1A1 JUMPI PUSH2 0x1BF2 SWAP2 PUSH1 0x4 ADD PUSH2 0x1B80 JUMP JUMPDEST SWAP1 PUSH1 0x24 CALLDATALOAD SWAP1 PUSH1 0x44 CALLDATALOAD SWAP1 JUMP JUMPDEST PUSH1 0x4 CALLDATALOAD SWAP1 PUSH1 0x1 PUSH1 0x1 PUSH1 0xA0 SHL SUB DUP3 AND DUP3 SUB PUSH2 0x1A1 JUMPI JUMP JUMPDEST PUSH1 0x20 PUSH1 0x40 DUP2 DUP4 ADD SWAP3 DUP3 DUP2 MSTORE DUP5 MLOAD DUP1 SWAP5 MSTORE ADD SWAP3 ADD SWAP1 PUSH1 0x0 JUMPDEST DUP2 DUP2 LT PUSH2 0x1C37 JUMPI POP POP POP SWAP1 JUMP JUMPDEST DUP3 MLOAD DUP5 MSTORE PUSH1 0x20 SWAP4 DUP5 ADD SWAP4 SWAP1 SWAP3 ADD SWAP2 PUSH1 0x1 ADD PUSH2 0x1C2A JUMP JUMPDEST DUP1 SLOAD DUP3 LT ISZERO PUSH2 0x1C65 JUMPI PUSH1 0x0 MSTORE PUSH1 0x20 PUSH1 0x0 KECCAK256 ADD SWAP1 PUSH1 0x0 SWAP1 JUMP JUMPDEST PUSH4 0x4E487B71 PUSH1 0xE0 SHL PUSH1 0x0 MSTORE PUSH1 0x32 PUSH1 0x4 MSTORE PUSH1 0x24 PUSH1 0x0 REVERT JUMPDEST ISZERO PUSH2 0x1C82 JUMPI JUMP JUMPDEST PUSH1 0x40 MLOAD PUSH3 0x461BCD PUSH1 0xE5 SHL DUP2 MSTORE PUSH1 0x20 PUSH1 0x4 DUP3 ADD MSTORE PUSH1 0xD PUSH1 0x24 DUP3 ADD MSTORE PUSH13 0x139BDD081D1A194819DD595CDD PUSH1 0x9A SHL PUSH1 0x44 DUP3 ADD MSTORE PUSH1 0x64 SWAP1 REVERT JUMPDEST RETURNDATASIZE ISZERO PUSH2 0x1CE2 JUMPI RETURNDATASIZE SWAP1 PUSH2 0x1CC8 DUP3 PUSH2 0x1B64 JUMP JUMPDEST SWAP2 PUSH2 0x1CD6 PUSH1 0x40 MLOAD SWAP4 DUP5 PUSH2 0x1A56 JUMP JUMPDEST DUP3 MSTORE RETURNDATASIZE PUSH1 0x0 PUSH1 0x20 DUP5 ADD RETURNDATACOPY JUMP JUMPDEST PUSH1 0x60 SWAP1 JUMP JUMPDEST ISZERO PUSH2 0x1CEE JUMPI JUMP JUMPDEST PUSH1 0x40 MLOAD PUSH3 0x461BCD PUSH1 0xE5 SHL DUP2 MSTORE PUSH1 0x20 PUSH1 0x4 DUP3 ADD MSTORE PUSH1 0x13 PUSH1 0x24 DUP3 ADD MSTORE PUSH19 0x11DD595CDD081C99599D5B990819985A5B1959 PUSH1 0x6A SHL PUSH1 0x44 DUP3 ADD MSTORE PUSH1 0x64 SWAP1 REVERT JUMPDEST ISZERO PUSH2 0x1D30 JUMPI JUMP JUMPDEST PUSH1 0x40 MLOAD PUSH3 0x461BCD PUSH1 0xE5 SHL DUP2 MSTORE PUSH1 0x20 PUSH1 0x4 DUP3 ADD MSTORE PUSH1 0xE PUSH1 0x24 DUP3 ADD MSTORE PUSH14 0x4E6F7420696E2064697370757465 PUSH1 0x90 SHL PUSH1 0x44 DUP3 ADD MSTORE PUSH1 0x64 SWAP1 REVERT JUMPDEST PUSH1 0x20 PUSH2 0x1D82 SWAP2 SWAP4 SWAP3 SWAP4 DUP2 PUSH1 0x40 MLOAD SWAP4 DUP3 DUP6 DUP1 SWAP5 MLOAD SWAP4 DUP5 SWAP3 ADD PUSH2 0x1B1C JUMP JUMPDEST DUP2 ADD PUSH1 0x4 DUP2 MSTORE SUB ADD SWAP1 KECCAK256 SWAP1 PUSH1 0x40 MLOAD DUP1 DUP4 PUSH1 0x20 DUP3 SWAP6 SLOAD SWAP4 DUP5 DUP2 MSTORE ADD SWAP1 PUSH1 0x0 MSTORE PUSH1 0x20 PUSH1 0x0 KECCAK256 SWAP3 PUSH1 0x0 JUMPDEST DUP2 DUP2 LT PUSH2 0x1E6C JUMPI POP POP PUSH2 0x1DBE SWAP3 POP SUB DUP4 PUSH2 0x1A56 JUMP JUMPDEST PUSH1 0x0 JUMPDEST DUP3 MLOAD DUP2 LT ISZERO PUSH2 0x1E63 JUMPI PUSH1 0x0 PUSH1 0x20 DUP3 PUSH1 0x5 SHL DUP6 ADD ADD MLOAD DUP2 MSTORE PUSH1 0x3 PUSH1 0x20 MSTORE PUSH1 0x40 DUP2 KECCAK256 SWAP1 PUSH1 0xFF PUSH1 0x8 DUP4 ADD SLOAD AND PUSH1 0x8 DUP2 LT ISZERO PUSH2 0x1E4F JUMPI PUSH1 0x5 DUP2 EQ SWAP2 DUP3 ISZERO PUSH2 0x1E42 JUMPI JUMPDEST POP POP PUSH2 0x1E39 JUMPI PUSH1 0x4 DUP2 ADD SLOAD DUP6 LT SWAP1 DUP2 PUSH2 0x1E2B JUMPI JUMPDEST POP PUSH2 0x1E22 JUMPI PUSH1 0x1 SWAP1 JUMPDEST ADD PUSH2 0x1DC1 JUMP JUMPDEST POP POP POP POP PUSH1 0x1 SWAP1 JUMP JUMPDEST PUSH1 0x3 SWAP2 POP ADD SLOAD DUP3 GT CODESIZE PUSH2 0x1E13 JUMP JUMPDEST POP PUSH1 0x1 SWAP1 PUSH2 0x1E1C JUMP JUMPDEST PUSH1 0x6 SWAP3 POP POP EQ CODESIZE DUP1 PUSH2 0x1DFF JUMP JUMPDEST PUSH4 0x4E487B71 PUSH1 0xE0 SHL DUP3 MSTORE PUSH1 0x21 PUSH1 0x4 MSTORE PUSH1 0x24 DUP3 REVERT JUMPDEST POP POP POP POP PUSH1 0x0 SWAP1 JUMP JUMPDEST DUP5 SLOAD DUP4 MSTORE PUSH1 0x1 SWAP5 DUP6 ADD SWAP5 DUP8 SWAP5 POP PUSH1 0x20 SWAP1 SWAP4 ADD SWAP3 ADD PUSH2 0x1DA9 JUMP JUMPDEST DUP2 DUP2 LT PUSH2 0x1E90 JUMPI POP POP JUMP JUMPDEST PUSH1 0x0 DUP2 SSTORE PUSH1 0x1 ADD PUSH2 0x1E85 JUMP JUMPDEST SWAP2 SWAP1 PUSH1 0x1F DUP2 GT PUSH2 0x1EAB JUMPI POP POP POP JUMP JUMPDEST PUSH2 0x1AB1 SWAP3 PUSH1 0x0 MSTORE PUSH1 0x20 PUSH1 0x0 KECCAK256 SWAP1 PUSH1 0x20 PUSH1 0x1F DUP5 ADD PUSH1 0x5 SHR DUP4 ADD SWAP4 LT PUSH2 0x1ED7 JUMPI JUMPDEST PUSH1 0x1F ADD PUSH1 0x5 SHR ADD SWAP1 PUSH2 0x1E85 JUMP JUMPDEST SWAP1 SWAP2 POP DUP2 SWAP1 PUSH2 0x1ECA JUMP JUMPDEST ISZERO PUSH2 0x1EE8 JUMPI JUMP JUMPDEST PUSH1 0x40 MLOAD PUSH3 0x461BCD PUSH1 0xE5 SHL DUP2 MSTORE PUSH1 0x20 PUSH1 0x4 DUP3 ADD MSTORE PUSH1 0x16 PUSH1 0x24 DUP3 ADD MSTORE PUSH22 0x111A5CDC1D5D19481DDA5B991BDDC8195E1C1A5C9959 PUSH1 0x52 SHL PUSH1 0x44 DUP3 ADD MSTORE PUSH1 0x64 SWAP1 REVERT JUMPDEST DUP2 PUSH1 0x1F DUP3 ADD SLT ISZERO PUSH2 0x1A1 JUMPI DUP1 MLOAD PUSH2 0x1F3C DUP2 PUSH2 0x1B64 JUMP JUMPDEST SWAP3 PUSH2 0x1F4A PUSH1 0x40 MLOAD SWAP5 DUP6 PUSH2 0x1A56 JUMP JUMPDEST DUP2 DUP5 MSTORE PUSH1 0x20 DUP3 DUP5 ADD ADD GT PUSH2 0x1A1 JUMPI PUSH2 0x1F68 SWAP2 PUSH1 0x20 DUP1 DUP6 ADD SWAP2 ADD PUSH2 0x1B1C JUMP JUMPDEST SWAP1 JUMP JUMPDEST MLOAD SWAP1 PUSH1 0x1 PUSH1 0x1 PUSH1 0xA0 SHL SUB DUP3 AND DUP3 SUB PUSH2 0x1A1 JUMPI JUMP JUMPDEST SWAP2 PUSH1 0xC0 DUP4 DUP4 SUB SLT PUSH2 0x1A1 JUMPI DUP3 MLOAD PUSH8 0xFFFFFFFFFFFFFFFF DUP2 GT PUSH2 0x1A1 JUMPI DUP3 PUSH2 0x1FA7 SWAP2 DUP6 ADD PUSH2 0x1F26 JUMP JUMPDEST SWAP3 PUSH2 0x1FB4 PUSH1 0x20 DUP3 ADD PUSH2 0x1F6B JUMP JUMPDEST SWAP3 PUSH2 0x1FC1 PUSH1 0x40 DUP4 ADD PUSH2 0x1F6B JUMP JUMPDEST SWAP3 PUSH1 0x60 DUP4 ADD MLOAD SWAP3 PUSH1 0x80 DUP2 ADD MLOAD DUP1 ISZERO ISZERO DUP2 SUB PUSH2 0x1A1 JUMPI SWAP3 PUSH1 0xA0 DUP3 ADD MLOAD PUSH8 0xFFFFFFFFFFFFFFFF DUP2 GT PUSH2 0x1A1 JUMPI PUSH2 0x1F68 SWAP3 ADD PUSH2 0x1F26 JUMP JUMPDEST SWAP2 SWAP1 DUP3 SUB SWAP2 DUP3 GT PUSH2 0xBC1 JUMPI JUMP JUMPDEST DUP2 DUP2 MUL SWAP3 SWAP2 DUP2 ISZERO SWAP2 DUP5 DIV EQ OR ISZERO PUSH2 0xBC1 JUMPI JUMP JUMPDEST DUP1 SLOAD PUSH9 0x10000000000000000 DUP2 LT ISZERO PUSH2 0xBAB JUMPI PUSH2 0x2037 SWAP2 PUSH1 0x1 DUP3 ADD DUP2 SSTORE PUSH2 0x1C4D JUMP JUMPDEST DUP2 SWAP3 SWAP2 SLOAD SWAP1 PUSH1 0x3 SHL SWAP2 DUP3 SHL SWAP2 PUSH1 0x0 NOT SWAP1 SHL NOT AND OR SWAP1 SSTORE JUMP JUMPDEST SWAP1 PUSH1 0x20 DUP3 MSTORE PUSH1 0x0 SWAP2 DUP2 SLOAD SWAP2 PUSH2 0x2063 DUP4 PUSH2 0x1A1C JUMP JUMPDEST SWAP3 DUP4 PUSH1 0x20 DUP5 ADD MSTORE PUSH1 0x1 DUP2 AND SWAP1 DUP2 PUSH1 0x0 EQ PUSH2 0x20C1 JUMPI POP PUSH1 0x1 EQ PUSH2 0x2086 JUMPI JUMPDEST POP POP POP SWAP1 JUMP JUMPDEST PUSH1 0x0 SWAP1 DUP2 MSTORE PUSH1 0x20 DUP2 KECCAK256 SWAP3 SWAP4 POP SWAP2 JUMPDEST DUP4 DUP4 LT PUSH2 0x20AA JUMPI POP PUSH1 0x40 SWAP3 POP ADD ADD CODESIZE DUP1 DUP1 PUSH2 0x2080 JUMP JUMPDEST DUP1 SLOAD PUSH1 0x40 DUP5 DUP5 ADD ADD MSTORE PUSH1 0x20 SWAP1 SWAP3 ADD SWAP2 PUSH1 0x1 ADD PUSH2 0x2094 JUMP JUMPDEST SWAP2 POP POP PUSH1 0x40 SWAP4 POP PUSH1 0xFF SWAP3 SWAP2 SWAP3 NOT AND DUP4 DUP4 ADD MSTORE ISZERO ISZERO PUSH1 0x5 SHL ADD ADD CODESIZE DUP1 DUP1 PUSH2 0x2080 JUMP JUMPDEST PUSH1 0x0 SLOAD PUSH1 0x1 PUSH1 0x1 PUSH1 0xA0 SHL SUB SWAP1 DUP2 AND SWAP1 PUSH2 0x20F9 PUSH2 0x223D JUMP JUMPDEST AND SUB PUSH2 0x2101 JUMPI JUMP JUMPDEST PUSH2 0x2109 PUSH2 0x223D JUMP JUMPDEST PUSH4 0x118CDAA7 PUSH1 0xE0 SHL PUSH1 0x0 SWAP1 DUP2 MSTORE PUSH1 0x1 PUSH1 0x1 PUSH1 0xA0 SHL SUB SWAP2 SWAP1 SWAP2 AND PUSH1 0x4 MSTORE PUSH1 0x24 SWAP1 REVERT JUMPDEST DUP1 PUSH1 0x0 MSTORE PUSH1 0x3 PUSH1 0x20 MSTORE PUSH1 0x40 PUSH1 0x0 KECCAK256 PUSH1 0x1 DUP1 PUSH1 0xA0 SHL SUB PUSH1 0x1 SLOAD AND SWAP1 PUSH1 0x0 PUSH1 0x40 MLOAD DUP1 SWAP4 PUSH4 0x4DF47953 PUSH1 0xE1 SHL DUP3 MSTORE DUP2 DUP1 PUSH2 0x2167 PUSH1 0x1 DUP8 ADD PUSH1 0x4 DUP4 ADD PUSH2 0x204F JUMP JUMPDEST SUB SWAP2 GAS STATICCALL SWAP1 DUP2 ISZERO PUSH2 0x3ED JUMPI PUSH1 0x0 SWAP3 DUP4 SWAP3 DUP4 SWAP3 DUP4 SWAP3 DUP4 SWAP3 PUSH2 0x2218 JUMPI JUMPDEST POP PUSH1 0x8 DUP2 ADD DUP1 SLOAD PUSH1 0xFF NOT AND PUSH1 0x3 OR SWAP1 SSTORE PUSH1 0x7 ADD SLOAD SWAP1 PUSH1 0x1 PUSH1 0x1 PUSH1 0xA0 SHL SUB AND GAS CALL PUSH2 0x21AA PUSH2 0x1CB7 JUMP JUMPDEST POP ISZERO PUSH2 0x21DD JUMPI PUSH1 0x20 PUSH32 0xE70F5CB5ECDE9644C195A97CF45A506DE023D1D170CD972F04441FAFD993F150 SWAP2 PUSH1 0x40 MLOAD SWAP1 DUP2 MSTORE LOG1 JUMP JUMPDEST PUSH1 0x40 MLOAD PUSH3 0x461BCD PUSH1 0xE5 SHL DUP2 MSTORE PUSH1 0x20 PUSH1 0x4 DUP3 ADD MSTORE PUSH1 0x13 PUSH1 0x24 DUP3 ADD MSTORE PUSH19 0x121BDCDD081C185E5B595B9D0819985A5B1959 PUSH1 0x6A SHL PUSH1 0x44 DUP3 ADD MSTORE PUSH1 0x64 SWAP1 REVERT JUMPDEST PUSH1 0x7 SWAP2 SWAP3 POP PUSH2 0x2230 SWAP1 RETURNDATASIZE DUP1 DUP7 DUP4 RETURNDATACOPY PUSH2 0x3D9 DUP2 DUP4 PUSH2 0x1A56 JUMP JUMPDEST POP POP POP SWAP2 POP POP SWAP2 SWAP1 PUSH2 0x2182 JUMP JUMPDEST CALLER PUSH32 0x0 PUSH1 0x1 PUSH1 0x1 PUSH1 0xA0 SHL SUB AND EQ DUP1 PUSH2 0x228B JUMPI JUMPDEST ISZERO PUSH2 0x2287 JUMPI PUSH1 0x13 NOT CALLDATASIZE ADD CALLDATASIZE DUP2 GT PUSH2 0xBC1 JUMPI CALLDATALOAD PUSH1 0x60 SHR SWAP1 JUMP JUMPDEST CALLER SWAP1 JUMP JUMPDEST POP PUSH1 0x14 CALLDATASIZE LT ISZERO PUSH2 0x226F JUMP INVALID LOG2 PUSH5 0x6970667358 0x22 SLT KECCAK256 CALL LOG1 SWAP12 0xC4 0xCE POP 0xC1 MUL 0xB5 CALLDATALOAD PUSH0 0xF 0x2D 0xFC 0xAF 0xA6 0xDE PUSH2 0x9813 0xCA 0xCC SWAP16 0xD3 STATICCALL 0xCF SWAP12 SWAP1 SWAP3 LOG0 DUP3 CALLCODE PUSH5 0x736F6C6343 STOP ADDMOD SHR STOP CALLER "},"methodIdentifiers":{"CHECK_IN_WINDOW()":"00f44ccd","DISPUTE_RESOLUTION_WINDOW()":"5c980829","adminResolveDispute(uint256,bool)":"d09dc22b","bookings(uint256)":"1dab301e","cancelBooking(uint256)":"0dca825e","checkIn(uint256)":"e95a644f","createBooking(string,uint256,uint256)":"dd662946","escalateDispute(uint256)":"20a68d25","getGuestBookings(address)":"63809aef","getPropertyBookings(string)":"f2c41b5a","guestBookings(address,uint256)":"a41cfa69","guestResolveDispute(uint256)":"bae391d9","hasBookingConflict(string,uint256,uint256)":"288c1609","hostResolveDispute(uint256)":"f1161855","isTrustedForwarder(address)":"572b6c05","owner()":"8da5cb5b","processMissedCheckIn(uint256)":"72beb510","propertyBookings(string,uint256)":"8d1cc984","propertyMarketplace()":"c3ed62ce","renounceOwnership()":"715018a6","transferOwnership(address)":"f2fde38b","triggerCheckInWindow(uint256)":"ccef7f33","trustedForwarder()":"7da0a877"}}}}}