{
  "_format": "hh-sol-artifact-1",
  "contractName": "BookingManager",
  "sourceName": "contracts/BookingManager.sol",
  "abi": [
    {
      "inputs": [
        {
          "internalType": "address",
          "name": "_propertyMarketplaceAddress",
          "type": "address"
        },
        {
          "internalType": "address",
          "name": "_trustedForwarder",
          "type": "address"
        },
        {
          "internalType": "address",
          "name": "_eurcToken",
          "type": "address"
        },
        {
          "internalType": "address",
          "name": "_treasury",
          "type": "address"
        }
      ],
      "stateMutability": "nonpayable",
      "type": "constructor"
    },
    {
      "inputs": [
        {
          "internalType": "address",
          "name": "owner",
          "type": "address"
        }
      ],
      "name": "OwnableInvalidOwner",
      "type": "error"
    },
    {
      "inputs": [
        {
          "internalType": "address",
          "name": "account",
          "type": "address"
        }
      ],
      "name": "OwnableUnauthorizedAccount",
      "type": "error"
    },
    {
      "inputs": [
        {
          "internalType": "address",
          "name": "token",
          "type": "address"
        }
      ],
      "name": "SafeERC20FailedOperation",
      "type": "error"
    },
    {
      "anonymous": false,
      "inputs": [
        {
          "indexed": false,
          "internalType": "uint256",
          "name": "bookingId",
          "type": "uint256"
        }
      ],
      "name": "BookingCancelled",
      "type": "event"
    },
    {
      "anonymous": false,
      "inputs": [
        {
          "indexed": false,
          "internalType": "uint256",
          "name": "bookingId",
          "type": "uint256"
        }
      ],
      "name": "BookingCompleted",
      "type": "event"
    },
    {
      "anonymous": false,
      "inputs": [
        {
          "indexed": false,
          "internalType": "uint256",
          "name": "bookingId",
          "type": "uint256"
        },
        {
          "indexed": false,
          "internalType": "string",
          "name": "propertyId",
          "type": "string"
        },
        {
          "indexed": false,
          "internalType": "address",
          "name": "guest",
          "type": "address"
        },
        {
          "indexed": false,
          "internalType": "uint256",
          "name": "checkInDate",
          "type": "uint256"
        },
        {
          "indexed": false,
          "internalType": "uint256",
          "name": "amount",
          "type": "uint256"
        }
      ],
      "name": "BookingCreated",
      "type": "event"
    },
    {
      "anonymous": false,
      "inputs": [
        {
          "indexed": true,
          "internalType": "uint256",
          "name": "bookingId",
          "type": "uint256"
        },
        {
          "indexed": false,
          "internalType": "string",
          "name": "propertyId",
          "type": "string"
        },
        {
          "indexed": true,
          "internalType": "address",
          "name": "guest",
          "type": "address"
        },
        {
          "indexed": false,
          "internalType": "uint256",
          "name": "checkInDate",
          "type": "uint256"
        },
        {
          "indexed": false,
          "internalType": "uint256",
          "name": "checkOutDate",
          "type": "uint256"
        },
        {
          "indexed": false,
          "internalType": "uint256",
          "name": "totalAmount",
          "type": "uint256"
        },
        {
          "indexed": false,
          "internalType": "string",
          "name": "paymentReference",
          "type": "string"
        },
        {
          "indexed": false,
          "internalType": "string",
          "name": "bookingURI",
          "type": "string"
        }
      ],
      "name": "BookingCreatedPaid",
      "type": "event"
    },
    {
      "anonymous": false,
      "inputs": [
        {
          "indexed": false,
          "internalType": "uint256",
          "name": "bookingId",
          "type": "uint256"
        },
        {
          "indexed": false,
          "internalType": "uint256",
          "name": "amount",
          "type": "uint256"
        }
      ],
      "name": "BookingRefunded",
      "type": "event"
    },
    {
      "anonymous": false,
      "inputs": [
        {
          "indexed": false,
          "internalType": "uint256",
          "name": "bookingId",
          "type": "uint256"
        }
      ],
      "name": "CheckInMissed",
      "type": "event"
    },
    {
      "anonymous": false,
      "inputs": [
        {
          "indexed": false,
          "internalType": "uint256",
          "name": "bookingId",
          "type": "uint256"
        },
        {
          "indexed": false,
          "internalType": "uint256",
          "name": "deadline",
          "type": "uint256"
        }
      ],
      "name": "CheckInWindowOpened",
      "type": "event"
    },
    {
      "anonymous": false,
      "inputs": [
        {
          "indexed": false,
          "internalType": "uint256",
          "name": "bookingId",
          "type": "uint256"
        },
        {
          "indexed": false,
          "internalType": "address",
          "name": "guest",
          "type": "address"
        }
      ],
      "name": "CheckedIn",
      "type": "event"
    },
    {
      "anonymous": false,
      "inputs": [
        {
          "indexed": false,
          "internalType": "uint256",
          "name": "bookingId",
          "type": "uint256"
        }
      ],
      "name": "DisputeEscalated",
      "type": "event"
    },
    {
      "anonymous": false,
      "inputs": [
        {
          "indexed": false,
          "internalType": "uint256",
          "name": "bookingId",
          "type": "uint256"
        },
        {
          "indexed": false,
          "internalType": "string",
          "name": "reason",
          "type": "string"
        }
      ],
      "name": "DisputeRaised",
      "type": "event"
    },
    {
      "anonymous": false,
      "inputs": [
        {
          "indexed": false,
          "internalType": "uint256",
          "name": "bookingId",
          "type": "uint256"
        },
        {
          "indexed": false,
          "internalType": "bool",
          "name": "byHost",
          "type": "bool"
        },
        {
          "indexed": false,
          "internalType": "bool",
          "name": "byGuest",
          "type": "bool"
        }
      ],
      "name": "DisputeResolved",
      "type": "event"
    },
    {
      "anonymous": false,
      "inputs": [
        {
          "indexed": true,
          "internalType": "address",
          "name": "previousOwner",
          "type": "address"
        },
        {
          "indexed": true,
          "internalType": "address",
          "name": "newOwner",
          "type": "address"
        }
      ],
      "name": "OwnershipTransferred",
      "type": "event"
    },
    {
      "inputs": [],
      "name": "CHECK_IN_WINDOW",
      "outputs": [
        {
          "internalType": "uint256",
          "name": "",
          "type": "uint256"
        }
      ],
      "stateMutability": "view",
      "type": "function"
    },
    {
      "inputs": [],
      "name": "DISPUTE_RESOLUTION_WINDOW",
      "outputs": [
        {
          "internalType": "uint256",
          "name": "",
          "type": "uint256"
        }
      ],
      "stateMutability": "view",
      "type": "function"
    },
    {
      "inputs": [
        {
          "internalType": "uint256",
          "name": "_bookingId",
          "type": "uint256"
        },
        {
          "internalType": "uint256",
          "name": "_guestPercentage",
          "type": "uint256"
        }
      ],
      "name": "adminResolveDispute",
      "outputs": [],
      "stateMutability": "nonpayable",
      "type": "function"
    },
    {
      "inputs": [
        {
          "internalType": "uint256",
          "name": "",
          "type": "uint256"
        }
      ],
      "name": "bookings",
      "outputs": [
        {
          "internalType": "uint256",
          "name": "bookingId",
          "type": "uint256"
        },
        {
          "internalType": "string",
          "name": "propertyId",
          "type": "string"
        },
        {
          "internalType": "address",
          "name": "guest",
          "type": "address"
        },
        {
          "internalType": "address",
          "name": "host",
          "type": "address"
        },
        {
          "internalType": "uint256",
          "name": "checkInDate",
          "type": "uint256"
        },
        {
          "internalType": "uint256",
          "name": "checkOutDate",
          "type": "uint256"
        },
        {
          "internalType": "uint256",
          "name": "totalAmount",
          "type": "uint256"
        },
        {
          "internalType": "uint256",
          "name": "platformFee",
          "type": "uint256"
        },
        {
          "internalType": "uint256",
          "name": "hostAmount",
          "type": "uint256"
        },
        {
          "internalType": "enum BookingManager.BookingStatus",
          "name": "status",
          "type": "uint8"
        },
        {
          "internalType": "uint256",
          "name": "checkInWindowStart",
          "type": "uint256"
        },
        {
          "internalType": "uint256",
          "name": "checkInDeadline",
          "type": "uint256"
        },
        {
          "internalType": "uint256",
          "name": "disputeDeadline",
          "type": "uint256"
        },
        {
          "internalType": "bool",
          "name": "isCheckInComplete",
          "type": "bool"
        },
        {
          "internalType": "bool",
          "name": "isResolvedByHost",
          "type": "bool"
        },
        {
          "internalType": "bool",
          "name": "isResolvedByGuest",
          "type": "bool"
        },
        {
          "internalType": "string",
          "name": "disputeReason",
          "type": "string"
        },
        {
          "internalType": "string",
          "name": "bookingURI",
          "type": "string"
        },
        {
          "internalType": "string",
          "name": "paymentReference",
          "type": "string"
        },
        {
          "internalType": "bool",
          "name": "paidOffChain",
          "type": "bool"
        }
      ],
      "stateMutability": "view",
      "type": "function"
    },
    {
      "inputs": [
        {
          "internalType": "uint256",
          "name": "_bookingId",
          "type": "uint256"
        }
      ],
      "name": "cancelBooking",
      "outputs": [],
      "stateMutability": "nonpayable",
      "type": "function"
    },
    {
      "inputs": [
        {
          "internalType": "uint256",
          "name": "_bookingId",
          "type": "uint256"
        }
      ],
      "name": "checkIn",
      "outputs": [],
      "stateMutability": "nonpayable",
      "type": "function"
    },
    {
      "inputs": [
        {
          "internalType": "string",
          "name": "_propertyId",
          "type": "string"
        },
        {
          "internalType": "uint256",
          "name": "_checkInDate",
          "type": "uint256"
        },
        {
          "internalType": "uint256",
          "name": "_checkOutDate",
          "type": "uint256"
        },
        {
          "internalType": "uint256",
          "name": "_totalAmount",
          "type": "uint256"
        },
        {
          "internalType": "string",
          "name": "_bookingURI",
          "type": "string"
        }
      ],
      "name": "createBooking",
      "outputs": [
        {
          "internalType": "uint256",
          "name": "",
          "type": "uint256"
        }
      ],
      "stateMutability": "nonpayable",
      "type": "function"
    },
    {
      "inputs": [
        {
          "internalType": "string",
          "name": "_propertyId",
          "type": "string"
        },
        {
          "internalType": "uint256",
          "name": "_checkInDate",
          "type": "uint256"
        },
        {
          "internalType": "uint256",
          "name": "_checkOutDate",
          "type": "uint256"
        },
        {
          "internalType": "uint256",
          "name": "_totalAmount",
          "type": "uint256"
        },
        {
          "internalType": "string",
          "name": "_paymentReference",
          "type": "string"
        },
        {
          "internalType": "string",
          "name": "_bookingURI",
          "type": "string"
        }
      ],
      "name": "createBookingPaid",
      "outputs": [
        {
          "internalType": "uint256",
          "name": "",
          "type": "uint256"
        }
      ],
      "stateMutability": "nonpayable",
      "type": "function"
    },
    {
      "inputs": [
        {
          "internalType": "uint256",
          "name": "_bookingId",
          "type": "uint256"
        }
      ],
      "name": "escalateDispute",
      "outputs": [],
      "stateMutability": "nonpayable",
      "type": "function"
    },
    {
      "inputs": [],
      "name": "eurcToken",
      "outputs": [
        {
          "internalType": "contract IERC20",
          "name": "",
          "type": "address"
        }
      ],
      "stateMutability": "view",
      "type": "function"
    },
    {
      "inputs": [
        {
          "internalType": "address",
          "name": "_guest",
          "type": "address"
        }
      ],
      "name": "getGuestBookings",
      "outputs": [
        {
          "internalType": "uint256[]",
          "name": "",
          "type": "uint256[]"
        }
      ],
      "stateMutability": "view",
      "type": "function"
    },
    {
      "inputs": [
        {
          "internalType": "string",
          "name": "_propertyId",
          "type": "string"
        }
      ],
      "name": "getPropertyBookings",
      "outputs": [
        {
          "internalType": "uint256[]",
          "name": "",
          "type": "uint256[]"
        }
      ],
      "stateMutability": "view",
      "type": "function"
    },
    {
      "inputs": [
        {
          "internalType": "address",
          "name": "",
          "type": "address"
        },
        {
          "internalType": "uint256",
          "name": "",
          "type": "uint256"
        }
      ],
      "name": "guestBookings",
      "outputs": [
        {
          "internalType": "uint256",
          "name": "",
          "type": "uint256"
        }
      ],
      "stateMutability": "view",
      "type": "function"
    },
    {
      "inputs": [
        {
          "internalType": "uint256",
          "name": "_bookingId",
          "type": "uint256"
        }
      ],
      "name": "guestResolveDispute",
      "outputs": [],
      "stateMutability": "nonpayable",
      "type": "function"
    },
    {
      "inputs": [
        {
          "internalType": "string",
          "name": "_propertyId",
          "type": "string"
        },
        {
          "internalType": "uint256",
          "name": "_checkInDate",
          "type": "uint256"
        },
        {
          "internalType": "uint256",
          "name": "_checkOutDate",
          "type": "uint256"
        }
      ],
      "name": "hasBookingConflict",
      "outputs": [
        {
          "internalType": "bool",
          "name": "hasConflict",
          "type": "bool"
        }
      ],
      "stateMutability": "view",
      "type": "function"
    },
    {
      "inputs": [
        {
          "internalType": "uint256",
          "name": "_bookingId",
          "type": "uint256"
        }
      ],
      "name": "hostResolveDispute",
      "outputs": [],
      "stateMutability": "nonpayable",
      "type": "function"
    },
    {
      "inputs": [
        {
          "internalType": "address",
          "name": "forwarder",
          "type": "address"
        }
      ],
      "name": "isTrustedForwarder",
      "outputs": [
        {
          "internalType": "bool",
          "name": "",
          "type": "bool"
        }
      ],
      "stateMutability": "view",
      "type": "function"
    },
    {
      "inputs": [],
      "name": "owner",
      "outputs": [
        {
          "internalType": "address",
          "name": "",
          "type": "address"
        }
      ],
      "stateMutability": "view",
      "type": "function"
    },
    {
      "inputs": [
        {
          "internalType": "uint256",
          "name": "_bookingId",
          "type": "uint256"
        }
      ],
      "name": "processMissedCheckIn",
      "outputs": [],
      "stateMutability": "nonpayable",
      "type": "function"
    },
    {
      "inputs": [
        {
          "internalType": "string",
          "name": "",
          "type": "string"
        },
        {
          "internalType": "uint256",
          "name": "",
          "type": "uint256"
        }
      ],
      "name": "propertyBookings",
      "outputs": [
        {
          "internalType": "uint256",
          "name": "",
          "type": "uint256"
        }
      ],
      "stateMutability": "view",
      "type": "function"
    },
    {
      "inputs": [],
      "name": "propertyMarketplace",
      "outputs": [
        {
          "internalType": "contract PropertyMarketplace",
          "name": "",
          "type": "address"
        }
      ],
      "stateMutability": "view",
      "type": "function"
    },
    {
      "inputs": [],
      "name": "renounceOwnership",
      "outputs": [],
      "stateMutability": "nonpayable",
      "type": "function"
    },
    {
      "inputs": [
        {
          "internalType": "address",
          "name": "_treasury",
          "type": "address"
        }
      ],
      "name": "setTreasury",
      "outputs": [],
      "stateMutability": "nonpayable",
      "type": "function"
    },
    {
      "inputs": [
        {
          "internalType": "address",
          "name": "newOwner",
          "type": "address"
        }
      ],
      "name": "transferOwnership",
      "outputs": [],
      "stateMutability": "nonpayable",
      "type": "function"
    },
    {
      "inputs": [],
      "name": "treasury",
      "outputs": [
        {
          "internalType": "address",
          "name": "",
          "type": "address"
        }
      ],
      "stateMutability": "view",
      "type": "function"
    },
    {
      "inputs": [
        {
          "internalType": "uint256",
          "name": "_bookingId",
          "type": "uint256"
        }
      ],
      "name": "triggerCheckInWindow",
      "outputs": [],
      "stateMutability": "nonpayable",
      "type": "function"
    },
    {
      "inputs": [],
      "name": "trustedForwarder",
      "outputs": [
        {
          "internalType": "address",
          "name": "",
          "type": "address"
        }
      ],
      "stateMutability": "view",
      "type": "function"
    }
  ],
  "bytecode": "0x60a03461014757601f61306638819003918201601f19168301916001600160401b0383118484101761014c578084926080946040528339810103126101475761004781610162565b61005360208301610162565b9161006c606061006560408401610162565b9201610162565b916001600160a01b0361007d610176565b1693841561013157600080546001600160a01b031981168717825560405196916001600160a01b03909116907f8be0079c531659141344cd1fd0a4f28419497f9722a3daafe3b4186f6b6457e09080a3608052600180546001600160a01b03199081166001600160a01b039384161790915560028054821693831693909317909255600380549092169216919091179055612e9e90816101c88239608051818181611243015281816115470152612db70152f35b631e4fbdf760e01b600052600060045260246000fd5b600080fd5b634e487b7160e01b600052604160045260246000fd5b51906001600160a01b038216820361014757565b6080516001600160a01b03163314806101bc575b156101b85760131936013681116101a2573560601c90565b634e487b7160e01b600052601160045260246000fd5b3390565b50601436101561018a56fe610100604052600436101561001357600080fd5b60003560e01c8062f44ccd146120f95780630dca825e146120dd5780631dab301e14611f015780631f7a89391461170a57806320a68d25146115c7578063288c16091461157b578063572b6c05146115275780635c9808291461152257806361d027b3146114f957806363809aef14611482578063715018a61461142957806372beb510146112725780637da0a8771461122d5780638d1cc984146111c25780638da5cb5b146111995780638e60144a1461117057806393c02f22146108de578063a41cfa6914610885578063bae391d9146107a8578063c3ed62ce1461077f578063ccef7f33146105b3578063e95a644f14610469578063f0f44260146103d7578063f1161855146102a6578063f2c41b5a146101fc578063f2fde38b146101735763f3b0f3b91461014557600080fd5b3461016e57600036600319011261016e576002546040516001600160a01b039091168152602090f35b600080fd5b3461016e57602036600319011261016e5761018c6122dc565b610194612ccf565b6001600160a01b031680156101e657600080546001600160a01b03198116831782556001600160a01b0316907f8be0079c531659141344cd1fd0a4f28419497f9722a3daafe3b4186f6b6457e09080a3005b631e4fbdf760e01b600052600060045260246000fd5b3461016e57602036600319011261016e576004356001600160401b03811161016e576020610231610244923690600401612295565b8160405193828580945193849201612232565b8101600681520301902060405190816020825491828152019160005260206000209060005b8181106102905761028c856102808187038261216d565b604051918291826122f2565b0390f35b8254845260209093019260019283019201610269565b3461016e57602036600319011261016e57600435600081815260056020526040902060038101549091906001600160a01b03908116906102e4612db4565b16036103995760ff6009830154169060088210156103835760ff600d7f847a573abaa8875d3fe466d414094860f38be0ea3e161a0ef08c0acd955f7ea7946103306004606096146128e0565b610340600c820154421115612c4f565b01805461ff0019166101001780825560101c8216610375575b5460101c166040519182526001602083015215156040820152a1005b61037e83612d17565b610359565b634e487b7160e01b600052602160045260246000fd5b60405162461bcd60e51b81526020600482015260166024820152752737ba103a343290383937b832b93a3c9037bbb732b960511b6044820152606490fd5b3461016e57602036600319011261016e576103f06122dc565b6103f8612ccf565b6001600160a01b03168015610424576bffffffffffffffffffffffff60a01b6003541617600355600080f35b60405162461bcd60e51b815260206004820152601860248201527f496e76616c6964207472656173757279206164647265737300000000000000006044820152606490fd5b3461016e57602036600319011261016e57600435600081815260056020526040902060028101546104af906001600160a01b03908116906104a8612db4565b161461235a565b600981019160ff83541660088110156103835760010361057557600b820154421161053057600d6040927f70790c0ab38e2aca9b5520985fe66db2a3700c3680b61c3853b5554f67a2c31c94600260ff1982541617905501600160ff1982541617905561051a612db4565b82519182526001600160a01b03166020820152a1005b60405162461bcd60e51b815260206004820152601760248201527f436865636b2d696e2077696e646f7720657870697265640000000000000000006044820152606490fd5b60405162461bcd60e51b81526020600482015260166024820152752737ba103932b0b23c903337b91031b432b1b596b4b760511b6044820152606490fd5b3461016e57602036600319011261016e5760043580600052600560205260406000208181540361074157600981019160ff83541660088110156103835761070757600482015442106106c257600a820180546106735742905562015180420180421161065d577fd6c4872cc5d86d0c496ad388bbe994a94376b28276d219fb70019f84d4b3b76193600b60409401918255600160ff198254161790555482519182526020820152a1005b634e487b7160e01b600052601160045260246000fd5b60405162461bcd60e51b815260206004820152602160248201527f436865636b2d696e2077696e646f7720616c72656164792074726967676572656044820152601960fa1b6064820152608490fd5b60405162461bcd60e51b815260206004820152601960248201527f436865636b2d696e2064617465206e6f742072656163686564000000000000006044820152606490fd5b60405162461bcd60e51b8152602060048201526012602482015271426f6f6b696e67206e6f742061637469766560701b6044820152606490fd5b60405162461bcd60e51b8152602060048201526016602482015275109bdbdada5b99c8191bd95cc81b9bdd08195e1a5cdd60521b6044820152606490fd5b3461016e57600036600319011261016e576001546040516001600160a01b039091168152602090f35b3461016e57602036600319011261016e57600435600081815260056020526040902060028101549091906107ea906001600160a01b03908116906104a8612db4565b60ff6009830154169060088210156103835760ff600d7f847a573abaa8875d3fe466d414094860f38be0ea3e161a0ef08c0acd955f7ea7946108306004606096146128e0565b610840600c820154421115612c4f565b01805462ff00001916620100001780825560081c8216610877575b5460081c166040519182521515602082015260016040820152a1005b61088083612d17565b61085b565b3461016e57604036600319011261016e5761089e6122dc565b6001600160a01b031660009081526007602052604090208054602435919082101561016e576020916108cf9161232c565b90549060031b1c604051908152f35b3461016e5760a036600319011261016e576004356001600160401b03811161016e5761090e903690600401612295565b6044356084356001600160401b03811161016e57610930903690600401612295565b600154604051634df4795360e11b8152602060048201529193919060009082906001600160a01b031681806109686024820188612255565b03915afa80156110ef57600091600091611140575b5061098790612630565b6001600160a01b031661099b811515612672565b6001600160a01b036109ab612db4565b16908181146110fb576109c142602435116126be565b6109ce602435851161270a565b6109e46109de856024358661291d565b15612755565b6109ff620151806109f7602435876127b6565b0415156127c3565b6002546040516323b872dd60e01b60208201526024810184905230604482015260648035818301528152610a46916001600160a01b0316610a4160848361216d565b612e0d565b600154604051633375e33f60e21b815290602090829060049082906001600160a01b03165afa80156110ef5761ffff610a8f916103e8936000916110c0575b5016606435612828565b04610a9c816064356127b6565b90610aa860045461283b565b958660045560405193610aba85612151565b8785528660208601528560408601526060850152602435608085015260a084015260643560c084015260e0830152610100820152600061012082015260006101408201526000610160820152600061018082015260006101a082015260006101c082015260006101e0820152602094604051610b36878261216d565b60008152610200830152610220820152604051610b53868261216d565b60008152610240820152600061026082015283600052600585526040600020908051825560208101518051906001600160401b038211610f4e578190610ba982610ba06001880154612117565b60018801612861565b8890601f831160011461104f57600092611044575b50508160011b916000199060031b1c19161760018301555b60408101516002830180546001600160a01b039283166001600160a01b03199182161790915560608301516003850180549190931691161790556080810151600483015560a0810151600583015560c0810151600683015560e081015160078301556101008101516008808401919091556101208201519081101561038357610c629060098401612396565b610140810151600a830155610160810151600b830155610180810151600c830155610cdf600d8301610ca76101a08401511515829060ff801983541691151516179055565b6101c0830151815461ff00191690151560081b61ff00161781556101e0830151815462ff0000191690151560101b62ff000016179055565b600e82016102008201518051906001600160401b038211610f4e578190610d1082610d0a8654612117565b86612861565b8990601f8311600114610fdf57600092610fd4575b50508160011b916000199060031b1c19161790555b600f82016102208201518051906001600160401b038211610f4e578190610d6582610d0a8654612117565b8990601f8311600114610f6f57600092610f64575b50508160011b916000199060031b1c19161790555b601082016102408201518051906001600160401b038211610f4e57610dbe82610db88554612117565b85612861565b8890601f8311600114610eb657610e8a9694610e3494847fb21a131db9e3377301833ce70be73b950ef23b9d94873b831ac7bbee23314c389a989560119561026095600092610eab575b50508160011b916000199060031b1c19161790555b0151151591019060ff801983541691151516179055565b610e5b8560405188818651610e4c8183858b01612232565b810160068152030190206128a6565b8060005260078652610e718560406000206128a6565b60405192839286845260a08885015260a0840190612255565b906040830152602435606083015260643560808301520390a1604051908152f35b015190508e80610e08565b90601f19831691846000528a6000209260005b8c828210610f385750509460018560119561026095610e8a9c9a957fb21a131db9e3377301833ce70be73b950ef23b9d94873b831ac7bbee23314c389e9c99610e349b10610f1f575b505050811b019055610e1d565b015160001960f88460031b161c191690558e8080610f12565b6001859682939686015181550195019301610ec9565b634e487b7160e01b600052604160045260246000fd5b015190508980610d7a565b60008581528b81209350601f198516905b8c828210610fbe575050908460019594939210610fa5575b505050811b019055610d8f565b015160001960f88460031b161c19169055898080610f98565b6001859682939686015181550195019301610f80565b015190508980610d25565b60008581528b81209350601f198516905b8c82821061102e575050908460019594939210611015575b505050811b019055610d3a565b015160001960f88460031b161c19169055898080611008565b6001859682939686015181550195019301610ff0565b015190508880610bbe565b92506001850160005288600020906000935b8a601f19851686106110a757506001945083601f1981161061108e575b505050811b016001830155610bd6565b015160001960f88460031b161c1916905588808061107e565b8282015184559485019460019093019290910190611061565b6110e2915060203d6020116110e8575b6110da818361216d565b81019061280e565b89610a85565b503d6110d0565b6040513d6000823e3d90fd5b60405162461bcd60e51b815260206004820152601860248201527f43616e6e6f7420626f6f6b206f776e2070726f706572747900000000000000006044820152606490fd5b610987925061116291503d806000833e61115a818361216d565b8101906125bc565b50949350509050919061097d565b3461016e57604036600319011261016e57611189612ccf565b611197602435600435612a3c565b005b3461016e57600036600319011261016e576000546040516001600160a01b039091168152602090f35b3461016e57604036600319011261016e576004356001600160401b03811161016e576111f2903690600401612295565b61120e6020602435928160405193828580945193849201612232565b81016006815203019020805482101561016e576020916108cf9161232c565b3461016e57600036600319011261016e576040517f00000000000000000000000000000000000000000000000000000000000000006001600160a01b03168152602090f35b3461016e57602036600319011261016e5760043580600052600560205260406000206009810160ff8154166008811015610383576001036113eb57600b8201544211156113a657600460ff198254161790556201518042019182421161065d57600e827fe07ad455e24561261e9047aab2f668ae1fc2cc6fda35021764673613b888836d94600c6080950155016113098154612117565b601f8111611384575b50601e6e26b4b9b9b2b21031b432b1b596b4b760891b0190557f771ad1a63db62f3c96f995005dc4038b2d11173769793751c154afec8e3eed6d6020604051838152a160405190815260406020820152600f60408201526e26b4b9b9b2b21031b432b1b596b4b760891b6060820152a1005b6113a09082600052601f6020600020910160051c81019061284a565b84611312565b60405162461bcd60e51b815260206004820152601b60248201527f436865636b2d696e2077696e646f77206e6f74206578706972656400000000006044820152606490fd5b60405162461bcd60e51b81526020600482015260166024820152754e6f7420696e20636865636b2d696e2077696e646f7760501b6044820152606490fd5b3461016e57600036600319011261016e57611442612ccf565b600080546001600160a01b0319811682556001600160a01b03167f8be0079c531659141344cd1fd0a4f28419497f9722a3daafe3b4186f6b6457e08280a3005b3461016e57602036600319011261016e576001600160a01b036114a36122dc565b166000526007602052604060002060405190816020825491828152019160005260206000209060005b8181106114e35761028c856102808187038261216d565b82548452602090930192600192830192016114cc565b3461016e57600036600319011261016e576003546040516001600160a01b039091168152602090f35b6120f9565b3461016e57602036600319011261016e5760206115426122dc565b6040517f00000000000000000000000000000000000000000000000000000000000000006001600160a01b039081169216919091148152f35b3461016e57606036600319011261016e576004356001600160401b03811161016e576115bd6115b06020923690600401612295565b604435906024359061291d565b6040519015158152f35b3461016e57602036600319011261016e576004358060005260056020526040600020600981019060ff825416600881101561038357600461160891146128e0565b600c8101544211156116b757600d015460ff8160081c1690816116a9575b5061166457805460ff191660071790556040519081527f2dab28113e16ee2fb971a1376ce8421e58fc1c3d20d7acff8927a494fde0cdc090602090a1005b60405162461bcd60e51b815260206004820152601860248201527f4469737075746520616c7265616479207265736f6c76656400000000000000006044820152606490fd5b60ff915060101c1683611626565b60405162461bcd60e51b815260206004820152602560248201527f44697370757465207265736f6c7574696f6e2077696e646f77206e6f742065786044820152641c1a5c995960da1b6064820152608490fd5b3461016e5760c036600319011261016e576004356001600160401b03811161016e5761173a903690600401612295565b6084356001600160401b03811161016e57611759903690600401612295565b9060a4356001600160401b03811161016e57611779903690600401612295565b600154604051634df4795360e11b8152602060048201526001600160a01b0390911690600081806117ad6024820188612255565b0381855afa80156110ef57600491602091600091600091611ed9575b506117d390612630565b6001600160a01b0316926117e8841515612672565b6117f542602435116126be565b6118046024356044351161270a565b6118166109de6044356024358961291d565b61182b620151806109f76024356044356127b6565b604051633375e33f60e21b815292839182905afa80156110ef5761ffff611861916103e893600091611eba575016606435612828565b049261186f846064356127b6565b9361187b60045461283b565b9485600455611888612db4565b916040519461189686612151565b87865284602087015260018060a01b03841660408701526060860152602435608086015260443560a086015260643560c086015260e0850152610100840152600061012084015260006101408401526000610160840152600061018084015260006101a084015260006101c084015260006101e084015260209560405161191d888261216d565b6000815261020085015284610220850152806102408501526001610260850152856000526005875260406000208451815560208501518051906001600160401b038211610f4e578190611980826119776001870154612117565b60018701612861565b8a90601f8311600114611e4957600092611e3e575b50508160011b916000199060031b1c19161760018201555b60408501516002820180546001600160a01b039283166001600160a01b03199182161790915560608701516003840180549190931691161790556080850151600482015560a0850151600582015560c0850151600682015560e085015160078201556101008501516008808301919091556101208601519081101561038357611a399060098301612396565b610140850151600a820155610160850151600b820155610180850151600c820155611ab6600d8201611a7e6101a08801511515829060ff801983541691151516179055565b6101c0870151815461ff00191690151560081b61ff00161781556101e0870151815462ff0000191690151560101b62ff000016179055565b600e81016102008601518051906001600160401b038211610f4e578190611ae182610d0a8654612117565b8b90601f8311600114611dd757600092611dcc575b50508160011b916000199060031b1c19161790555b600f81016102208601518051906001600160401b038211610f4e578190611b3682610d0a8654612117565b8b90601f8311600114611d6557600092611d5a575b50508160011b916000199060031b1c19161790555b6102408501519485516001600160401b038111610f4e578896611b9382611b8a6010870154612117565b60108701612861565b8a90601f8311600114611cb157611c9b946011610260611c5d999686611c82977f4c0edc0c8794ba89c4649924f32b10a82065ad4e9fd335d0cb04cacc759d70d09d9b97611c1197600092611ca6575b50508160011b916000199060031b1c19161760108501550151151591019060ff801983541691151516179055565b611c2b886040518d8181610e4c8b83815193849201612232565b60018060a01b03831660005260078b52611c498860406000206128a6565b60405195869560c0875260c0870190612255565b906024358c870152604435604087015260643560608701528582036080870152612255565b83810360a08501526001600160a01b0390911696612255565b0390a3604051908152f35b015190503880611be3565b90601085016000528b6000209160005b8d601f1986168210611d41575050946011610260611c5d99966001877f4c0edc0c8794ba89c4649924f32b10a82065ad4e9fd335d0cb04cacc759d70d09d9b97611c1197611c9b9c611c829b601f19811610611d28575b505050811b016010850155610e1d565b015160001960f88460031b161c19169055388080611d18565b8383015185558d9b506001909401939283019201611cc1565b015190508b80611b4b565b60008581528d81209350601f198516908e5b828210611db4575050908460019594939210611d9b575b505050811b019055611b60565b015160001960f88460031b161c191690558b8080611d8e565b80600186978294978701518155019601940190611d77565b015190508b80611af6565b60008581528d81209350601f198516908e5b828210611e26575050908460019594939210611e0d575b505050811b019055611b0b565b015160001960f88460031b161c191690558b8080611e00565b80600186978294978701518155019601940190611de9565b015190508a80611995565b9250600184016000528a600020906000935b8c601f1985168610611ea157506001945083601f19811610611e88575b505050811b0160018201556119ad565b015160001960f88460031b161c191690558a8080611e78565b8282015184559485019460019093019290910190611e5b565b611ed3915060203d6020116110e8576110da818361216d565b88610a85565b6117d39250611ef391503d806000833e61115a818361216d565b5094935050905091906117c9565b3461016e57602036600319011261016e576004356000526005602052604060002080549060018101611f329061218e565b60e052600160a01b600190036002820154169181600160a01b600190036003820154166004820154946005830154936006840154926007850154600886015490600987015460ff1695600a88015498600b8901549b600c8a015495600d8b015460c052600e8b01611fa29061218e565b97611faf600f8d0161218e565b9b601001611fbc9061218e565b9d6011015460ff1660805260405160a05260a0515260a051602001610280905260a0516102800160e05190611ff091612255565b9860a0516040015260a0516060015260a0516080015260a05160a0015260a05160c0015260a05160e0015260a05161010001526008841015610383576120c6976120b3966120a09561012060a051015261014060a051015261016060a051015261018060a051015260ff60c0511615156101a060a051015260ff60c05160081c1615156101c060a051015260ff60c05160101c1615156101e060a051015260a051820361020060a0510152612255565b9060a051820361022060a0510152612255565b9060a051820361024060a0510152612255565b608051151561026060a051015260a051900360a051f35b3461016e57602036600319011261016e576111976004356123ae565b3461016e57600036600319011261016e576020604051620151808152f35b90600182811c92168015612147575b602083101461213157565b634e487b7160e01b600052602260045260246000fd5b91607f1691612126565b61028081019081106001600160401b03821117610f4e57604052565b90601f801991011681019081106001600160401b03821117610f4e57604052565b90604051918260008254926121a284612117565b808452936001811690811561221057506001146121c9575b506121c79250038361216d565b565b90506000929192526020600020906000915b8183106121f45750509060206121c792820101386121ba565b60209193508060019154838589010152019101909184926121db565b9050602092506121c794915060ff191682840152151560051b820101386121ba565b60005b8381106122455750506000910152565b8181015183820152602001612235565b9060209161226e81518092818552858086019101612232565b601f01601f1916010190565b6001600160401b038111610f4e57601f01601f191660200190565b81601f8201121561016e578035906122ac8261227a565b926122ba604051948561216d565b8284526020838301011161016e57816000926020809301838601378301015290565b600435906001600160a01b038216820361016e57565b602060408183019282815284518094520192019060005b8181106123165750505090565b8251845260209384019390920191600101612309565b80548210156123445760005260206000200190600090565b634e487b7160e01b600052603260045260246000fd5b1561236157565b60405162461bcd60e51b815260206004820152600d60248201526c139bdd081d1a194819dd595cdd609a1b6044820152606490fd5b9060088110156103835760ff80198354169116179055565b60008181526005602052604090206002810180549091906123dd906001600160a01b03908116906104a8612db4565b6009810160ff8154166008811015610383576125265760048201544210156124ec57805460ff19166005179055601181015460ff166124bd5760025491546008820180547fedc1198b595a44e20b4738f6c85854e2c9f704982f488658f4c765030f152656956040959094929361248693926124679290916001600160a01b039081169116612c94565b600254600354600790920154916001600160a01b039081169116612c94565b7ff774c001cb52a3566b767ed6e37c92706acb2b80a3ff6049e2849cd62725d08560208451848152a15482519182526020820152a1565b505060207ff774c001cb52a3566b767ed6e37c92706acb2b80a3ff6049e2849cd62725d08591604051908152a1565b60405162461bcd60e51b81526020600482015260126024820152715061737420636865636b2d696e206461746560701b6044820152606490fd5b60405162461bcd60e51b815260206004820152601560248201527443616e6e6f742063616e63656c20626f6f6b696e6760581b6044820152606490fd5b81601f8201121561016e5780516125798161227a565b92612587604051948561216d565b8184526020828401011161016e576125a59160208085019101612232565b90565b51906001600160a01b038216820361016e57565b9160c08383031261016e5782516001600160401b03811161016e57826125e3918501612563565b926125f0602082016125a8565b926125fd604083016125a8565b926060830151926080810151801515810361016e579260a08201516001600160401b03811161016e576125a59201612563565b1561263757565b60405162461bcd60e51b815260206004820152601360248201527250726f7065727479206e6f742061637469766560681b6044820152606490fd5b1561267957565b60405162461bcd60e51b815260206004820152601760248201527f50726f706572747920646f6573206e6f742065786973740000000000000000006044820152606490fd5b156126c557565b60405162461bcd60e51b815260206004820152601e60248201527f436865636b2d696e206d75737420626520696e207468652066757475726500006044820152606490fd5b1561271157565b606460405162461bcd60e51b815260206004820152602060248201527f436865636b2d6f7574206d75737420626520616674657220636865636b2d696e6044820152fd5b1561275c57565b60405162461bcd60e51b815260206004820152602c60248201527f426f6f6b696e6720646174657320636f6e666c6963742077697468206578697360448201526b74696e6720626f6f6b696e6760a01b6064820152608490fd5b9190820391821161065d57565b156127ca57565b606460405162461bcd60e51b815260206004820152602060248201527f426f6f6b696e67206d757374206265206174206c656173742031206e696768746044820152fd5b9081602091031261016e575161ffff8116810361016e5790565b8181029291811591840414171561065d57565b600019811461065d5760010190565b818110612855575050565b6000815560010161284a565b9190601f811161287057505050565b6121c7926000526020600020906020601f840160051c8301931061289c575b601f0160051c019061284a565b909150819061288f565b805468010000000000000000811015610f4e576128c89160018201815561232c565b819291549060031b91821b91600019901b1916179055565b156128e757565b60405162461bcd60e51b815260206004820152600e60248201526d4e6f7420696e206469737075746560901b6044820152606490fd5b6020612939919392938160405193828580945193849201612232565b81016006815203019020906040518083602082955493848152019060005260206000209260005b818110612a235750506129759250038361216d565b60005b8251811015612a1a57600060208260051b8501015181526005602052604081209060ff6009830154166008811015612a0657600581149182156129f9575b50506129f0576005810154851090816129e2575b506129d9576001905b01612978565b50505050600190565b6004915001548211386129ca565b506001906129d3565b60069250501438806129b6565b634e487b7160e01b82526021600452602482fd5b50505050600090565b8454835260019485019487945060209093019201612960565b9081600052600560205260406000206009810160ff815416600881101561038357600703612c115760648311612bd75760ff601183015416612b9157612adb906064600884015494612ace612a9d83612a95848a612828565b0480986127b6565b958715159687612b6c575b80612b47575b50600254600354600790920154916001600160a01b039081169116612c94565b03612b3f57600690612396565b7fe70f5cb5ecde9644c195a97cf45a506de023d1d170cd972f04441fafd993f1506020604051858152a1612b0d575050565b7fedc1198b595a44e20b4738f6c85854e2c9f704982f488658f4c765030f1526569160409182519182526020820152a1565b600390612396565b6002546003830154612b6692916001600160a01b039182169116612c94565b38612aae565b6002805490830154612b8c918b916001600160a01b039081169116612c94565b612aa8565b7fe70f5cb5ecde9644c195a97cf45a506de023d1d170cd972f04441fafd993f150939150612bce90606460209414600014612b3f57600690612396565b604051908152a1565b60405162461bcd60e51b8152602060048201526012602482015271496e76616c69642070657263656e7461676560701b6044820152606490fd5b60405162461bcd60e51b81526020600482015260166024820152752737ba1032b9b1b0b630ba32b2103a379030b236b4b760511b6044820152606490fd5b15612c5657565b60405162461bcd60e51b8152602060048201526016602482015275111a5cdc1d5d19481dda5b991bddc8195e1c1a5c995960521b6044820152606490fd5b60405163a9059cbb60e01b60208201526001600160a01b0390921660248301526044808301939093529181526121c791610a4160648361216d565b6000546001600160a01b0390811690612ce6612db4565b1603612cee57565b612cf6612db4565b63118cdaa760e01b60009081526001600160a01b0391909116600452602490fd5b60207fe70f5cb5ecde9644c195a97cf45a506de023d1d170cd972f04441fafd993f150918060005260058252604060002060098101600360ff1982541617905560ff601182015416612daa576002546003546007830154612bce9392612d89926001600160a01b039081169116612c94565b6002546003820154600890920154916001600160a01b039081169116612c94565b50604051908152a1565b337f00000000000000000000000000000000000000000000000000000000000000006001600160a01b03161480612e02575b15612dfe57601319360136811161065d573560601c90565b3390565b506014361015612de6565b906000602091828151910182855af1156110ef576000513d612e5f57506001600160a01b0381163b155b612e3e5750565b635274afe760e01b60009081526001600160a01b0391909116600452602490fd5b60011415612e3756fea2646970667358221220d0e32060b4d9ce14dfe39f535beaf9320eb0184d3536c8c581fa601545c26a7164736f6c634300081c0033",
  "linkReferences": {},
  "deployedLinkReferences": {}
}